:020000040800F2
:10000000880E00206D34000875340008773400082D
:10001000793400087B3400087D34000800000000BB
:100020000000000000000000000000007F34000815
:1000300081340008000000008334000897020008A3
:1000400087340008873400088734000887340008A4
:100050008734000887340008873400088734000894
:100060008734000887340008873400088734000884
:100070008734000887340008873400088734000874
:100080008734000887340008873400088734000864
:100090008734000887340008873400088734000854
:1000A0008734000887340008873400088734000844
:1000B0008734000887340008873400088734000834
:1000C0008734000887340008873400088734000824
:1000D0008734000887340008873400088734000814
:1000E0008734000887340008050A000887340008B0
:1000F00087340008873400088734000887340008F4
:1001000087340008873400088734000887340008E3
:1001100087340008873400088734000887340008D3
:1001200087340008873400088734000887340008C3
:1001300087340008873400088734000887340008B3
:100140008734000887340008873400085D0A0008F7
:100150008734000887340008873400088734000893
:100160008734000887340008873400088734000883
:100170008734000887340008873400088734000873
:10018000873400088734000800F002F800F05CF8BB
:100190000AA090E8000C82448344AAF10107DA45E2
:1001A00001D100F051F8AFF2090EBAE80F0013F0D8
:1001B000010F18BFFB1A43F001031847543F00001A
:1001C000743F00000A444FF0000C10F8013B13F09C
:1001D000070408BF10F8014B1D1108BF10F8015BA0
:1001E000641E05D010F8016B641E01F8016BF9D193
:1001F00013F0080F1EBF10F8014BAD1C0C1B09D1EA
:100200006D1E58BF01F801CBFAD505E014F8016B5B
:1002100001F8016B6D1EF9D59142D6D370470000ED
:100220000023002400250026103A28BF78C1FBD8FF
:10023000520728BF30C148BF0B6070471FB503F09D
:1002400062FF1FBD10B510BD03F027FF1146FFF779
:10025000F5FF00F0E3FA03F045FF03B4FFF7F2FF08
:1002600003BC03F049FF000001B545490098086050
:1002700000BF434800680028FBD108BD01B54FF41A
:100280007A71009848433E49086000BF3C480068C6
:100290000028FBD108BD3B480068401C3949086074
:1002A0003948006820B138480068401E3649086067
:1002B0003348006820B132480068401E3049086069
:1002C000704770B53148007800B170BD012003F06F
:1002D00068FB00BF03F08AFB0028FBD02C480068B5
:1002E0002C4AB0FBF2F1481EB0F1807F01D301200F
:1002F0001BE0481E4FF0E022506150170F220028EB
:1003000007DA13071D0E244B00F00F04241F1D55A0
:1003100003E013071C0E214B1C5400BF00204FF0BC
:10032000E022906107201061002008B100BFFEE7C5
:1003300001201649087000BFC7E7124800687047DF
:100340001148006870470F49086070470E490860FF
:1003500070470E48007800B970474FF0E020006900
:1003600040F002004FF0E021086100BFF4E74FF0D9
:10037000E020006920F002004FF0E02108617047A2
:100380000400002008000020000000200C000020D5
:10039000D001002040420F0018ED00E000E400E032
:1003A0001CB50121082003F0ADFC4FF47040009013
:1003B00000208DF8060001208DF8040000208DF843
:1003C000070003208DF805006946224803F0FCF978
:1003D0001CBD1CB50121084603F094FC01200090CF
:1003E00000208DF806008DF804008DF8070003202A
:1003F0008DF805006946184803F0E6F91CBD10B5F4
:1004000004462146134803F05BFA10BD10B50446BC
:100410002146104803F056FA10BD10B50446214697
:100420000C4803F058FA10BD10B50446214609489F
:1004300003F039FA012800D110BD0020FCE710B507
:100440000121054803F022FA012800D110BD002047
:10045000FCE70000000C02400000024008B5EA483A
:10046000EA4BEB4A01210090EA4802F0A6F802208C
:10047000E94908700846007808BDE74800787047E9
:1004800001460020087048708870C8700871487173
:10049000E148007870471CB50446DF480078012821
:1004A00001D002201CBD02208DF8000000208DF834
:1004B00001009DF80100217808438DF801009DF8A6
:1004C0000100617840EA4100C0B28DF801009DF85A
:1004D0000100A17840EA8100C0B28DF80100E07807
:1004E0008DF8020020798DF8030060798DF8040002
:1004F00005226946C74802F026FB0120D2E71CB559
:10050000002000900190C4480078012801D002200A
:100510001CBD02208DF8000005226946BD4802F08E
:1005200012FB0120F4E70146002008704870887033
:10053000C870087148718871C871087248728872F1
:10054000C872087348738873C873087448748874D1
:10055000C874B148007870477CB505460C46AE4873
:100560000078012801D002207CBD8DF800500020C9
:100570008DF801009DF80100217808438DF80100F5
:100580009DF80100617840EA4100C0B28DF8010099
:100590009DF80100A17840EA8100C0B28DF8010009
:1005A0009DF80100E17840EAC100C0B28DF8010079
:1005B0009DF80100217940EA0110C0B28DF80100D8
:1005C0009DF80100617940EA4110C0B28DF8010048
:1005D0009DF80100A17940EA8110C0B28DF80100B8
:1005E0009DF80100E17940EAC110C0B28DF8010028
:1005F00000208DF802009DF80200217A08438DF852
:1006000002009DF80200617A40EA4100C0B28DF814
:1006100002009DF80200A17A40EA8100C0B28DF884
:1006200002009DF80200E17A40EAC100C0B28DF8F4
:1006300002009DF80200217B40EA0110C0B28DF853
:1006400002009DF80200617B40EA4110C0B28DF8C3
:1006500002009DF80200A17B40EA8110C0B28DF833
:1006600002009DF80200E17B40EAC110C0B28DF8A3
:100670000200207C8DF80300607C8DF80400A07CD3
:100680008DF80500E07C8DF8060007226946614878
:1006900002F059FA012067E71CB5044600200090DB
:1006A00001905D480078012801D002201CBD8DF822
:1006B000004007226946574802F045FA0120F5E755
:1006C00001460020087048708870C8700871487131
:1006D0008871C871087248728872C872087348734A
:1006E0004D48007870473EB50446002000900190C8
:1006F000029049480078012801D002203EBD012027
:100700008DF8000000208DF801009DF8010021788F
:1007100008438DF801009DF80100A17840EA4100EE
:10072000C0B28DF801009DF80100617840EA8100B7
:10073000C0B28DF801009DF80100E17840EAC100E7
:10074000C0B28DF801009DF80100217940EA011046
:10075000C0B28DF801009DF80100A17940EA411076
:10076000C0B28DF801009DF80100617940EA811066
:10077000C0B28DF801009DF80100E17940EAC11096
:10078000C0B28DF8010000208DF80200207A8DF8AB
:100790000300607A8DF80400A07A8DF80500E07AF5
:1007A0008DF80600207B8DF80700607B8DF808002F
:1007B00009226946174802F0C6F901209EE70EB5E6
:1007C000002000900190029013480078012801D089
:1007D00002200EBD01208DF80000092269460D4857
:1007E00002F0B1F90120F4E770B504460D460A485D
:1007F0000078012801D0022070BD2A462146054814
:1008000002F0A1F90120F7E7B001002080000020EC
:100810004400002034020020CC01002090B00024CD
:1008200002F0B2FEFFF7BCFDFFF7D3FDFFF749FD75
:10083000FFF714FE6846FFF723FE0CA8FFF740FF02
:1008400007A8FFF770FE02A8FFF76DFE28E0FFF78C
:1008500014FE012820D10003FFF7D1FDFFF7EFFDC3
:1008600058B154B9012401208DF8330015208DF8BA
:1008700038000CA8FFF737FF12E0FFF7E0FD78B96A
:10088000012C0DD1002400208DF833008DF83800A4
:100890000CA8FFF728FF03E04FF48050FFF7B6FDE8
:1008A000D5E7000010B586B004460121084603F0E4
:1008B00029FA4FF4C050049003208DF8150002204F
:1008C0008DF8140000208DF816008DF8170004A98B
:1008D000654802F079FF0A220B21634802F0FFFF0E
:1008E0000A220C21604802F0FAFF4FF400700490D5
:1008F00003208DF8150000208DF8140001208DF8DC
:10090000160000208DF8170004A9574802F05CFF7C
:100910004FF48060049001208DF816008DF81700C8
:1009200003208DF8150004A94F4802F04DFF0A225C
:1009300011464D4802F0D3FF0121880303F03CFA31
:100940000121802003F0EFF90121080703F078FA74
:100950004FF4802003F095FB4FF48020029000209C
:100960008DF80C0008208DF80D0001208DF80E0088
:1009700002A803F015FB4FF4802003F082FB2A202D
:100980008DF8040001208DF8050004208DF8060084
:1009900001208DF8070001A802F0FDFC4FF4802033
:1009A00003F06FFB06B010BD38B504464FF4C060CD
:1009B00002F0ECFC43208DF8000001208DF80100CE
:1009C00003208DF8020001208DF80300684602F034
:1009D000E2FC38BD10B50022C0EB00139B000724D9
:1009E000B3FBF4F100BF531C1A468B4200D910BD73
:1009F000F9E710B504464FF47A7104FB01F0FFF7F4
:100A0000E9FF10BD10B51948807A10B31848006886
:100A100020F0060016490860012002F0C2FF00BF66
:100A2000312002F0C5FF0028FAD0012003F031F890
:100A300000BF392002F0BCFF0028FAD0022003F0EA
:100A400061F800BF03F068F80828FBD1074800F000
:100A5000FCFE4FF4802003F014FB10BD10B50348DA
:100A600001F025FD10BD000000000240340200200E
:100A700010ED00E008B500210091491EC2685160E8
:100A80006FF08041C2685161009921F0004101F18D
:100A900000410091009921F4006101F5006100918D
:100AA0000099C268916108BDF8B50446002600258A
:100AB0000020009000BF0320FFF78CFFE068006972
:100AC0000090681C0546F949884201D90020F8BD0C
:100AD0000098C00F0028EED00025009820F00100FB
:100AE000401C00900098E168086100BFE068006960
:100AF0000090681C0546ED49884200D904E0009842
:100B000000F001000028F1D100BF0320FFF762FFD1
:100B10003046DCE72DE9F04104460026E078B0B924
:100B200000270020DD1C4FEAE57805EB98784FEAB6
:100B3000A80704F1D00555F822C000BF04E00D68F5
:100B4000CCF80050401C091DB842F8D300BF304615
:100B5000BDE8F081F0B503460024D01CC71700EBB8
:100B60009777BD10D3F8D06000BF03E0306808600D
:100B7000641C091DAC42F9D30846F0BD70B50246AD
:100B80000C46002300200025D570012595704025D6
:100B90009580012C0ED14FF0A0430125D572082578
:100BA0001570042555709D15D580022515720125F7
:100BB00095720AE04CB9BE4B0025D5720C25157014
:100BC000062555704FF4A065D580D36003F5006508
:100BD0001561002110E003F5106505EB411602F1E7
:100BE000180545F8216003F5306505EB411602F163
:100BF000540545F82160491C55788D42EBD803F522
:100C0000806555614035C2F8CC50002108E003F5FD
:100C1000A06505EB411602F1900545F82160491CDD
:100C200015788D42F3D8002108E003F5805505EBD7
:100C3000013602F1D00545F82160491C15788D4236
:100C4000F3D803F56065C2F80C5170BD3EB504469B
:100C500000250020029001900090207A01283DD1CB
:100C6000E068806B0190019820F480300190607AF8
:100C700028B1019820F4801000F5801001900198AF
:100C8000E168886300200290E068C06802900298E2
:100C900020F040000290029820F480000290029818
:100CA00020F400300290029820F400200290029874
:100CB000E168C8602046FFF7F7FEE07801283DD1E3
:100CC000009820F01E000A300090009820F02000CC
:100CD000203000900098E16888602FE0E068C068EC
:100CE0000290029820F04000403002900298E168A3
:100CF000C8602046FFF7D8FE00200190019820F43C
:100D0000803000F580300190019820F4802000F5BB
:100D100080200190019820F4002000F5002001902F
:100D2000607A28B1019820F4801000F580100190BD
:100D30000198E16888631420FFF75BFEE0780128E2
:100D40000FD1E06880680090009820F01E000A3003
:100D50000090009820F02000203000900098E1687A
:100D6000886028463EBD08B501460020002200925A
:100D7000009A22F00102521C0092CA689268009BFD
:100D80001A43CB689A6008BD08B5014600200022CE
:100D90000092009A22F00102521C0092CA689268E6
:100DA000009B9A43CB689A6008BDF8B504460D468F
:100DB0000026002700200090009820F0200020301E
:100DC0000090009865F38A1000900098E16808612F
:100DD00000BFE06800690090781C074633498842EC
:100DE00000D904E00098C0F340100028F1D100BF02
:100DF0000320FFF7EFFD3046F8BDF8B504460025A7
:100E0000002600200090009820F010001030009084
:100E10000098E168086100BFE06800690090701CFC
:100E200006462249884200D904E00098C0F3001029
:100E30000028F1D100BF0320FFF7CCFD2846F8BD04
:100E4000F8B504460D460026E068C068009000989A
:100E500020F000500090009820F080400090012D7C
:100E600006D1009820F0005000F10050009006E0FC
:100E70002DB9009820F0804000F18040009000984B
:100E8000E168C8603220FFF7B4FD3046F8BD014686
:100E9000C868406900F00100704700B5024610467E
:100EA000FFF7F5FF012805D0012000BD400D03002C
:100EB000000004400020F8E700B502461046FFF7A6
:100EC000E6FF012800D100BD0020FCE7014600201C
:100ED000CA685069CA689269104070470146C8687C
:100EE0004068704708B5026912680092009A61F381
:100EF00001020092009B0269136008BD38B50446E8
:100F0000002500200090E16888616FF08040E16872
:100F100048612046FFF7AEFDE07820B9009820F048
:100F2000100010300090009820F4006000F5006080
:100F30000090009820F4805000F5805000900098B8
:100F400020F4005000F500500090009820F480201C
:100F500000F580200090009820F4002000F500208B
:100F60000090009820F0080008300090009820F4CD
:100F7000801000F580100090009820F4001000F51B
:100F800000100090009820F0804000F18040009018
:100F9000009820F00400001D0090E068806900992E
:100FA00088430843E1688861284638BD70B588B039
:100FB00004460026002007900690059004900390B8
:100FC0000021D4F80C0101602069006806900698A1
:100FD00020F4C0500690069920690160E07A01284B
:100FE0003DD103212046FFF77DFF8020E168486264
:100FF000059880B200F58000059005986FF30F000A
:10100000803005900598E1688862059800EB1041F2
:10101000049861F30F000490049880B200F500007A
:1010200004900498E168C1F80401049800EB1041B1
:1010300061F30F000490049880B204900499E06872
:10104000C0F80811049800EB104161F30F00049000
:10105000049880B204900499E068C0F80C11102143
:101060002046FFF7A2FE2046FFF7C7FE00212069B9
:10107000016120694161491E206981610021206967
:10108000C16100252CE004F1180050F8250000682B
:1010900007900798C00F70B100200790079820F0C4
:1010A000804000F180400790079820F0006000F138
:1010B0000060079001E00020079004F1180050F84C
:1010C000250007990160002104F1180050F825005F
:1010D0000161FF2104F1180050F8250081606D1CAA
:1010E0006078A842CFD800252CE004F1540050F8D5
:1010F0002500006801900198C00F70B10020019098
:10110000019820F0804000F180400190019820F08B
:10111000006000F10060019001E00020019004F106
:10112000540050F8250001990160002104F1540099
:1011300050F825000161FF2104F1540050F825000A
:1011400081606D1C6078A842CFD80020039003987E
:1011500020F4807000F58070039020690069039985
:101160008843084321690861E07801281DD10020E7
:101170000290029820F00100401C0290029820F09A
:101180000200801C02904021029861F38A000290C4
:10119000029820F4803000F580300290029861F3CC
:1011A000594002900299206901632046FFF7A6FE8C
:1011B000304608B070BD08B5014600200A69926843
:1011C0000092009AC2F3410232B1012A06D0022AEB
:1011D00007D0032A07D102E0032004E000BF022069
:1011E00001E0012000BF00BF08BD0EB50146002090
:1011F000002200920A69926802928A69126801923A
:10120000029AC2F3410232B1012A05D0022A09D062
:10121000032A0DD101E000BF00BF019A6FF30A025B
:10122000019205E0019A6FF30A02D21C019200BFFD
:1012300000BF019B8A691360009A22F4807202F554
:10124000807200920A695268009B9A431A430B69A4
:101250005A600EBD3CB50246002000240194009463
:101260004C78012C0CD10D7802F1180454F825307B
:101270000D780124AC40009D64F30F0500950BE050
:101280000D7802F1540454F825300D780124AC4057
:10129000009D64F31F4500951C680194019CC4F3F4
:1012A000C034E4B90D89019C65F30A040194CD783A
:1012B000019C65F3934401948D79019C65F39954E5
:1012C0000194019C24F0805404F180540194019C09
:1012D00024F4004404F500440194019C1C6014694A
:1012E000E469009D2C431569EC613CBD3CB50246A8
:1012F00000200024019400944C78012C0CD10D782E
:1013000002F1180454F825300D780124AC40009DFA
:1013100064F30F0500950BE00D7802F1540454F8C6
:1013200025300D780124AC40009D64F31F450095E5
:10133000019C24F400440194019C1C601469E4693C
:10134000009DAC431569EC613CBDFEB505460C46FD
:1013500000260027002002900190607801287DD1AE
:10136000217805F1180050F82100006802902178DA
:1013700005F1180050F8210000690190606948B932
:1013800001986FF3120001900121019861F3DC4094
:10139000019017E06169019861F3120001906069A2
:1013A000401EA1680844B0FBF1F1019861F3DC40F4
:1013B0000190E078012805D1019820F0C04000F1AB
:1013C00000500190227805F1180050F82200019990
:1013D0000161E878012807D1227805F1180050F85A
:1013E0002200216941610DE0E07801280AD060699E
:1013F00040B12178012000FA01F72869406B384399
:1014000029694863E078012813D128698068009031
:101410000098C0F3002030B9029820F0005000F18D
:101420000050029005E0029820F0805000F18050BA
:101430000290029820F0806000F180600290029893
:1014400020F0004000F100400290227805F11800E1
:1014500050F8220002990160E07800E009E00128DC
:101460006CD1A08A83B222782846E168FFF752FB4C
:1014700064E0217805F1540050F8210000680290E2
:10148000217805F1540050F821000069019060694D
:1014900050B9A168019861F31200019001210198EF
:1014A00061F3DC40019013E0A068401E61690844CC
:1014B000A168B0FBF1F1019861F3DC400190019863
:1014C000C0F3C940A1684843019960F3120101913A
:1014D000227805F1540050F8220001990161E87862
:1014E000012806D1227805F1540050F82200216924
:1014F0004161E07801280ED1607930B1029820F086
:10150000005000F10050029005E0029820F0805059
:1015100000F180500290029820F0806000F180601D
:101520000290029820F0004000F1004002902278E2
:1015300005F1540050F82200029901603046FEBDCA
:10154000FEB50246002000240025029500954D7846
:10155000012D52D193691D6802951D6900954D6951
:1015600055B9009D25F07F050095009D25F4C01517
:1015700005F50025009516E08E684D69B54207D93E
:101580008D684D610E7A009D66F30605009504E0B6
:101590000E7D009D66F306050095009D25F4C0159F
:1015A00005F500250095009D1D61D578012D06D11A
:1015B0000F7802F1180555F827500E696E61029DEB
:1015C00025F0806505F180650295029D25F00045B6
:1015D00005F100450295029D1D60D578002D59D179
:1015E0004D69002D56D00E780125B5402C43156964
:1015F0006D6B2543166975634CE00E7802F1540556
:1016000055F826502D6802950E7802F1540555F8CC
:1016100026502D6900954D695DB90E7A009D66F3DF
:1016200006050095009D25F4C01505F500250095DB
:101630000CE08D684D610E7A009D66F306050095FD
:10164000009D25F4C01505F5002500950F7802F1E1
:10165000540555F82750009E2E61D578012D06D1EE
:101660000F7802F1540555F827500E696E61029DFE
:1016700025F0806505F180650295029D25F0004505
:1016800005F1004502950F7802F1540555F82750F1
:10169000029E2E60FEBD38B503460A460020002497
:1016A00000945478012C18D1157803F1180454F8DB
:1016B00025100C680094009CE40F2CB1009C24F0D1
:1016C000804404F180440094009C24F4001404F548
:1016D00000140094009C0C600EE0157803F1540493
:1016E00054F825100C680094009C24F4001404F5B0
:1016F00000140094009C0C6038BD38B503460020EF
:10170000002400944C78012C05D10D7803F11804C5
:1017100054F8252004E00D7803F1540454F82520F2
:1017200014680094009C24F400140094CC78032CDA
:1017300002D0CC78022C05D1009C24F0805404F116
:1017400080540094009C146038BD01460869826989
:101750000869C0690240100C7047024602F1540348
:1017600053F82130986813695B6918407047014647
:10177000086982690869C069024090B270470EB575
:1017800000210191019921F04041A1F18041019195
:10179000019921F4C01101F500210191019921F075
:1017A0007F0118310191019A416D0A61C1780129C7
:1017B00015D10021009100F2CC51426D5161416D73
:1017C00009680091009921F0004101F10041009168
:1017D0004FF080210091009A416D0A6000BF0EBD5C
:1017E0003EB504464FF48C70005968B32069806898
:1017F0000190019800F0010030B3A07A70B1D4F8E4
:101800000C010090009820F002000090009820F059
:10181000010000900099D4F80C01016000200290B2
:10182000029820F00100401C029020694068029953
:101830000843216948600520FFF7DBF8206940680C
:1018400002998843216948603EBD0CB5817AB1B1E7
:10185000016989680191019901F0010171B1D0F824
:101860000C110091009921F002010091009921F0E2
:1018700001010091009AD0F80C110A6000BF0CBD64
:1018800070B5044601214FF48970015500250BE025
:10189000FF2104F1180050F82500816004F1540084
:1018A00050F8250081606D1C6078A842F0D80021B6
:1018B00020690161206941612069C161491E206977
:1018C00081612046FFF799FA10212046FFF76DFA53
:1018D00070BD38B503460020002400944C78012CDC
:1018E00014D10D7803F1180454F8252014680094DD
:1018F000009CC4F340540CB110201EE0009CC4F3C3
:1019000040440CB1202018E0302016E00D7803F19F
:10191000540454F8252014680094009CC4F34054E7
:1019200014B14FF4805008E0009CC4F3404414B15B
:101930004FF4005001E04FF4405038BDF8B5074671
:101940000D46144600200090687801283CD1297883
:1019500007F1180050F8216030680090102C04D175
:1019600029463846FFF797FEF8BD202C06D100988F
:1019700020F0006000F10060009068E0302C1DD184
:101980000098C0F3405030B10020687129463846B5
:10199000FFF7B3FEE8E7009820F0806000F1806078
:1019A0000090009820F4004000F50040009000985E
:1019B00020F0004000F10040009048E0ECBB0098AF
:1019C00020F40040009042E0297807F1540050F8DC
:1019D000216030680090B4F5805F06D1009820F453
:1019E000001000F50010009031E0B4F5005F06D162
:1019F000009820F0006000F10060009027E0B4F54E
:101A0000405F1FD10098C0F3405030B10020687192
:101A100029463846FFF771FEA6E7009820F080605F
:101A200000F180600090009820F4004000F5004034
:101A30000090009820F0004000E008E000F1004035
:101A4000009004E01CB9009820F400400090009839
:101A5000306000BF88E72DE9F04106460F46394661
:101A60003046FFF78BF801214FF489708155002132
:101A7000801C8155002511E005EB850106F58E706F
:101A800000EBC104012060702570E5800020E0704B
:101A90004020A0600020E06060616D1C7078A8426A
:101AA000EAD8002510E005EB850106F55D7000EB36
:101AB000C104002060702570E580E0704020A060C7
:101AC0000020E06060616D1C7078A842EBD8304661
:101AD000FFF75AF93046FFF7B9F800213046FFF713
:101AE000AFF93046FFF762FA3046FFF73CF9BDE840
:101AF000F0812DE9F04106460D4690461F4605F05F
:101B00008000802808D105F07F0000EB800106F5F9
:101B10008E7000EBC10407E005F07F0000EB800150
:101B200006F55D7000EBC10405F07F00207005F044
:101B30008000C0096070C4F80880E770607808B160
:101B40002078E080022F01D100202071214630460C
:101B5000FFF780FB0020BDE8F08170B506460C461B
:101B600004F08000802808D104F07F0000EB8001A1
:101B700006F58E7000EBC10507E004F07F0000EB76
:101B8000800106F55D7000EBC10504F07F00287050
:101B900004F08000C009687029463046FFF7A6FBB4
:101BA000002070BD2DE9F04105460E4617469846C7
:101BB00006F07F0000EB800105F55D7000EBC104CD
:101BC000E760C4F814800020A061607006F07F0018
:101BD0002070E878012800D12761207820B92146BB
:101BE0002846FFF7ADFC03E021462846FFF7ADFB92
:101BF0000020BDE8F0812DE9F04107460D4616466C
:101C0000984605F07F0000EB800107F58E7000EB31
:101C1000C1040120607005F07F002070E66026613D
:101C20000020A061C4F81480207820B921463846ED
:101C3000FFF786FC03E021463846FFF786FB0020CD
:101C4000BDE8F08170B506460C4604F0800080289F
:101C500008D104F07F0000EB800106F58E7000EBE8
:101C6000C10505E004EB840106F55D7000EBC105DC
:101C70000120A87004F07F002870C4F3C0106870C1
:101C800029463046FFF707FD002070BD70B50646B7
:101C90000C4604F08000802808D104F07F0000EB9F
:101CA000800106F58E7000EBC10505E004EB8401B0
:101CB00006F55D7000EBC1050020A87004F07F0000
:101CC0002870C4F3C010687029463046FFF715FD30
:101CD000002070BD70B505460C4604F080008028D9
:101CE00005D104F07F012846FFF75FF802E028469F
:101CF000FFF783F8002070BD08B500220092009A1B
:101D000061F30A12009202691268009B1A43036988
:101D10001A6008BD38B504462069406800900098F4
:101D200020F0020000900099206941600320FEF736
:101D300060FE38BD38B504462069406800900098C0
:101D400020F00200801C009000992069416003206F
:101D5000FEF74FFE38BD2DE9F04105460C46002741
:101D600004F08000802808D104F07F0000EB80019F
:101D700005F58E7000EBC10605E004EB840105F566
:101D80005D7000EBC10631462846FFF7A2FD07460D
:101D90003846BDE8F0812DE9F04105460C4617466E
:101DA00004F08000802808D104F07F0000EB80015F
:101DB00005F58E7000EBC10605E004EB840105F526
:101DC0005D7000EBC1063A4631462846FFF7B6FD86
:101DD000BDE8F08138B50446E0684068009000989E
:101DE000C0F3800020B1FE480068816A2046884721
:101DF0000098E1684860012038BD38B50446F848CD
:101E00000068416A2046884700200090009820F032
:101E1000804000F1804000900098E1684861012016
:101E200038BD38B5044600200090ED480068016ACE
:101E300020468847009820F4001000F5001000901C
:101E40000098E1684861012038BD38B5044600209B
:101E50000090E3480068C16920468847009820F454
:101E6000801000F5801000900098E1684861012022
:101E700038BD1CB504462046FFF7B7F9E068C068D6
:101E800000902046FFF797F903280BD10020A0709F
:101E90004FF40070A080009820F4705000F51050AE
:101EA000009009E00120A0704020A080009820F45C
:101EB000705000F5A05000900098E168C8600020C4
:101EC0000190019820F4005000F500500190019815
:101ED000E168486101201CBD30B587B00446002090
:101EE000029006900590049003900190029820F0D3
:101EF0000100401C029020694068029988432169D2
:101F0000486000212046FEF750FF00250BE0FF212E
:101F100004F1180050F82500816004F1540050F8D5
:101F2000250081606D1C6078A842F0D84FF0FF3129
:101F30002069816106986FF30F00401C0690069897
:101F400080B200F58030069006992069C16105983D
:101F500020F0080008300590059820F00100401C92
:101F60000590059820F00200801C059005992069D5
:101F70004161049820F00100401C0490049820F076
:101F8000080008300490049820F00200801C04909F
:101F9000049920690161206900680390039820F486
:101FA000FE6003900399206901602046FFF7E7FB7C
:101FB00000200190019820F4805000F5805001909D
:101FC0000198E168486186480068016920468847B1
:101FD000012007B030BD7CB5044600200190019877
:101FE00020F0100010300190E0688069019988436A
:101FF000E1688861E068006A0090009800F00F00D6
:1020000000EB800104F55D7000EBC1050098C0F3A2
:10201000434007282DD2DFE800F02C04051D1E2CBC
:102020001F0027E00098C0F30A1090B10098C0F399
:102030000A122046E968FEF78DFDE8680099C1F3B1
:102040000A110844E860A8690099C1F30A1108441C
:10205000A8610FE00EE00DE0082204F2CC5120460A
:10206000FEF778FDA8690099C1F30A110844A86138
:1020700000E000BF00BFE068806901990843E168A3
:10208000886101207CBD38B5044655480068C168A8
:102090002046884700200090009820F00800083073
:1020A00000900098E1684861012038BD1FB50446E2
:1020B000002000904FF48970005D0090484800684F
:1020C000416920468847206980680190002003907C
:1020D000039820F4006000F5006003900398E16825
:1020E0004861A07A70B3019800F0010050B340F24B
:1020F0001510005D012825D19DF80000032821D18D
:1021000000200290029820F00100401C0290D4F8B8
:102110000C01006802990843D4F80C110860029879
:1021200020F00200801C0290D4F80C010068029993
:102130000843D4F80C1108602A48006840F00600F3
:1021400028490860012004B010BD3EB50446A07ABD
:1021500070B1D4F80C010090009820F002000090BB
:10216000009820F0010000900099D4F80C01016063
:1021700000200190019820F00100401C019020698E
:102180004068019988432169486015480068816961
:102190002046884700200290029820F0004000F17D
:1021A000004002900298E168486101203EBD2DE99F
:1021B000F84307460E4600250020009006EB8601F6
:1021C00007F58E7000EBC104D4E90501451AA0683B
:1021D000A84200D2A568E81C4FEA900804E000007D
:1021E0004000002010ED00E007F1180050F8260034
:1021F000806900901BE0D4E90501451AA068A84257
:1022000000D2A568E81C4FEA9008ABB2F2B238469B
:10221000E168FEF77FFCE0682844E060A06928449C
:10222000A06107F1180050F826008069009000981E
:1022300080B2404506D9D4E90510884202D26069CF
:102240000028D8D10120BDE8F88330B502461569D1
:102250002B6915696C6B24FA01F505F0010543EA59
:10226000C51302F1180555F82150AD6805EA0300C1
:1022700030BDF8B505460024002000902846FFF741
:1022800076FA064690E006F0010000287ED0E1B222
:102290002846FFF7DAFF0090009800F0010030B305
:1022A000012000FA04F72869406BB84329694863A4
:1022B00000200090009820F00100401C009005F1E3
:1022C000180050F8240000998160E1B2B848006815
:1022D000426828469047E878012808D13CB940F286
:1022E0001110405D042802D12846FFF748FA0098F3
:1022F000C0F3C00060B100200090009820F00800FA
:102300000830009005F1180050F824000099816011
:102310000098C0F3001060B100200090009820F0F9
:1023200010001030009005F1180050F824000099BA
:1023300081600098C0F3801060B100200090009888
:1023400020F040004030009005F1180050F82400C3
:10235000009981600098C0F3400060B100200090B7
:10236000009820F00200801C009005F1180050F841
:102370002400009981600098C0F3C01030B121465C
:102380002846FFF714FF0020009000E00AE00098C4
:1023900020F080008030009005F1180050F82400F3
:1023A00000998160641C7608002E7FF46CAF0120D8
:1023B000F8BD7CB504460025002001902046FFF7BB
:1023C000C4F906466FE006F00100002869D0E9B2C2
:1023D0002046FFF7C2F90190019800F00100C8B350
:1023E00000200190019820F00100401C019004F1B0
:1023F000540050F8250001998160E078012817D138
:1024000004F1540050F825000069009005EB8501A7
:1024100004F55D7000EBC10080680099C1F3120102
:10242000411A05EB850204F55D7000EBC200816185
:10243000E9B25F480068026820469047E0780128CA
:1024400008D13DB940F21110005D052802D12046A7
:10245000FFF795F90198C0F3400060B100200190AA
:10246000019820F00200801C019004F1540050F803
:102470002500019981600198C0F3C00088B14C48E3
:10248000006881682046884700200190019820F06C
:1024900008000830019004F1540050F8250001991B
:1024A00081606D1C7608002E8DD101207CBD7CB52D
:1024B000054600242846FEF7F0FC002875D0284683
:1024C000FEF704FD0190019808B900207CBD019839
:1024D000C0F3C04018B12846FFF76BFF04430198D2
:1024E000C0F3804018B12846FFF7C3FE04430198AB
:1024F000C0F3400050B100200090009820F002008E
:10250000801C00900098E968486100BF0198C00FE6
:1025100018B12846FFF719FE04430198C0F3C02004
:1025200018B12846FFF7C2FD04430198C0F3C0006C
:1025300018B12846FFF7A7FD04430198C0F3001027
:1025400018B12846FFF747FD04430198C0F3003057
:1025500018B12846FFF7C0FC04430198C0F340308F
:1025600018B12846FFF785FC04430198C0F30050DA
:1025700018B12846FFF769FC04430198C0F34050A6
:1025800018B12846FFF74DFC04430198C0F3807052
:1025900018B12846FFF731FC04430198C0F38000CE
:1025A00018B12846FFF716FC044320468EE70000CA
:1025B000400000200146002070472DE9F04104460C
:1025C0000F4615461E46DDF818802046FEF76AF9CC
:1025D0002046FFF7EFFFC4F8E465C4F8E885C4F8C7
:1025E000EC5539462046FFF736FAD4F8E815086866
:1025F00080472046FEF7D8F9BDE8F0811CB50446B7
:102600006946204600F04BFE9DF8000000F01F00D8
:1026100020B1012807D002280FD109E069462046E1
:1026200000F02AFD11E06946204600F05EFD0CE056
:102630006946204600F07FFD07E09DF8000000F0AD
:1026400080012046FFF7FEFA00BF00BF00201CBD3E
:1026500070B505460E46A6BB05F55D7440F2111037
:10266000405D03283DD1A168E069884217D9A1687F
:10267000E069401AE061E878012803D1D4E902104A
:102680000844E060A368E069984201D2E06900E094
:10269000A06882B22846E16800F0BDFA21E0D5F8D2
:1026A000E405006948B14FF48970405D032804D106
:1026B000D5F8E405016928468847284600F0BAFAAB
:1026C0000FE0FFE7D5F8E405806950B14FF4897059
:1026D000405D032805D1D5F8E405314682692846D6
:1026E0009047002070BD01467E480268086942603C
:1026F0000020704770B505460E46002E51D105F5F5
:102700008E7440F21110405D02283DD1A168E0694D
:10271000884211D9A168E069401AE061E87801288F
:1027200003D1D4E902100844E060A08B82B22846AD
:10273000E16800F04AFA27E0A168206AB0FBF1F2F4
:1027400001FB120078B9A168206A88420BD3D4E952
:102750000801884207D200221146284600F035FAC7
:102760000020606210E0D5F8E405C06848B14FF47D
:102770008970405D032804D1D5F8E405C168284676
:102780008847284600F068FA4FF48B70405D0128B6
:1027900016D12846FFF7A7FF00214FF48B70415553
:1027A0000EE0D5F8E405406950B14FF48970405D02
:1027B000032805D1D5F8E4053146426928469047FB
:1027C000002070BD10B50446002340221946204663
:1027D000FFF78FF90023402280212046FFF789F977
:1027E00001214FF489700155A078D4F8E82551688B
:1027F0008847002010BD10B50446D4F8E8150869D4
:10280000804740F21310015D401E01550321015520
:10281000002010BD10B504464FF48970015D401CC6
:1028200001550421401E0155D4F8E815C8688047B9
:10283000002010BD10B50446D4F8E405C06920B1ED
:10284000D4F8E405C16920468847002010BD70B562
:1028500004460D46D4F8E405294602682046904710
:10286000D4F8E81588688047002070BD70B504462C
:102870000D46D4F8E40529464268204690470020DA
:1028800070BD10B50446D4F8E405016A20468847B7
:10289000002010BD10B50446D4F8E405416A204676
:1028A0008847002010BD10B50446D4F8E8154869E3
:1028B0008047012140F215100155002010BD10B5D0
:1028C0000446D4F8E81588698047D4F8E405002167
:1028D000426820469047002140F215100155002023
:1028E00010BD0000100000200246122008802A4877
:1028F00070470246042008802848704770B5054696
:102900000C462DB92246264926A000F0F6FC04E02C
:10291000224623492BA000F0F0FC214870BD70B581
:1029200005460C4622461E492EA000F0E6FC1C4837
:1029300070BD70B505460C462DB9224618492EA02B
:1029400000F0DBFC04E0224615492FA000F0D5FC86
:10295000134870BD70B505460C462DB92246104986
:102960002DA000F0CAFC04E022460D492AA000F088
:10297000C4FC0B4870BD70B505460C462DB9224607
:10298000074928A000F0B9FC04E02246044925A02C
:1029900000F0B3FC024870BD600000207C00002005
:1029A000F4010020544D20555342204849442064EE
:1029B000657669636520696E204853206D6F646594
:1029C00000000000544D20555342204849442064E3
:1029D000657669636520696E204653206D6F646576
:1029E0000000000053544D6963726F656C65637439
:1029F000726F6E69637300003030303030303030C9
:102A00003031314200000000303030303030303072
:102A1000303131430000000048494420436F6E6666
:102A20006967000048494420496E746572666163B5
:102A30006500000070B504460D4603230422812181
:102A40002046FFF756F80323042201212046FFF712
:102A500050F8002070BD70B504460D468121204617
:102A6000FFF77BF801212046FFF777F8002070BDC3
:102A70002DE9F04105460C4600260027207800F09D
:102A8000600040B320285BD16078022814D003286E
:102A900007D00A280BD00B2814D1A0783A49086037
:102AA00017E001223849284600F078F811E06088E4
:102AB0000012364908600CE001223449284600F033
:102AC0006DF806E02146284600F0E2F80220BDE855
:102AD000F08100BF34E06078062804D00A2823D0B3
:102AE0000B282BD126E060882221B1EB202F08D1C2
:102AF000E088C52801DDC52000E0E0880646244FB7
:102B00000CE060882121B1EB202F07D1214FE08814
:102B1000092801DD092000E0E088064632463946F2
:102B2000284600F03BF809E001221B49284600F046
:102B300035F803E0A0781849086000BF00BF00BF67
:102B400000BF0020C3E770B506460C4615464FF49B
:102B50008970805D032805D12B46224681213046AD
:102B6000FFF749F8002070BD02462220088009487E
:102B70001238704770B504460D4681212046FFF794
:102B8000A9F8002070BD0000B0000020B4000020B3
:102B9000DA000020CA000020AC0000202DE9F0413E
:102BA00004460E4615460027C4F83C51C4F8385177
:102BB000022140F2111001552B46324600212046D9
:102BC000FFF719F83846BDE8F0812DE9F0410646D7
:102BD0000C46154600272B46224600213046FFF7BB
:102BE0000AF83846BDE8F0812DE9F04104460E466A
:102BF00015460027C4F89453C4F89053032140F2BB
:102C0000111001552B46324600212046FEF7CAFF1F
:102C10003846BDE8F0812DE9F04106460C461546E0
:102C200000272B46224600213046FEF7BBFF3846E0
:102C3000BDE8F08170B504460025042140F2111072
:102C4000015500231A4619462046FEF7D4FF2046B8
:102C5000FEF795FD284670BD70B504460025052198
:102C600040F21110015500231A4619462046FEF77E
:102C700099FF2046FEF783FD284670BD024601EB12
:102C8000810302F55D7000EBC300008B80B27047DA
:102C900070B504460D4680212046FEF7D3FF002183
:102CA0002046FEF7CFFF2046FEF769FD70BD70B5E8
:102CB00004460D464FF48970005D022802D00328B7
:102CC00012D100E000BF688801280CD100214FF428
:102CD0008C700151D4F8E40529468268204690475B
:102CE0002046FFF7A7FF04E029462046FFF7D0FF64
:102CF00000BF00BF70BDF8B504460D4600266888C9
:102D000001280DD101214FF48C700151D4F8E40554
:102D100029468268204690472046FFF78BFF39E01E
:102D20006888022836D12879A0BB206940680090C5
:102D3000A8880612062E22D2DFE806F02103090F2A
:102D4000151B009820F070001030009017E00098DC
:102D500020F070002030009011E0009820F070000A
:102D6000303000900BE0009820F070004030009070
:102D700005E0009820F070005030009000BF00BFC8
:102D8000F7480099016001214FF48B7001552046EE
:102D9000FFF750FFF8BD70B504460D464FF489703B
:102DA000005D022802D0032813D100E000BF0120FB
:102DB000EC4908604FF48C70005920B10846006857
:102DC00040F0020008600222E6492046FFF7E6FED6
:102DD00004E029462046FFF75BFF00BF00BF70BD3F
:102DE00070B504460D46E888012804D029462046DF
:102DF000FFF74EFF1AE04FF48970005D022802D001
:102E000003280DD105E00122D7492046FFF7C6FE71
:102E10000BE0012204F588712046FFF7BFFE04E0B5
:102E200029462046FFF734FF00BF00BF70BD70B5D4
:102E300004460D46A878CD49087008460078012858
:102E400004DD29462046FFF723FF55E04FF4897043
:102E5000005D022802D0032848D117E0C34800785B
:102E600080B1C248007884F8100103214FF48970C2
:102E70000155BE4801782046FFF7E9FC2046FFF7E0
:102E8000D9FE02E02046FFF7D5FE34E0B7480078CF
:102E900080B902214FF489700155B448007884F854
:102EA0001001B24801782046FFF7E0FC2046FFF70A
:102EB000C1FE1AE094F81001AC490978884211D09B
:102EC00094F810112046FFF7D1FCA848007884F848
:102ED0001001A64801782046FFF7B9FC2046FFF70D
:102EE000A9FE02E02046FFF7A5FE04E029462046A1
:102EF000FFF7CEFE00BF00BF70BD70B504460D46A3
:102F0000A88818BBE88808BBA87800F07F064FF4B3
:102F10008970005D032804D129462046FFF7B8FEDA
:102F200018E04FF48A70065531462046FEF7E4FE5D
:102F30002046FFF77FFE26B102214FF4897001552C
:102F400008E001214FF48970015503E0294620462D
:102F5000FFF79EFE70BDF8B504460E46708800125D
:102F600008286CD2DFE800F06B0416226B6B6166F8
:102F7000A078D4F8EC150A68694690470546F088B1
:102F8000402804D04FF48970005D012801D1082049
:102F9000009059E0A078D4F8E4158A6A6946904711
:102FA000054602216970C4F8F0554DE0B078062856
:102FB00034D2DFE800F0030B131B232BA078D4F8E6
:102FC000EC154A686946904705462CE0A078D4F88D
:102FD000EC158A6869469047054624E0A078D4F845
:102FE000EC15CA686946904705461CE0A078D4F8FD
:102FF000EC150A6969469047054614E0A078D4F8B4
:10300000EC154A696946904705460CE0A078D4F86B
:10301000EC158A6969469047054604E0314620462A
:10302000FFF736FEF8BD00BF0EE031462046FFF741
:103030002FFEF7E731462046FFF72AFEF2E731463A
:103040002046FFF725FEEDE700BFBDF8000088B180
:10305000F08878B1F088BDF80010884202DDBDF834
:10306000000000E0F0880090BDF8002029462046CE
:10307000FFF794FD00BFD5E770B505460C46002666
:1030800060780A2829D2DFE800F01923281E280AD0
:103090000528140F21462846FFF75DFF22E0214650
:1030A0002846FFF72AFF1DE021462846FFF7BFFE0E
:1030B00018E021462846FFF793FE13E021462846F4
:1030C000FFF769FE0EE021462846FFF714FE09E0EF
:1030D00021462846FFF7EBFD04E021462846FFF78E
:1030E000D7FD00BF00BF304670BD70B504460D4629
:1030F00000264FF48970005D032814D12879012837
:103100000CDCD4F8E4052946826820469047E8881C
:1031100040B93EB92046FFF78DFD03E02946204621
:10312000FFF7B6FD04E029462046FFF7B1FD00BFDA
:1031300000BF304670BD2DE9F04105460E46002720
:103140003479707800285FD0012833D003287DD1EE
:103150004FF48970405D02280AD0032823D10FE084
:1031600010000020A8010020A4010020AC010020D4
:103170002CB1802C03D021462846FEF763FD17E0D2
:10318000708830B92CB1802C03D021462846FEF738
:1031900059FDD5F8E405314682682846904728460F
:1031A000FFF748FD04E031462846FFF771FD00BFF8
:1031B00000BF70E04FF48970405D022802D0032800
:1031C0001BD107E02CB1802C03D021462846FEF706
:1031D00039FD17E0708878B95CB1802C09D02146A0
:1031E0002846FEF753FDD5F8E405314682682846A7
:1031F00090472846FFF71EFD04E031462846FFF7BA
:1032000047FD00BF00BF46E04FF48970405D0228D3
:1032100002D0032837D107E02CB1802C03D02146FF
:103220002846FEF70FFD33E004F08000802812D11D
:1032300004F07F0000EB800105F58E7000EBC1000B
:10324000807820B101204149086016E022E000208A
:103250003E49086011E004F0800070B904EB84017D
:1032600005F55D7000EBC100807818B10120374989
:10327000086002E0002035490860022233492846F0
:10328000FFF78CFC04E031462846FFF701FD00BF44
:1032900000BF00E000BF00BF3846BDE8F08190F8F5
:1032A000CC250A7090F8CD254A7090F8CE3590F86C
:1032B000CF2503EB02224A8090F8D03590F8D12533
:1032C00003EB02228A8090F8D23590F8D32503EBE5
:1032D0000222CA80CB884FF4A0721350012340F21F
:1032E0001112135470470146002002E0421CD0B274
:1032F000491C0A78002AF9D170472DE9F0410446AB
:103300000D4617460026FCB12046FFF7ECFF0221D0
:1033100001EB400038803A783046711CCEB22A5416
:1033200003223046711CCEB22A540AE014F8012B55
:103330003046711CCEB22A5400223046711CCEB2E7
:103340002A5420780028F1D1BDE8F081A0010020A6
:1033500002200D490870704702210B4A1170704716
:10336000012009490870704702200749087070471A
:103370000220054908707047022003490870704711
:103380000220014908707047CC01002032490143F6
:10339000324A1160704770B5002100230F22C478B3
:1033A0001CB32E4C246804F4E064C4F5E064C4F358
:1033B0000721C1F10404E3B20A4144789C40E1B220
:1033C0008478144021430C07210E254C0578615563
:1033D000047804F01F050124AC4005786D11AD00A0
:1033E00005F1E025C5F8004109E0047804F01F0567
:1033F0000124AC401B4D0678761145F8264070BD7F
:10340000194A0A400243154B1B1F1A60704739B115
:10341000124A121D12680243104B1B1D1A6006E06F
:103420000E4A121D126882430C4B1B1D1A60704716
:10343000042808D14FF0E021096941F004014FF060
:10344000E022116107E04FF0E021096921F0040159
:103450004FF0E022116170470000FA050CED00E02A
:1034600000E400E080E100E080FFFF1F09488047A2
:1034700009480047FEE7FEE7FEE7FEE7FEE7FEE756
:10348000FEE7FEE7FEE7FEE704480549054A064B6E
:10349000704700008935000889010008880800206D
:1034A000880E0020880A0020880A00200CB5002021
:1034B000019000907648006840F4803074490860BC
:1034C00000BF7348006800F4003000900198401C71
:1034D0000190009818B90198B0F5A04FF1D16C484F
:1034E000006800F4003010B10120009001E00020DD
:1034F00000900098012846D165484030006840F0AF
:1035000080506349403108606248006840F44040A0
:10351000604908605E48083000685D49083108600D
:103520000846006840F4004008600846006840F41F
:10353000A05008605848091F0860081F006840F044
:103540008070091F086000BF5148006800F00070DB
:103550000028F9D040F20570504908604C48083006
:10356000006820F003004A490831086008460068F6
:1035700040F00200086000BF45480830006800F0D5
:103580000C000828F8D10CBD10B54548006840F47F
:103590007000434908603E48006840F001003C4923
:1035A000086000203A4908310860394800683D4900
:1035B0000840374908603C48091D0860081F00683A
:1035C00020F48020091F0860002031490C31086078
:1035D000FFF76CFF4FF0006031498039086010BD83
:1035E00070B500200022022300240221284D083556
:1035F0002D6805F00C0020B1042806D0082834D12D
:1036000007E02A4D2A4E356033E02A4D284E3560BA
:103610002FE01F4D2D1D2D68C5F380541C4D2D1D11
:103620002D6805F03F0154B1224DB5FBF1F5184E60
:10363000361D3668C6F3881605FB06F209E01B4DF9
:10364000B5FBF1F5124E361D3668C6F3881605FB3C
:1036500006F20F4D2D1D2D68C5F301456D1C6B0045
:10366000B2FBF3F5124E356003E0104D104E35609D
:1036700000BF00BF064D08352D68C5F303150E4E7B
:10368000705D0B4D2D68C540094E356070BD000062
:10369000003802400070004008544007003C0240DF
:1036A00088ED00E0FFFFF6FE103000240024F40057
:1036B000D001002000127A00D401002010B5044689
:1036C0009848844208D10121084600F086FB002179
:1036D000012000F082FB76E09348844208D101216A
:1036E000022000F07AFB0021022000F076FB6AE065
:1036F0008E48844208D10121042000F06EFB002195
:10370000042000F06AFB5EE08948844208D1012170
:10371000082000F062FB0021082000F05EFB52E070
:103720008448844208D10121102000F056FB00217A
:10373000102000F052FB46E07F48844208D101216E
:10374000202000F04AFB0021202000F046FB3AE058
:103750007A48844208D10121402000F03EFB00213C
:10376000402000F03AFB2EE07548844208D1012148
:10377000802000F032FB0021802000F02EFB22E0B0
:103780007048844208D10121801500F026FB0021F9
:10379000A01500F022FB16E06B48844208D10121FD
:1037A000401500F01AFB0021601500F016FB0AE03E
:1037B0006648844207D10121001500F00EFB00216C
:1037C000201500F00AFB10BDF0B50A4600210023C9
:1037D000002400BF3DE0012505FA01F3156805EA64
:1037E00003049C4234D105684F000326BE40B54314
:1037F000056015794E00B5400668354305601579BA
:10380000012D02D01579022D16D185684F000326AF
:10381000BE40B543856055794E00B5408668354356
:103820008560456801268E40B543456045689679B8
:103830008E40B6B235434560C5684F000326BE4092
:10384000B543C560D5794E00B540C6683543C560FF
:10385000491C1029BFD3F0BD4FF6FF710160002154
:10386000017141718171C171704708B54FF48032A7
:103870000092009A0A430092009AC261C161009AC4
:10388000C261C2690092C269009208BD024600206E
:1038900013690B400BB1012000E000207047014686
:1038A000086980B270470246002053690B400BB193
:1038B000012000E0002070470146486980B270474F
:1038C00001837047418370470AB1018300E041835F
:1038D00070474161704742694A4042617047F0B5A4
:1038E000002300244D07ED0E02FA05F3CE1000F17F
:1038F000200555F826504E07F70E0F26BE40B5435B
:10390000CF1000F1200646F82750CE1000F1200518
:1039100055F8265045EA0304CE1000F1200545F87D
:103920002640F0BD000002400004024000080240B2
:10393000000C024000100240001402400018024037
:10394000001C0240002002400024024000280240E7
:10395000F948006840F00100F74908600020F64986
:1039600008310860F4480068F4490840F2490860EA
:10397000F348091D0860F348EF4984310860F048B6
:103980001038091D0860EC48006820F48020EA49DE
:1039900008600020E8490C310860E7498C31086074
:1039A00070470021E44A921C11701146087070475C
:1039B00010B501460022002300204A11012A02D13D
:1039C000DD4C236808E0022A03D1DB4C7034236805
:1039D00002E0D94C7434236801F01F0201249440A2
:1039E0001C400CB1012000E0002010BD38B50020C3
:1039F00000900024002500BF3120FFF7D9FF0546C5
:103A00000098401C00900098B0F5A04F01D0002D08
:103A1000F2D03120FFF7CCFF08B1012400E00024F0
:103A2000204638BD01460020C34A106820F0F80047
:103A300040EAC10010607047C34908607047002128
:103A4000BD4A703211701170012802D004280AD1C9
:103A500004E00121B84A7032117005E00521B64A30
:103A60007032117000E000BF00BF7047B7490860B6
:103A7000704770B5049C41EA82150126C6EB5306D7
:103A800045EA0645054345EA0465AB4E361D3560FB
:103A900070BDAD4908667047820142EA0172A64BCB
:103AA00084331A607047A8498866704710B583014F
:103AB00043EA016343EA02739F4C8834236010BDDC
:103AC000A14908677047A049C864704702460020B2
:103AD000994B0833186820F0EC6042EA0103184360
:103AE000954B08331860704702460020924B08330C
:103AF000186820F0784042EA010318438E4B0833DF
:103B000018607047014600208B4A0832106820F088
:103B1000030008431060704787480830006800F0D1
:103B20000C00704701460020834A0832106820F0DC
:103B3000F000084310607047014600207E4A0832BA
:103B4000106820F4E05008431060704701460020E0
:103B5000794A0832106820F4604040EAC1001060E1
:103B60007047F0B500210022002402250026022320
:103B7000714F08373F6807F00C0121B1042905D0C7
:103B8000082937D105E0724F076036E0714F0760B2
:103B900033E0694F3F1D3F68C7F38056664F3F1DB6
:103BA0003F6807F03F036EB16A4FB7FBF3F7DFF8EA
:103BB00088C10CF1040CDCF800C0CCF3881C07FBB6
:103BC0000CF40CE0624FB7FBF3F7DFF86CC10CF1BB
:103BD000040CDCF800C0CCF3881C07FB0CF4564F37
:103BE0003F1D3F68C7F301477F1C7D00B4FBF5F71D
:103BF000076002E0564F076000BF00BF4E4F083716
:103C00003F6807F0F0010909534F7A5C0768D74015
:103C10004760494F08373F6807F4E051890A4E4F23
:103C20007A5C4768D7408760434F08373F6807F49E
:103C30006041490B484F7A5C4768D740C760F0BD88
:103C4000002100F44072B2F5407F0AD13A4A0832AE
:103C5000116821F4F811414A02401143364A0832F2
:103C60001160354A70321268C0F30B031A43324BAD
:103C700070331A60704735494439086070473349DA
:103C80004039086070473649086070470146002097
:103C9000294A8C32106820F01F004A1E1043264A21
:103CA0008C321060704701460020234A8C32106825
:103CB00020F4F8504A1E40EA02201F4A8C3210605D
:103CC0007047014600201C4A8C32106820F44010D6
:103CD00008431060704701460020174A8C32106874
:103CE00020F4400008431060704701460020124A4B
:103CF0008C32106820F44030084310607047194936
:103D00000860704739B10C4A3032126802430A4BDE
:103D100030331A6006E0084A303212688243064B9C
:103D200030331A607047F9B1034A343212680243E3
:103D3000014B34331A601CE000380240FFFFF6EA02
:103D4000103000240030002000004742800E47421F
:103D50000024F40000127A00E4010020FFFCFF0FB1
:103D60005C014742E0114742854A12688243844B16
:103D70001A60704739B1824A121D12680243804BA3
:103D80001B1D1A6006E07E4A121D126882437C4B9E
:103D90001B1D1A60704739B1794A0C321268024310
:103DA000774B0C331A6006E0754A0C321268824376
:103DB000734B0C331A60704739B1714A1032126874
:103DC00002436F4B10331A6006E06D4A10321268DE
:103DD00082436B4B10331A60704739B1684A243AFA
:103DE00012680243664B243B1A6006E0644A243A98
:103DF00012688243624B243B1A60704739B1604AB3
:103E0000203A126802435E4B203B1A6006E05C4A8F
:103E1000203A126882435A4B203B1A60704739B1EE
:103E2000574A1C3A12680243554B1C3B1A6006E085
:103E3000534A1C3A12688243514B1C3B1A6070472C
:103E400039B14F4A143A126802434D4B143B1A6081
:103E500006E04B4A143A12688243494B143B1A60FD
:103E6000704739B1464A103A12680243444B103B3E
:103E70001A6006E0424A103A12688243404B103BF7
:103E80001A60704739B13E4A1C32126802433C4BFB
:103E90001C331A6006E03A4A1C3212688243384BDF
:103EA0001C331A60704739B1354A20321268024318
:103EB000334B20331A6006E0314A203212688243C5
:103EC0002F4B20331A60704739B12D4A24321268C3
:103ED00002432B4B24331A6006E0294A243212682D
:103EE0008243274B24331A60704739B1244A2C325D
:103EF00012680243224B2C331A6006E0204A2C320F
:103F0000126882431E4B2C331A60704739B11C4A29
:103F10003032126802431A4B30331A6006E0184AF6
:103F2000303212688243164B30331A60704739B111
:103F3000134A273A12780243114B273B1A7006E0C6
:103F40000F4A273A127882430D4B273B1A7070476D
:103F50000B484030006840F08070094940310860EB
:103F6000704701460020064A283A12680A400AB102
:103F7000012000E000207047014926390870704791
:103F800034380240002041490860091D0860091DBD
:103F90000860091D08603E483C49143108607047BC
:103FA00000213A498279002A3AD00A461268036809
:103FB0009A430B461A600A1D126803689A430B1D48
:103FC0001A60027911440A6803681A430A602F4A8A
:103FD0000832126803689A432C4B08331A601A1D82
:103FE000126803689A43294B0C331A604279102AED
:103FF0000ED11A1F126803681A43244B08331A6043
:104000001A1D126803681A43204B0C331A600DE026
:104010001E49427911440A6803681A430A6005E0A0
:10402000027911440A6803689A430A6070470021C4
:10403000016001710C2141710021817170471349A8
:10404000103109680143114A10321160704701466E
:1040500000200E4A143212680A400AB1012000E022
:10406000002070470949143108607047014600205C
:10407000064A143212680A400AB1012000E000200A
:10408000704702491431086070470000003C01404D
:10409000FFFF7F00704770477047754600F028F8B3
:1040A000AE4605006946534620F00700854618B025
:1040B00020B5FFF7E9F9BDE820404FF000064FF0CA
:1040C00000074FF000084FF0000B21F00701AC464D
:1040D000ACE8C009ACE8C009ACE8C009ACE8C0096C
:1040E0008D4670470446AFF300802046FCF7B5F8D4
:1040F000004870472808002001491820ABBEFEE7A1
:104100002600020070474FF04070E1EE100A704741
:104110003041000800000020F4010000C401000844
:1041200064420008F4010020940C00002002000802
:1041300001141351261B08F50413FD251408352816
:104140001408C5271B0815081AF7081A83081A95BA
:10415000041AA7041ABF0422141B20E9081AF30446
:104160001B1F293419081A33081A55041A77041327
:10417000120132021640830410574808020102035C
:10418000010A061212011704030904352A1B0857F5
:10419000041A7104818B752B0C81DA6914140902DD
:1041A0002213010125E03209042B0103121421110D
:1041B00001140122C516070581030410110A050127
:1041C0000906A1018501050719E029E7151813253E
:1041D00001750195088102950175088103950675A1
:1041E00008141A651E11142965811AC02F1702A11F
:1041F000010901A128098502050919012903333D97
:1042000095037501331954192228113009310938E1
:104210001581257F750895038106C0362B05A134CD
:104220003A03343A10342A1034592E5C32093330B0
:104230009C048102300A24043001111351331B08FD
:1042400059041A61041A79041A81041A69041A714A
:104250000451847A030A6809010203040607080965
:044260000C691000D5
:040000050800018965
:00000001FF
