:020000040800F2
:1000000030060020D9010008B51B0008B71B000806
:10001000B91B0008BB1B0008BD1B00080000000046
:10002000000000000000000000000000BF1B0008EE
:10003000C11B000800000000C31B0008C71B00080C
:10004000F3010008F3010008F3010008F3010008C0
:10005000F3010008F3010008F3010008F3010008B0
:10006000F3010008F3010008F3010008731A000807
:10007000791A00087F1A0008851A00088B1A0008F0
:10008000911A0008971A0008F3010008F30100080C
:10009000F3010008F3010008F3010008F301000870
:1000A000F3010008F3010008F3010008F301000860
:1000B000F3010008F3010008F3010008F301000850
:1000C000F3010008F3010008F3010008F301000840
:1000D000F301000813170008251700083D17000852
:1000E000F3010008F3010008F3010008F301000820
:1000F000F3010008F3010008F30100089D1A00084D
:10010000F3010008F3010008F3010008F3010008FF
:10011000551700086D170008F3010008F3010008E7
:10012000A31A0008A71A0008AD1A0008B31A00089D
:10013000B91A00080000000000000000F3010008E8
:10014000F3010008F3010008F3010008F3010008BF
:10015000BF1A0008C51A0008CB1A0008811700084A
:10016000F3010008F3010008F3010008F30100089F
:10017000F3010008F3010008F3010008000000008B
:1001800000000000F3010008000000000000000073
:10019000F30100080000000000000000F301000867
:1001A000000000000000000000000000F301000853
:1001B000F3010008F3010008F3010008F30100084F
:1001C000F3010008DFF80CD001F0ECFD0048004717
:1001D000E11A00083006002006488047064800471C
:1001E000FEE7FEE7FEE7FEE7FEE7FEE7FEE7FEE7E7
:1001F000FEE7FEE78F1C0008C501000828490843F8
:1002000028490860704730B50F23C278017801256E
:10021000FAB1244A126801F1E02102F4E062C2F569
:10022000E062C2F30722C2F10404D3404278A24044
:1002300084781C401443220181F80024007800F0E7
:100240001F018D404009800000F1E020C0F80051FE
:1002500030BD01F01F0085404809800000F1E0201A
:10026000C0F8805130BD104A114001430D48001FB5
:10027000016070470B4A121D0029116801D001432B
:1002800000E08143116070474FF0E02104280869C5
:1002900003D020F004000861704740F00400FAE742
:1002A0000000FA050CED00E080FFFF1FF848016830
:1002B00041F001010160F64A002108321160026834
:1002C000F44B1A400260031DF34A1A60F04BF34AE4
:1002D00084331A60F04A103A1B1D1A60026822F437
:1002E00080220260EA480C300160181D01607047EE
:1002F000E7490022891C0A700870704702460020F6
:10030000510901290CD002290CD0E1497431096846
:1003100002F01F02012393400B4200D001207047DE
:10032000DB49F4E7DA497031F1E718B500204FF402
:10033000A04400903120FFF7E1FF0099491C009193
:10034000A14201D00028F5D03120FFF7D7FF0028C7
:1003500000D0012018BDCE4A116821F0F80141EA11
:10036000C00010607047CE4908607047C84900223D
:1003700070310A700A70012802D0042801D10520CA
:1003800008707047C7490860704730B541EA82116C
:100390005A08C54BDDE9034503EB02421143014313
:1003A00041EA0460BA4940EA0570091D086030BDA1
:1003B000BB490866704740EA81105108BA4A10B537
:1003C00002EB01410843B249029C40EA03608431D8
:1003D00040EA0470086010BDB1498866704740EA81
:1003E00081105108B04A02EB01410843A84940EA94
:1003F0000360883108607047A94908677047A849B9
:10040000C8647047A24B08331A68084322F0EC62B4
:100410001043186070479E4B08331A68084322F057
:100420007842104318607047994A0832116821F0E9
:10043000030101431160704795480830006800F0DF
:100440000C007047924A0832116821F0F001014314
:10045000116070478E4A0832116821F4E05101435F
:10046000116070478A4A0832116821F4604141EAFC
:10047000C0001060704770B5854B083319688B4C0D
:1004800011F00C0107D06510042906D01A1F0829A5
:1004900005D00C2917D004602DE005602BE0116811
:1004A000C1F38056116801F03F0116B1B5FBF1F1BF
:1004B00001E0B4FBF1F114681268C4F388146143DD
:1004C000C2F3014212E01168C1F38056116801F0D5
:1004D0003F0116B1B5FBF1F101E0B4FBF1F1146895
:1004E0001268C4F388146143C2F30272521C5200B2
:1004F000B1FBF2F1016019680F2202EA11116C4A96
:10050000545C0168E14041601C68072505EA9424B9
:10051000145D21FA04F484601B6805EA5333D25C4D
:10052000D140C16070BDC0F30121032908D1584BEF
:10053000083319685F4A21F4F81102400A431A602F
:10054000534970310A68C0F30B0002430A607047D8
:10055000544944390860704752494039086070472F
:100560004B4A8C320028106807D020F0C050106031
:10057000106840EA81001060704720F0C060106091
:1005800010680843F7E7424A8C320028106807D009
:1005900020F440001060106840EA8100106070474D
:1005A00020F44010106010680843F7E7384A8C3296
:1005B0001168401E21F01F01014311607047344A49
:1005C0008C3211686FF0FF0321F4F85103EB002027
:1005D0000843106070472E4A8C32116821F4403174
:1005E0000143116070473449C1F8E0017047284A5F
:1005F00030320029116801D0014300E081431160CD
:100600007047234A34320029116801D0014300E0C9
:100610008143116070471E4A38320029116801D0A9
:10062000014300E0814311607047194A40320029BC
:10063000116801D0014300E0814311607047144A02
:1006400044320029116801D0014300E08143116068
:1006500070470F4A10320029116801D0014300E0B1
:100660008143116070470A4A14320029116801D091
:10067000014300E0814311607047054A18320029A8
:10068000116801D0014300E0814311607047000010
:1006900000380240FFFFF6EA10300024003000204E
:1006A00000004742800E47420000FFFF0024F40094
:1006B00000000020FFFCFF0F00104742594A0029AC
:1006C000116801D0014300E081431160DEE7554A23
:1006D000121D0029116801D0014300E0814311601F
:1006E000D4E7504A30320029116801D0014300E0BC
:1006F00081431160CAE74B4A34320029116801D0A6
:10070000014300E081431160C0E7464A38320029C6
:10071000116801D0014300E081431160B6E7414A0E
:1007200040320029116801D0014300E0814311608B
:10073000ACE73C4A44320029116801D0014300E093
:1007400081431160A2E7374950310128086803D07E
:1007500020F00800086099E740F00800FAE7314906
:100760006C310128086803D020F0006008608DE734
:1007700040F00060FAE72B4974310128086803D083
:1007800020F08050086081E740F08050FAE7254A69
:1007900070320029116801D0814300E001431160EB
:1007A00074E7204974310128086803D020F0005014
:1007B00008606BE740F00050FAE71A4974310128ED
:1007C000086803D020F0806008605FE740F0806038
:1007D000FAE7144974310A6822F440020A600A6890
:1007E00002430A6052E70F4A133A0029117801D0F8
:1007F000014300E08143117048E70A485430016822
:1008000041F08071016041E70146064A0020143A38
:1008100012680A4200D0012038E7024912390870F4
:1008200034E70000203802402DE9F043016821F050
:10083000010101600021016041608160C1600161CE
:1008400021214161B849B84A3D251039904202D171
:100850008D60BDE8F083B44A4FF47466183290425C
:1008600001D18E60F5E7B04A4FF4741730329042F0
:1008700001D18F60EDE7AC4A4FF0746C4832904282
:1008800002D1C1F808C0E4E7A74BA84A60339842F8
:1008900001D1CA60DDE7A44CA54B7834A04201D158
:1008A000CB60D6E7DFF88082A24C08F19008404583
:1008B00001D1CC60CDE7DFF870824FF03D5908F1EF
:1008C000A808404502D1C1F80C90C2E79A49DFF868
:1008D00068820839404501D10D60BAE7964D183558
:1008E000A84201D10E60B4E7934D3035A84201D142
:1008F0000F60AEE7904D4835A84202D1C1F800C064
:10090000A7E78D4D8C496035091FA84201D10A60C7
:100910009FE7894A7832904201D10B6099E7864A75
:100920009032904201D10C6093E7834AA832904202
:100930008FD1C1F800908CE730B503687F4ACC684E
:1009400013400A682243D1E905452C432243CC6970
:1009500022430C6A22434C6A22438C6A22434C6B2A
:1009600022438C6B22431A430260426922F0070340
:10097000D1E90B2422431A4342610A6942604A6862
:1009800082608968C16030BD002101604160816082
:10099000C160016141618161C16101624162816245
:1009A000C16201634163816370470029016802D01D
:1009B00041F0010101E021F00101016070470029CF
:1009C000016802D041F4004101E021F400410160DE
:1009D00070470029016802D041F0200101E021F0B8
:1009E00020010160704741607047406880B27047E5
:1009F000002A026802D042F4002201E022F4002220
:100A00000260016170470029016802D041F4802131
:100A100001E021F48021016070470AB10161704753
:100A2000C1607047014600200968090300D5012014
:100A30007047014600200968C90700D001207047AF
:100A4000406900F03800704702463B4B00209A4254
:100A500002D2354A103A01E0374A103A8B0001D5EC
:100A6000526800E01268364B1A400A4200D001205A
:100A70007047314A904202D22B48103801E02E488C
:100A800010382F4A8B0001EA020101D5C16070477E
:100A9000816070470B0607D5436912B143F08003AC
:100AA00001E023F080034361802908D0002A026816
:100AB00001F01E0101D00A4300E08A430260704742
:100AC00030B51D4A0024904202D2174A103A01E084
:100AD000194A103A1B4B194205D01E2303EAD125AF
:100AE00003682B4002E0406900F08003880001D5D4
:100AF000506800E01068124A1040084201D003B16B
:100B00000124204630BD0C4A904202D206481038DB
:100B100001E0094810380A4A8B0001EA020101D5B8
:100B2000C160704781607047106002403D00002046
:100B3000400F002000003D20106402403F801CF068
:100B40007D0F7D0F3C0F3C0FCD4910B5884206D17B
:100B500001211020FFF7BBFD0021102020E0C94932
:100B6000884202D101214C0429E0C749884202D1C0
:100B700001218C0423E0C549884202D10121CC0423
:100B80001DE0C349884202D101210C0517E0C1498B
:100B9000884209D101212020FFF799FD0021202062
:100BA000BDE81040FFF793BDBB49884202D1012147
:100BB0008C0704E0B94988420AD101214405204646
:100BC000FFF77CFD2046BDE810400021FFF776BD11
:100BD00010BD7FB50446008A0D46C98820F44050F8
:100BE00001432182A08941F20C618843A9882A89A6
:100BF00011436A8902431143A181A08A20F4407104
:100C0000A8890843A0826846FFF735FC9C488442C7
:100C100002D0A048844201D1039800E00298A18943
:100C2000090400EBC00101EB0010296801D549005F
:100C300000E08900B0FBF1F06422B0FBF2F10901A1
:100C40000B096FF018056B4300EB8300A3891D04AB
:100C50004FF0320306D503EBC000B0FBF2F000F01A
:100C6000070005E003EB0010B0FBF2F000F00F000E
:100C7000084320817FBD4FF416510160002181801F
:100C8000C18001810C2242818181704710B5028AA6
:100C90004C8822F470630A8822438C88C9880C43EC
:100CA00022431A43028210BD0021018041808180CD
:100CB000C18070470029818902D041F4005101E0D0
:100CC00021F4005181817047028B02F47F4202833C
:100CD000028B0A43028370470029818902D041F4C4
:100CE000004101E0C1F30E01818170470029818A32
:100CF00002D041F4006101E021F40061818270477B
:100D0000C1F30801818070478088C0F308007047F4
:100D1000028A22F00F020282028A0A43028270478C
:100D20000029818902D041F0020101E021F0020195
:100D300081817047828922F40062828182890A431C
:100D400082817047028A22F020020282028A0A43CC
:100D5000028270470029018A02D041F4804101E0FB
:100D600021F4804101827047818941F00101818134
:100D700070470029818A02D041F0080101E021F08A
:100D8000080181827047028BD2B20283028B42EA51
:100D90000121018370470029818A02D041F020019E
:100DA00001E021F02001818270470029818A02D070
:100DB00041F0100101E021F0100181827047828A28
:100DC00022F004028282828A0A43828270470029CA
:100DD000818A02D041F0020101E021F0020181820A
:100DE0007047002A828A01D00A4300E08A43828247
:100DF000704710B5C1F3421301F01F040121A14057
:100E0000012B07D0022B07D01430002A026805D02E
:100E10000A4304E00C30F8E71030F6E78A4302603A
:100E200010BD0246002012880A4200D001207047FF
:100E3000C9430180704770B501F01F0501260024E9
:100E4000C1F3421306FA05F2012B0FD0022B0FD08B
:100E5000838A4FEA11210088134206FA01F600EA5C
:100E6000060001D000B10124204670BD8389F0E75F
:100E7000038AEEE70A0A01219140C94301807047C5
:100E8000001001400044004000480040004C004079
:100E9000005000400014014000780040007C0040F9
:100EA000A3490844C0F38F2070472DE9F04F9A46BC
:100EB000DDE909B889460346FFF7F2FFC5B2002015
:100EC0004FF0030E0121814011EA090F28D0994EFD
:100ED00036F815400C4326F81540DF6844000EFA3A
:100EE00004F6B7430BFA04FC47EA0C07DF601F68FF
:100EF00002FA04FCB74347EA0C071F60012A01D03D
:100F0000022A0DD15F6889B28F430AFA00F189B2D3
:100F10000F435F60996808FA04F4B1432143996074
:100F2000401CC0B21028CDD3BDE8F08F00B5FFF74C
:100F3000B7FF01218140804802681143016000BD74
:100F4000FCB51646DDE907C50C00074608D0FFF7DB
:100F5000EDFFCDE900C5324621463846FFF7A5FF33
:100F6000FCBD2DE9FC4F9946DDE90BB792460D001B
:100F7000064622D0FFF7DAFF002201214FF00F0CC6
:100F800001FA02F028420DD0D00806EB8003186A5F
:100F90005407E40E0CFA04F820EA080007FA04F4F7
:100FA00020431862521C102AEAD3CDE9009B534615
:100FB000022229463046FFF778FFBDE8FC8FF0B5E6
:100FC0000E460546FFF76CFF00225A49C4B24FF0A7
:100FD000010C03270CFA02F333420CD028684FEAC5
:100FE000420E07FA0EFE40EA0E00286031F81400A7
:100FF000984321F81400521CD2B2102AEAD3F0BD53
:10100000F0B500220125032605FA02F30B4205D0B4
:101010000468570006FA07F39C430460521CD2B2DE
:10102000102AF1D3F0BDF0B500220127032607FAFC
:1010300002F33C460B4208D00568530006FA03FC55
:1010400025EA0C059C4025430560521CD2B2102AAB
:10105000EDD3F0BDF0B500220125032605FA02F319
:101060000B4205D00468570006FA07F31C430460DE
:10107000521CD2B2102AF1D3F0BDF0B500220126E5
:101080000324022706FA02F30B4209D00568530035
:1010900004FA03FC25EA0C0507FA03F31D43056077
:1010A000521CD2B2102AEDD3F0BDF0B500230127B7
:1010B000032507FA03F40C4209D0C6685C0005FA60
:1010C00004FC26EA0C0602FA04F42643C6605B1C04
:1010D000DBB2102BEDD3F0BD41F48032C261C161AF
:1010E000C261C169C0697047002102E0491C89B230
:1010F00040080128FAD80846704700B5FFF7D0FE2F
:10110000012181400C4802688A43026000BD00B59D
:10111000FFF7C6FE074931F8100000BD00B5FFF724
:10112000BFFE044931F81000C04380B200BD00008A
:101130000000FEBF1801002030380240FE4A014680
:10114000904200D10020FD4A914200D10120FC4A8A
:10115000914200D10220FB4A914200D10420FA4A78
:10116000914200D10520F94A914200D106207047F2
:1011700070471CB50822032138B101280CD0032880
:1011800002D1F248FFF7F4FF1CBDCDE900120123A4
:101190000022C021EE4806E0CDE900120123002222
:1011A0004FF48441EB48FFF7DCFE1CBD7CB528B151
:1011B000032802D1E448FFF7DBFF7CBD08250324A8
:1011C000012300221903E248CDE90045FFF7C9FEDB
:1011D000012300220421E048CDE90045FFF7C1FECC
:1011E0007CBD1CB50822032138B101280CD003288E
:1011F00002D1D448FFF7BCFF1CBDCDE9001201238A
:1012000000220321D54806E0CDE900120123002287
:101210004FF44061CE48FFF7A4FE1CBD1CB5072269
:101220000323990248B101280DD0022811D00328C8
:1012300002D1C348FFF79CFF1CBDCDE9003201235A
:101240000022C7480CE0CDE9003201230022C0484B
:1012500006E0CDE90032012300224FF44071BE4880
:10126000FFF77FFE1CBD1CB50722032138B1012802
:101270000CD0032802D1B148FFF77AFF1CBDCDE99D
:101280000012012300220C21B44805E0CDE9001230
:10129000012300226021B048FFF763FE1CBD1CB58E
:1012A0000722032138B101280DD0032802D1A2481A
:1012B000FFF75EFF1CBDCDE90012012300224FF4B1
:1012C000C061A64805E0CDE9001201230022C0213B
:1012D000A348FFF746FE1CBD974A0146904200D145
:1012E000A048964A914201D19E481030944A9142BA
:1012F00001D19C482030934A914201D19948303025
:10130000914A914201D197484030904A914201D18F
:101310009448503070472DE9FF4F85B09A46DDE97B
:1013200012B913460446DDF85480FFF7D5FF054691
:1013300081488D4F0193844209D1386840F01000F4
:1013400038600698FFF7ABFF25208DF80000864E29
:101350007A48361F844209D1306840F4003030604A
:101360000698FFF780FF26208DF80000744884421D
:1013700009D1306840F4802030600698FFF74EFFB6
:1013800027208DF800006F48844209D1306840F46E
:10139000002030600698FFF724FF34208DF800000D
:1013A0006948844209D1306840F480103060069862
:1013B000FFF7FCFE35208DF800006448844209D117
:1013C000386840F0200038600698FFF7D2FE4720CA
:1013D0008DF800001498ADF80A00ADF80EB0ADF825
:1013E00010A0ADF80C90ADF8088000202873A089FB
:1013F00020F40050A08101A92046FFF7EAFBA08954
:1014000040F02000A08101268DF8036006208DF8B1
:1014100001002046FFF792FE8DF802006846FEF7B5
:10142000F2FE2E73A08940F40050A08109B0BDE8FF
:10143000F08F2DE9FF4104463F4800250C26174652
:101440008846844206D1CDE90065029500230395C4
:10145000FFF761FF3948844208D1CDE90065029564
:1014600000233A4641460395FFF755FF344884422E
:1014700008D1CDE90065029500233A46414603951F
:10148000FFF749FF2F48844208D1CDE90065029556
:1014900000233A4641460395FFF73DFF2A48844220
:1014A00008D1CDE90065029500233A4641460395EF
:1014B000FFF731FF2548844208D1CDE90065029548
:1014C00000233A4641460395FFF725FFBDE8FF811B
:1014D0002DE9FF470446184800250C261F46904674
:1014E0008946844205D1CDE9006502950395FFF751
:1014F00012FF1248844208D1CDE9006502953B46AF
:10150000424649460395FFF706FF0D48844208D13D
:10151000CDE9006502953B46424649460395FFF7F3
:10152000FAFE0848844223D1CDE9006502953B4686
:1015300042464946039519E000100140004400402E
:1015400000480040004C00400050004000140140A2
:101550000008024000180240000C02400000024057
:10156000000402401000002044380240FFF7D3FE80
:101570008948844208D1CDE9006502953B46424640
:1015800049460395FFF7C7FE8448844208D1CDE958
:10159000006502953B46424649460395FFF7BBFE70
:1015A000BDE8FF8700B50023FFF796FEC28862B151
:1015B00041898388994201D100214181036889B220
:1015C0005B56491C4181521EC280D8B200BD10B585
:1015D0000C46FFF781FEC38842890DE08188914265
:1015E00000D100220168895CA14201D1012010BD17
:1015F000521C5B1E92B29BB2002BEFD1002010BD9B
:10160000F0B516460F4684460024FFF765FE0546F2
:10161000C08840B1697B6046FFF7D9FF78B9E88898
:10162000A98888420BD00020F0BD6046FFF7BAFFC2
:101630003855697B884205D0641CA4B200E0761E50
:10164000B442F2DB0021641CA0B23954F0BD00B5F5
:10165000FFF742FEC08808B1002000BD012000BD98
:1016600000B5FFF739FEC1888088814201D1012091
:1016700000BD002000BD00B5FFF72EFE0021C18097
:101680000181418100BD00B50B46FFF725FE437384
:1016900000BD10B50C460346FFF71EFE007B002878
:1016A0000BD007E019880906FCD59880641C1888BF
:1016B0000006FCD520780028F4D110BD70B5154681
:1016C0000E460446FFF708FE007B00280DD00023DD
:1016D00009E020880006FCD5F05CA0802088000688
:1016E000FCD55B1C9BB2AB42F3D370BDC388828830
:1016F00093420DD20389934201D1002202810389D2
:101700000268D1540189491C0181C188491CC180EA
:10171000704723480188890603D58088C1B22148D3
:10172000E4E7704720480088800606D51E48001D63
:101730000088C1B21B481030D8E770471B480088AA
:10174000800606D51948001D0088C1B21548203012
:10175000CCE7704716480088800606D51448001D5F
:101760000088C1B20F483030C0E770470A4801888E
:10177000890604D58088C1B20A484030B6E7704770
:1017800006480088800606D50448001D0088C1B2BE
:1017900004485030AAE77047005000400014014050
:1017A00000100140100000200044004000480040AC
:1017B000004C00404A4A0146904200D149484A4AFA
:1017C000914201D147480830484A914201D14548E9
:1017D0001030474A914201D142481830454A91425F
:1017E00001D140482030444A914201D13D4828303F
:1017F000704710B5FFF7DEFF4168404A404891420C
:10180000016802D341F4800101E041F4001101605C
:101810003C4840214FF48062C1600021C0E90512BC
:10182000C161016241628162C1620163416381639E
:1018300010BD70B514460D460646FFF7BBFFC0E964
:1018400000453046BDE87040D3E710B5FFF7B2FF62
:10185000406810BD10B5FFF7ADFF4068BDE810400F
:10186000FEF7E2BF2DE9F04116460F460546FFF7A9
:10187000A1FF04464068406810B10020BDE8F08137
:101880002048216806610160291DC0E901176068D0
:1018900000F054F81B496068FFF74EF8606800F0EC
:1018A00069F8A88A40F08000A8826068016841F069
:1018B000010101600120E1E770B505460C460846CC
:1018C00000F068FA82B221462846BDE87040C9E7B8
:1018D00010B5FFF76FFF40684068C0B210BD000050
:1018E000001001407000002000440040004800400B
:1018F000004C0040005000400014014010640240C1
:1019000030380240F0010020714A10B5182390428F
:1019100002D2704A704C03E06D4A6D4C083A644242
:101920002044B0FBF3F0042801D3001F121D6B4BC1
:1019300001F03D01185C8140116010BD3D21E3E7DD
:1019400063491822884203D26249634B083903E095
:101950005F495F4B10395B421844B0FBF2F004283A
:1019600001D3001F091D09685C4A105CC14001F0E9
:101970003D00704738B50446FFF7E0FF5749544B28
:101980001820091D01229C4207D2534B8DF80120DB
:101990002344B3FBF0F0095C09E04D4B5B42234468
:1019A000B3FBF0F0022301448DF80130097A8DF881
:1019B00000108DF803208DF802006846FEF723FC26
:1019C000206840F01E00206038BD38B50446FFF79F
:1019D000B5FF42493E4A1820091D944208D23E4AAA
:1019E0002244B2FBF0F001228DF80120095C09E0ED
:1019F000374A52422244B2FBF0F0022201448DF8F1
:101A00000120097A8DF8001000218DF803108DF85F
:101A100002006846FEF7F7FB206820F01E002060F9
:101A200038BD7047704770477047704770B50546BE
:101A30003D21FFF785FF84B22846FFF77FFFA00610
:101A400002D5284600F07EF8E00602D5284600F0D0
:101A500088F8200702D52846FFF7E5FFA00602D543
:101A60002846FFF7E1FFE00702D02846FFF7DDFF39
:101A700070BD18480830D9E716482030D6E7154819
:101A80003830D3E713485030D0E712486830CDE7FC
:101A900010488030CAE70F489830C7E70D48B0308B
:101AA000C4E70B48C2E70A481830BFE7084830309F
:101AB000BCE707484830B9E705486030B6E7044856
:101AC0007830B3E702489030B0E70148A830ADE77E
:101AD0001064024008600240F09FFDBFE61D000850
:101AE00000F0D5F8204C4FF4E13200212046FFF7FA
:101AF000A0FC1EA12046FFF7CCFD2046FFF779FE93
:101B0000224800F047F982B220492046FFF7AAFE9A
:101B10002046FFF7DDFE0028FAD164221B4920464B
:101B2000FFF76EFD0028F8D0184800F033F982B2B4
:101B300016492046FFF796FE2046FFF7C9FE00280B
:101B4000FAD1EAE770B5084D04462846FFF77DFE56
:101B5000A04205D12846BDE870400DA1FFF799BD10
:101B600070BD0148FFF771BE0044004048656C6CD1
:101B70006F20766961205553415254322077697441
:101B8000686F757420444D410A000000A0000020D9
:101B900053747265616D206861732066696E697344
:101BA0006865642077697468207472616E73666515
:101BB000720A00007047FEE7FEE7FEE7FEE77047A7
:101BC00070477047704710B5FFF7FCFF10BD00006D
:101BD0001CB50021664A00910191106840F48030E4
:101BE00010604FF4A043106800F40030019000989A
:101BF000401C0090019810B900989842F3D11068E9
:101C0000800342D50120019059484030016841F0DD
:101C1000805101605749086840F4404008605448CA
:101C2000083003680360036843F4004303600368FB
:101C300043F4A0530360041F4F4B2360136843F029
:101C40008073136013689B01FCD50A6842F48032EC
:101C50000A604A68D203FCD50A6842F400320A607E
:101C60004A689203FCD5454A40F20571116001684B
:101C700021F003010160016841F002010160016887
:101C8000C1F381010229FAD11CBD01911CBD3C4860
:101C900010B5016841F4700101603548016841F0F8
:101CA00001010160324A0021083211600268354B9F
:101CB0001A400260031D344A1A60026822F480222E
:101CC00002602B480C300160FFF782FF2C494FF077
:101CD00000608039086010BD70B5254C083420685C
:101CE0002A4B2B4910F00C0007D05D10042806D0B9
:101CF000221F082805D00C2817D00B602DE00D609E
:101D00002BE01068C0F38056106800F03F0016B159
:101D1000B5FBF0F001E0B3FBF0F013681268C3F319
:101D200088135843C2F3014212E01068C0F3805692
:101D3000106800F03F0016B1B5FBF0F001E0B3FB16
:101D4000F0F013681268C3F388135843C2F30272A9
:101D5000521C5200B0FBF2F0086020680C4AC0F33D
:101D60000310121D105C0A68C2400A6070BD0000BA
:101D70000038024000700040085A4077003C0240A2
:101D800088ED00E0FFFFF6FE103000240024F40090
:101D900004010020421C10F8011B0029FBD1801A0D
:101DA00070470000064C074D06E0E06840F0010374
:101DB00094E8070098471034AC42F6D3FEF706FAD1
:101DC000FC1D00081C1E000802E008C8121F08C104
:101DD000002AFAD170477047002001E001C1121FAC
:101DE000002AFBD17047000610160B0C0D0E0F10C9
:101DF000112F38393A3B3C44454600001C1E000870
:101E00000000002018010000C81D0008341F000851
:101E10001801002018050000D81D0008000000006F
:101E20000102030401020304060708092E01002031
:101E30002000000000000000000A00004E01002009
:101E40002000000000000000000A00006E010020D9
:101E50002000000000000000000A00008E010020A9
:101E60002000000000000000000A0000AE01002079
:101E70002000000000000000000A0000CE01002049
:101E80002000000000000000000A00000000000820
:101E9000B864024000000008A06002400000000892
:101EA0005860024000000008706002400000000816
:101EB000B86002400000000AA060024048656C6CF7
:101EC0006F207669612055534152543220776974EE
:101ED0006820545820444D410A00000000000000D2
:101EE00000000000000000000000000000000000F2
:101EF00000000000000000000000000000000000E2
:101F000000000000000000000000000000000000D1
:101F100000000000000000000000000000000000C1
:101F20000095BA0A0000000000000000010203044E
:041F3000060708098F
:04000005080001C529
:00000001FF
