:020000040800F2
:100000009806002035020008830B0008850B0008C5
:10001000870B0008890B00088B0B0008000000000C
:100020000000000000000000000000008D0B000830
:100030008F0B000800000000910B0008950B0008D2
:100040004F0200084F0200084F0200084F0200084C
:100050004F0200084F0200084F0200084F0200083C
:100060004F0200084F0200084F0200084F0200082C
:100070004F0200084F0200084F0200084F0200081C
:100080004F0200084F0200084F0200080000000065
:100090000000000000000000000000004F02000807
:1000A0004F0200084F0200084F0200084F020008EC
:1000B0004F0200084F0200084F0200084F020008DC
:1000C0004F0200084F0200084F0200084F020008CC
:1000D0004F0200084F0200084F0200080000000015
:1000E0004F0200084F0200084F0200080000000005
:1000F0000000000000000000000000004F020008A7
:10010000000000004F0200084F0200084F020008E4
:1001100000000000000000000000000000000000DF
:100120004F0200084F0200084F0200084F0200086B
:100130004F02000800000000000000000000000066
:100140000000000000000000000000004F02000856
:100150004F0200084F0200084F0200084F0200083B
:100160004F0200084F0200080000000000000000DD
:10017000000000000000000000000000000000007F
:10018000000000004F020008000000000000000016
:100190004F02000800F002F800F03CF80AA090E8D6
:1001A000000C82448344AAF10107DA4501D100F032
:1001B00031F8AFF2090EBAE80F0013F0010F18BFC3
:1001C000FB1A43F001031847C80B0000E80B0000BE
:1001D000103A24BF78C878C1FAD8520724BF30C873
:1001E00030C144BF04680C60704700000023002445
:1001F00000250026103A28BF78C1FBD8520728BF37
:1002000030C148BF0B6070471FB500F0BCFD1FBD7B
:1002100010B510BD00F081FD1146FFF7F5FF00F0AD
:1002200098FC00F09FFD03B4FFF7F2FF03BC00F061
:10023000A3FD00000948804709480047FEE7FEE7A4
:10024000FEE7FEE7FEE7FEE7FEE7FEE7FEE7FEE786
:1002500004480549054A064B704700009D0B0008FD
:1002600095010008980000209806002098020020C0
:1002700098020020F848016841F001010160F64A47
:100280000021083211600268F44B1A400260031D1D
:10029000F34A1A60F04BF34A84331A60F04A103A7A
:1002A0001B1D1A60026822F480220260EA480C30AA
:1002B0000160181D01607047E7490022891C0A701F
:1002C0000870704702460020510901290CD002290C
:1002D0000CD0E1497431096802F01F0201239340F8
:1002E0000B4200D001207047DB49F4E7DA49703156
:1002F000F1E718B500204FF4A04400903120FFF73B
:10030000E1FF0099491C0091A14201D00028F5D0DD
:100310003120FFF7D7FF002800D0012018BDCE4ABA
:10032000116821F0F80141EAC00010607047CE4921
:1003300008607047C849002270310A700A700128AD
:1003400002D0042801D1052008707047C749086011
:10035000704741EA82115A0810B5C54B029C03EB65
:1003600002421143014341EA0460BB49091D086090
:1003700010BDBD4908667047800140EA0170B6496A
:10038000843108607047B84988667047800140EA48
:100390000160B14940EA0270883108607047B24993
:1003A00008677047B049C8647047AB4B08331A6898
:1003B000084322F0EC62104318607047A64B0833E4
:1003C0001A68084322F07842104318607047A24A26
:1003D0000832116821F003010143116070479E4803
:1003E0000830006800F00C0070479B4A0832116822
:1003F00021F0F001014311607047974A08321168FB
:1004000021F4E051014311607047934A08321168AA
:1004100021F4604141EAC0001060704770B58E4B16
:1004200008331968934C11F00C0104D066100429AC
:1004300003D0082903D004601BE0066019E0864A57
:10044000121D1168C1F38055116801F03F0115B10B
:10045000B6FBF1F101E0B4FBF1F114681268C4F3EA
:1004600088146143C2F30142521C5200B1FBF2F105
:10047000016019680F2202EA11117F4A545C016879
:10048000E14041601C68072505EA9424145D21FAC7
:1004900004F484601B6805EA5333D25CD140C16028
:1004A00070BDC0F30121032908D16B4B08331968D3
:1004B000724A21F4F81102400A431A606649703109
:1004C0000A68C0F30B0002430A6070476749443969
:1004D0000860704765494039086070476249C1F853
:1004E0005C0170475C4A8C321168401E21F01F018C
:1004F000014311607047584A8C3211686FF0FF0356
:1005000021F4F85103EB0020084310607047524A71
:100510008C32116821F440110143116070474E4A3A
:100520008C32116821F440010143116070474A4A3E
:100530008C32116821F440310143116070475049F9
:10054000C1F8E0017047444A30320029116801D0F7
:10055000014300E08143116070473F4A3432002973
:10056000116801D0014300E08143116070473A4AAD
:1005700038320029116801D0014300E08143116045
:100580007047354A40320029116801D0014300E02C
:10059000814311607047304A44320029116801D00C
:1005A000014300E08143116070472B4A103200295B
:1005B000116801D0014300E0814311607047264A71
:1005C00014320029116801D0014300E08143116019
:1005D0007047214A18320029116801D0014300E018
:1005E0008143116070471C4A20320029116801D0F4
:1005F000014300E0814311607047174A243200290B
:10060000116801D0014300E0814311607047124A34
:1006100050320029116801D0014300E0814311608C
:1006200070470D4A54320029116801D0014300E09F
:10063000814311607047084A58320029116801D07F
:10064000014300E0814311607047034A6032002992
:10065000116817D0014316E000380240FFFFF6EAA8
:10066000103000240030002000004742800E474236
:100670000000FFFF0024F40000000020FFFCFF0F3B
:1006800000104742814311607047194A00291168E0
:1006900001D0014300E081431160704714490C31DF
:1006A0000128086803D020F008000860704740F077
:1006B0000800FAE70E4A573A0029117801D00143A1
:1006C00000E081431170704709481030016841F023
:1006D0008071016070470146054A0020583A12684F
:1006E0000A4200D00120704701495639087070470E
:1006F00064380240774910B5884206D10121084686
:10070000FFF753FF002101205BE07349884206D1C7
:1007100001210220FFF749FF0021022051E06F492B
:10072000884206D101210420FFF73FFF0021042069
:1007300047E06B49884206D101210820FFF735FFC9
:10074000002108203DE06749884206D101211020A0
:10075000FFF72BFF0021102033E06349884206D1C8
:1007600001212020FFF721FF0021202029E05F49FF
:10077000884206D101214020FFF717FF00214020C9
:100780001FE05B49884206D101218020FFF70DFF61
:100790000021802015E05749884202D101218415AB
:1007A0000AE05549884202D10121441504E0534929
:1007B00088420AD1012104152046FFF7F6FE0021E8
:1007C0002046BDE81040FFF7F0BE10BDF0B5002296
:1007D00001274FF0030C0B6807FA02F52B40AB42E0
:1007E0002CD1066853000CFA03F4A64306600E7978
:1007F000D0F800E09E4046EA0E0606600E79012E13
:1008000001D0022E12D18668A64386604E79D0F8B8
:1008100008E09E4046EA0E0686604668AE434660A3
:1008200045688E799640B6B235434560C568A543A4
:10083000C560CC799C40C3681C43C460521C102A1C
:10084000C9D3F0BD4FF6FF71016000210171417104
:100850008171C171704708B541F480320092C26164
:10086000C1610099C161C169C069009008BD0246BB
:10087000002012690A4200D001207047006980B24E
:1008800070470246002052690A4200D0012070479A
:10089000406980B2704701837047418370470AB155
:1008A00001837047418370474161704742694A4004
:1008B000426170474B07DB0E9A40C90810B500EB48
:1008C0008100016A0F249C40A1430162016A114327
:1008D000016210BD00000240000402400008024016
:1008E000000C0240001002400014024000180240B8
:1008F000001C024000200240002402400028024068
:100900000D49086070470C49486070470A49886083
:10091000704709494AF6AA200860704706494CF614
:10092000CC4008607047044A01460020D2680A4261
:1009300000D00120704700000030004001B532486F
:100940000099416041680029FCD108BD01B54FF410
:100950007A70009941432C48416041680029FCD1DC
:1009600008BD29488168491C8160C16811B1C1680E
:10097000491EC1604168002902D04168491E41609A
:10098000704710B5204C207800281CD10120FFF7BB
:1009900093FCFFF7AEFC0028FBD01C481C49006804
:1009A000B0FBF1F0401EB0F1807F0DD24FF0E0219E
:1009B0004861184AF02082F8140D00208861072051
:1009C00008610120207010BDFEE70F488068704765
:1009D0000D48C06870470C49886070470A49C86074
:1009E000704709480078002805D04FF0E0200169E1
:1009F00041F00201016170474FF0E020016921F0F0
:100A0000020101617047000010000020200000205A
:100A100040420F000FE000E01CB501210846FFF73F
:100A200092FD2020009000208DF8060001218DF815
:100A300004108DF8070003208DF8050069461D4855
:100A4000FFF7C4FE1CBD1CB501210420FFF77BFD90
:100A50004FF40050009000208DF806008DF804003F
:100A60008DF8070003208DF8050069461248FFF74E
:100A7000ADFE1CBD01460F48FFF70DBF01460D48F6
:100A8000FFF70BBF01460B48FFF710BF10B501463B
:100A90000848FFF7F6FE012800D0002010BD10B571
:100AA0004FF400510448FFF7E2FE08B1002010BDEA
:100AB000012010BD000002400008024070B504464D
:100AC00000257D20FFF7FEFB10B10125FFF7FCFD9F
:100AD00045F25550FFF714FF0320FFF714FFA4B1B0
:100AE000012C14D0022C14D0032C14D0042C14D0BC
:100AF000052C14D0062C14D0072C15D0082C16D099
:100B0000092C17D00A2C18D01BE0052017E00A206A
:100B100015E00F2013E01F2011E03D200FE07B20A7
:100B20000DE04FF480700AE04FF4007007E04FF4DE
:100B3000806004E04FF4006001E040F6FF70FFF7D2
:100B4000E5FEFFF7E6FEFFF7E9FE284670BDFFF77A
:100B5000E0BE00F023F8FFF714FFFFF75DFFFFF79B
:100B600072FF0820FFF7AAFF08B1002000E0202054
:100B7000FFF780FFFFF793FF0028FBD1FFF7E7FFA8
:100B8000F8E77047FEE7FEE7FEE7FEE770477047CD
:100B90007047704710B5FFF7E4FE10BD544810B51C
:100BA000016841F4700101605248016841F001019F
:100BB0000160504A00210832116002684E4B1A4011
:100BC0000260031D4D4A1A60026822F4802202600E
:100BD00048480C30016000F03CF845494FF0006097
:100BE0008039086010BD70B5424D08352868444B07
:100BF000444910F00C0004D05E10042803D00828EB
:100C000003D00B601BE00E6019E03A4A121D106819
:100C1000C0F38054106800F03F0014B1B6FBF0F050
:100C200001E0B3FBF0F013681268C3F38813584374
:100C3000C2F30142521C5200B0FBF2F00860286877
:100C4000304AC0F30310121D105C0A68C2400A60EB
:100C500070BD0CB50022274900920192086840F44B
:100C6000803008604FF4A043086800F40030019021
:100C70000098401C0090019810B900989842F3D158
:100C80000868800332D5012001901A48403002687C
:100C900042F0805202601C48026842F44042026006
:100CA000144808300268026002680260026842F478
:100CB00080520260031F154A1A600A6842F080726F
:100CC0000A600A689201FCD5114A40F20271116073
:100CD000016821F003010160016841F00201016037
:100CE0000168C1F381010229FAD10CBD01920CBD4A
:100CF00088ED00E000380240FFFFF6FE10300024CF
:100D00000024F40020000020007000400854410737
:100D1000003C0240704770477047754600F028F865
:100D2000AE4605006946534620F00700854618B0D8
:100D300020B5FFF78DFABDE820404FF000064FF0D8
:100D400000074FF000084FF0000B21F00701AC4600
:100D5000ACE8C009ACE8C009ACE8C009ACE8C0091F
:100D60008D4670470446AFF300802046FFF75BFADC
:100D7000004870473400002001491820ABBEFEE750
:100D80002600020070474FF04070E1EE100A7047F5
:100D9000B00D00080000002034000000D001000861
:100DA000E40D00083400002064060000EC01000897
:100DB0000000000001020304010203040607080901
:100DC0000000000000000000000000000000000023
:100DD00000BD010500000000000000000102030446
:040DE00006070809F1
:0400000508000235B8
:00000001FF
