:020000040800F2
:10000000D8070020ED030008312000083320000845
:1000100035200008372000083920000800000000C3
:100020000000000000000000000000003B2000086D
:100030003D200008000000003F200008412000088B
:100040000704000807040008070400080704000864
:100050000704000807040008070400080704000854
:100060000704000807040008070400080704000844
:100070000704000807040008070400080704000834
:100080000704000807040008070400080704000824
:100090000704000807040008070400080704000814
:1000A0000704000807040008070400080704000804
:1000B00007040008070400080704000807040008F4
:1000C00007040008070400080704000807040008E4
:1000D000070400085B1800087B1800089D1800083A
:1000E00007040008070400080704000807040008C4
:1000F00007040008070400080704000807040008B4
:1001000007040008070400080704000807040008A3
:10011000BF180008E11800080704000807040008D9
:100120000704000807040008070400080704000883
:100130000704000807040008070400080704000873
:100140000704000807040008070400080704000863
:100150000704000807040008070400080119000844
:100160000704000807040008070400080704000843
:100170000704000807040008070400080704000833
:10018000070400080704000823190008451900089F
:100190000704000807040008070400080704000813
:1001A00007040008070400080704000800F002F82C
:1001B00000F04FF80AA090E8000C82448344AAF1B2
:1001C0000107DA4501D100F044F8AFF2090EBAE8B0
:1001D0000F0013F0010F18BFFB1A43F0010318477B
:1001E0007432000094320000103A24BF78C878C1FD
:1001F000FAD8520724BF30C830C144BF04680C602D
:10020000704700000023002400250026103A28BF74
:1002100078C1FBD8520728BF30C148BF0B60704778
:10022000662903F0AD80642901F04887782901F040
:100230007F87002070471FB503F09DF802F0C6FAD3
:1002400004000020002103F009F8E0601FBD10B594
:1002500010BD02F0B5FB1146FFF7EDFF01F0C8FD40
:1002600002F0D3FB03B4FFF7F2FF03BC02F014FC6F
:100270000CB50022544900920192086840F4803085
:1002800008604FF4A043086800F400300190009823
:10029000401C0090019810B900989842F3D108686A
:1002A000800334D50120019047484030026842F075
:1002B000805202604548026842F44042026042486F
:1002C000083002680260026842F40042026002687C
:1002D00042F4A0520260031F3D4A1A600A6842F0CD
:1002E00080720A600A689201FCD53A4940F20572B0
:1002F0000A60016821F003010160016841F0020118
:1003000001600168C1F381010229FAD10CBD01929B
:100310000CBD314810B5016841F4700101602A48F4
:10032000016841F001010160274A00210832116093
:1003300002682A4B1A400260031D294A1A600268AB
:1003400022F48022026020480C300160FFF790FF09
:1003500021494FF000608039086010BD70B51A4D1A
:10036000083528681F4B204910F00C0004D05E109F
:10037000042803D0082803D00B601BE00E6019E0AE
:10038000114A121D1068C0F38054106800F03F003D
:1003900014B1B6FBF0F001E0B3FBF0F013681268A3
:1003A000C3F388135843C2F30142521C5200B0FBFE
:1003B000F2F0086028680C4AC0F30310121D105CAC
:1003C0000A68C2400A6070BD0038024000700040F8
:1003D000085A4007003C024088ED00E0FFFFF6FEAF
:1003E000103000240024F400000000200948804759
:1003F00009480047FEE7FEE7FEE7FEE7FEE7FEE707
:10040000FEE7FEE7FEE7FEE704480549054A064B1E
:100410007047000013030008AD010008D801002058
:10042000D8070020D8030020D8030020284908431B
:1004300028490860704730B50F23C278017801253C
:10044000FAB1244A126801F1E02102F4E062C2F537
:10045000E062C2F30722C2F10404D3404278A24012
:1004600084781C401443220181F80024007800F0B5
:100470001F018D404009800000F1E020C0F80051CC
:1004800030BD01F01F0085404809800000F1E020E8
:10049000C0F8805130BD104A114001430D48001F83
:1004A000016070470B4A121D0029116801D00143F9
:1004B00000E08143116070474FF0E0210428086993
:1004C00003D020F004000861704740F00400FAE710
:1004D0000000FA050CED00E080FFFF1FF8480168FE
:1004E00041F001010160F64A002108321160026802
:1004F000F44B1A400260031DF34A1A60F04BF34AB2
:1005000084331A60F04A103A1B1D1A60026822F404
:1005100080220260EA480C300160181D01607047BB
:10052000E7490022891C0A700870704702460020C3
:10053000510901290CD002290CD0E1497431096814
:1005400002F01F02012393400B4200D001207047AC
:10055000DB49F4E7DA497031F1E718B500204FF4D0
:10056000A04400903120FFF7E1FF0099491C009161
:10057000A14201D00028F5D03120FFF7D7FF002895
:1005800000D0012018BDCE4A116821F0F80141EADF
:10059000C00010607047CE4908607047C84900220B
:1005A00070310A700A70012802D0042801D1052098
:1005B00008707047C7490860704741EA82115A08BD
:1005C00010B5C54B029C03EB02421143014341EAC3
:1005D0000460BB49091D086010BDBD49086670472D
:1005E000800140EA0170B649843108607047B8491B
:1005F00088667047800140EA0160B14940EA0270B4
:10060000883108607047B24908677047B049C864CC
:100610007047AB4B08331A68084322F0EC62104372
:1006200018607047A64B08331A68084322F07842D6
:10063000104318607047A24A0832116821F0030184
:100640000143116070479E480830006800F00C00BC
:1006500070479B4A0832116821F0F0010143116094
:100660007047974A0832116821F4E0510143116044
:100670007047934A0832116821F4604141EAC00092
:100680001060704770B58E4B08331968934C11F0A9
:100690000C0104D06610042903D0082903D004609B
:1006A0001BE0066019E0864A121D1168C1F38055EF
:1006B000116801F03F0115B1B6FBF1F101E0B4FBA7
:1006C000F1F114681268C4F388146143C2F3014263
:1006D000521C5200B1FBF2F1016019680F2202EACC
:1006E00011117F4A545C0168E14041601C68072594
:1006F00005EA9424145D21FA04F484601B6805EA79
:100700005333D25CD140C16070BDC0F301210329D5
:1007100008D16B4B08331968724A21F4F811024072
:100720000A431A60664970310A68C0F30B0002433D
:100730000A60704767494439086070476549403925
:10074000086070476249C1F85C0170475C4A8C32AE
:100750001168401E21F01F01014311607047584A83
:100760008C3211686FF0FF0321F4F85103EB002085
:10077000084310607047524A8C32116821F44011CE
:100780000143116070474E4A8C32116821F44001D8
:100790000143116070474A4A8C32116821F440319C
:1007A0000143116070475049C1F8E0017047444A65
:1007B00030320029116801D0014300E0814311600B
:1007C00070473F4A34320029116801D0014300E0EC
:1007D0008143116070473A4A38320029116801D0CC
:1007E000014300E0814311607047354A40320029DF
:1007F000116801D0014300E0814311607047304A25
:1008000044320029116801D0014300E081431160A6
:1008100070472B4A10320029116801D0014300E0D3
:10082000814311607047264A14320029116801D0B3
:10083000014300E0814311607047214A18320029CA
:10084000116801D0014300E08143116070471C4AE8
:1008500020320029116801D0014300E0814311607A
:100860007047174A24320029116801D0014300E083
:10087000814311607047124A50320029116801D03B
:10088000014300E08143116070470D4A5432002952
:10089000116801D0014300E0814311607047084AAC
:1008A00058320029116801D0014300E081431160F2
:1008B0007047034A60320029116817D0014316E0DF
:1008C00000380240FFFFF6EA10300024003000201C
:1008D00000004742800E47420000FFFF0024F40062
:1008E00014000020FFFCFF0F0010474281431160FD
:1008F0007047134A0029116801D0014300E0814389
:10090000116070470E4A573A0029117801D001430F
:1009100000E081431170704709481030016841F0D0
:100920008071016070470146054A0020583A1268FC
:100930000A4200D0012070470149563908707047BB
:1009400064380240774910B5884206D10121084633
:10095000FFF75FFF002101205BE07349884206D169
:1009600001210220FFF755FF0021022051E06F49CD
:10097000884206D101210420FFF74BFF002104200B
:1009800047E06B49884206D101210820FFF741FF6B
:10099000002108203DE06749884206D1012110204E
:1009A000FFF737FF0021102033E06349884206D16A
:1009B00001212020FFF72DFF0021202029E05F49A1
:1009C000884206D101214020FFF723FF002140206B
:1009D0001FE05B49884206D101218020FFF719FF03
:1009E0000021802015E05749884202D10121841559
:1009F0000AE05549884202D10121441504E05349D7
:100A000088420AD1012104152046FFF702FF002188
:100A10002046BDE81040FFF7FCBE10BDF0B5002237
:100A200001274FF0030C0B6807FA02F52B40AB428D
:100A30002CD1066853000CFA03F4A64306600E7925
:100A4000D0F800E09E4046EA0E0606600E79012EC0
:100A500001D0022E12D18668A64386604E79D0F866
:100A600008E09E4046EA0E0686604668AE43466051
:100A700045688E799640B6B235434560C568A54352
:100A8000C560CC799C40C3681C43C460521C102ACA
:100A9000C9D3F0BD4FF6FF710160002101714171B2
:100AA0008171C171704708B541F480320092C26112
:100AB000C1610099C161C169C069009008BD024669
:100AC000002012690A4200D001207047006980B2FC
:100AD00070470246002052690A4200D00120704748
:100AE000406980B2704701837047418370470AB103
:100AF00001837047418370474161704742694A40B2
:100B0000426170474B07DB0E9A40C90810B500EBF5
:100B10008100016A0F249C40A1430162016A1143D4
:100B2000016210BD000002400004024000080240C3
:100B3000000C024000100240001402400018024065
:100B4000001C024000200240002402400028024015
:100B5000CD4910B5884206D101211020FFF781FE52
:100B60000021102020E0C949884202D101214C0413
:100B700029E0C749884202D101218C0423E0C549FC
:100B8000884202D10121CC041DE0C349884202D130
:100B900001210C0517E0C149884209D1012120201B
:100BA000FFF75FFE00212020BDE81040FFF759BE8F
:100BB000BB49884202D101218C0704E0B94988422F
:100BC0000AD1012144052046FFF741FE2046BDE839
:100BD00010400021FFF73BBE10BD7FB50446008AE0
:100BE0000D46C98820F4405001432182A08941F27A
:100BF0000C618843A9882A8911436A8902431143F9
:100C0000A181A08A20F44071A8890843A082684687
:100C1000FFF738FD9C48844202D0A048844201D1AD
:100C2000039800E00298A189090400EBC00101EBE0
:100C30000010296801D5490000E08900B0FBF1F0FF
:100C40006422B0FBF2F109010B096FF018056B4348
:100C500000EB8300A3891D044FF0320306D503EB9C
:100C6000C000B0FBF2F000F0070005E003EB00105D
:100C7000B0FBF2F000F00F00084320817FBD4FF47D
:100C80001651016000218180C18001810C224281C6
:100C90008181704710B5028A4C8822F470630A88FB
:100CA00022438C88C9880C4322431A43028210BD18
:100CB0000021018041808180C180704700298189A5
:100CC00002D041F4005101E021F4005181817047CC
:100CD000028B02F47F420283028B0A430283704735
:100CE0000029818902D041F4004101E0C1F30E01E5
:100CF000818170470029818A02D041F4006101E0BE
:100D000021F4006181827047C1F30801818070473E
:100D10008088C0F308007047028A22F00F02028226
:100D2000028A0A43028270470029818902D041F079
:100D3000020101E021F0020181817047828922F4E1
:100D40000062828182890A4382817047028A22F08E
:100D500020020282028A0A43028270470029018A25
:100D600002D041F4804101E021F4804101827047CA
:100D7000818941F00101818170470029818A02D077
:100D800041F0080101E021F0080181827047028BE7
:100D9000D2B20283028B42EA01210183704700290B
:100DA000818A02D041F0200101E021F020018182FE
:100DB00070470029818A02D041F0100101E021F042
:100DC000100181827047828A22F004028282828A24
:100DD0000A43828270470029818A02D041F00201D1
:100DE00001E021F0020181827047002A828A01D04D
:100DF0000A4300E08A438282704710B5C1F3421370
:100E000001F01F040121A140012B07D0022B07D0C4
:100E10001430002A026805D00A4304E00C30F8E7D9
:100E20001030F6E78A43026010BD024600201288A7
:100E30000A4200D001207047C9430180704770B555
:100E400001F01F0501260024C1F3421306FA05F242
:100E5000012B0FD0022B0FD0838A4FEA112100887B
:100E6000134206FA01F600EA060001D000B101249F
:100E7000204670BD8389F0E7038AEEE70A0A012164
:100E80009140C94301807047001001400044004078
:100E900000480040004C0040005000400014014059
:100EA00000780040007C004001B523480099416073
:100EB00041680029FCD108BD01B54FF47A70009952
:100EC00041431D48416041680029FCD108BD1A48D2
:100ED0008168491C81604168002902D04168491E2F
:100EE0004160704710B5144C207800281CD10120B7
:100EF000FFF716FBFFF731FB0028FBD00F48104926
:100F00000068B0FBF1F0401EB0F1807F0DD24FF0D1
:100F1000E02148610B4AF02082F8140D002088611E
:100F2000072008610120207010BDFEE7024880689C
:100F300070470149886070472400002000000020AD
:100F400040420F000FE000E010B5FFF7CBFF01219A
:100F50000820FFF72CFCCD4801210022016001711F
:100F60008271C17142710146BDE81040C848FFF767
:100F700055BD70B5C64901201A310880C34CC44D17
:100F8000214620712846FFF749FD4FF4F070FFF726
:100F90008BFF0021217121462846FFF73FFD3C20B1
:100FA000FFF782FF01212846FFF789FD04464FF431
:100FB000D270FFF779FF204670BD70B5B4490024A8
:100FC00001201A310880B14DB14E294628713046B2
:100FD000FFF724FD0120FFF767FF00202871294655
:100FE0003046FFF71BFD0F20FFF75EFF0121304663
:100FF000FFF765FD00B101242D20FFF755FF2046C6
:1010000070BD70B50824002005E04508FFF7D5FF46
:1010100045EAC010C0B2641EE4B2F6D270BD2DE93C
:10102000F04105469A4801211A300180974C984EAC
:10103000217121463046FFF7F1FC0120FFF734FF14
:10104000002725B1277121463046FFF7E7FC3C20F9
:10105000FFF72AFF27713046BDE8F0418B49FFF7C3
:10106000DDBC70B50546082404E005F00100FFF77B
:10107000D6FF6D08641EE4B2F7D270BD2DE9F05FB3
:10108000DFF808B20126ABF1040B804600279BF87D
:1010900002003C463546BA4690BBFFF76AFF40B1B6
:1010A00000208BF800008BF802008BF80100BDE8EF
:1010B000F09F4046FFF7D5FFDFF8D09109F108090E
:1010C000FFF77BFF8046FFF778FF4146B8F1010F3D
:1010D00001D1012831D0804501D008460DE09BF8B0
:1010E0000000864204D219F80400284001D103E030
:1010F00001D1012000E0002018B1012814D005E042
:101100002CE03746092E01D28BF8017019F8042023
:10111000AA4309F80420FFF782FF761C6800F6B2A4
:1011200010F0FF0504D006E019F804202A43F0E788
:10113000641CE4B20125082CC2D3412E08D38BF8DD
:10114000007017B901218BF802104FF0010A02E07C
:10115000BAF1000F02D099F8000038B900208BF8DE
:1011600000008BF802008BF80100824650469EE793
:1011700046480021001F017081704170704710B512
:10118000FFF7F6FFBDE81040F02077E7F02075E7A5
:101190002DE9FC473D4C00206D460834215C295464
:1011A000401C0828FADBDFF8E4904021A9F104098B
:1011B000F02099F8008099F8027099F8016089F898
:1011C0000010002189F80210FFF758FF50B10120EC
:1011D00000216A5C635C9A4201D0012002E0491C54
:1011E0000829F6DB00216A5C6254491C0829FADBF5
:1011F00089F8008089F8027089F80160BDE8FC87F1
:10120000224A08321070012000211154401CC0B243
:101210000828FAD31D484022001F027041708170D7
:1012200070471A490022091F487808704A70002840
:1012300001D101208870704714490831085C70475B
:1012400070B505465520FFF70CFF0024285DFFF719
:1012500008FF641CE4B2082CF8D370BD70B50546D5
:101260005520FFF7FEFE0024285DFFF7FAFE641C00
:10127000E4B2082CF8D370BD044A00210832535C54
:101280004354491CC9B20829F9D3704734000020DF
:10129000000C0240FE49884222D0FE49884201D11A
:1012A00001207047FC49884201D102207047FB4968
:1012B000884201D103207047F949884201D10420B6
:1012C0007047F849884201D105207047F6498842A5
:1012D00001D106207047F549884201D107207047A7
:1012E000002070471CB5044601212020FFF787FA33
:1012F00002208DF8040000208DF8060001208DF8F2
:10130000070003208DF80500C4B1012C15D101217F
:101310004020FFF74CFAE64C08220E212046FFF74A
:10132000F1FB082209212046FFF7ECFB4FF4844132
:10133000009169462046FFF771FB1CBD0121042086
:10134000FFF735FADB4C082206212046FFF7DAFBCF
:10135000082207212046FFF7D5FBC021E8E77CB52E
:10136000044601210805FFF740FA02218DF8041018
:1013700000218DF80610012103208DF807108DF84B
:101380000500002C1ED10420FFF711FA01210820CE
:10139000FFF70DFAC74D08220C212846FFF7B2FBD4
:1013A000C54C082202212046FFF7ACFBA114009196
:1013B00069462846FFF732FB042100916946204622
:1013C000FFF72CFB7CBD7CB504460121C804FFF768
:1013D0000CFA02208DF8040000208DF80600012090
:1013E0008DF8070003258DF80550BCB1012C14D1F0
:1013F00001210420FFF7DBF9AE4C08220A21204628
:10140000FFF780FB08220B212046FFF77BFBA90298
:10141000009169462046FFF701FB7CBD012108468B
:10142000FFF7C5F9A54C082200212046FFF76AFB0B
:10143000082201212046FFF765FB0095E9E77CB50E
:10144000044601218804FFF7D0F902208DF804003A
:1014500000208DF8060001208DF8070003208DF88C
:1014600005008502ACB1012C1BD0022C2DD101212D
:101470000820FFF79CF9904C072208212046FFF72F
:1014800041FB072209212046FFF73CFBA9100091F0
:1014900017E001210220FFF78AF907220A21884C70
:1014A00006E001210420FFF782F90722814C0A217E
:1014B0002046FFF727FB07220B212046FFF722FBE0
:1014C000009569462046FFF7A9FA7CBD1CB5044685
:1014D00001214804FFF789F902208DF8040000205B
:1014E0008DF8060001208DF8070003208DF8050017
:1014F000BCB1012C14D101210820FFF758F96E4C22
:10150000072205212046FFF7FDFA07220621204683
:10151000FFF7F8FA6021009169462046FFF77EFA4E
:101520001CBD01210846FFF742F9644C0722022145
:101530002046FFF7E7FA072203212046FFF7E2FAE9
:101540000C21E8E71CB5044601211020FFF757F9EC
:1015500002208DF8040000208DF8060001208DF88F
:10156000070003208DF80500BCB1012C14D1012126
:101570000220FFF71CF9524C072206212046FFF7F4
:10158000C1FA072211462046FFF7BCFAC02100919C
:1015900069462046FFF742FA1CBD01210846FFF7C5
:1015A00006F9464C072209212046FFF7ABFA07222D
:1015B0000A212046FFF7A6FA4FF4C061E7E7F0B52D
:1015C000044685B032480C2600250F46009284421E
:1015D0000FD10846FFF7B6FF2520ADF80A60ADF839
:1015E00006508DF81000ADF80C50ADF80850ADF86D
:1015F0000450284884420FD13846FFF767FF262061
:10160000ADF80A60ADF806508DF81000ADF80C503A
:10161000ADF80850ADF804501F4884420FD1384649
:10162000FFF70DFF2720ADF80A60ADF806508DF8E2
:101630001000ADF80C50ADF80850ADF80450174844
:1016400084420FD13846FFF7BEFE3420ADF80A6061
:10165000ADF806508DF81000ADF80C50ADF80850FC
:10166000ADF804500E4884420FD13846FFF777FE9C
:101670003520ADF80A60ADF806508DF81000ADF8D1
:101680000C50ADF80850ADF804500648844219E0FB
:10169000001001400044004000480040004C004061
:1016A000005000400014014000780040007C0040E1
:1016B0000018024000080240000C024000000240F6
:1016C000000402400FD13846FFF70CFE4720ADF86A
:1016D0000A60ADF806508DF81000ADF80C50ADF86A
:1016E0000850ADF8045069462046FFF776FA01210C
:1016F0002046FFF7E3FA012240F225512046FFF78A
:101700007CFB01208DF813008DF811502046FFF767
:10171000C1FD8DF8120004A8FEF78DFE05B0F0BDE6
:101720001CB5044601218807FFF75FF802208DF8F9
:10173000040000208DF8060001208DF8070003202A
:101740008DF80500BCB1012C14D101212020FFF738
:101750002EF89B4C082207212046FFF7D3F90822D8
:1017600006212046FFF7CEF9C021009169462046A8
:10177000FFF754F91CBD01211020FFF718F8914C18
:10178000082211462046FFF7BDF90822072120460E
:10179000FFF7B8F94FF4C071E7E77CB504460121C3
:1017A000C807FFF722F802218DF8041000208DF8F9
:1017B0000600012003258DF807008DF80550002C48
:1017C00013D101211020FEF7F2FF7E4C08220121E7
:1017D0002046FFF797F9082200212046FFF792F9EB
:1017E000694620460095FFF719F97CBD13B50446FC
:1017F00080212046FFF719FB0028F9D09DF804103E
:101800002046BDE81C40FFF77FBA70B50C46054680
:1018100003E02846641CFFF7E9FF21780029F8D18E
:1018200070BD70B5684D35F81020202A14D2A5F18E
:10183000200434F810301F2B02D9002324F8103074
:10184000614E9BB2103606EB401699555B1C24F88E
:101850001030521C25F8102070BD10B55B4C40F2C2
:1018600025512046FFF7EBFA002805D0A088BDE8F7
:101870001040C1B20020D4E710BD10B540F2255190
:101880005348FFF7DCFA002807D05148001D0088B4
:10189000BDE81040C1B20120C3E710BD10B540F251
:1018A00025514C48FFF7CBFA002807D04948001DC6
:1018B0000088BDE81040C1B20220B2E710BD10B5EB
:1018C00040F225514448FFF7BAFA002807D04248B1
:1018D000001D0088BDE81040C1B20320A1E710BD83
:1018E00010B53E4C40F225512046FFF7A8FA0028DB
:1018F00005D0A088BDE81040C1B2042091E710BD1A
:1019000010B540F225513648FFF799FA002807D064
:101910003348001D0088BDE81040C1B2052080E7B3
:1019200010BD10B540F225512E48FFF788FA002867
:1019300007D02C48001D0088BDE81040C1B2062029
:101940006FE710BD10B540F225512748FFF777FA31
:10195000002807D02448001D0088BDE81040C1B20F
:1019600007205EE710BDF0B5FFF794FC164E00228D
:1019700036F81040B4B1A6F11005002735F8101064
:101980001F2901D925F810700F4A35F810101032B0
:1019900002EB4013CA5CCF54491C25F81010641E9A
:1019A00026F810401046F0BD00B5FFF773FC06495D
:1019B00031F8100008B1002000BD012000BD00007A
:1019C000001402400010024064000020001001409A
:1019D0000044004000480040004C004000500040DF
:1019E0000014014000780040007C00400078282866
:1019F00001D0002070470120704710B50446FFF762
:101A0000F5FF002808D0FFF7B4FA2046FFF726FCC0
:101A10004420FFF726FB012010BD10B5FFF7A9FAFF
:101A2000CC20FFF71EFBBDE810404420FFF719BB98
:101A300010B50446FFF7DAFF002814D0FFF799FA33
:101A40002046FFF70BFCBE20FFF70BFBFFF7D9FA90
:101A5000FFF7D7FAFFF7D5FAFFF7D3FAFFF7D1FA76
:101A6000C0F34110093010BD70B50D460646FFF7B2
:101A7000BDFF002836D0FFF7A0FA002832D0FFF7CC
:101A800078FA3046FFF7EAFBBE20FFF7EAFAFFF7E5
:101A9000B8FA0446FFF7B5FA44EA0024FFF769FAFA
:101AA000E00B02D0E043401C84B23046FFF7C0FF99
:101AB00044F30711C4F3022241EA0212092812D0AA
:101AC0000A2819D00B2822D00C2829D09FEDA00A73
:101AD000002200EE902A0120F8EEE00A30EE800AA3
:101AE00085ED000A70BDC4F3C00000EE100AF6EEEA
:101AF000000AB8EE400A07E0C4F3810000EE100AC5
:101B0000F5EE000AB8EE400A20EE200AE1E7C4F341
:101B1000420000EE100AF4EE000AB8EE400AF3E7C5
:101B200004F00F0000EE100AB8EE400ADFED890A5B
:101B3000EAE72DE9F0410D460646FFF757FF00287A
:101B400046D0FFF716FA3046FFF788FBBE20FFF7B6
:101B500088FAFFF756FAFFF754FAFFF752FA804671
:101B6000FFF74FFA0746FFF74CFA0446092D06D057
:101B70000A2D07D00B2D08D00C2D0BD00EE020F035
:101B8000400004E020F0400006E040F0400020F07B
:101B9000200403E040F0400040F02004FFF7E9F9A2
:101BA0003046FFF75BFB4E20FFF75BFA4046FFF73E
:101BB00058FA3846FFF755FA2046FFF752FAFFF772
:101BC000D8F93046FFF74AFB4820FFF74AFA0120D0
:101BD000BDE8F0812DE9F0410C460746FFF706FF0E
:101BE0000028F5D07D2C01DD7D2404E06FF0360067
:101BF000844200DA0446FFF7BCF93846FFF72EFBB3
:101C0000BE20FFF72EFAFFF7FCF9FFF7FAF9FFF70E
:101C1000F8F90646FFF7F5F9FFF7F3F90546E4B2E0
:101C2000FFF7A7F93846FFF719FB4E20FFF719FA1F
:101C30003046FFF716FA2046FFF713FA2846FFF75B
:101C400010FAFFF796F93846FFF708FB4820FFF730
:101C500008FA0120BCE72DE9F0410C460746FFF7E2
:101C6000C5FE0028B4D07D2C01DD7D2404E06FF09A
:101C70003600844200DA0446FFF77BF93846FFF766
:101C8000EDFABE20FFF7EDF9FFF7BBF9FFF7B9F961
:101C9000FFF7B7F9FFF7B5F90646FFF7B2F90546C2
:101CA000E4B2FFF766F93846FFF7D8FA4E20FFF79F
:101CB000D8F92046FFF7D5F93046FFF7D2F9284684
:101CC000FFF7CFF9FFF755F93846FFF7C7FA482075
:101CD000FFF7C7F901207BE72DE9F0410646FFF742
:101CE00085FE00282ED0FFF744F93046FFF7B6FAFC
:101CF000BE20FFF7B6F9FFF784F9FFF782F9FFF787
:101D000080F9FFF77EF9FFF77CF907467D24C925A6
:101D1000FFF72FF93046FFF7A1FA4E20FFF7A1F9A0
:101D20002046FFF79EF92846FFF79BF93846FFF754
:101D300098F9FFF71EF93046FFF790FA4820FFF7B1
:101D400090F9012044E7EC20FFF798B9FFF735B987
:101D500000007F430000803D1CB501210820FEF7F4
:101D600026FD4FF47040009000208DF80600012100
:101D70008DF804108DF8070003208DF805006946E2
:101D80001948FEF74BFE1CBD1CB501210846FEF7A5
:101D90000EFD0120009000208DF806008DF8040053
:101DA0008DF8070003208DF8050069460F48FEF7FF
:101DB00035FE1CBD01460C48FEF795BE01460A489B
:101DC000FEF793BE01460848FEF798BE10B50146DF
:101DD0000548FEF77EFE012800D0002010BD01213D
:101DE0000248FEF76CBE0000000C024000000240FA
:101DF00096B0FEF78EFAFFF775F8FFF7A5F8DFF853
:101E000088914FF4E13201214846FFF7D8FBFFF7F4
:101E1000A3FF4FF4A040FFF7CDFFFFF7B0F9002676
:101E20000DF1300808E0761CF6B208EBC600083861
:101E3000FFF722FAFFF7AAF90028F4D12EB33246B1
:101E400052A102A800F0FEF802A94C464846FFF74E
:101E5000DCFC0025A14615E0002408EBC50753A1D2
:101E60003A5D02A800F0EEF802A94846FFF7CDFC63
:101E7000641CE4B2082CF2D34EA14846FFF7C5FC1F
:101E80006D1CEDB2B542E7D303E04BA14846FFF726
:101E9000BCFC0024C34606E00BEBC4000C21FFF79A
:101EA00048FE641CE4B2B442F6D31B210CA8FFF731
:101EB000D2FE0EA8FFF710FF0DF1400AFFF7ADFDAF
:101EC000FFF744FF0028FBD000245D460DF15008C9
:101ED00016E008EB84010F4605EBC400FFF7C4FDD4
:101EE000386801F0D7F9CDE90001224639A102A8EE
:101EF00000F0A8F802A94846FFF787FC641CE4B28A
:101F0000B442E6D30025544605E004EBC500FFF7D4
:101F1000B3F96D1CEDB2FFF716FF0028F5D12A4684
:101F200031A102A800F08EF802A94F464846FFF7FB
:101F30006CFC25B32FA1B9463846FFF766FC002795
:101F4000A24616E000240AEBC70818A118F80420DE
:101F500002A800F077F802A94846FFF756FC641C77
:101F6000E4B2082CF1D329A14846FFF74EFC7F1CB0
:101F7000FFB2AF42E6D327A14846FFF746FC4FF435
:101F80007A70FEF799FF99E7001001404465766981
:101F900063657320666F756E64206F6E20312D77D8
:101FA0006972653A2025640A0D00000030782530FA
:101FB000325820000A0D00004E6F20646576696378
:101FC0006573206F6E204F6E65576972652E0A0D1E
:101FD0000000000054656D702025643A2025332EE2
:101FE00035663B2000000000616C61726D3A20256F
:101FF000640A0D005448495320444556494345530B
:10200000204841564520414C41524D210A0D202087
:1020100020200000414C41524D2064657669636583
:1020200073207265636F676E697A6564210A0D00BB
:102030007047FEE7FEE7FEE7FEE770477047704730
:10204000FEF745BF0FB41CB5074B06AA7B44694693
:102050000090059800F0A1FB0020694600F0B0FB5D
:102060001CBC5DF814FB00007107000070B504464D
:1020700085690068C10601D5302600E02026C0072A
:1020800007D070BDD4E9012130469047206A401C3A
:1020900020626D1EF6D570BD70B504468569007866
:1020A000C00707D170BDD4E9012120209047206AE4
:1020B000401C20626D1EF6D570BD00002DE9F04178
:1020C0000646002410687529314615A510D0AFF3D7
:1020D0000080002802DA404212A507E031688A0732
:1020E00001D511A502E0490704D510A5012401E09E
:1020F000AFF3008000210A2306F1240707E0B0FBBC
:10210000F3F203FB1200303078541046491C0028CB
:10211000F5D123462A463046BDE8F04100F0D3B859
:10212000000000002D0000002B0000002000000037
:1021300070B504460D4621461068AFF30080218833
:10214000090502D50F4A7A4402E00E4A7A440E325B
:10215000002104F1240305E000F00F060009965D5C
:102160005E54491C0028F7D120780023000704D5CD
:10217000702D02D009B1022311322046BDE8704013
:1021800000F0A1B83A1200002DE9F05F894604463C
:102190004FF0000ADFF824B1FB44C0F820A020462D
:1021A000E168884700287DD0252806D0D4E90121A0
:1021B0009047206A401C2062F1E700255F462046D8
:1021C000E16888472028064607DB312E05D2B8197A
:1021D00010F8200C08B10543F1E7A80701D525F058
:1021E0000405C4F81CA00027C4F818A02A2E09D0A2
:1021F000304601F02BF838B304EB8708303EC8F8BE
:10220000186019E059F8041B204604EB870291611D
:10221000E1688847012F064618D1E069002820DAD6
:1022200025F020051DE0D8F8180000EB800006EB33
:1022300040003038C8F818002046E1688847064654
:1022400001F004F80028EED1012F0AD02E2E08D17B
:102250002046E16888477F1C0646022F45F020058E
:10226000C4DBA069002803DA404245F00105A06103
:10227000E80701D025F01005A6B1A6F14100192804
:1022800002D8203645F400654A463146204625608E
:102290004D46FDF7C5FF60B1012807D0ED1D25F0C3
:1022A000070000E007E000F1080978E705F10409FC
:1022B00075E730467AE7206ABDE8F09F101200000B
:1022C0007047704770472DE9F0470D469946924692
:1022D000044600F124080168880604D5E06921F06D
:1022E0001001216000E00120A84201DD471B00E051
:1022F0000027A1697A1902EB0900081AA061207869
:10230000C00602D42046FFF7B1FE002608E0D4E95B
:1023100001211AF806009047206A401C761C2062B2
:102320004E45F4DB2078C0060AD52046FFF79EFE16
:1023300006E0D4E9012130209047206A401C206249
:10234000381EA7F10107F4DC07E0D4E9012118F8F1
:1023500005009047206A401C2062281EA5F1010557
:10236000F3DC2046FFF798FE2078000602D5022015
:10237000BDE8F0870120FBE770472DE9FF4F0C46D1
:102380001E464FF0FF378BB0D2E90001DDF86080C8
:102390000A908A46C1F30A5505B93D460021084610
:1023A0004FF00000BAF1000F00F4400005DA00EB36
:1023B00080004FF4400101EA50004FEA9059B9F112
:1023C000010F00DDB9460A9850EA4A000ED044F6E3
:1023D0001050A5F2FF3545432F14B8F1000F1ED061
:1023E0007542291E1EDDC9F100021CE0B8F1010F83
:1023F0004FF0000001D0302103E0F24305E021540A
:10240000401CB042FBDB30460022002121540B99D6
:10241000C1F80880C1E900200FB0BDE8F08FBD1BF6
:102420006D1CDEE74A4600DA694206A800F058FA59
:1024300006AB93E8070003AB83E8070050460A9910
:1024400000F031FB8DE80700A0F500501F38009028
:102450000398002D09DD42F21F014A46084403A9F2
:102460000390684600F090FD08E0A0F500504A4651
:102470001F3803A90390684600F09AFD8DE8070015
:102480000004000C03D04FF0FF30410800E010467C
:10249000B8F1000F03D00022009215461EE0751E11
:1024A00005D400F097F9303262556D1EF9D5B34668
:1024B0000122084302D000227F1C04E0207830284B
:1024C00001D100227F1E002A099786D01DE0112D20
:1024D00007DA00F07FF9303262556D1C50EA0102D4
:1024E000F5D1084302D00098C8B10EE00021681E63
:1024F00005E0235C625C63542254401E491C814207
:10250000F7DBAB46A81B401E0990002004F80B0027
:102510000B98099AC0F80880C0E9002B7CE71126C7
:102520004FF0000859E72DE9F04F88460446D21DC8
:1025300022F0070191B0D1E90001CDE90A0100F0D4
:102540006DFE02460B98C00F01D02D2007E02068D9
:10255000810701D52B2002E0202101EAC000032AD7
:10256000099001D0072A05DB03464146204600F0CA
:1025700077F909E12078800601D5E06900E00620BE
:10258000B8F1650F814606D0B8F1660F18D0B8F1E2
:10259000670F70D131E00020B9F1110F009001DB1D
:1025A000112301E009F101030AAA01A90CA8FFF710
:1025B000E4FEDDE90C70002609F10105834647E0E1
:1025C00001204B4600904FF000470AAA01A90CA831
:1025D000FFF7D3FEDDE90DB00C995D46002610B97A
:1025E00009F101000D18B9EB050003D4C0F1FF3665
:1025F00009F10105A5EB09002BE0B9F1010F01DAA2
:102600004FF001090020B9F1110F0090484601DD9B
:10261000112300E003460AAA01A90CA8FFF7ADFEAA
:10262000DDE90C704D4600268346207800070AD469
:10263000AB4500DA5D4601A8012D04DD411911F812
:10264000011C302907D04F4502DA17F1040F04DAD4
:10265000012082460FE06D1EEEE7002F02DCED1B2D
:102660003E4403E0781CA84200DD7D1CB81B00F14D
:10267000010A4FF000472078000703D4AA4501DB88
:102680004FF0FF3A0021B7F1004F0DF143088DF8EC
:10269000431022D002202B23002F01DA7F422D236A
:1026A0004FF00A0C011EA0F1010000DC47B197FBBE
:1026B000FCF10CFB11720F46303208F8012DF1E7E6
:1026C000A8F1010003702188090501D5452100E02A
:1026D0006521A0F1010800F8011C09980FA9A1EBE0
:1026E0000807FF1D00B10120411901EBEA70A16943
:1026F0003844081A401EA0612078C00602D4204643
:10270000FFF7B4FC099828B1D4E901219047206A69
:10271000401C20622078C00622D52046FFF7A6FC88
:102720001EE0002E04DBB34502DD01A8805D00E061
:102730003020D4E901219047206A401C2062761C99
:10274000AAF101005FEA000A0AD100F03FF8C06870
:102750000168405CD4E901219047206A401C206256
:10276000281EA5F10105DCDC07E0D4E9012118F8F9
:10277000010B9047206A401C2062381EA7F1010718
:10278000F3DC2046FFF788FC022011B045E600008C
:1027900001694A1C02610878704700B58FB0CDE925
:1027A00001310021059105497944CDE90310114615
:1027B0006846FFF7E9FC0FB000BD0000E5FFFFFF32
:1027C0000A6802F8010B0A60704700000048704771
:1027D0009401002030B5B0F10A024FEA900E71F179
:1027E00000034EEA817EB0EB0E0061EB91014FEAEF
:1027F000101E4EEA017E10EB0E0041EB11114FEA64
:10280000102E4EEA016E10EB0E0041EB11214FEA43
:10281000104E4EEA014E10EB0E0041EB11414018F4
:1028200041F100014FEAD00040EA41704FEAD10186
:1028300010EB80054FEA810444EA907444EB0104F4
:102840006D1944EB0404521BA3414FF0000348BF31
:102850000A3200D530BD401C41F1000130BD0000FE
:102860002DE9F0411F46044603260168072A01F4BA
:10287000006004DB08B116A505E016A503E008B169
:1028800015A500E015A521F010002060A069C01E6C
:10289000A0610FB1401EA0612046FFF7E7FB4FB1DA
:1028A000D4E9012138469047206A401C2062C01CB0
:1028B000206206E0206AFAE7D4E9012115F8010B4D
:1028C0009047761EF8D22046FFF7E6FBBDE8F08180
:1028D0004E414E006E616E00494E4600696E6600C4
:1028E0002DE9F047814616468AB0324878440DC833
:1028F0008DE80D002F487844801C03AC0DC884E897
:102900000D0041F69B303722014491FBF2F0A0F11B
:10291000800502FB10141B3C02D56442012000E03C
:102920000020DFF890A080460027FA44AAF1BA0AF6
:102930000DE0E00709D03246684607EB47010AEB95
:10294000810100F035FB8DE8070064107F1C002C2E
:10295000EFD1184F7F44A83F18E0E80714D007EBE9
:1029600004100DF1180A90E80E008AE80E00C06805
:10297000F04201D198190890324606A903A800F048
:1029800017FB03AB83E807006D10641C002DE4D136
:1029900032466946B8F1000F03A802D000F0F4FAFD
:1029A00001E000F005FBC9E90001C9F808200AB000
:1029B000BDE8F0874C0B0000004870477401002010
:1029C0007546FFF7F9FFAE4605006946534620F00D
:1029D0000700854618B020B5FDF716FDBDE820407C
:1029E0004FF000064FF000074FF000084FF0000BCB
:1029F00021F00701AC46ACE8C009ACE8C009ACE87E
:102A0000C009ACE8C0098D4670470446AFF30080AA
:102A10002046FDF727FC00004FF0013C50F8042B46
:102A200051F8043B9A4221D1A2EB0C03934313EAE1
:102A3000CC1317D150F8042B51F8043B9A4215D10E
:102A4000A2EB0C03934313EACC130BD150F8042BE5
:102A500051F8043B9A4209D1A2EB0C03934313EAC9
:102A6000CC13DBD04FF00000704700BFD01A01BA82
:102A7000B1FA81F101F0180122FA01F0CB40C1F165
:102A80002001DBB2C0B2C01A2CFA01F3D11A914373
:102A900011EAC311E6D1704701491820ABBEFEE729
:102AA0002600020070475FEA400C08BF91F0000F5B
:102AB0004FEA8C234FEAC12243EA51514FEA1C509E
:102AC00018BF00F5F0404FEA300018BF41F0004158
:102AD0005FEA6C5C00F02980BCF1FF3F08BF40F06A
:102AE00080407047130C06BF12044FF0100C4FF0DB
:102AF000000C130E04BF12020CF1080C130F04BFDC
:102B000012010CF1040C930F04BF92000CF1020CA3
:102B1000D30F04BF52000CF1010C11464FF000021C
:102B2000A0F11F00A0EB0C00704711F0004F08BF90
:102B3000704731F000413FF4D5AF0B0C06BF0904DC
:102B40004FF0100C4FF0000C0B0E04BF09020CF1FB
:102B5000080C0B0F04BF09010CF1040C8B0F04BF10
:102B600089000CF1020CCB0F04BF49000CF1010CE1
:102B7000CCF12003A0EB0C0022FA03F302FA0CF2D2
:102B800041EA030100F10100704720F07F4C80EA28
:102B9000030023F07F47ACEB070303F57C5300F001
:102BA000004003F1FF032DE980494FEA154B09B4BA
:102BB0004FEA144325EA0B4E24EA03480FF2042699
:102BC00006EB132749083E785FEA320203FB0667EB
:102BD000C7F5000707FB06F64FEA54374FEAD6461B
:102BE00006F1020607FB066CCCF1005C4FEA1C47BD
:102BF0002CEA074C07FB06F40CFB06F504EB154624
:102C00004FEA961634BF00204FF000404FEAD1370C
:102C100006FB07FC4FEA1C4C0CFB0BF7D21B03FB1B
:102C20000CF761EB07010CFB0EF7B0EB074072EB02
:102C300017420CFB08F734BFA2EB0742B2EB074286
:102C400061EB17414FEA0C444FEA910706FB07FC82
:102C50004FEA1C4C0CFB0BF7B0EBC74072EB573242
:102C600003FB0CF734BFA2EBC742B2EBC74261EBE8
:102C700057310CFB0EF7B0EBC70072EB57720CFB31
:102C800008F734BFA2EBC702B2EBC70261EB577182
:102C9000039F4FEA816141EA921104EBCC044FEAB1
:102CA000D1374FEA826206FB07FC42EA90124FEAF4
:102CB00080604FEA1C4C0CFB0BF7D21B03FB0CF79C
:102CC00061EB07010CFB0EF7B0EB074072EB17420C
:102CD0000CFB08F734BFA2EB0742B2EB074261EBF3
:102CE00017414FEA8C554FEA910704EB9C2406FBF1
:102CF00007FC4FEA1C4C0CFB0BF7B0EBC74072EB28
:102D0000573203FB0CF734BFA2EBC742B2EBC7420A
:102D100061EB57310CFB0EF7B0EBC70072EB57724B
:102D20000CFB08F734BFA2EBC702B2EBC70261EBA2
:102D3000577115EB4C254FEA816141EA92114FEA38
:102D400082624FEAD13742EA901206FB07FC44F157
:102D500000044FEA80604FEA1C4C0CFB0BF7D21BBF
:102D600003FB0CF761EB07010CFB0EF7B0EB074020
:102D700072EB17420CFB08F734BFA2EB0742B2EB31
:102D8000074261EB174115EB1C154FEA813141EA0F
:102D900092414FEA823242EA90424FEA80304FEA53
:102DA0000C7644F1000448EA03434EEA0B484FF026
:102DB000000EB2EB080C71EB030724BF62463946E4
:102DC0004EEB0E0E4FF0000B0018524149414BEBF9
:102DD0000B0BB2EB080C71EB03077BF1000B24BF6C
:102DE000624639464EEB0E0E4FF0000B0018524172
:102DF00049414BEB0B0BB2EB080C71EB03077BF17A
:102E0000000B24BF624639464EEB0E0E51EA020714
:102E100018BF46F0010616EB0E7655F1000254F18C
:102E2000000103D5BDE88901BDE80088BDE889013E
:102E3000B619BDE80048524141EB0101A3F101037D
:102E4000704780807F7E7D7C7B7A79787776767517
:102E50007473727171706F6E6E6D6C6C6B6A6A698F
:102E60006868676666656464636362616160605F29
:102E70005F5E5E5D5D5C5C5B5B5A5A5959585857A2
:102E8000575656555555545453535252525151500A
:102E900050504F4F4F4E4E4D4D4D4C4C4C4B4B4B5D
:102EA0004A4A4A49494948484847474747464646A3
:102EB00045454544444444434343434242424241DE
:102EC0004141002B26D4770021D01CB54FEA3707AB
:102ED00003B44FF010004FF010014FF000000FBC92
:102EE0000BF1010BBDE81040BBF1010F08BF5FEA19
:102EF000170722BF12F1010211F101014FF0004149
:102F000043F1000300F0004043EA00007047F9D3AA
:102F10005708DAE746EA064613F1400F4FEA16462D
:102F20001FDD13F1200FDFBF16430A4600212033B7
:102F30005B42C8D0C3F1200746EA064602FA07F70B
:102F40004FEA164646EA0706C3F1200722FA03F2C3
:102F500001FA07F721FA03F14FF0000342EA0702F2
:102F6000B1E746EA020646EA06464FEA164646EA50
:102F70000106BCBF46EA0646360C4FF000034FF090
:102F800000024FF000019EE72DE9C048934630B49F
:102F900091E8380007C831EA400C48BF34EA430CD6
:102FA00003D5FFF7F2FDFFF78CFFF0BCBDE800880A
:102FB0002DE9C048934630B491E8380007C810F0B6
:102FC000804F08BF13F0804F03D100F005F8FFF7E2
:102FD00078FFF0BCBDE8008820F07F4780EA03005E
:102FE00023F07F4C07EB0C03A3F57C5300F000406B
:102FF000A3F1FE0392F0000F00F0B38095F0000FF4
:1030000000F077802DE901494FEA11404FEA14465C
:1030100021EA004800FB06FC24EA064708FB06F606
:1030200007FB08F800FB07F718EB06484CEB164CBB
:103030004FEA124B18EB07484FEA15464CEB174086
:1030400022EA0B4E0BFB06FC25EA06470EFB06F6B2
:1030500007FB0EFE0BFB07F71EEB064E4CEB164C68
:103060004FF000061EEB074E4CEB174B18EB0B080E
:1030700040F1000018EB0E0B58EB000840F1000087
:103080008F1A4FF000013CBFC943661B14BFB5EB5C
:10309000040C00213CBFC943F61B4FEA17444EEA1B
:1030A0008E0E27EA04454FEA1C4704FB07622CEA10
:1030B000074C05FB07F70CFB05F604FB0CFC16EBB5
:1030C000074642EB174216EB0C4642EB1C421BEB49
:1030D000060658EB0202414146EA9E0601D5BDE8CC
:1030E0000189B619524141EB0101A3F10103BDE889
:1030F00001894FEA14454FEA114724EA054621EABF
:10310000074C05FB07F406FB07F70CFB06F105FB74
:103110000CFC11EB074144EB17444FEA124711EB4B
:103120000C4144EB1C4422EA074C05FB07F206FB6A
:1031300007F70CFB06F605FB0CFC16EB074642EB0B
:10314000174216EB0C4642EB1C456A1854F100017D
:1031500048BF7047B619524141EB0101A3F1010389
:10316000704795F0000F37D04FEA11424FEA1447ED
:1031700021EA024624EA074C02FB07F106FB07F7A7
:103180000CFB06F402FB0CFC14EB074441EB17416B
:103190004FEA154714EB0C4441EB1C4125EA074C60
:1031A00002FB07F506FB07F70CFB06F602FB0CFC1F
:1031B00016EB074645EB174516EB0C4645EB1C4254
:1031C000121951F1000148BF7047B619524141EB45
:1031D0000101A3F1010370474FEA14454FEA11477B
:1031E00024EA054621EA074C05FB07F106FB07F731
:1031F0000CFB06F24FF0000605FB0CFC12EB07423D
:1032000041EB174112EB0C4251EB1C4148BF704798
:10321000921841EB0101A3F10103704703B4019837
:103220004100009850EAC12018BF04204A0D18BF81
:1032300040F0010040F2FF72B2EB515F08BF40F076
:103240000200012808BF052002B0704730380A2864
:1032500001D20120704700207047000010B50029FE
:103260000AD00878002807D005487844FFF7D4FB37
:10327000002801D0002010BD0248784410BD000095
:103280000A020000020200000808A0F500114FEA3F
:103290003101704743004FEAD30C4FEA3C0C4340E6
:1032A0001FBF40070CF1605113F0FE4F70471CF038
:1032B000006F03D100200CF0004170470CF0004378
:1032C00043EA507010B540EACC0000F00EF800BFA1
:1032D000000000924FEA0001FFF7D6BF4FF0004117
:1032E0004FF00000A1F5002170470EF1020E2EF004
:1032F000030E5EF8044B244204D44FEA4102B2F1BB
:103300007F4F11D84FEA4003B3F17F4F0CD80ED155
:103310004FEAD07CB2F17F4F0CEB4C0C0CF1020C5D
:1033200008BF4CEBD17C04E04FF0080C01E04FEA01
:10333000D17C0CEB4C0324FA03F404F00704B4F141
:10334000040C06D20EEB840CBDE810404CF0010CCE
:103350006047DFE80CF0070802024FF00040A0F5DC
:10336000800010BD0846420018BFD2F1807288BFAD
:1033700000F0004010BD4FF04070E1EE100A7047C1
:10338000FFF7D1B83031323334353637383941422E
:1033900043444546403058003031323334353637B7
:1033A0003839616263646566403078000400000863
:1033B00000000000000000020001000010000000FA
:1033C00002400000000000A00000000005400000D6
:1033D000000000C8000000000C4000000000409CFD
:1033E00000000000194000000020BCBE00000000EA
:1033F00034400000BFC91B8E00000004B54000002F
:10340000504BCFD06607E2CF010000006C410000B6
:103410003E8251AADFEEA73401000000D94200002D
:10342000DCB5A0E23A301F97FFFFFFFFB445000074
:10343000FD25A0C8E9A3C14FFFFFFFFFFF3F00002C
:103440000000008000000000FF3F0000000000803E
:10345000000000009034000800000020440000003C
:10346000E8010008D434000844000020940700005C
:10347000040200081C00000043000000F8FFFFFFEA
:103480000C0000000E0000000F0000002E000000E5
:10349000007A030A0000000000000000010203049B
:1034A00006070809000000000102030401020304EA
:1034B00006070809000000000000000000000000EE
:1034C00000000000000000000000000000000000FC
:0434D00000000000F8
:04000005080003EDFF
:00000001FF
