:020000040800F2
:10000000881400203D020008F10D0008F30D0008DF
:10001000F50D0008F70D0008F90D000800000000BC
:10002000000000000000000000000000FB0D0008C0
:10003000FD0D000800000000FF0D0008030E000881
:10004000570200085702000857020008570200082C
:10005000570200085702000857020008570200081C
:10006000570200085702000857020008570200080C
:1000700057020008570200085702000857020008FC
:10008000570200085702000857020008000000004D
:1000900000000000000000000000000057020008FF
:1000A00057020008570200085702000857020008CC
:1000B00057020008570200085702000857020008BC
:1000C00057020008570200085702000857020008AC
:1000D00057020008570200085702000800000000FD
:1000E00057020008570200085702000800000000ED
:1000F000000000000000000000000000570200089F
:1001000000000000570200085702000857020008CC
:1001100000000000000000000000000000000000DF
:10012000570200085702000857020008570200084B
:10013000570200080000000000000000000000005E
:10014000000000000000000000000000A5100008F2
:10015000570200085702000857020008570200081B
:1001600057020008570200080000000000000000CD
:10017000000000000000000000000000000000007F
:10018000000000005702000800000000000000000E
:100190005702000800F002F800F041F80AA090E8C9
:1001A000000C82448344AAF10107DA4501D100F032
:1001B00036F8AFF2090EBAE80F0013F0010F18BFBE
:1001C000FB1A43F001031847385C0000585C00003C
:1001D000103A24BF78C878C1FAD8520724BF30C873
:1001E00030C144BF04680C60704700000023002445
:1001F00000250026103A28BF78C1FBD8520728BF37
:1002000030C148BF0B607047752905F03984002064
:1002100070471FB505F0AEFD1FBD10B510BD05F050
:100220006CFD1146FFF7F5FF00F0E8FC05F08AFDD4
:1002300003B4FFF7F2FF03BC05F08EFD09488047C9
:1002400009480047FEE7FEE7FEE7FEE7FEE7FEE7B8
:10025000FEE7FEE7FEE7FEE704480549054A064BD0
:10026000704700000D0E000895010008880E002060
:100270008814002088100020881000202849084396
:1002800028490860704730B50F23C27801780125EE
:10029000FAB1244A126801F1E02102F4E062C2F5E9
:1002A000E062C2F30722C2F10404D3404278A240C4
:1002B00084781C401443220181F80024007800F067
:1002C0001F018D404009800000F1E020C0F800517E
:1002D00030BD01F01F0085404809800000F1E0209A
:1002E000C0F8805130BD104A114001430D48001F35
:1002F000016070470B4A121D0029116801D00143AB
:1003000000E08143116070474FF0E0210428086944
:1003100003D020F004000861704740F00400FAE7C1
:100320000000FA050CED00E080FFFF1FF8480168AF
:1003300041F001010160F64A0021083211600268B3
:10034000F44B1A400260031DF34A1A60F04BF34A63
:1003500084331A60F04A103A1B1D1A60026822F4B6
:1003600080220260EA480C300160181D016070476D
:10037000E7490022891C0A70087070470246002075
:10038000510901290CD002290CD0E14974310968C6
:1003900002F01F02012393400B4200D0012070475E
:1003A000DB49F4E7DA497031F1E718B500204FF482
:1003B000A04400903120FFF7E1FF0099491C009113
:1003C000A14201D00028F5D03120FFF7D7FF002847
:1003D00000D0012018BDCE4A116821F0F80141EA91
:1003E000C00010607047CE4908607047C8490022BD
:1003F00070310A700A70012802D0042801D105204A
:1004000008707047C7490860704741EA82115A086E
:1004100010B5C54B029C03EB02421143014341EA74
:100420000460BB49091D086010BDBD4908667047DE
:10043000800140EA0170B649843108607047B849CC
:1004400088667047800140EA0160B14940EA027065
:10045000883108607047B24908677047B049C8647E
:100460007047AB4B08331A68084322F0EC62104324
:1004700018607047A64B08331A68084322F0784288
:10048000104318607047A24A0832116821F0030136
:100490000143116070479E480830006800F00C006E
:1004A00070479B4A0832116821F0F0010143116046
:1004B0007047974A0832116821F4E05101431160F6
:1004C0007047934A0832116821F4604141EAC00044
:1004D0001060704770B58E4B08331968934C11F05B
:1004E0000C0104D06610042903D0082903D004604D
:1004F0001BE0066019E0864A121D1168C1F38055A1
:10050000116801F03F0115B1B6FBF1F101E0B4FB58
:10051000F1F114681268C4F388146143C2F3014214
:10052000521C5200B1FBF2F1016019680F2202EA7D
:1005300011117F4A545C0168E14041601C68072545
:1005400005EA9424145D21FA04F484601B6805EA2A
:100550005333D25CD140C16070BDC0F30121032987
:1005600008D16B4B08331968724A21F4F811024024
:100570000A431A60664970310A68C0F30B000243EF
:100580000A607047674944390860704765494039D7
:10059000086070476249C1F85C0170475C4A8C3260
:1005A0001168401E21F01F01014311607047584A35
:1005B0008C3211686FF0FF0321F4F85103EB002037
:1005C000084310607047524A8C32116821F4401180
:1005D0000143116070474E4A8C32116821F440018A
:1005E0000143116070474A4A8C32116821F440314E
:1005F0000143116070475049C1F8E0017047444A17
:1006000030320029116801D0014300E081431160BC
:1006100070473F4A34320029116801D0014300E09D
:100620008143116070473A4A38320029116801D07D
:10063000014300E0814311607047354A4032002990
:10064000116801D0014300E0814311607047304AD6
:1006500044320029116801D0014300E08143116058
:1006600070472B4A10320029116801D0014300E085
:10067000814311607047264A14320029116801D065
:10068000014300E0814311607047214A183200297C
:10069000116801D0014300E08143116070471C4A9A
:1006A00020320029116801D0014300E0814311602C
:1006B0007047174A24320029116801D0014300E035
:1006C000814311607047124A50320029116801D0ED
:1006D000014300E08143116070470D4A5432002904
:1006E000116801D0014300E0814311607047084A5E
:1006F00058320029116801D0014300E081431160A4
:100700007047034A60320029116817D0014316E090
:1007100000380240FFFFF6EA1030002400300020CD
:1007200000004742800E47420000FFFF0024F40013
:1007300000000020FFFCFF0F0010474281431160C2
:100740007047194A0029116801D0014300E0814334
:100750001160704714490C310128086803D020F05B
:1007600008000860704740F00800FAE70E4A573A60
:100770000029117801D0014300E0814311707047D6
:1007800009481030016841F08071016070470146EE
:10079000054A0020583A12680A4200D001207047EA
:1007A000014956390870704764380240774910B5DE
:1007B000884206D101210846FFF753FF002101209E
:1007C0005BE07349884206D101210220FFF749FF0F
:1007D0000021022051E06F49884206D10121042006
:1007E000FFF73FFF0021042047E06B49884206D114
:1007F00001210820FFF735FF002108203DE067496F
:10080000884206D101211020FFF72BFF0021102084
:1008100033E06349884206D101212020FFF721FF00
:100820000021202029E05F49884206D10121402093
:10083000FFF717FF002140201FE05B49884206D1E7
:1008400001218020FFF70DFF0021802015E057498E
:10085000884202D1012184150AE05549884202D11B
:100860000121441504E0534988420AD101210415AD
:100870002046FFF7F6FE00212046BDE81040FFF7B6
:10088000F0BE10BDF0B5002201274FF0030C0B683D
:1008900007FA02F52B40AB422CD1066853000CFA44
:1008A00003F4A64306600E79D0F800E09E4046EAC5
:1008B0000E0606600E79012E01D0022E12D1866836
:1008C000A64386604E79D0F808E09E4046EA0E06C0
:1008D00086604668AE43466045688E799640B6B2FB
:1008E00035434560C568A543C560CC799C40C36865
:1008F0001C43C460521C102AC9D3F0BD4FF6FF71CF
:1009000001600021017141718171C171704708B5A9
:1009100041F480320092C261C1610099C161C16934
:10092000C069009008BD0246002012690A4200D04A
:1009300001207047006980B270470246002052696A
:100940000A4200D001207047406980B2704701839D
:100950007047418370470AB10183704741837047F4
:100960004161704742694A40426170474B07DB0E64
:100970009A40C90810B500EB8100016A0F249C4021
:10098000A1430162016A1143016210BD00000240EF
:100990000004024000080240000C02400010024027
:1009A0000014024000180240001C024000200240D7
:1009B000002402400028024001B5324800994160FD
:1009C00041680029FCD108BD01B54FF47A70009947
:1009D00041432C48416041680029FCD108BD2948A9
:1009E0008168491C8160C16811B1C168491EC1603C
:1009F0004168002902D04168491E4160704710B526
:100A0000204C207800281CD10120FFF7B1FCFFF713
:100A1000CCFC0028FBD01C481C490068B0FBF1F05E
:100A2000401EB0F1807F0DD24FF0E0214861184A9E
:100A3000F02082F8140D0020886107200861012051
:100A4000207010BDFEE70F48806870470D48C068F1
:100A500070470C49886070470A49C8607047094868
:100A60000078002805D04FF0E020016941F0020134
:100A7000016170474FF0E020016921F0020101613E
:100A800070470000100000202400002040420F00AA
:100A90000FE000E01CB501210846FFF7B0FD202063
:100AA000009000208DF8060001218DF804108DF8CB
:100AB000070003208DF8050069461D48FFF7E2FE98
:100AC0001CBD1CB501210420FFF799FD4FF4005017
:100AD000009000208DF806008DF804008DF80700C6
:100AE00003208DF8050069461248FFF7CBFE1CBDB8
:100AF00001460F48FFF72BBF01460D48FFF729BFFE
:100B000001460B48FFF72EBF10B501460848FFF716
:100B100014FF012800D0002010BD10B54FF4005183
:100B20000448FFF700FF08B1002010BD012010BDF0
:100B300000000240000802407CB50C4605466A46AB
:100B400001A915A004F0A7F900280CD1009841696B
:100B50008278891E51434908296080780199484369
:100B60004008206000207CBD7CB50C4605466A46E6
:100B700001A90AA004F08FF900280CD1009841695E
:100B80008278891E51434908296080780199484339
:100B90004008206000207CBD303A0000313A00005F
:100BA0001248017809B140787047052070470F4816
:100BB0000078002804D00E49A1F2AC5001F08DBF9E
:100BC000704738B5094C0220094A60700948009006
:100BD000094B0121A2F2AC5001F098FDFFF7E7FFAD
:100BE00001202070BDE83840DAE700002000002036
:100BF000840600207C00002064000020ADF5936D89
:100C0000012400F003F9FFF7FAFEFFF743FFFFF7B7
:100C1000D8FFFFF7CCFFFFF7C3FF012807D0002064
:100C2000FFF766FF2020FFF767FF0124F1E7002CA4
:100C3000EFD001222BA18AA803F0A5FD00284AD1FC
:100C40002020FFF755FF132227A101A803F0BFFDC5
:100C5000002840D10DF28C410024081DFFF784FFCD
:100C600001A925A004F0EAFC01A92EA004F0E6FCED
:100C700001A93AA004F0E2FC01A946A004F0DEFCC0
:100C8000DDF890244AA1100D0090930A0DF58B60B9
:100C900004F0BAFE01A90DF58B6004F0CFFCDDF87D
:100CA0008C244BA1100D0090930A0DF58B6004F07D
:100CB000ABFE01A90DF58B6004F0C0FC01A927A0D3
:100CC00004F0BCFC01A803F0C4FF2020FFF710FFD4
:100CD0000020FFF711FF012202A1002003F053FDC5
:100CE00097E70000313A0000313A7573625F666938
:100CF0006C652E74787400005468697320697320E1
:100D00006D792066697273742066696C65207769F5
:100D100074682055534220616E64204661744653C6
:100D20000A0000007769746820555342204D5343F0
:100D300020484F5354206C69627261727920667248
:100D40006F6D2073746D333266342D646973636F15
:100D5000766572792E636F6D0A0000002D2D2D2DA2
:100D60002D2D2D2D2D2D2D2D2D2D2D2D2D2D2D2DB3
:100D70002D2D2D2D2D2D2D2D2D2D2D2D2D2D2D2DA3
:100D80002D2D2D2D2D2D2D2D2D2D2D2D2D2D2D2D93
:100D90000A00000055534220746F74616C20616E2C
:100DA0006420667265652073706163653A0A0A00A3
:100DB000546F74616C3A20253875206B423B2025B6
:100DC0003575204D423B202532752047420A0000F0
:100DD000467265653A2020253875206B423B2025F8
:100DE0003575204D423B202532752047420A0000D0
:100DF0007047FEE7FEE7FEE7FEE770477047704783
:100E0000704710B5FFF7EBFD10BD0000544810B55A
:100E1000016841F4700101605248016841F001012C
:100E20000160504A00210832116002684E4B1A409E
:100E30000260031D4D4A1A60026822F4802202609B
:100E400048480C30016000F03CF845494FF0006024
:100E50008039086010BD70B5424D08352868444B94
:100E6000444910F00C0004D05E10042803D0082878
:100E700003D00B601BE00E6019E03A4A121D1068A7
:100E8000C0F38054106800F03F0014B1B6FBF0F0DE
:100E900001E0B3FBF0F013681268C3F38813584302
:100EA000C2F30142521C5200B0FBF2F00860286805
:100EB000304AC0F30310121D105C0A68C2400A6079
:100EC00070BD0CB50022274900920192086840F4D9
:100ED000803008604FF4A043086800F400300190AF
:100EE0000098401C0090019810B900989842F3D1E6
:100EF0000868800332D5012001901A48403002680A
:100F000042F0805202601C48026842F44042026093
:100F1000144808300268026002680260026842F405
:100F200080520260031F154A1A600A6842F08072FC
:100F30000A600A689201FCD5114A40F20271116000
:100F4000016821F003010160016841F002010160C4
:100F50000168C1F381010229FAD10CBD01920CBDD7
:100F600088ED00E000380240FFFFF6FE103000245C
:100F70000024F400240000200070004008544107C1
:100F8000003C024070477CB501210846FFF737FB63
:100F90004FF4D050032400908DF8054002208DF8C6
:100FA000040000208DF80600404D8DF807006946CA
:100FB0002846FFF767FC0A2209212846FFF7D6FCDE
:100FC0000A220B212846FFF7D1FC0A220C212846D1
:100FD000FFF7CCFC01218DF8061028158DF80710BD
:100FE00000908DF8054069462846FFF74BFC0A2221
:100FF00011462846FFF7BAFC01218803FFF727FBBB
:1010000001218020FFF705FB7CBD08B54FF4C060CF
:10101000FFF734F943208DF8000001208DF801001E
:101020008DF802008DF803006846FFF72CF908BD23
:101030001F4800294FF0010101D0FFF78ABCFFF7DC
:1010400086BC08B50021C0EB0010C000009107214C
:10105000B0FBF1F10098401C00908842FAD908BD1D
:101060004FF47A714843ECE71CB501210420FFF7E7
:10107000C6FA022101208DF8051000908DF80400B9
:1010800000208DF806000A4C8DF8070069462046BE
:10109000FFF7F8FB01212046FFF759FCC820FFF7B6
:1010A000DFFF1CBD034801F0B4BA0000000002409D
:1010B00000080240D8000020F8B500260446374654
:1010C0000096FE4D0320FFF7BCFFE068006900902A
:1010D0007F1CAF4201D90020F8BD00980028F1DA4A
:1010E0000098002140F0010000900098E268106133
:1010F000E06802690092491CA94202D8009AD2070E
:10110000F7D10320FFF79DFF3046F8BD30B5054607
:101110000020EC78002C0CD105EB8202DB1C9B0834
:10112000D2F8D02003E051F8045B1560641C9C42A7
:10113000F9D330BD10B504460023D21C9008D4F872
:10114000D02003E0146841F8044B5B1C8342F9D3C0
:10115000084610BD70B500220123C270402683707E
:10116000154614468680012901D061B114E0C3728E
:101170000821017004214FF0A04241709115C180F7
:101180000221017208E0C4720C2101700621417035
:10119000CB4A4FF4A061C18002F50061C0E9032190
:1011A00000210AE002EB411303F5106600EB810415
:1011B00003F53063A661491C636543788B42F1D81F
:1011C00002F5806141614031C0F8CC10002108E097
:1011D00002EB411300EB810403F5A063491CC4F842
:1011E000903003788B42F3D8002108E002EB013302
:1011F00000EB810403F58053491CC4F8D030037818
:101200008B42F3D802F56062C0F80C21284670BD0D
:1012100070B50446017A0025C068012915D0C1685F
:1012200041F04001C1602046FFF746FF617A4FF46C
:10123000341009B14FF47410E16888631420FFF78B
:101240000FFFE078012819D020E0816B627A21F449
:1012500080310AB141F480118163E068C16821F0F6
:10126000401121F42021C1602046FFF725FFE078DE
:1012700001280BD1E1682A208860E2E7E0688168F4
:1012800021F01E010A3141F020018160284670BD25
:10129000C0680022816841F00101816010467047FA
:1012A000C0680022816821F001018160104670470A
:1012B00038B50024034622460094009840F02000F0
:1012C0000090009861F38A1000900098D968086136
:1012D0007A48D9680B690093521C824202D8009B5D
:1012E0009B06F7D40320FFF7ACFE204638BD38B587
:1012F0000024024621460094009840F0100000901F
:101300000098D36818616D48D26813690093491C2E
:10131000814202D8009BDB06F7D40320FFF791FE41
:10132000204638BD10B5C3680024D868012920F0D4
:10133000C04201D019B104E042F0005201E042F095
:101340008042DA603220FFF78BFE204610BDC06875
:10135000406900F001007047C068406910F0010F5B
:1013600001D00020704701207047C068406910F02C
:10137000010000D001207047C068416980690840C1
:101380007047C0684068704710B5C36800221146B6
:101390009A61C468531E6361C4686360C4686FF077
:1013A00080436361C468474BA361C37803B91021CC
:1013B000C06841F00C5141F00801836941F400110B
:1013C0008B430B438361104610BDD0F8CC000068FE
:1013D00020F02E00704770B50C460546FFF728FE3A
:1013E0002846FFF7F2FFC10408D4012C04D1D5F838
:1013F000CC1040F480500860C10405D524B9D5F85C
:10140000CC1020F480500860BDE87040C820FFF781
:1014100027BE70B50546FFF7D8FF40F4807455F835
:10142000CC0F04600A20FFF71BFE296824F48070AB
:1014300008601420FFF714FE012070BD40690268A7
:1014400061F30102026070472DE9F0410027044674
:101450003D463E46FFF708FED4F80C010660207AB0
:1014600001280FD001212046FFF7E8FF2046FFF7B3
:10147000D0FF6069016821F004010160E07A012871
:1014800002D015E00021EEE7E0688021416230469D
:1014900061F30F00E268602161F31F409062E02277
:1014A000304662F30F0061F31F40E168C1F80001AC
:1014B00010212046FFF7FCFE204605E0400D03000A
:1014C0000000044000080080FFF711FF4FF0FF31DB
:1014D00007E004EB850050F8902F91600068C6602B
:1014E0006D1C2078A842F4D801212046FFF773FF35
:1014F0002046FFF749FF3846BDE8F0814069806823
:1015000040F30000401C7047406940697047F0B5E7
:1015100000EB81060027D6F890403D467B1E2A4608
:10152000A360C378012B00D1042200EB411393F890
:10153000B14334B1012C1FD0022C02D0032C27D18F
:101540000EE042F0890293F8AE4342F4826284B91D
:1015500093F8B04342F04002D4B142F0200217E0C9
:1015600093F8AEC342F0990242F4C062BCF1000F9E
:101570000ED042F480720BE093F8AEC342F0010249
:1015800042F40872BCF1000F02D042F08002F0E792
:10159000D6F89040E26001228A4041698C69144388
:1015A0008C61C068816941F00071816193F8AC037E
:1015B00060F39C5593F8AD0360F3CE2593F8AE032A
:1015C00060F3CF3593F8AF0302280CD025F4003038
:1015D00093F8B113B3F8B22361F3934062F30A00B6
:1015E000032903D004E045F40030F1E740F0005057
:1015F000D6F8901008603846F0BDF0B500EB411405
:101600000026D4F8BC3305464FF4807C37466BB1D6
:10161000B4F8B2239818401EB0FBF2F080B26045D7
:1016200005D912026046C4F8BC2300E0012094F8FA
:10163000AE23AAB1B4F8B2234243C4F8BC2362F388
:10164000120760F3DC4794F8B40305EB810360F301
:101650005E77D3F890000761E878012803D007E0AF
:10166000D4F8BC23EBE7D3F89020D4F8B80350614A
:1016700053F8900F02682846FFF740FF60F35D7251
:1016800022F080401A6840F000401060E87890BB7B
:1016900094F8AE0378BBD4F8BC2362B394F8B103DA
:1016A00030B1012810D0022802D0032819D10BE054
:1016B000E868C36AD21CC2F38F029BB2934210D275
:1016C000826942F020020BE068690069D21CC2F313
:1016D0008F0280B2904204D2E868826942F0806250
:1016E0008261B4F8BC030A4683B2D4F8B803014659
:1016F0002846FFF70BFD3046F0BD10B500EB810129
:101700000023D1F89020116841F0404111F4402F9E
:1017100009D0C1F38144022C05D04069006910F45E
:101720007F0F03D004E0C068C06AF8E721F00041F1
:101730001160184610BD10B500EB8100002350F871
:10174000901F4FF00042012464F3DC420A610068FC
:10175000016821F0804141F000410160184610BD50
:1017600010B504460020616988616169401E4861C6
:1017700000210AE004EB8100D0F89000026822F01A
:10178000802242F080420260491C20788842F1D8D1
:101790002046FFF7ACFD2046BDE81040102187E54C
:1017A00010B5002204461346C0F8102304EB820053
:1017B000C0F81433C0F85033A01880F88C33521C92
:1017C000D2B20F2AF2D30820A4F8B2032046FFF7C2
:1017D000C1FC2046FFF764FD2046FFF719FD0121FB
:1017E0002046FFF79FFD2046FFF72EFE2046FFF71D
:1017F0004FFD002010BDD0F8CC000068C0F3414080
:10180000704710B5FFF705FE002010BDD0F810039B
:1018100070474069806880B27047084490F89B0325
:10182000704700EB8100D0F850037047084490F8EF
:101830008C037047FFF76BBE0022431883F89B238D
:1018400000EB4113C3F8C023FFF7D7BE0CB5014628
:10185000D1F8900000680090009820F0004000F15E
:1018600000400090009820F0804000F180400090FF
:10187000009AD1F89000026000200190019820F4B5
:10188000001000F5001001900198CA685061012015
:101890000CBD38B5044600200090FE480068816801
:1018A00020468847009820F0005000F1005000903A
:1018B0000098E1684861012038BDFEB50446002665
:1018C00000250020009002900190D4F8CC00006820
:1018D0000290D4F8CC0000680190019820F0040038
:1018E0000190019820F002000190019820F008007A
:1018F0000190019820F0200001900298C0F3400070
:1019000058B1019820F00200801C0190E148006865
:1019100041682046884745F001050298C0F3C000A1
:10192000002842D0019820F0080008300190029869
:10193000C0F38000002838D0D648006841682046AF
:1019400088470298C0F34140022804D00298C0F3AF
:101950004140012828D16069006800900298C0F3D6
:101960004140022811D141F27071606941600098D4
:1019700000F00300022818D0207A022803D10221A7
:101980002046FFF75BFD01260FE04BF680316069D2
:101990004160009800F00300012806D00121204694
:1019A000FFF74CFD012600E001260298C0F340102D
:1019B00030B1019820F020002030019045F0010561
:1019C00016B12046FFF725FD0199D4F8CC0001603F
:1019D0002846FEBD7FB505460C4605F1900050F83F
:1019E0002460B0680390F0680290DDE902100840BE
:1019F000039005F1900050F82400006801900398CE
:101A0000C0F38000D0B100200090009820F00400C6
:101A1000001D00900098B06005F1900050F824007F
:101A2000C0680090009820F00200801C009005F132
:101A3000900050F824000099C160B4E10398C0F30D
:101A4000401048B100200090009820F02000203085
:101A500000900098B060A6E10398C0F34020F8B170
:101A600005F1900050F82400C0680090009820F024
:101A70000200801C009005F1900050F824000099AD
:101A8000C160E1B22846FFF738FE002000900098C0
:101A900020F4007000F5007000900098B06082E1C2
:101AA000039800F0010038B3002105F5457040F8B7
:101AB000241005F1900050F82400C06800900098B0
:101AC00020F00200801C009005F1900050F82400E6
:101AD0000099C160E1B22846FFF70FFE0020009098
:101AE000009820F00100401C00900098B060012197
:101AF00005F56370015556E10398C0F3C00010B3BB
:101B000000200090009820F0080008300090009815
:101B1000B06005F1900050F82400C0680090009873
:101B200020F00200801C009005F1900050F8240085
:101B30000099C160E1B22846FFF7DFFD052105F5F8
:101B4000637001552FE10398C0F3001038B30021F2
:101B500005F5457040F8241005F1900050F8240078
:101B6000C0680090009820F00200801C009005F1F1
:101B7000900050F824000099C160E1B22846FFF7B8
:101B8000BCFD00200090009820F010001030009064
:101B90000098B060032105F56370015503E10398D7
:101BA000C0F3C01040B305F1900050F82400C068A5
:101BB0000090009820F00200801C009005F1900039
:101BC00050F824000099C160E1B22846FFF795FD66
:101BD00005F5457050F82410491C40F824100621E2
:101BE0007830015500200090009820F0800080306F
:101BF00000900098B060D6E00398C0F3801038B32E
:101C0000002105F5457040F8241005F1900050F8CA
:101C10002400C0680090009820F00200801C009012
:101C200005F1900050F824000099C160E1B2284607
:101C3000FFF763FD00200090009820F04000403046
:101C400000900098B060042105F563700155AAE08A
:101C50000398C0F3802078B305F1900050F8240079
:101C6000C0680090009820F00200801C009005F1F0
:101C7000900050F824000099C160E1B22846FFF7B7
:101C80003CFD00200090009820F0100010300090E3
:101C9000009801E044000020B060082105F5637061
:101CA000015500200090009820F4806000F58060CD
:101CB00000900098B06076E0FFE70398C0F3400022
:101CC000002870D005F1900050F82400C068009002
:101CD000009820F00200009005F1900050F82400D8
:101CE0000099C16005F56370005D012815D10121DF
:101CF00005F29B3001550198C0F38140022848D17C
:101D000005F56B7000EB4410407E80F0010105F595
:101D10006B7000EB441041763BE005F56370005DAD
:101D2000032804D1022105F29B30015531E005F56D
:101D30006370005D04280FD105F56B7000EB441053
:101D40000079012803D1E1B22846FFF7F4FC022113
:101D500005F29B3001551CE005F56370005D052818
:101D600004D1042105F29B30015512E005F56370A2
:101D7000005D06280DD105F5457050F824000328B4
:101D800007D1032105F29B3001550021873840F827
:101D9000241000200090009820F00200801C009089
:101DA0000098B06000BF012004B070BD70B586B06F
:101DB00005460C4605F1900050F82460B068059087
:101DC000F0680490DDE904100840059005F19000EA
:101DD00050F8240000680390002004900598C0F398
:101DE0008000D0B100200190019820F00400001D77
:101DF00001900198B06005F1900050F82400C0688F
:101E00000190019820F00200801C019005F19000E3
:101E100050F824000199C16073E00598C0F34010A8
:101E200048B100200190019820F02000203001905E
:101E30000198B06065E00598C0F3C00078B305F183
:101E4000900050F82400C0680190019820F0020032
:101E5000801C019005F1900050F824000199C160A8
:101E6000052105F56370015500200190019820F0CF
:101E70001000103001900198B0600020019001988E
:101E800020F00800083001900198B060059820F01B
:101E900010000590E1B22846FFF72FFC31E0FFE784
:101EA0000598C0F3802060B305F1900050F824003D
:101EB000C0680190019820F00200801C019005F19B
:101EC000900050F824000199C160E1B22846FFF764
:101ED00014FC00200190019820F0100010300190B7
:101EE0000198B060082105F563700155002001904C
:101EF000019820F4806000F5806001900198B06046
:101F000000BF0598C0F34020F8B105F1900050F8EB
:101F10002400C0680190019820F00200801C01900C
:101F200005F1900050F824000199C160E1B2284603
:101F3000FFF7E3FB00200190019820F4007000F50A
:101F4000007001900198B06042E1059800F0010036
:101F5000002871D0E878012812D105F1900050F8DE
:101F600024000069029005F56B7000EB44100069D5
:101F70000299C1F31201411A05F5547040F824107A
:101F8000012105F5637001550021783840F82410CF
:101F900000200190019820F00100401C0190019860
:101FA000B0600398C0F3814020B10398C0F3814032
:101FB00002282AD105F1900050F82400C068019051
:101FC000019820F00200801C019005F1900050F86B
:101FD00024000199C160E1B22846FFF78EFB002082
:101FE0000190019820F01000103001900198B0602D
:101FF00005F56B7000EB4410007E80F0010105F5E3
:102000006B7000EB44100176E2E00398C0F381406E
:10201000032899D1039820F0005000F1005003905C
:1020200005F1900050F8240003990160012105F2A8
:102030009B300155CCE0FFE70598C0F34000002835
:1020400051D005F1900050F82400C068019001982B
:1020500020F00200019005F1900050F82400019951
:10206000C16005F56370005D012804D1012105F20E
:102070009B3001552DE005F56370005D052804D106
:10208000042105F29B30015523E005F56370005DE6
:10209000062804D005F56370005D082808D10021EA
:1020A00005F5457040F8241003218730015510E0F4
:1020B0000398C0F3814003280BD105F56B7000EB4A
:1020C0004410007E80F0010105F56B7000EB4410B8
:1020D000017600200190019820F00200801C019000
:1020E0000198B06074E00598C0F3C01040B305F1EA
:1020F000900050F82400C0680190019820F0020080
:10210000801C019005F1900050F824000199C160F5
:1021100005F5457050F82410491C40F8241006219C
:1021200078300155E1B22846FFF7E7FA0020019028
:10213000019820F08000803001900198B06047E065
:102140000598C0F30010E8B30398C0F3814003285A
:1021500015D105F1900050F82400C0680190019855
:1021600020F00200801C019005F1900050F824003E
:102170000199C160E1B22846FFF7BFFA18E0039861
:10218000C0F3814020B10398C0F3814002280FD1F1
:10219000039820F0004000F100400390039820F0E5
:1021A0008040039005F1900050F8240003990160ED
:1021B000032105F56370015500200190019820F07E
:1021C000100000E004E0103001900198B06000BF02
:1021D000012006B070BD7CB50546002400262846C7
:1021E000FFF792F9019000BF1BE0019880B2012136
:1021F000A1400840A0B105F1900050F8240000680B
:1022000000900098C0F3C03028B121462846FFF75F
:10221000CDFD064304E021462846FFF7DBFB0643DD
:10222000641C2878A042E0D830467CBDFEB5044648
:102230006069006900900198C0F3C30104F56B70F8
:1022400000EB41100069C01CC0F38F0674E04FF62C
:10225000FF71009801EA80050198C0F3C30104F5FD
:102260006B7000EB41100069A84216D20198C0F3D0
:10227000C30104F56B7000EB4110008A85B20020A9
:102280000290029820F0806000F180600290E06887
:10229000806902998843E16888610198C0F3C301AD
:1022A00004F56B7000EB41100069C01CC0F38F0691
:1022B0000198C0F3C302C0F3C30304F56B7000EBD5
:1022C00043102B46C1682046FEF720FF0198C0F35B
:1022D000C30104F56B7000EB4110C068411901980F
:1022E000C0F3C30204F56B7000EB4210C1600198AB
:1022F000C0F3C30104F56B7000EB41100069411B92
:102300000198C0F3C30204F56B7000EB4210016149
:102310000198C0F3C30104F56B7000EB41104069F4
:1023200041190198C0F3C30204F56B7000EB421031
:102330004161606900690090009880B2B0420ADD96
:102340000198C0F3C30104F56B7000EB4110006904
:1023500000287FF47CAF0120FEBD7FB50446E06815
:10236000C06A00900198C0F3C30104F56B7000EBE4
:1023700041100069C01CC0F38F0673E04FF6FF7177
:10238000009801EA80050198C0F3C30104F56B7061
:1023900000EB41100069A84215D20198C0F3C301B7
:1023A00004F56B7000EB4110008A85B200200390A9
:1023B000039820F0200020300390E06880690399A2
:1023C0008843E16888610198C0F3C30104F56B702C
:1023D00000EB41100069C01CC0F38F060198C0F3E8
:1023E000C302C0F3C30304F56B7000EB43102B462C
:1023F000C1682046FEF78AFE0198C0F3C30104F5C8
:102400006B7000EB4110C06841190198C0F3C30222
:1024100004F56B7000EB4210C1600198C0F3C3017A
:1024200004F56B7000EB41100069411B0198C0F38B
:10243000C30204F56B7000EB421001610198C0F318
:10244000C30104F56B7000EB41104069411901981C
:10245000C0F3C30204F56B7000EB42104161E06809
:10246000C06A0090009880B2B0420ADD0198C0F3C3
:10247000C30104F56B7000EB4110006900287FF484
:102480007DAF012004B070BD30B585B0044600209A
:1024900000900390039820F0100010300390E06843
:1024A000806903998843E1688861E068006A049064
:1024B000049800F00F00009004F190009DF80010C7
:1024C00050F82100006801900498C0F343400228AE
:1024D00006D0032878D0052877D0072873D175E077
:1024E0000498C0F30A10002869DD04F56B709DF8AC
:1024F000001000EB4110C068002860D00498C0F3C1
:102500000A1204F56B709DF8003000EB4310C168AF
:102510002046FEF70FFE049800F00F0104F56B70E3
:1025200000EB4110C0680499C1F30A1101440498FA
:1025300000F00F0204F56B7000EB4210C1600498CC
:1025400000F00F0104F56B7000EB41104069049935
:10255000C1F30A110144049800F00F0204F56B70F6
:1025600000EB4210416104F56B709DF8001000EB28
:102570004110456904F554709DF8001040F8215051
:1025800004F190009DF8001050F8210000690290BD
:102590000298C0F3C940002811DD019820F00040E6
:1025A00000F100400190019820F08040019004F17A
:1025B00090009DF80020019950F82200016006E08B
:1025C00002E002E0FFE700BF00BF00BF00BF00BFA6
:1025D000039820F0100010300390E06880690399A0
:1025E0000843E1688861012005B030BD38B5044674
:1025F0000020009031480068016820468847009814
:1026000020F00800083000900098E168486101203F
:1026100038BD38B505460024002000902846FEF756
:10262000A4FE002847D02846FEF7A6FE009000989A
:1026300008B9002038BD0098C0F3C00018B1284682
:10264000FFF7D4FF04430098C0F3001018B12846E8
:10265000FFF71AFF04430098C0F3401018B1284652
:10266000FFF77BFE04430098C0F3806018B1284652
:10267000FFF7DCFD04430098C0F3406018B1284622
:10268000FFF7A9FD04430098C0F3006018B1284685
:10269000FFF713F904430098C0F3407018B12846BF
:1026A000FFF7F7F804430098C0F3405018B12846EC
:1026B000FFF7CCF804432046BCE7000044000020AC
:1026C0000121C0F81013002070470021C0F810133A
:1026D000084670470020704770B50C4600212170F5
:1026E0006170A17001220546E27022774020A0713E
:1026F00084F8201084F821202179284600F015FB69
:102700006179284600F011FB002070BD2DE9F041F1
:102710001D4614460F468046069EFEF734FC0020F8
:10272000FEF7A2FC21464046FFF7D6FFE4E95056EB
:1027300039464046FFF734F86068006880474046F5
:10274000BDE8F041FEF761BC2DE9F05F0026804650
:102750008E740C46087F0B2509270121DFF80895A8
:102760004FF0080B4FF0050A0C2817D2DFE800F0F5
:10277000D1060E39415A677B849EAFC4627904F159
:102780001401404600F00CFB0220AEE061794046A7
:10279000FFF743F8012802D003281ED0B9E0207DBE
:1027A000618B00F0800051B141F28832A9F800201D
:1027B000802802D084F81CA008E0032005E0322223
:1027C000A9F80020802806D0072020774046FFF790
:1027D00020F820829DE02777F8E7257784F812A07B
:1027E00097E02379A2894046A16800F008FB042005
:1027F0007BE021794046FFF710F801280DD004282E
:102800000DD0032876D04046FFF703F8218A411AFD
:10281000B9F8000081426DD87BE02777F3E7607854
:10282000207076E0627908EB421080F8C513637976
:10283000A2894046A16800F0C7FA062055E06179F8
:102840004046FEF7EAFF012804D0042804D00228FD
:1028500006D044E0072048E0607820700C2044E077
:1028600084F81CA055E0002223791146404600F070
:10287000C6FA84F81CB04CE021794046FEF7CDFF43
:10288000074601282ED0032F34D04046FEF7C1FF63
:10289000218A411AB9F8000081422BD8042F38D17F
:1028A000607820700420A074032632E06179002251
:1028B00008EB411090F8C51381F0010180F8C513B1
:1028C00063791146404600F07FFA0A200DE06179F5
:1028D0004046FEF7A2FF012804D0022808D00328B2
:1028E00008D016E0607820700D20207711E001E01C
:1028F00027770EE025770CE0A07B401CC0B2A073C8
:10290000022801D8217704E084F812B060782070A2
:1029100002263046BDE8F09F70B50A250446052919
:102920000AD0042908D006290BD12570D0F844011B
:102930000068BDE870400047D4F84401406C80470F
:10294000257070BD2DE9F0410C468046012589783F
:102950000026FF2092B02F460A2956D2DFE801F068
:10296000052332565F71849BAEB80822214640464B
:1029700000F050FF002848D194F82900A07140468B
:10298000FEF73FFFA770A0790023CDE900606179D1
:102990001A46404600F096F9A0790023CDE9006080
:1029A00021791A462EE012222146404600F032FFDD
:1029B00000282AD1D4F84401C16904F122008847D3
:1029C000022083E001222146404601F055F800280C
:1029D0007FD10220FEF744FB84F82070D4F8440134
:1029E000A41C006A80470320207000960196A27FF5
:1029F000A1780023404600F065F900960196A27F79
:102A0000E1780023404600F05DF962E009222146AA
:102A1000404600F0E3FF00285BD1042056E0E28E40
:102A20002146404600F0DAFFA0BBD4F8440104F18F
:102A30006C0204F13E01436A04F13400984705201A
:102A400044E094F83020062652B1009002AB2146B3
:102A5000404600F0EDFFE8B9D4F84401816A11E086
:102A6000D4F84401816A12E094F8312007265AB163
:102A7000009002AB2146404600F0DAFF50B9D4F88E
:102A80004401C16A02A803E0D4F84401C16A77A0F6
:102A90008847A6701DE094F83220082652B10090B5
:102AA00002AB2146404600F0C3FF90B9D4F8440180
:102AB000016BE7E7D4F84401016BE8E794F83920AB
:102AC0002146404600F0E4FF18B90920A07000E05C
:102AD000002512B02846BDE8F0812DE9FC41022610
:102AE0000C4605468DF80060FEF790FE20B9207870
:102AF00010B1022800D026702078002604F12007AB
:102B00000B2849D2DFE800F0061299484A677A8319
:102B1000564888002846FEF779FE00283CD0012060
:102B20002070BDE8FC416420FEF79ABAD4F8440155
:102B3000806880470021284600F0DDF86071802120
:102B4000284600F0D8F820712846FEF75AFE0028E3
:102B500022D1D4F84401A41CC06880472846FEF75F
:102B60004AFEC0B2E077042104F8021CD4F84211F6
:102B7000896988472079CDE90060E37FA27FA17849
:102B8000284600F075F82079CDE90060E37FA27F48
:102B9000E178284600F06CF8BDE8FC812146284623
:102BA000FFF7D0FE0028F7D1D4F84401406B8047EE
:102BB00008200EE0D4F84401806B80470128EBD157
:102BC000D4F8400121460268284690470028E3D106
:102BD00005202070E0E7D4F84001214682682846AD
:102BE00090478DF800009DF8000008B90620F0E736
:102BF0009DF800102046BDE8FC418DE6D4F8400168
:102C00002146C268284690478DF80000F0E721462B
:102C10002846BDE8FC4197E521462846FFF75CFDC4
:102C2000D4F8440140688047D4F8400139464268EE
:102C300002B02846BDE8F0411047D4F844010069CD
:102C4000804721462846FFF747FDD4F844014068F5
:102C50008047D4F8400139464268284690472846C4
:102C600000F06FF8267097E7480000204E2F4100D3
:102C70002DE9F04100EB4105DDE9066795F88C454B
:102C800004F07F0C00EB411484F8ADC395F88C552B
:102C9000C5F3C01584F8AE5384F8AC2384F8B1634F
:102CA000A4F8B27384F8AF33002284F8C42384F804
:102CB000C52313B9012284F8B023FEF728FC0020B5
:102CC000BDE8F08170B500EB4114059D0AB184F8B0
:102CD000AC23B4F8B223AA4202D00DB1A4F8B25387
:102CE00094F8AF239A4202D00BB184F8AF33FEF7C9
:102CF0000EFC002070BD30B5034600224FF6FF7475
:102D000003EB4205B5F88C552D0404D5521CD2B204
:102D1000082AF5D32246A24205D003EB420041F433
:102D20000041A0F88C15D0B230BD082907D200EBC5
:102D30004100B0F88C15C1F30E01A0F88C150020ED
:102D400070470221002200EB4103491CC9B2A3F8DD
:102D50008C250829F7D30020704730B50120CC78A6
:102D60000546012C0BD0022C08D10A7F0D2A10D069
:102D70000B2A12D00C2A01D1CD70032030BD0C7863
:102D80004C7007240C708A608B810D770222CA7008
:102D900030BDCD700020087730BDCD70022030BD31
:102DA00010B50B4600EB4211002481F8AE4303241A
:102DB00081F8B443C1F8B8330823C1F8BC331146D5
:102DC000FEF73AFDC0B210BD70B500EB431400250C
:102DD00084F8AE53C4E9EE121AB194F8C51359B190
:102DE00002E0012184F8C513022184F8B4131946C6
:102DF000FEF722FD002070BD84F8B453F7E770B5EC
:102E00000C4600EB4311012581F8AE53022581F8F1
:102E1000B453C1E9EE421946FEF70EFD002070BD25
:102E200070B500EB4314002584F8AE53C4E9EE12EC
:102E300094F8C51339B1022184F8B4131946FEF78A
:102E4000FBFC002070BD84F8B453F7E770B50C4666
:102E500000EB4311012581F8AE53C1E9EE4291F830
:102E6000C42302B1022281F8B4231946FEF7E4FC20
:102E7000002070BD70B50C4600EB4311012581F8B0
:102E8000AE53C1E9EE4291F8C4235AB1022481F84D
:102E9000B44382F0010281F8C4231946FEF7CCFC4A
:102EA000002070BD0024F2E770B50D4600EB43141E
:102EB000002184F8AE13C4E9EE5294F8C42302B1A1
:102EC000022184F8B41382F0010184F8C413194676
:102ED000FEF7B2FC002070BD70B50C4600EB43114C
:102EE000012581F8AE53C1E9EE42002281F8B423F6
:102EF0001946FEF7A1FC002070BD70B500EB43142D
:102F0000002584F8AE53C4E9EE1284F8B453194690
:102F1000FEF792FC002070BD10B5FEF777FC002193
:102F200048B1AB48A94A0260AA4A42604173A84A24
:102F300001203032D070A8480161A848017010BD4E
:102F400070B50446A64D012012B1012A08D102E055
:102F50002B78EA7801E06B78AA78204600F0B1FD82
:102F60009D4A1169491C1161042900D9042070BDD2
:102F700070B505460124FEF749FCD8B198480178A0
:102F80002846FEF74EFC0D2813D19148954A203073
:102F9000016891420DD18E4A41685268914209D12F
:102FA000007B20B1012805D0022802D002E00024D5
:102FB00000E0022486483030C473204670BD2DE9FD
:102FC000F35F0098FEF722FC002821D0804C0526F4
:102FD0003034834A2079804D00274FF008094FF0A4
:102FE000070B4FF002084FF0010A092810D2DFE862
:102FF00000F00F05113262A8BDD3DF0053781F2205
:1030000073490098FFF70CFF84F805A084F804804A
:10301000BDE8FC9F51780098FEF7FFFB012806D021
:10302000022872D00428F3D185F800A0BDE06848DA
:103030002F6184F80580017B806801F08001002801
:103040006ED06860A068A860E860802901D0042084
:10305000BAE00320B8E0904611780098FEF7DDFB57
:10306000012802D0617903291FD003202F616071EC
:10307000B8F80420686882420ED298F80030A96837
:103080000098FFF7E3FEB8F804006968091A696060
:10309000A9680844A860BBE7B0B382B298F80030D2
:1030A000A9680098FFF7D2FE38E00428B0D12F704D
:1030B00084F804B00EE0904651780098FEF7ADFB1E
:1030C000012809D002282DD00428A1D185F800A01C
:1030D00084F8049066719BE704202F616071B8F852
:1030E00006206868824211D298F80130A9680098D9
:1030F000FFF796FEA868E860B8F806100844A860D4
:103100006868401A686083E70AE05CE040B182B218
:1031100098F80130A9680098FFF782FE6F6077E7A2
:10312000267175E7D5E9021098F80130B8F8062045
:10313000814200D0891A009802B0BDE8F05FFFF725
:103140006FBE2349667120313F20A160A0810D2010
:103150000D462F54401E10F0FF00FAD12F70137847
:103160003F220098FFF772FE06202DE011780098AC
:10317000FEF753FB012805D004288CD12F7084F86A
:1031800004B045E72F616671A0782070DDE9000189
:10319000FFF7EEFEE0733BE7DDE900010022FFF7F9
:1031A000CFFE58B9287802280DD184F804902FE773
:1031B000DDE900010122FFF7C3FE20B104288AD116
:1031C00084F80F8024E76079207121E7555342434A
:1031D000CC070020504030204C0000206000002030
:1031E0000C080020555342532DE9FC41064691F846
:1031F00043000C46082803D194F84500502806D017
:10320000D1F84401006C80470020BDE8FC8194F8AF
:103210006E008B4D010604D5E870B4F87000A880EC
:1032200003E0A870B4F87000E88094F87600010616
:1032300004D5E870B4F87800A88003E0A870B4F86A
:103240007800E880A9783046FFF755FD6870E97886
:103250003046FFF750FD2870E8880227CDE900705E
:1032600094F8213014F8202F69783046FFF700FDDC
:10327000A888CDE900706378227829783046FFF776
:10328000F7FCC1E770B56E4C06460025617831B198
:10329000FEF733FA61783046FFF747FD6570217815
:1032A000002907D03046FEF728FA21783046FFF78C
:1032B0003CFD257070BD634900200870704761496E
:1032C0000A23012802D002280CD070475E4A1078E9
:1032D000401CC0B210700A2804D2062008700120D9
:1032E000C87070470B7070472DE9F05F0E4681463D
:1032F0000124FEF78BFA00282AD0524D0027DFF870
:1033000040B12878DFF840814FF0080A0B281FD21F
:10331000DFE800F0060B2359626D757D824D910048
:103320004846FFF7F9FD012013E021223275FF2204
:103330007275F782378300234846314677831A46F1
:10334000FFF70BFD04004FF0020002D0032C02D067
:1033500072E0287070E0687027E0A1223275FE22CA
:103360007275F78237830127354A4846314677839D
:103370003B460832FFF7F1FC04004FF0030202D095
:10338000032C11D058E09BF808008BF8080210B10C
:1033900098F8011009B12A704EE088F80170D6F84B
:1033A0004401006C804747E06A700920D1E77379D7
:1033B00000223146484600F084FB04003CD18BF8E3
:1033C00008726878C5E7484600F040F808B904205C
:1033D00008E0FFF774FF2FE0484600F071F800287E
:1033E000F7D10520287088F80070002424E04846B2
:1033F00000F0B0F80028ECD185F800A0F3E74846CB
:1034000000F0EFF80028E4D168782870EDE7314645
:103410004846FFF7D4FD0FE0D6F84401C06B804763
:1034200010F0FF0002D0012803D005E085F800A0CD
:1034300002E0062400E004242046BDE8F09F0000DE
:103440000C080020FC0700206000002070B5032459
:10345000FEF7DCF910B3DE4D0123E878012802D035
:1034600002282BD11BE0DB49002206208A600A7368
:103470008873D948A8603F20A8810324AC7010202D
:103480000E18401EF27310F0FF00F9D1CA732B71B1
:1034900007202870EC730220E87003240EE0E87B1C
:1034A00020B1012805D0022806D007E0EB700024E7
:1034B00004E0EB70012401E0EB700224204670BDB3
:1034C00070B50324FEF7A2F920B3C14D0123C34810
:1034D000E978012902D002293AD11CE0BD4908222D
:1034E0008A6080220A730A228A73A8600420A87066
:1034F000102000220C18401EE27310F0FF00F9D1DA
:103500002520C8732B71072028700320E873022040
:10351000E87003241CE0E97B21B1012913D00229C2
:1035200014D015E0AD49027810390024CA704278F1
:103530008A7082784A70C2780A7082794A72C07939
:103540000872EB7004E0EB70012401E0EB700224E0
:10355000204670BD70B50324FEF758F930B39C4D7A
:103560009E4E0022E8780123012802D0022836D19D
:103570001DE098493F2480208C6008730A208873DE
:103580000520AE60A87010200E18401EF27310F0D7
:10359000FF00F9D11A20C8734C74CC742B7107202A
:1035A00028700320E8730220E870032417E0E87B0A
:1035B00020B101280ED002280FD010E0B07801060B
:1035C0008648A0F1100001D5037300E00273EB7090
:1035D000002404E0EB70012401E0EB70022420469B
:1035E00070BD70B50324FEF711F938B3784D01238F
:1035F0007A4AE878012802D0022839D11FE07549BB
:103600003F2480208C6008730A208873AA60A87801
:1036100068700620A870102000220E18401EF27359
:1036200010F0FF00F9D10320C8730A74CC742B7119
:1036300007212970E8730220E870032418E0E87B72
:1036400020B101280FD0022810D011E06348117872
:1036500010380024C1715178817191784171D1780D
:103660000171EB7004E0EB70012401E0EB700224C7
:10367000204670BDF8B51E4615460F460324FEF7DA
:10368000C5F878B3524B0122D878012802D002281D
:1036900037D128E04F4C00210A20A6602173A07387
:1036A00010209F602718401EF97310F0FF00F9D119
:1036B0002A20E073280E6074280CA074280AE07495
:1036C0002575700AADF800009DF80100A0759DF801
:1036D0000000E0751A71072018700320D8730220CB
:1036E000D87003240DE0D87B20B1012805D0022832
:1036F00005D006E0DA70002403E0DA7001E0DA7049
:1037000002242046F8BD2DE9FF4F354D81B04FF022
:10371000030985F80090984614460198FEF776F85C
:10372000C0B32B4F01264FF0020BF8784FF0000A80
:10373000012802D0022847D12DE026498020524698
:10374000C1F8088008730A2088730298B8601020B6
:103750000B18401EDA7310F0FF00F9D12820C8734F
:10376000200E4874200C8874200AC8740C754FEA27
:103770005820ADF800009DF8010088759DF8000004
:10378000C8753E710720387087F80F9087F803B02E
:1037900085F8009018E0F87B38B90198FEF736F804
:1037A00018B1FE7085F800A00EE0F87B012805D165
:1037B0000198FEF72BF808B1FE7005E0F87B0228AF
:1037C00002D1FE7085F800B0287805B0BDE8F08F12
:1037D000FC070020CC070020EC070020280A00206E
:1037E0007400002030B442F08002DDE902540A7512
:1037F00006224A750322CB82B2EB132F02D140F28C
:10380000094200E000220A834C8323462A4630BC4A
:10381000FFF7A3BA7CB51646044600F58870CDE9DB
:1038200000060D464FF4807300222046FFF7DAFFB2
:1038300000283CD194F8101105F8221F94F81111BA
:10384000697094F8121194F81321082E01EB0221EB
:10385000698094F81411297194F81511697194F81C
:103860001611A97194F81711E97120D994F818115B
:1038700094F8192101EB0221298194F81A1194F886
:103880001B2101EB0221698194F81C1194F81D2180
:1038900001EB0221A98194F81E11A97394F81F115C
:1038A000E97394F82011297494F8211169747CBD8E
:1038B0000A8803781A440A800178084470472DE981
:1038C000FF4F85B00746187812993870587878708D
:1038D00092469878DA781C4600EB022078801879B6
:1038E00038715A797A719A79BA71DA79FA71227AD9
:1038F0003A7209296FD90921DFF81C82ADF80C1042
:1039000005285ED962E003A92046FFF7D1FF0446EF
:103910004078042855D194F90260069806EBC60158
:1039200001EB000BE07803284BD22146684600F0FB
:10393000DFF89DF804000025052842D83DE003A9E2
:103940002046FFF7B5FF04464078052835D106EB41
:1039500086010AEBC10000EBC50998F80000B042EF
:1039600002D088F8006007E02079617900EB01213E
:10397000B8F80200814224D36946584600F0B8F8EE
:10398000217889F80010617889F80110A17889F808
:103990000210E17889F80310217962796D1C01EB3E
:1039A0000221A9F80410A17989F80610207961791B
:1039B0006DB200EB0120A8F802009DF80400A842B7
:1039C000BDDC7888BDF80C1088429CD80021A8F88E
:1039D000021088F8001009B0BDE8F08F2DE9FC470F
:1039E000154600F58878CDE90085002407460E4687
:1039F0004FF400732246FFF7F5FE5FEA000907D097
:103A000013E0391991F810110155641CA4B200E0BB
:103A10004248AC42F5D3434606F16C0206F13E0142
:103A200006F134000095FFF74AFF4846BDE8FC87E1
:103A30007CB500F58875069E1C46CDE9005642F41B
:103A400040730022FFF7CEFE002814D169780329C5
:103A500011D129788A1EB24200DC16460021B2B28A
:103A6000AD1C04E06B5C891C04F8013B89B29142F7
:103A7000F8D3002121707CBD30B400230B750524E0
:103A80004C75CA820B834B8330BC1A46FFF765B96D
:103A900030B400230B7509244C75CA820B834B8309
:103AA00030BC1A46FFF759B930B401240C750B2409
:103AB0004C75CB820A8300224A8330BC1346FFF741
:103AC0004CB930B402240C7501244C750024CC820E
:103AD0000A8315064C8300EB431202D582F8C443D7
:103AE00001E082F8C543002330BC1A46FFF735B920
:103AF0000A7802704A7842708A788270CA78C270F6
:103B00000A7902714A7942718A798271CA79C271DD
:103B1000097A01727047000076000020280C00200E
:103B200022490220087022490020087070471F496E
:103B3000022008701E490020087070471B490220AF
:103B400008701B490020087070471849022008704F
:103B50001749002008707047154900200870704709
:103B6000704770477047704770477047704770479D
:103B70000E49032008707047012070470B49002050
:103B8000087070470A48017849B901210170074857
:103B900001700849097B012901D10421017000202D
:103BA0007047034900200870704700002100002082
:103BB000C4000020180A002001004FF0010003D0CB
:103BC000012901D101F082BE704701004FF00100D0
:103BD00003D0012901D101F08DBE704730B40D46EC
:103BE000010014464FF0040007D0012905D12146F9
:103BF000284630BC1A4601F080BE30BC704730B455
:103C00000D460146144604204BB10029F5D0012988
:103C1000F3D12146284630BC1A4601F09CBE042050
:103C2000EBE70B4601004FF0040005D0012903D15A
:103C30001146184601F0C2BE7047014870470000A7
:103C40000000FC422DE9F0410446007900B3E66A29
:103C500004F130016078012332460F46FFF7CFFFB1
:103C600010B10120BDE8F08100202071206AA16917
:103C7000301A88420CD2E57808E0A0690123064496
:103C8000607832463946FFF7BAFF6D1E022DF4D236
:103C90000020E7E770B50446C06A0D46A8420ED082
:103CA0002046FFF7CFFF38B9607801232A4604F198
:103CB0003001FFF793FF08B1012070BDE5620020DD
:103CC00070BD70B50446FFF7BDFF05004FD12078E9
:103CD000032845D16079012842D1420204F1300025
:103CE0000021064601F0D2FD552084F82E02AA20BC
:103CF00084F82F02522084F8300084F831006122C9
:103D000084F83220412084F83300722184F81412A0
:103D100084F8151284F8160284F81722206984F8B2
:103D20001802010A84F81912010C84F81A12000E04
:103D300084F81B02E06884F81C02010A84F81D1252
:103D4000010C84F81E12000E84F81F02E2690123A0
:103D5000521CE26260783146FFF751FF002060712B
:103D6000002260781146FFF75CFF00B1012528466C
:103D700070BD4269891E921E8A4201D80020704798
:103D8000826A807801FB002070472DE9F0410D46E2
:103D90000446022909D36069A84206D9207801287F
:103DA00005D0022827D0032831D001205AE7206A05
:103DB00005EB550600EB56212046FFF76BFF68BB6D
:103DC000C6F308002044761C90F83070206A00EB9F
:103DD00056212046FFF75EFF00BBC6F308002044D3
:103DE000E90790F8300047EA002001D0000939E7E0
:103DF000C0F30B0036E7206A00EB15212046FFF7E1
:103E000049FF58B9E8B204EB4000008E2AE7206A67
:103E100000EBD5112046FFF73DFF10B14FF0FF300A
:103E200020E740F2FF1000EA8500204490F83010AF
:103E3000D0F8310041EA002020F0704012E72DE96F
:103E4000F04716460D460446022902D36069A8428F
:103E500002D80220BDE8F087207806F0FF084FF076
:103E60000109012807D0022837D0032846D00220B4
:103E700084F80490EEE7206A05EB550700EB572124
:103E80002046FFF707FF0028F2D1C7F308002044BF
:103E90003030E90703D0017868F31F1100E03146A4
:103EA000017084F80490206A7F1C00EB57212046A3
:103EB000FFF7F0FE0028DBD1C7F3080121443031C1
:103EC000EA0702D0C6F3071205E00A78C6F3032317
:103ED00002F0F0021A430A70CAE7206A00EB1521CB
:103EE0002046FFF7D7FE0028C2D1E9B204EB41011A
:103EF000320A81F8308081F83120B9E7206A00EB7E
:103F0000D5112046FFF7C6FE0028B1D140F2FF11BF
:103F100001EA850121444FF07043D1F8312003EAD2
:103F20000222324301F8302F130A4B70130C8B70AE
:103F3000120ECA709CE72DE9F0410F460446022993
:103F400016D36069B84213D900261FE039462046CF
:103F5000FFF71BFF05001CD0012D09D0681C09D0FC
:103F6000002239462046FFF76AFF060011D103E020
:103F700002260EE001260CE02069411C05D0401C01
:103F80002061607940F0010060712F466069B8429D
:103F9000DCD8304666E62DE9F0410F00064605D034
:103FA000FFF7F3FE022808D201205BE6F56815B1A1
:103FB0007069A84207D8012505E0411CF5D0716958
:103FC0008142F2D83D462C467069641CA04202D85A
:103FD0000224022D0AD321463046FFF7D6FE38B11F
:103FE000411CE2D00128E0D0AC42EDD1002039E6FE
:103FF0006FF0704221463046FFF721FF30B957B1CC
:10400000224639463046FFF71AFF20B101280DD06D
:104010000124204626E6F4603069411CF9D0401E98
:104020003061707940F001007071F2E74FF0FF34B9
:10403000EFE770B5C18083680D460446012B34D08C
:1040400020684169994230D923B90178032904D104
:10405000436A13B18078060110E00189A94224D98E
:10406000406A11E0FFF791FE0346401C1BD0022B73
:104070001BD320684069984217D9AD1B2068B54210
:104080001946EFD2FFF775FEE36070B100EB151033
:10409000206105F00F013022206802EB4111084435
:1040A0006061002070BD012070BD022070BD2DE94F
:1040B000F041C78804467F1C38040E46000C2CD003
:1040C000206950B3390759D1401C2061E16820684C
:1040D00029B18278521E12EA171F04D04EE00089DF
:1040E000B8421AD94AE0FFF750FE0546012818D910
:1040F000681C2FD020684169A94239D86EB1E168A7
:10410000FFF749FF05000AD0012D0AD0681C21D015
:104110002068FFF797FDE8B905E00420A2E5072035
:10412000A0E502209EE520684FF4007200213030A7
:1041300001F0ACFB29462068FFF71BFE2168002632
:104140004FF00108C8620CE080F804802068FFF797
:1041500079FD08B1012085E52068C16A491C761CFB
:10416000C16220688178B142EED8C16A891BC16200
:10417000E56029462068FFF7FCFD2061E78007F035
:104180000F013022206802EB4111084460610020D9
:1041900068E570B50E4605460021FFF74AFF88B96D
:1041A000002429692868FFF775FD58B969690978FD
:1041B000E5290BD051B1002401212846FFF777FFF4
:1041C0000028EED0042800D1072070BD641CB44242
:1041D000F2D170BD70B504460D4604201EE0206883
:1041E000FFF758FDF8B961690A789AB1C97AE52AEA
:1041F00001F03F0108D02E2A06D00F2904D008294B
:104200000AD00021A94210D000212046FFF74FFF1D
:1042100020B108E0042006E00121F3E7216900292C
:10422000DDD1002801D00021216170BD70B50446A8
:104230000121FFF7AEFF050012D121692068FFF7C9
:1042400029FD05000CD120220021606901F01EFB30
:10425000D4E905010B2201F006FB21680120087159
:10426000284670BD70B50446C188FFF7E2FE050020
:1042700010D121692068FFF70DFD05000AD1202229
:104280000021606901F002FB6169E5200870216886
:1042900001200871284670BD30B5036901F109029B
:1042A000EBB1446900202E25235C401C202B08D054
:1042B000052B00D1E523092801D102F8015B02F8A2
:1042C000013B0B28F0D3E07A0872207FD4F81D3030
:1042D00040EA03200860208B8880E08AC8800020A4
:1042E000107030BD2DE9F05F8B460F6800E07F1C39
:1042F00039782F29FBD05C29F9D080690B228246BE
:10430000202101F0C3FA00252E46B0464FF00809DF
:1043100017F8084008F10108202C32D92F2C30D092
:104320005C2C2ED02E2C01D04E450AD3B9F1080FAB
:1043300036D12E2C34D10826A8064FF00B09050ED5
:10434000E6E7802C05D3FD4845F00305204410F82E
:10435000804CFBA0214601F0A0FA08BBA4F141006B
:10436000192802D845F0020507E0A4F161001928D8
:1043700003D8203C45F00105E4B20AF80640761C5B
:10438000C6E707EB0801CBF80010202C01D8042069
:1043900000E0002026B19AF80010E52903D005E0DE
:1043A0000620BDE8F09F05228AF80020B9F1080F29
:1043B00001D1A9060D0E05F00301012901D140F03C
:1043C0001000C5F38101012901D140F008008AF8ED
:1043D0000B000020E5E773B50446019908782F2803
:1043E00001D05C2801D1491C01910025A5600198EC
:1043F0000078202805D200212046FFF71AFE6561CB
:104400007CBD01A92046FFF76DFF0028F8D10021EF
:104410002046FFF70EFEF8B921692068FFF73AFC45
:10442000D0B961690A7872B1CA7A12070ED40B2525
:10443000A26900236D1E08D311F8013B12F8016B2D
:104440009B1BF7D002E0042006E02BB100212046A0
:10445000FFF72DFE0028DFD0A169C97A28B1042812
:10446000CED14907CCD405207CBD4907FCD4616975
:10447000C87AC006F7D5206801F017FAA060C0E737
:1044800010B503464FF0FF301C68002C13D02146B6
:1044900000E0491C0A78212A0ED33A2AF9D114F8EF
:1044A000012B303A0A2A06D28C4204D1022A02D2C7
:1044B000491C1046196010BD002010BD10B50446FF
:1044C00000202071401EE0622046FFF7E3FB08B1A8
:1044D000032010BDB4F82E02A0F52A41553901D0B1
:1044E000022010BD94F86600B4F8671040EA01217C
:1044F0009748B0EB012F08D094F88210B4F88320CD
:1045000041EA0221B0EB012F01D1002010BD0120B2
:1045100010BD2DE9FF474FF000090746C0F8009095
:1045200016460846FFF7ACFF050002D50B2004B085
:1045300090E4884850F825408CB13C60207820B148
:104540006078FFF742FBC1070BD084F80090E8B217
:104550006070FFF731FBC10708D00320E7E70C20AC
:10456000E5E70EB1400704D40020E0E71EB14007A4
:1045700001D50A20DBE7002529462046FFF79EFFEC
:10458000012822D100206E4604EB001191F8F2219F
:1045900001F5F7712AB10A7AD1F8091042EA01212E
:1045A00000E0002146F82010401C0428ECD300272E
:1045B00056F8275025B129462046FFF77FFF00E037
:1045C000022040B17F1C042FF2D3032801D0E0BBAE
:1045D00001E00120ABE7B4F83B00B0F5007F5DD10E
:1045E000B4F8461029B994F85400D4F8551040EAAC
:1045F0000121A16194F840C084F803C0BCF1010F0F
:1046000002D0BCF1020F49D194F83D600CFB01FCD3
:10461000A670D6B1701E064240D1B4F84120228166
:1046200010073BD1B4F8430028B994F85000D4F8EF
:10463000513040EA0320E38F3BB103EB0C0707EB5B
:104640001217B8422AD3C01B00E027E0B0FBF6F0F7
:1046500020B3012640F6F678404500D302264FF6F7
:10466000F678404500D30326801C2F44A7622B44D4
:104670006061C4E90753032E12D07AB103EB0C0238
:104680006262022E17D000F0010200EB400002EB44
:10469000500000F2FF10B1EB502F0ED20D2046E774
:1046A000002AFBD194F85C20D4F85D30800042EA07
:1046B00003226262EDE74000EBE74FF0FF3020613C
:1046C000E06080206071032E30D1B4F860000128D2
:1046D0002CD12046691CFFF7DDFA38BB84F8059021
:1046E000B4F82E02A0F52A4155391FD194F83000B4
:1046F000D4F8311040EA01201749884216D194F8C5
:104700001402D4F8151240EA0120144988420DD150
:1047100094F81802D4F8191240EA0120206194F8A4
:104720001C02D4F81D1240EA0120E06009492670FD
:10473000091F0888401C0880E08015E77E5D00089E
:10474000222A2B2C3A3B3C3D3E3F5B5D7C7F0000A8
:1047500000464154CC0000205252614172724161C6
:1047600010B538B1016829B10A781AB1CA888088B1
:10477000824201D0092010BD4878FFF726FAC00711
:10478000F9D0032010BD17B581B0144602980090EF
:104790006846FFF775FE002802DA0B2004B010BD52
:1047A000FE4B002253F8201001B10A700199002934
:1047B00000D00A7043F8201001D0012C01D0002055
:1047C000ECE7002202A901A8FFF7A3FEE6E72DE926
:1047D000F7478BB006000ED04FF0000802F01F071D
:1047E00027F001020CA96846C6F80080FFF791FE89
:1047F000050004D085E009200EB0BDE8F08707A8C9
:10480000069068460C99FFF7E6FD059C050001D16E
:1048100004B9062517F01C0F4AD055B1042D03D159
:104820006846FFF703FD0546059C47F0080745B1BC
:1048300067E0E07A10F0110F44D1780701D5082520
:104840005FE0380744D5FFF7F8F9A073010AE17378
:10485000010C2174000E607484F80B8084F81C80B5
:1048600084F81D8084F81E8084F81F8021460098FB
:1048700001F01BF881460021204601F01FF8009945
:104880000120B9F1000F087120D000984946D0F8F6
:104890002CA0FFF750FB050033D10099A9F10100CE
:1048A000C86051460098FFF7F5F905000CD028E0E4
:1048B0003DBBE07AC10601D5042522E0B90703D546
:1048C000C00701D007251CE0380701D547F02007B5
:1048D00000982146C06AC6E90704B77186F80780C8
:1048E0004746009800F0E1FF3061207FD4F81D10AA
:1048F00040EA0120C6E90270B76100983060C088C4
:10490000B080284678E72DE9F84F894600219A467D
:10491000164604461960FFF723FF002812D1E079FC
:1049200000280FD1A079C0070BD0D4E90210401A9B
:1049300004F124014FF0010B009186427DD9064617
:104940007BE00720BDE8F88FA068C1055DD1226833
:104950009178491E01EA502111F0FF0709D1F8B101
:1049600010466169FFF711FA02281BD3411C46D09B
:10497000606161692068FFF7FCF998B100EB0708F6
:10498000750A23D020687A1981788A4200D9CD1B14
:1049900040782B4642464946FFF720F978BB04E0B1
:1049A0002069E1E70220E071CCE7A07940060BD551
:1049B000A169A1EB0800A84206D209EB40204FF400
:1049C0000072009900F04FFF6D022CE0A269424591
:1049D00019D0A07940060AD52068012300994078B3
:1049E000FFF70DF958B9A07920F04000A0712068B8
:1049F0000123424640780099FFF7F0F818B184F897
:104A000007B001209EE7C4F818802089C0F3080091
:104A1000C0F50075B54200D9354601192A46484609
:104A2000243100F020FFA068A9442844A060DAF8EF
:104A300000004119761BCAF80010002E84D1002016
:104A400080E72DE9F84F894600219A46164604462C
:104A50001960FFF785FE002806D1E079002803D110
:104A6000A079800701D407206CE7A06804F1240135
:104A700082194FF0010B009182427CD38CE0A06838
:104A8000C1056BD122689178491E01EA502111F0CD
:104A9000FF0512D108B1616902E0206928B900213F
:104AA0001046FFF778FA00287CD001282BD0411C53
:104AB0004ED06061216901B92061A07940060BD513
:104AC00020680123A26940780099FFF798F878BB25
:104AD000A07920F04000A07161692068FFF749F9D2
:104AE00088B100EB0508770A23D02068EA1981789D
:104AF0008A4200D94F1B40783B4642464946FFF761
:104B00007EF8A8B902E00220E0711BE7A169A1EBE1
:104B10000800B8420AD209EB40214FF40072009815
:104B200000F0A1FEA07920F04000A0717D0229E0F4
:104B30000EE0A16941450FD0D4E9020188420BD2B1
:104B400020680123424640780099FFF747F818B1E2
:104B500084F807B00120F5E6C4F818802089C0F376
:104B60000800C0F50075B54200D9354620442A46F4
:104B70004946243000E015E000F075FEA07940F0D1
:104B80004000A071A068A9442844A060DAF80000A1
:104B90004119761BCAF80010002E01E0CC0000205D
:104BA0007FF46DAFD4E90201884200D9E060A079BA
:104BB00040F02000A0710020C4E670B50446FFF765
:104BC000CFFD00280ED1A1798A060BD548060ED557
:104BD0002068012304F124014078A269FFF70FF84F
:104BE00008B1012070BDA07920F04000A071E169FA
:104BF0002068FFF74FF80028F4D1256AE87A40F0E2
:104C00002000E872207B2877A089000A6877E06896
:104C1000000CA877E068000EE8772846216900F0CC
:104C20004DFEFFF70AF8A875010AE975010C29760F
:104C3000000E68760020A874E874A07920F02000A7
:104C4000A0712168012008712068BDE87040FFF75D
:104C500038B810B50446FFF7B0FF002806D120464B
:104C6000FFF77EFD002801D10021216010BD2DE954
:104C7000F0470D460446FFF773FD5FEA00086FD169
:104C8000E07900286CD1E068A84203D2A1798907B5
:104C900000D405460027A0684FF00109A7600DB3B6
:104CA00022684FF0020A91784E0268B1691E401ED8
:104CB000B1FBF6F1B0FBF6F3994205D3711E8843C0
:104CC000A0602D1A61690CE0216949B900211046E4
:104CD000FFF761F9014601283FD0481C4DD0216102
:104CE0006161D1B926E0A0798007206805D5FFF77A
:104CF00052F9010004D1354611E0FFF746F80146AC
:104D0000481C3AD0012928D920684069884224D912
:104D10006161A068AD1B3044A060B542E3D8A068D3
:104D20002844A060E80505D02068FFF722F8A0B16C
:104D300000EB55272089C00524D0A269BA4221D0B2
:104D4000A07904F1240540060FD5206801232946E7
:104D50004078FEF754FF80B903E084F807A00220F2
:104D60004BE5A07920F04000A071206801233A466D
:104D700040782946FEF732FF18B184F807900120E9
:104D80003BE5A761D4E90201884204D9E060A0793B
:104D900040F02000A07140462FE513B584B0040018
:104DA00006D0002205A96846FFF7B3FB18B11FE043
:104DB000092006B010BD0098206001A8A06120461F
:104DC0000599FFF708FB78B9616931B1C87AC00667
:104DD00011D5009800F069FDA06000980021C088FE
:104DE000A0802046FFF725F9042804D00028E0D051
:104DF00000212160DDE70520FAE710B50446FFF742
:104E0000AFFC002801D10021216010BDFEB50E4687
:104E10000446FFF7A5FC002817D1BEB1C4F818D08E
:104E200000212046FFF7D6F90025042813D00028DA
:104E30000BD131462046FFF72FFA00212046FFF71D
:104E400036F9042801D100202561FEBD002120464D
:104E5000FFF7EFF8FEBD2561EBE733B58BB00D46EC
:104E600000220BA96846FFF754FB040010D107A8E5
:104E7000069068460B99FFF7AEFA040008D1059832
:104E800028B12DB129466846FFF706FA00E006244E
:104E900020460DB030BD2DE9F74F14468A4600225A
:104EA00069462046FFF735FB25685FEA00084FD1C9
:104EB000D5E90407B91E884202D8CAF8000047E0C5
:104EC00095F800900024B9F1010F01D02E6A16E088
:104ED000022631462846FEF758FF411C03D0012820
:104EE00003D028B105E0012000E00220804628E040
:104EF000641C6869761C8642EBD322E059B93146BE
:104F0000761C2846FEF7C6FE5FEA000819D105F1B7
:104F100030004FF40071B9F1020F07D00278D0F8D9
:104F2000013042EA0322120106D006E0028802B9EB
:104F3000641C801C891E02E0641C001D091F7F1E6A
:104F4000DCD12C61687940F001006871CAF800403A
:104F50004046BDE8FE8F70B50446FFF701FC050032
:104F60003DD1E07918B10546280005D037E0A07999
:104F7000800701D4072532E0D4E9020181422ED90D
:104F8000E060A17941F02001A17150B16169206810
:104F9000FEF7FBFE0646401C0BD0012E0BD065B180
:104FA0001CE021692068FEF7C6FF0546002020614D
:104FB00013E0012512E0022510E020684169B142AA
:104FC0000FD96FF070426169FEF739FF050005D116
:104FD00031462068FEF7AFFF054615B1E57128465A
:104FE00070BDA0794006FAD52068012304F12401A0
:104FF0004078A269FEF703FE0028DAD1A07920F0FC
:105000004000A071EBE771B591B0012211A968468B
:10501000FFF77FFA040045D10EA806906846119963
:10502000FFF7D9F904003DD1059E56B1F07AC007CB
:1050300000D007243146009800F037FC054614B133
:1050400030E00624F6E7F07AC0061BD5022D01D227
:10505000022427E01C22694607A800F004FC022174
:1050600007A80995FEF7E5FF04001BD1002107A85A
:10507000FFF7B0F8040003D0042C03D014B111E002
:1050800007240FE06846FFF7EDF804000AD12DB1C0
:1050900029460098FEF74FFF040003D10098FEF761
:1050A00010FE044612B0204670BD2DE9F14F8CB0C1
:1050B000FEF7C3FD064601220CA96846FFF729FA50
:1050C000040009D109A8069068460C99FFF783F9F6
:1050D000040002D0042C02D095E0082493E00021C3
:1050E0000098FEF758FF5FEA00084FF0000403D075
:1050F000B8F1010F02D002E0072400E00224B8F169
:10510000FF3F01D014B164E0012462E00098FEF793
:1051100099FD04005DD141460098FEF72AFE009DEE
:10512000074630354FF400720021284600F0AEFBF0
:105130000B222021284600F0A9FB2E242C701020E1
:10514000E872F0B20890A875C6F307200790E875DA
:10515000C6F3074B85F818B04FEA166A85F819A010
:105160004146284600F0AAFB05F1200020222946EE
:10517000064600F078FB85F82140009802990078F7
:10518000032804D10098406A884200D100213046AB
:1051900000F094FB00984FF00109867812E0009827
:1051A000C76200997F1C81F804900098FEF74AFDC1
:1051B00004000ED14FF400720021284600F066FB77
:1051C000761EF6B2002EEAD16846FFF72FF80400EB
:1051D00004D041460098FEF7AEFE14E00598102179
:1051E000C172089981750799C17580F818B080F867
:1051F00019A0414600F062FB009981F804900098E4
:10520000FEF75FFD04460DB02046BDE8F08F37B5D0
:105210008AB015460C4601220AA96846FFF779F9BB
:10522000002816D107A8069068460A99FFF7D3F818
:1052300000280ED1059868B105F02702C17A144004
:1052400091430C43C4720099012008710098FEF745
:1052500038FD1EE606201CE613B58AB00C46012276
:105260000AA96846FFF755F9002819D107A8069042
:1052700068460A99FFF7AFF8002811D1059888B160
:10528000A1798175E188090AC17521790176A18822
:10529000090A41760099012008710098FEF711FD76
:1052A0000CB010BD0620FBE733B599B0012219A957
:1052B00004A8FFF72EF9002857D104980B90CDF8D9
:1052C00028D004A81999FFF786F800284DD109982D
:1052D000F0B300F10B01152212A800F0C4FA1C2251
:1052E00004A90BA800F0BFFA1AA8FFF7C9F8002814
:1052F0003DDB0BA81A99FFF76EF850B3042834D1A0
:105300000BA8FEF793FF00282FD1109C13220DF15C
:105310004A0104F10D0000F0A6FA9DF848000125AD
:1053200040F02000E072049805710D9906988842BB
:1053300034D0E07AC00631D52146049800F0B5FAA1
:1053400001460498FEF715FD010014D0049801E011
:105350000AE00EE0FEF79EFC049A5032002804D1C9
:1053600050782E2809D019E004201BB030BD0B2046
:10537000FBE70820F9E70220F7E704980078032804
:1053800006D104990D98496A884201D1002100E0B4
:105390000D99104600F092FA0498057104A8FEF7E2
:1053A00061FF0028E1D10498FEF78BFCDDE7F7B53B
:1053B00088B017460D46002208A96846FFF7A9F8ED
:1053C000040036D1FDB10026314668460296FEF74C
:1053D00030FE04002DD101216846FEF7FBFE0400DB
:1053E0000BD10B222846059900F03DFA0B202E54D4
:1053F00018B1401E295C2029F9D0042C01D014B129
:1054000017E02E700024A7B10098C169FEF742FC96
:1054100004000ED10098007803280DD0272000F159
:105420003001009A31301044515C006841EA00209C
:1054300038600BB02046F0BD4320F0E72DE9F14382
:105440008AB001220AA96846FFF763F8002832D122
:1054500081468DF81C904E460A9800E0761C815DCE
:105460000029FBD100E0761ED6B3811911F8011C8A
:105470002029F8D000252F460DF11C080A98C45D9C
:105480007F1CA4F16100192801D8203CA4B2802C13
:1054900003D3F948204410F8804C5CB12146F7A0B2
:1054A00000F0FBF930B9FF2C01D90A2000E00B20F5
:1054B000A84203D806200BB0BDE8F083FF2C03D927
:1054C000210A08F805106D1C404608F805406D1CBF
:1054D000B742D3D320210B2D03D241556D1CFAE7DF
:1054E000FFE700216846CDF80890FEF7A2FD0028EE
:1054F000E1D101216846FEF76DFE012438B304288E
:10550000D9D19DF81C1000200029D4D00121684673
:10551000FEF73FFE0028CED120220021059800F0A2
:10552000B5F90B2207A9059800F09DF90599082007
:10553000C872FEF782FB05998875059A010AD17534
:10554000059A010C000E1176059948760BE09DF83E
:105550001C0028B10B2207A9059800F084F9E8E7A0
:105560000599E5200870009804710098FEF7A9FBE2
:10557000A1E72DE9FC4100259046074604464E1E52
:1055800011E001AB012269464046FFF7BCF90198E2
:1055900001280AD19DF800000D2804D06D1C04F8E4
:1055A000010B0A2801D0B542EBDB0020207015B1B9
:1055B0003846BDE8FC810020FBE7F8B50E460446FE
:1055C0000A2902D10D21FFF7F8FF6568002D16DBCF
:1055D00060196D1C06733D2D0DDB6B462A4604F1E8
:1055E0000C012068FFF72DFA0098A84201D1002590
:1055F00001E04FF0FF356560A068401CA060F8BD79
:1056000000B595B00291002103910491014602A8D2
:10561000FFF7D3FF039800280DDB024601AB05A975
:105620000298FFF70EFA30B901990398884202D127
:10563000049815B000BD4FF0FF30FAE710B596B0F2
:1056400004460020CDE90210049003E002A8641C87
:10565000FFF7B3FF21780029F8D1039800280DDB6C
:10566000024601AB05A90298FFF7EBF930B90199A1
:105670000398884202D1049816B010BD4FF0FF3055
:10568000FAE70FB42DE9F0479AB024AE029000205B
:1056900003900DF154090490239810F8011B2390F6
:1056A000002973D0252903D002A8FFF786FFF3E76E
:1056B000002510F8011B2F462390302902D02D29F8
:1056C00002D00FE0012500E0022510F8011B239015
:1056D00008E007EB870001EB40072398303F10F804
:1056E000011B2390A1F130000928F2D96C2901D0C7
:1056F0004C2905D1239845F0040510F8011B23908F
:10570000002943D0A1F161000A46192801D8203AA6
:10571000D2B24F2A40D006DC422A3BD0432A36D0B0
:10572000442AC1D13AE0532A08D0552A36D0582A03
:10573000BAD1102301CE442A32D036E056F8048B79
:10574000002400E0641C18F804000028FAD1A8071F
:1057500004D50DE0202102A8FFF72FFF2046641C8E
:10576000B842F7D304E008F1010802A8FFF725FFCB
:1057700098F800100029F6D103E0202102A8FFF7D5
:105780001CFF2046641CB84286D2F6E754E016F8A7
:10579000041B89E70223CDE70823CBE70A23C9E7E7
:1057A000002802DA404245F008050024CC46B0FB50
:1057B000F3F203FB1202B0FBF3F0D2B2092A05D9CF
:1057C000782915D04FF007084244D2B230320CF895
:1057D0000420641C08B1102CE9D3280703D52D2020
:1057E00009F80400641CA046E80704D0302003E058
:1057F0004FF02708E8E72020824603E0514602A840
:10580000FFF7DBFEA80704D4414608F10108B942BE
:10581000F4D34D46641E02A8295DFFF7CEFE002C8E
:10582000F8D103E0514602A8FFF7C7FE414608F150
:105830000108B942A8D2F5E70398002810DB024618
:1058400001AB05A90298FFF7FCF848B90199039844
:10585000884205D104981AB0BDE8F0075DF814FB42
:105860004FF0FF30F7E703E011F8013B00F8013B90
:10587000521EF9D2704700007E5D0008222A2B2CB0
:105880002E3A3B3C3D3E3F5B5D7C7F00C9B201E070
:1058900000F8011B521EFBD2ECE700E0401C02782E
:1058A0000AB18A42FAD1D0B2E4E70246488B1278B4
:1058B000032ADFD1898A40EA0140DBE781760A0AC0
:1058C000C2760A0C0275090E4175D3E710B5494836
:1058D000FBF79CFF484918B148480078012805D0DB
:1058E000087840F001000870087810BD087820F0B2
:1058F0000100F8E74048007870472DE9F0411600B4
:105900000C46054606D03C480078C00704D003206A
:10591000BDE8F0810420FBE73648FBF777FFC0B114
:1059200036480078012814D17602334622462946AB
:105930003048FDF7E8FE074631492E48FDF73FFBAA
:105940002C48FBF763FF10B1032FEED00FB10120FD
:10595000DEE70020DCE72DE9F04116000C460546A5
:1059600005D025480078C00703D00320D0E70420E5
:10597000CEE7224F3878042807D01E48FBF746FFB1
:10598000D0B13878012802D016E00220C0E77602B4
:105990003346224629461748FDF76CFE074618494C
:1059A0001448FDF70CFB1348FBF730FF10B1032F31
:1059B000EED00FB10120ABE70020A9E70E4B00228B
:1059C0001B78DB0701D00320704740B1012808D0C5
:1059D0004FF40073022808D0032808D00422104690
:1059E0007047084800680860F9E70B80F7E70B602C
:1059F000F5E70000D8000020D4000020210000209E
:105A000084060020180A00200FB41CB5074B06AA14
:105A10007B4469460090059800F057F900206946DC
:105A200000F066F91CBC5DF814FB0000DD0200000C
:105A300070B5044685690068C10601D5302600E0CE
:105A40002026C00707D070BDD4E901213046904719
:105A5000206A401C20626D1EF6D570BD70B50446EC
:105A600085690078C00707D170BDD4E901212020E5
:105A70009047206A401C20626D1EF6D570BD000064
:105A80002DE9F0410646002410687529314616A517
:105A900010D0AFF30080002802DA404213A507E0DF
:105AA00031688A0701D512A502E0490704D511A57E
:105AB000012401E0AFF3008000210A2206F124074F
:105AC00009E0B0FBF2FCB0FBF2F302FB1C0030304B
:105AD00078541846491C0028F3D123462A463046FC
