:020000040800F2
:10000000A006002039020008DD110008DF110008F9
:10001000E1110008E3110008E511000800000000EC
:10002000000000000000000000000000E7110008D0
:10003000E911000800000000EB110008EF110008B2
:10004000530200085302000853020008530200083C
:10005000530200085302000853020008530200082C
:10006000530200085302000853020008530200081C
:10007000530200085302000853020008530200080C
:100080005302000853020008530200080000000059
:100090000000000000000000000000005302000803
:1000A00053020008530200085302000853020008DC
:1000B00053020008530200085302000853020008CC
:1000C00053020008530200085302000853020008BC
:1000D0005302000853020008530200080000000009
:1000E00053020008530200085302000800000000F9
:1000F00000000000000000000000000053020008A3
:1001000000000000530200085302000853020008D8
:1001100000000000000000000000000000000000DF
:10012000530200085302000853020008530200085B
:100130005302000800000000000000000000000062
:100140000000000000000000000000005302000852
:10015000530200085302000853020008530200082B
:1001600053020008530200080000000000000000D5
:10017000000000000000000000000000000000007F
:100180000000000053020008000000000000000012
:10019000530200085302000800F002F800F03CF897
:1001A0000AA090E8000C82448344AAF10107DA45D2
:1001B00001D100F031F8AFF2090EBAE80F0013F0E8
:1001C000010F18BFFB1A43F001031847E4110000A8
:1001D00004120000103A24BF78C878C1FAD8520738
:1001E00024BF30C830C144BF04680C6070470000B1
:1001F0000023002400250026103A28BF78C1FBD830
:10020000520728BF30C148BF0B6070471FB501F0CF
:10021000CAF81FBD10B510BD01F08FF81146FFF7E9
:10022000F5FF00F0ABFF01F0ADF803B4FFF7F2FF0C
:1002300003BC01F0B1F800000948804709480047B5
:10024000FEE7FEE7FEE7FEE7FEE7FEE7FEE7FEE786
:10025000FEE7FEE704480549054A064B70470000E3
:10026000F911000899010008A0000020A006002054
:10027000A0020020A0020020F948016841F001011D
:100280000160F74A0021083211600268F54B1A40FC
:100290000260031DF44A1A60F14BF44A84331A6079
:1002A000F14A103A1B1D1A60026822F48022026093
:1002B000EB480C300160181D01607047E8490022CE
:1002C000891C0A70087070470246002051090129F4
:1002D0000CD002290CD0E2497431096802F01F02E7
:1002E000012393400B4200D001207047DC49F4E722
:1002F000DB497031F1E718B500204FF4A0440090BD
:100300003120FFF7E1FF0099491C0091A14201D083
:100310000028F5D03120FFF7D7FF002800D00120BA
:1003200018BDCF4A116821F0F80141EAC000106001
:100330007047CF4908607047C949002270310A7080
:100340000A70012802D0042801D1052008707047E6
:10035000C8490860704741EA82115A0810B5C64B77
:10036000029C03EB02421143014341EA0460BC4991
:10037000091D086010BDBE4908667047800140EA4B
:100380000170B7491043843108607047B8498866E6
:100390007047800140EA0160B14940EA027088314B
:1003A00008607047B24908677047B149C864704730
:1003B000AB4B08331A68084322F0EC621043186014
:1003C0007047A74B08331A68084322F0784210435D
:1003D00018607047A24A0832116821F003010143F6
:1003E000116070479E480830006800F00C007047AC
:1003F0009B4A0832116821F0F001014311607047F7
:10040000974A0832116821F4E051014311607047A6
:10041000934A0832116821F4604141EAC00010603B
:10042000704770B58E4B08331968944C11F00C016D
:1004300004D06610042903D0082903D004601BE00F
:10044000066019E0864A121D1168C1F380551168D3
:1004500001F03F0115B1B6FBF1F101E0B4FBF1F1A0
:1004600014681268C4F388146143C2F30142521C39
:100470005200B1FBF2F1016019680F2202EA11117A
:100480007F4A545C0168E14041601C68072505EA29
:100490009424145D21FA04F484601B6805EA533344
:1004A000D25CD140C16070BDC0F30121032908D1E5
:1004B0006B4B08331968734A21F4F81102400A4360
:1004C0001A60674970310A68C0F30B0002430A6082
:1004D0007047684944390860704766494039086088
:1004E00070476349C1F85C0170475D4A8C321168FE
:1004F000401E21F01F01014311607047584A8C32A1
:1005000011686FF0FF0321F4F85103EB002008435A
:1005100010607047524A8C32116821F44011014337
:10052000116070474E4A8C32116821F4400101433A
:10053000116070474A4A8C32116821F440310143FE
:10054000116070475049C1F8E0017047444A3032A9
:100550000029116801D0014300E081431160704718
:100560003F4A34320029116801D0014300E0814341
:10057000116070473A4A38320029116801D00143AE
:1005800000E0814311607047354A4032002911680C
:1005900001D0014300E0814311607047304A44328A
:1005A0000029116801D0014300E0814311607047C8
:1005B0002B4A10320029116801D0014300E0814329
:1005C00011607047264A14320029116801D0014396
:1005D00000E0814311607047214A183200291168F8
:1005E00001D0014300E08143116070471C4A203272
:1005F0000029116801D0014300E081431160704778
:10060000174A24320029116801D0014300E08143D8
:1006100011607047124A50320029116801D001431D
:1006200000E08143116070470D4A5432002911687F
:1006300001D0014300E0814311607047084A5832FD
:100640000029116801D0014300E081431160704727
:10065000034A60320029116818D0014317E00000F6
:1006600000380240FFFFF6EA10300024003000207E
:1006700000004742800E47420000FFFF0024F400C4
:1006800000000020FFFCFF0F001047428143116073
:100690007047194A0029116801D0014300E08143E5
:1006A0001160704714490C310128086803D020F00C
:1006B00008000860704740F00800FAE70E4A573A11
:1006C0000029117801D0014300E081431170704787
:1006D00009481030016841F080710160704701469F
:1006E000054A0020583A12680A4200D0012070479B
:1006F000014956390870704764380240774910B58F
:10070000884206D101210846FFF752FF002101204F
:100710005BE07349884206D101210220FFF748FFC0
:100720000021022051E06F49884206D101210420B6
:10073000FFF73EFF0021042047E06B49884206D1C5
:1007400001210820FFF734FF002108203DE0674920
:10075000884206D101211020FFF72AFF0021102036
:1007600033E06349884206D101212020FFF720FFB2
:100770000021202029E05F49884206D10121402044
:10078000FFF716FF002140201FE05B49884206D199
:1007900001218020FFF70CFF0021802015E0574940
:1007A000884202D1012184150AE05549884202D1CC
:1007B0000121441504E0534988420AD1012104155E
:1007C0002046FFF7F5FE00212046BDE81040FFF768
:1007D000EFBE10BDF0B5002201274FF0030C0B68EF
:1007E00007FA02F52B40AB422CD1066853000CFAF5
:1007F00003F4A64306600E79D0F800E09E4046EA76
:100800000E0606600E79012E01D0022E12D18668E6
:10081000A64386604E79D0F808E09E4046EA0E0670
:1008200086604668AE43466045688E799640B6B2AB
:1008300035434560C568A543C560CC799C40C36815
:100840001C43C460521C102AC9D3F0BD4FF6FF717F
:1008500001600021017141718171C171704708B55A
:1008600041F480320092C261C1610099C161C169E5
:10087000C069009008BD0246002012690A4200D0FB
:1008800001207047006980B270470246002052691B
:100890000A4200D001207047406980B2704701834E
:1008A0007047418370470AB10183704741837047A5
:1008B0004161704742694A40426170474B07DB0E15
:1008C0009A40C90810B500EB8100016A0F249C40D2
:1008D000A1430162016A1143016210BD00000240A0
:1008E0000004024000080240000C024000100240D8
:1008F0000014024000180240001C02400020024088
:100900000024024000280240D24910B5884202D19A
:1009100001214C050AE0D049884202D101218C0511
:1009200004E0CE4988420AD10121CC052046FFF7D8
:100930005DFE2046BDE810400021FFF757BE10BD08
:100940007FB5044680880D4620F03F066846FFF7D5
:1009500068FDC3490298B0FBF1F189B20E43A6804D
:10096000228822F001022280BE4B2A689A421BD8BC
:100970005200B0FBF2F080B2042800D20420491CDF
:100980002184A083208840F00100208020884FF639
:10099000F5310840A9886A89114301432180A8895B
:1009A0002989084320817FBDEB88A3F53F46FF3EA0
:1009B0000BD002EBC20303EB0212B0FBF2F080B2E9
:1009C00040F48040020506D007E002EB4202B0FB93
:1009D000F2F080B2F6E740F001004FF49672514316
:1009E0004FF47A72B1FBF2F140F40040C7E741F2F4
:1009F00088310160002181804BF6FF72C280018145
:100A000041814FF48041818170470029018802D0E3
:100A100041F0010101E021F001010180704700294E
:100A2000818C02D021F0100101E041F0100181849D
:100A30007047828C01F00F0122F00F021143818474
:100A400070470029018802D041F4807101E021F44F
:100A50008071018070470029018802D041F4007143
:100A600001E021F400710180704712B141F00101F1
:100A700001E001F0FE01018270470029018802D0E7
:100A800041F4806101E021F4806101807047828936
:100A900001F0FE0122F0FE0211438181704700291E
:100AA000818902D041F0010101E021F00101818141
:100AB00070470029018802D041F0400101E021F097
:100AC0004001018070470029018802D041F40041B3
:100AD00001E0C1F30E01018070470029018803D0B5
:100AE00021F080010180704741F08001FAE7B1F503
:100AF000804F818B02D021F4804101E041F480419C
:100B000081837047B1F5006F018803D021F4006143
:100B10000180704741F40061FAE7B1F5005F018898
:100B200003D021F400510180704741F40051FAE7ED
:100B30000029018802D041F0100101E021F01001EC
:100B40000180704701827047008AC0B27047002957
:100B5000018802D041F4805101E021F480510180EC
:100B60007047B1F5006F018803D021F40061018066
:100B7000704741F40061FAE70029018802D041F092
:100B8000200101E021F0200101807047008B000A64
:100B900070470029818802D041F4006101E021F40E
:100BA0000061818070470029818802D041F4805122
:100BB00001E021F480518180704708B5084400901D
:100BC000008808BD002A828801D00A4300E08A43D9
:100BD00082807047034600209A8A1B8B42EA0342B8
:100BE00022F07F42914300D101207047818A008B1F
:100BF00041EA004121F07F4070470CB502460020D9
:100C000000920A0F21F07F41019202D0009A143223
:100C100002E0009A090C1832009212680A4200D0D1
:100C200001200CBDC9438182704710B503460020E6
:100C30009A884FF4E06404EA11449B8A224021F030
:100C40007F410B4202D0002A00D0012010BDC943D1
:100C5000818270470054004000580040005C004012
:100C600040420F00A08601002DE9F041FA4CFB4DF7
:100C700010B1012821D031E001210846FFF766FCC0
:100C800001210420FFF762FCF54E042208213046C2
:100C9000FFF714FEF34F042209213846FFF70EFE3A
:100CA000B0152060EC493046FFF794FD70152060C8
:100CB000E9493846FFF78EFD10E001218020FFF75B
:100CC00045FC4FF4C0702060042207212846FFF73E
:100CD000F5FD042208212846FFF7F0FD2846BDE86F
:100CE000F041DD49FFF776BD10B5DB4CD0B10128EE
:100CF00028D0022835D101218020FFF727FC3020A1
:100D00002060D64C042211462046FFF7D7FD04226E
:100D100005212046FFF7D2FD2046BDE81040CE4910
:100D2000FFF758BD01210220FFF710FC4FF440608F
:100D30002060CD4C04220A212046FFF7BFFD04228B
:100D40000B21E6E701212020FFF700FC03202060B3
:100D5000C64C042200212046FFF7B0FD04220121E9
:100D6000D7E710BD70B5044601210220FFF7EEFB66
:100D7000B948BD4D24B1012C0CD0022C10D01CE080
:100D8000C0210160042206212846FFF797FD0422B6
:100D900007210FE04FF4407104220160082104E0B4
:100DA0004FF410710422016006212846FFF786FDEA
:100DB000042209212846FFF781FD2846BDE870403E
:100DC000A549FFF707BD2DE9FF470546A2488A461A
:100DD0000221017101218171C171032141719E4F75
:100DE000A3480026083714464FF480484BF6FF7995
:100DF00085420CD101214805FFF7C6FB5046FFF79D
:100E0000B1FF3868A04200D93C6038681EE09948BC
:100E100085420CD101218805FFF7B6FB5046FFF74C
:100E200063FF7868A04200D97C6078680EE0924841
:100E3000854216D10121C805FFF7A6FB5046FFF7F2
:100E400013FFB868A04200D9BC60B868ADF8046070
:100E5000ADF808600090ADF80C80ADF80A60ADF810
:100E6000069000212846FFF7D0FD69462846FFF787
:100E700067FD01212846FFF7C8FDBDE8FF8770B573
:100E800006460021FFF7F9FD01213046FFF7E3FD9B
:100E9000714C44F62060241F784D206001E0521E02
:100EA000226029463046FFF795FE10B92268002AD5
:100EB000F5D13046BDE87040FFF746BE2DE9F0475A
:100EC0008A461F46164680460121FFF7BAFD624C4E
:100ED00044F62065241FDFF8A891256002E0401E3B
:100EE000206032D049464046FFF787FE10B920689F
:100EF0000028F4D11FB101215D48FFF7BEFD324645
:100F000051464046FFF7B1FD16B1012E10D022E048
:100F100025605B4D6D1C02E0401E206015D0294607
:100F20004046FFF76AFEB0B920680028F4D112E00D
:100F30002560524D3E3D02E0401E206005D029460E
:100F40004046FFF747FE18B105E00120BDE8F087F5
:100F500020680028F0D1B8F818000020F6E72DE945
:100F6000F0413D4C464D0746241F454E44F6206057
:100F70007F35F61C206002E0401E20600AD0294622
:100F80003846FFF73AFE40B131463846FFF735FEA6
:100F900018B105E00120BDE8F08120680028EBD100
:100FA00001213846FFF757FD0020F4E72DE9F04115
:100FB000294C0746241F324D44F620600E467F35EB
:100FC000206001E0401E206029463846FFF715FEEC
:100FD00010B920680028F5D131463846BDE8F04107
:100FE000FFF7B0BD70B5164600230C4605461A46FD
:100FF000FFF764FF31462846FFF7D8FF2846FFF782
:10100000AEFF0023012221462846FFF757FF28465E
:10101000BDE8704033E770B51D4616460023044610
:101020001A46FFF74BFF31462046FFF7BFFF294620
:101030002046FFF7BBFF2046BDE870408FE770B544
:1010400006460121FFF719FD034C44F62060241FDA
:101050000A4D206018E0000014000020001C02402F
:101060000000024000080240000402400014024058
:101070000054004000580040005C00404000030065
:1010800001000010521E226029463046FFF7A2FDE3
:1010900010B92268002AF5D13046BDE87040FFF74C
:1010A00053BD2DE9F0411D4616460C4680460123EE
:1010B0000022069FFFF702FF31464046FFF776FF0A
:1010C0004046FFF74CFF01231A4621464046FFF7F2
:1010D000F5FE00247E1E0AE0B442404602D1FFF72E
:1010E000CEFE01E0FFF7ABFF2855641CE4B2BC4222
:1010F000F2D350E72DE9F0411E4615460123804604
:101100001A46FFF7DBFE0024771E0AE0BC42404689
:1011100002D1FFF7B4FE01E0FFF791FF2855641CF0
:10112000E4B2B442F2D336E72DE9F0411D4614464D
:10113000002307461A46069EFFF7C0FE21463846A2
:10114000FFF734FF002405E0295D3846FFF72EFF46
:10115000641CE4B2B442F7D33846BDE8F041FEE681
:1011600070B50024054601232246FFF7A7FE00B90B
:1011700001242846FFF7F3FE204670BD1CB514A0DD
:101180000068019000F038F8134D124A00212846FB
:10119000FFF719FE05230022D0212846FFF73BFF69
:1011A000032401AB0022D02128460094FFF7BCFFA6
:1011B0000022D0212846FFF715FF8DF8040001AB6F
:1011C0000022D02128460094FFF76BFFFEE70000C5
:1011D00000010200A0860100005400407047FEE7B5
:1011E000FEE7FEE7FEE7704770477047704710B5AF
:1011F000FFF7FCFF10BD0000444810B5016841F442
:10120000700101604248016841F001010160404AFB
:1012100000210832116002683E4B1A400260031D33
:101220003D4A1A60026822F48022026038480C307D
:10123000016000F039F835494FF0006080390860EE
:1012400010BD70B5324E002208363068334B344939
:1012500010F00C0003D0042803D0082803D00B6042
:1012600018E0304815E02A48001D0468C4F3805592
:10127000046804F03F042DB9B3FBF4F20368C3F330
:1012800088135A430068C0F30140401C4000B2FB81
:10129000F0F008603068224AC0F30310121D105CA1
:1012A0000A68C2400A6070BD19484030016841F0C8
:1012B000805101601C48016841F4404101601448BC
:1012C00008300168016001680160016841F48051E3
:1012D0000160021F15491160111F0A6842F08072F7
:1012E0000A600A689201FCD5114A40F2027111604D
:1012F000016821F003010160016841F00201016011
:101300000168C1F381010229FAD1704788ED00E03C
:1013100000380240FFFFF6FE103000240024F400E5
:101320002800002000127A000070004010640107BD
:10133000003C0240704770477047754600F028F83F
:10134000AE4605006946534620F00700854618B0B2
:1013500020B5FEF77FFFBDE820404FF000064FF0BC
:1013600000074FF000084FF0000B21F00701AC46DA
:10137000ACE8C009ACE8C009ACE8C009ACE8C009F9
:101380008D4670470446AFF300802046FEF74DFFC0
:10139000004870473C00002001491820ABBEFEE722
:1013A0002600020070474FF04070E1EE100A7047CF
:1013B000D0130008000000203C000000D401000809
:1013C0000C1400083C00002064060000F001000836
:1013D00000000000010203040102030406070809DB
:1013E000000000000000000000000000FFFFFFFF01
:1013F000FFFFFFFFFFFFFFFF00E1F505000000001A
:0C140000000000000102030406070809B8
:0400000508000239B4
:00000001FF
