:020000040800F2
:10000000D006002041020008292A00082B2A0008F7
:100010002D2A00082F2A0008312A000800000000BD
:10002000000000000000000000000000332A00086B
:10003000352A000800000000372A00083B2A000883
:100040005B0200085B0200085B0200085B0200081C
:100050005B0200085B0200085B0200085B0200080C
:100060005B0200085B0200085B0200085B020008FC
:100070005B0200085B0200085B0200085B020008EC
:100080005B0200085B0200085B0200080000000041
:100090000000000000000000000000005B020008FB
:1000A0005B0200085B0200085B0200085B020008BC
:1000B0005B0200085B0200085B0200085B020008AC
:1000C0005B0200085B0200085B0200085B0200089C
:1000D0005B0200085B0200085B02000800000000F1
:1000E0005B0200085B0200085B02000800000000E1
:1000F0000000000000000000000000005B0200089B
:10010000000000005B0200085B0200085B020008C0
:1001100000000000000000000000000000000000DF
:100120005B0200085B0200085B0200085B0200083B
:100130005B0200080000000000000000000000005A
:100140000000000000000000000000005B0200084A
:100150005B0200085B0200085B0200085B0200080B
:100160005B0200085B0200080000000000000000C5
:10017000000000000000000000000000000000007F
:10018000000000005B02000800000000000000000A
:100190005B0200085B02000800F002F800F041F882
:1001A0000AA090E8000C82448344AAF10107DA45D2
:1001B00001D100F036F8AFF2090EBAE80F0013F0E3
:1001C000010F18BFFB1A43F00103184780420000DB
:1001D000A0420000103A24BF78C878C1FAD852076C
:1001E00024BF30C830C144BF04680C6070470000B1
:1001F0000023002400250026103A28BF78C1FBD830
:10020000520728BF30C148BF0B607047642902F015
:10021000F384002070471FB502F07CFE1FBD10B5AF
:1002200010BD02F03AFE1146FFF7F5FF02F06EFB3B
:1002300002F058FE03B4FFF7F2FF03BC02F05CFECD
:100240000948804709480047FEE7FEE7FEE7FEE76A
:10025000FEE7FEE7FEE7FEE7FEE7FEE704480549A6
:10026000054A064B70470000452A0008990100081E
:10027000D0000020D0060020D0020020D0020020B4
:10028000F648016841F001010160F44A002108329A
:1002900011600268F24B1A400260031DF14A1A60B5
:1002A000EE4BF14A84331A60EE4A103A1B1D1A6075
:1002B000026822F480220260E8480C300160181DB8
:1002C00001607047E5490022891C0A700870704778
:1002D00002460020510901290CD002290CD0DF4927
:1002E0007431096802F01F02012393400B4200D0D1
:1002F00001207047D949F4E7D8497031F1E718B5C2
:1003000000204FF4A04400903120FFF7E1FF009956
:10031000491C0091A14201D00028F5D03120FFF7FF
:10032000D7FF002800D0012018BDCC4A116821F069
:10033000F80141EAC00010607047CC49086070477E
:10034000C649002270310A700A70012802D00428C0
:1003500001D1052008707047C5490860704741EA1F
:1003600082115A0810B5C34B029C03EB02421143A1
:10037000014341EA0460B949091D086010BDBB4949
:1003800008667047800140EA0170B4491043843127
:1003900008607047B54988667047800140EA01608F
:1003A000AE4940EA0270883108607047AF4908677B
:1003B0007047AE49C8647047A84B08331A680843B1
:1003C00022F0EC62104318607047A44B08331A689F
:1003D000084322F078421043186070479F4A083261
:1003E000116821F003010143116070479B480830F8
:1003F000006800F00C007047984A0832116821F03C
:10040000F001014311607047944A0832116821F4E9
:10041000E051014311607047904A0832116821F49D
:10042000604141EAC0001060704770B58B4B0833E3
:100430001968914C11F00C0104D06610042903D006
:10044000082903D004601BE0066019E0834A121DEE
:100450001168C1F38055116801F03F0115B1B6FB79
:10046000F1F101E0B4FBF1F114681268C4F38814EF
:100470006143C2F30142521C5200B1FBF2F1016030
:1004800019680F2202EA11117C4A545C0168E140AC
:1004900041601C68072505EA9424145D21FA04F4E0
:1004A00084601B6805EA5333D25CD140C16070BDE3
:1004B000C0F30121032908D1684B08331968704A39
:1004C00021F4F81102400A431A60644970310A6845
:1004D000C0F30B0002430A60704765494439086065
:1004E000704763494039086070476049C1F85C0152
:1004F00070475A4A8C32116821F44011014311604F
:100500007047564A8C32116821F440010143116052
:100510007047524A8C321168401E21F01F0101437E
:10052000116070474D4A8C3211686FF0FF0321F45F
:10053000F85103EB0020084310607047474A8C32A3
:10054000116821F440310143116070474D49C1F8F1
:10055000E0017047414A30320029116801D001435F
:1005600000E08143116070473C4A34320029116831
:1005700001D0014300E0814311607047374A4032A7
:100580000029116801D0014300E0814311607047E8
:10059000324A44320029116801D0014300E081430E
:1005A000116070472D4A10320029116801D00143B3
:1005B00000E0814311607047284A14320029116815
:1005C00001D0014300E0814311607047234A20328B
:1005D0000029116801D0014300E081431160704798
:1005E0001E4A24320029116801D0014300E08143F2
:1005F00011607047194A50320029116801D0014337
:1006000000E0814311607047144A54320029116898
:1006100001D0014300E08143116070470F4A60320E
:100620000029116801D0014300E081431160704747
:100630000A4A64320029116801D0014300E0814375
:1006400011607047054970310128086803D020F017
:1006500008000860704740F00800FAE700380240E0
:10066000FFFFF6EA1030002400300020000047426F
:10067000800E47420000FFFF0024F400000000202D
:10068000FFFCFF0F001047420E4A0029117801D0ED
:10069000014300E08143117070470A4867300168E8
:1006A00041F08071016070470146064A0020521EE9
:1006B00012680A4200D0012070470249491C0870A4
:1006C000704700000D380240774910B5884206D1C6
:1006D00001210846FFF766FF002101205BE0734916
:1006E000884206D101210220FFF75CFF0021022091
:1006F00051E06F49884206D101210420FFF752FFE3
:100700000021042047E06B49884206D101210820DE
:10071000FFF748FF002108203DE06749884206D1E5
:1007200001211020FFF73EFF0021102033E0634934
:10073000884206D101212020FFF734FF002120202C
:1007400029E05F49884206D101214020FFF72AFFB6
:10075000002140201FE05B49884206D10121802012
:10076000FFF720FF0021802015E05749884202D181
:10077000012184150AE05549884202D1012144151E
:1007800004E0534988420AD1012104152046FFF7AD
:1007900009FF00212046BDE81040FFF703BF10BD50
:1007A000F0B5002201274FF0030C0B6807FA02F5A1
:1007B0002B40AB422CD1066853000CFA03F4A6433D
:1007C00006600E79D0F800E09E4046EA0E0606600C
:1007D0000E79012E01D0022E12D18668A6438660C2
:1007E0004E79D0F808E09E4046EA0E0686604668DC
:1007F000AE43466045688E799640B6B23543456053
:10080000C568A543C560CC799C40C3681C43C460DF
:10081000521C102AC9D3F0BD4FF6FF7101600021B0
:10082000017141718171C171704708B541F4803225
:100830000092C261C1610099C161C169C069009043
:1008400008BD0246002012690A4200D0012070470C
:10085000006980B270470246002052690A4200D007
:1008600001207047406980B270470183704741831F
:1008700070470AB1018370474183704741617047F7
:1008800042694A40426170474B07DB0E9A40C908F3
:1008900010B500EB8100016A0F249C40A143016266
:1008A000016A1143016210BD0000024000040240D1
:1008B00000080240000C02400010024000140240F8
:1008C00000180240001C02400020024000240240A8
:1008D00000280240D24910B5884202D101214C05BE
:1008E0000AE0D049884202D101218C0504E0CE49BA
:1008F00088420AD10121CC052046FFF767FE204639
:10090000BDE810400021FFF761BE10BD7FB5044671
:1009100080880D4620F03F066846FFF786FDC349F4
:100920000298B0FBF1F189B20E43A680228822F032
:1009300001022280BE4B2A689A421BD85200B0FBAB
:10094000F2F080B2042800D20420491C2184A08344
:10095000208840F00100208020884FF6F5310840C3
:10096000A9886A89114301432180A88929890843FC
:1009700020817FBDEB88A3F53F46FF3E0BD002EB05
:10098000C20303EB0212B0FBF2F080B240F48040ED
:10099000020506D007E002EB4202B0FBF2F080B2A3
:1009A000F6E740F001004FF4967251434FF47A722B
:1009B000B1FBF2F140F40040C7E741F28831016039
:1009C000002181804BF6FF72C280018141814FF48A
:1009D0008041818170470029018802D041F00101E6
:1009E00001E021F00101018070470029818C02D0D3
:1009F00021F0100101E041F0100181847047828CE8
:100A000001F00F0122F00F02114381847047002989
:100A1000018802D041F4807101E021F480710180ED
:100A200070470029018802D041F4007101E021F4EF
:100A300000710180704712B141F0010101E001F045
:100A4000FE01018270470029018802D041F48061D3
:100A500001E021F4806101807047828901F0FE018C
:100A600022F0FE021143818170470029818902D062
:100A700041F0010101E021F001018181704700296D
:100A8000018802D041F0400101E021F040010180E5
:100A900070470029018802D041F4004101E0C1F310
:100AA0000E01018070470029018803D021F08001E8
:100AB0000180704741F08001FAE7B1F5804F818BEA
:100AC00002D021F4804101E041F4804181837047EC
:100AD000B1F5006F018803D021F4006101807047F7
:100AE00041F40061FAE7B1F5005F018803D021F419
:100AF00000510180704741F40051FAE70029018854
:100B000002D041F0100101E021F010010180704796
:100B100001827047008AC0B270470029018802D064
:100B200041F4805101E021F4805101807047B1F51A
:100B3000006F018803D021F400610180704741F407
:100B40000061FAE70029018802D041F0200101E0AC
:100B500021F0200101807047008B000A70470029B6
:100B6000818802D041F4006101E021F400618180BC
:100B700070470029818802D041F4805101E021F4BE
:100B800080518180704708B508440090008808BDF6
:100B9000002A828801D00A4300E08A43828070479D
:100BA000034600209A8A1B8B42EA034222F07F42CE
:100BB000914300D101207047818A008B41EA0041B6
:100BC00021F07F4070470CB50246002000920A0FCA
:100BD00021F07F41019202D0009A143202E0009A83
:100BE000090C1832009212680A4200D001200CBD94
:100BF000C9438182704710B5034600209A884FF49C
:100C0000E06404EA11449B8A224021F07F410B42B8
:100C100002D0002A00D0012010BDC9438182704754
:100C20000054004000580040005C004040420F006B
:100C3000A0860100C14910B5884202D10121841467
:100C400024E0BF49884202D10121041404E0BD49D7
:100C500088420AD10121C4132046FFF7B7FC204681
:100C6000BDE810400021FFF7B1BCB749884202D16E
:100C7000012144140AE0B549884202D101210C0542
:100C800004E0B34988420AD101214C052046FFF710
:100C9000A7FC2046BDE810400021FFF7A1BC10BD15
:100CA00030B502884C8802F441530A88CD8822432B
:100CB0008C882C4322430C8922434C8922438C8903
:100CC0002243CC8922431A430280828B22F40062A1
:100CD0008283098A018230BDF0B502220023858B10
:100CE00001244FF24006354085830284868B8D684F
:100CF000022D3DD08A8802B10224964A13681B0255
:100D000003D5136823F400031360924A7C321368FE
:100D10001268C3F388138F4FC2F302723F1F3D68FE
:100D20003F6805F03F057F0201D58B4F00E08B4FF8
:100D3000B7FBF5F55D43B5FBF2F2CB88B3F5007F69
:100D40002BD06301B2FBF3F202EB82028B685200FC
:100D5000B2FBF3F2521D92B20A23B2FBF3F202F09D
:100D60000103D21A4FF6FF74C2F34F0204EA0323C1
:100D7000941EFE2C01D302220023CC881A43144374
:100D800004840A884B881A438B8889890B431A4349
:100D9000324342F400618183F0BD120AD4E700219E
:100DA000018041808180C180018141818181C18137
:100DB0000721018270470021018041808180C1802C
:100DC00002228260818170470029018802D041F0AF
:100DD000400101E021F04001018070470029818B32
:100DE00002D041F4806101E021F480618183704789
:100DF000028822F40062028002880A43028070475F
:100E0000B1F5804F018803D021F480410180704703
:100E100041F48041FAE7A1F57E420188FF3A02D011
:100E200041F4807101E021F4807101807047002954
:100E3000818802D041F0040101E021F004018180A9
:100E400070470029818802D041F0100101E021F0B3
:100E500010018180704730B5828B00234FF240042F
:100E60002240828302220284848B0A884FF4807598
:100E7000B2F5007F00D002B92B464A888D88898957
:100E80002A4319430A43224342F40061818330BD5F
:100E900080897047818170470029018802D041F420
:100EA000005101E021F4005101807047018841F4B4
:100EB000805101807047012901D0008B7047808AE2
:100EC0007047008A7047002A828801D00A4300E0F8
:100ED0008A4382807047090901238B40002A828857
:100EE00099B201D00A4300E08A43828070470246EB
:100EF000002012890A4200D001207047C9430181B5
:100F0000704730B501F00F030125024605FA03F4DE
:100F10000020A3B2090905FA01F49188A4B212894C
:100F200021401A4202D0002900D0012030BD01F03A
:100F30000F0201219140C9430181704700300140F7
:100F400000380040003C00400034014000500140A7
:100F5000005401400838024000127A000024F400D6
:100F6000234810B54168491C4160816811B181680E
:100F7000491E8160AFF3008010BD10B51C4C207875
:100F8000002821D10120FFF79DF9FFF7B8F90028CB
:100F9000FBD0184801684FF47A70B1FBF0F0401EA6
:100FA000B0F1807F11D24FF0E0225061124BF0205F
:100FB00083F8140D00209061072010610F48B1FBE9
:100FC000F0F0E0600120207010BDFEE708480078D6
:100FD000002805D04FF0E020016941F002010161D5
:100FE00070474FF0E020016921F002010161704774
:100FF00010000020580000200FE000E0C0C62D00C7
:101000001CB500200321CDE9000103460122202167
:10101000174801F05EFB1CBD1CB5002101200B46EA
:101020000A46CDE900014103124801F052FB1CBD04
:1010300010481030006881040F4805D4017829B9A0
:10104000012101700846704700210170002070479F
:101050000848103000688104074805D5017829B197
:1010600000210170012070470121017000207047AC
:1010700000000240000802402000002010B5B64CDD
:10108000B44A0021204601F0F8F8D021204601F0B2
:10109000C3FA08B1002010BD022010BD010901EB08
:1010A000810100F00F0000EB4100C0B270473EB577
:1010B00004460720009001AB0022D021A64801F091
:1010C000F1F99DF80400FFF7E9FF20709DF8050095
:1010D000FFF7E4FF60709DF80600FFF7DFFFA070E8
:1010E0009DF80700FFF7DAFFE0709DF80800FFF7B2
:1010F000D5FF20719DF80900FFF7D0FF60719DF8C2
:101100000A00FFF7CBFFA0713EBD884201D208461E
:1011100070479042FCD9104670470A21B0FBF1F1AC
:101120004A4202EB820200EB420040EA0110C0B2E8
:1011300070470EB5034600783B220021FFF7E5FF1C
:10114000FFF7EBFF8DF8040058783B220021FFF7F2
:10115000DCFFFFF7E2FF8DF80500987817220021E9
:10116000FFF7D3FFFFF7D9FF8DF80600D8780722E5
:101170000121FFF7CAFFFFF7D0FF8DF807001879AC
:101180001F220121FFF7C1FFFFF7C7FF8DF80800FD
:1011900058790C220121FFF7B8FFFFF7BEFF8DF849
:1011A0000900987963220021FFF7AFFFFFF7B5FF31
:1011B0008DF80A000720009001AB0022D02166487C
:1011C00001F0D1F90EBD10B50022D021624801F026
:1011D00036F9BDE8104061E710B50122D0215E4824
:1011E00001F02DF9BDE8104058E710B50222D021DA
:1011F000594801F024F9BDE810404FE710B503222B
:10120000D021554801F01BF9BDE8104046E710B564
:101210000422D021504801F012F9BDE810403DE70A
:1012200010B50522D0214C4801F009F9BDE8104065
:1012300034E710B50622D021474801F000F9BDE897
:1012400010402BE710B53B220021FFF75EFFFFF7B0
:1012500064FF03460022BDE81040D0213E4801F063
:101260006EB910B53B220021FFF74FFFFFF755FF86
:1012700003460122BDE81040D021374801F05FB994
:1012800010B517220021FFF740FFFFF746FF034686
:101290000222BDE81040D0212F4801F050B910B50E
:1012A00007220121FFF731FFFFF737FF0346032233
:1012B000BDE81040D021284801F041B910B51F22E7
:1012C0000121FFF722FFFFF728FF03460422BDE8B4
:1012D0001040D021204801F032B910B50C22012174
:1012E000FFF713FFFFF719FF03460522BDE8104083
:1012F000D021194801F023B910B563220021FFF76E
:1013000004FFFFF70AFF03460622BDE81040D02184
:10131000114801F014B950B101280AD002280AD0AE
:1013200003280AD004280AD005280AD00AE090230E
:1013300008E0912306E0922304E0932302E0802357
:1013400000E000230722D021034801F0F8B8042070
:10135000E1E70000A08601000054004070B505469A
:101360004FF40051FD48FFF780FAFD4C0421204660
:10137000FFF77DFA2946FB4800F093FE2046BDE8C2
:1013800070400421FFF771BA70B505464FF4005163
:10139000F248FFF76CFAF24C04212046FFF767FA97
:1013A0002946F04800F07DFE2046BDE8704004214B
:1013B000FFF75BBA2DE9F04107461C4615460E467D
:1013C0002A20FFF7E1FF380AFFF7C8FFF8B2FFF75E
:1013D000C5FF280AFFF7C2FFE8B2FFF7BFFF2B20C7
:1013E000FFF7D2FF300AFFF7B9FFF0B2FFF7B6FF01
:1013F000200AFFF7B3FFE0B2BDE8F041AEE72DE908
:10140000F041050AC7B2D84841880088491E8BB20E
:10141000401E82B200210846FFF7CCFF2C20FFF7C8
:10142000B3FF00244FF49636E8B2FFF797FF384633
:10143000FFF794FF641CB442F6D3BDE8F08101B518
:10144000009801E0401E00900028FBD108BD10B5B7
:101450004FF48051C148FFF708FA0120FFF794FFCD
:10146000C248FFF7ECFFCB20FFF78EFF3920FFF7D4
:1014700075FF2C20FFF772FF0020FFF76FFF34206D
:10148000FFF76CFF0220FFF769FFCF20FFF77CFF1B
:101490000020FFF763FFC120FFF760FF3020FFF758
:1014A0005DFFE820FFF770FF8520FFF757FF002062
:1014B000FFF754FF7820FFF751FFEA20FFF764FFA2
:1014C0000020FFF74BFF0020FFF748FFED20FFF75C
:1014D0005BFF6420FFF742FF0320FFF73FFF12206E
:1014E000FFF73CFF8120FFF739FFF720FFF74CFFA4
:1014F0002020FFF733FFC020FFF746FF2320FFF730
:101500002DFFC120FFF740FF1020FFF727FFC52068
:10151000FFF73AFF3E20FFF721FF2820FFF71EFFCD
:10152000C720FFF731FF8620FFF718FF3620FFF7AF
:101530002BFF4820FFF712FF3A20FFF725FF552029
:10154000FFF70CFFB120FFF71FFF0020FFF706FF9A
:101550001820FFF703FFB620FFF716FF0820FFF75C
:10156000FDFE8220FFF7FAFE2720FFF7F7FEF220AC
:10157000FFF70AFF0020FFF7F1FE2A20FFF704FF24
:101580000020FFF7EBFE0020FFF7E8FE0020FFF74A
:10159000E5FEEF20FFF7E2FE2B20FFF7F5FE00202F
:1015A000FFF7DCFE0020FFF7D9FE0120FFF7D6FE93
:1015B0003F20FFF7D3FE2620FFF7E6FE0120FFF7CE
:1015C000CDFEE020FFF7E0FE0F20FFF7C7FE312041
:1015D000FFF7C4FE2B20FFF7C1FE0C20FFF7BEFE75
:1015E0000E20FFF7BBFE0820FFF7B8FE4E20FFF7E6
:1015F000B5FEF120FFF7B2FE3720FFF7AFFE072060
:10160000FFF7ACFE1020FFF7A9FE0320FFF7A6FEB0
:101610000E20FFF7A3FE0920FFF7A0FE0020FFF732
:101620009DFEE120FFF7B0FE0020FFF797FE0E20A1
:10163000FFF794FE1420FFF791FE0320FFF78EFEC4
:101640001120FFF78BFE0720FFF788FE3120FFF700
:1016500085FEC120FFF782FE4820FFF77FFE0820AD
:10166000FFF77CFE0F20FFF779FE0C20FFF776FED8
:101670003120FFF773FE3620FFF770FE0F20FFF7D3
:101680006DFE1120FFF780FE3948FFF7D8FE2920B4
:10169000FFF77AFEBDE810402C2075E62DE9FC41ED
:1016A000012500242D4E23462A4669033046CDE904
:1016B000004501F00EF82A4F00230122042138468C
:1016C000CDE9004501F005F8CDE9005401220023E1
:1016D0001103304600F0FDFF04213846FFF7C5F83E
:1016E0000021204800F0CAFBFFF7B1FE1E48F021A0
:1016F000001F44800480001D01804FF4A0714180D0
:101700000571BDE8FC414FF6FF7078E629203BE605
:10171000282039E610B514460B460246FFF74AFE6C
:101720002C20FFF731FEC4F30720FFF717FEE0B2CD
:10173000BDE8104012E62DE9F04104463620FFF7DF
:1017400023FE094DF0274FF4A0769CB1012C13D055
:10175000022C18D0032C18D01AE00000000C024014
:1017600000080240005001403800002080841E0024
:1017700040420F00582000E08820FFF7EFFD2F8047
:101780006E80012007E0282000E0E820FFF7E6FD5A
:101790002E806F80002028714FE62DE9F05FDFF882
:1017A0004084DDE90AB9A8F800009246A8F80210C2
:1017B0001A781E46104408F104021288904206D995
:1017C00072781144A8F802100021A8F80010002532
:1017D00029E0AAF1200111FB00507268002432F8C0
:1017E00010701CE007FA04F0000409D5B8F80210E4
:1017F000B8F800002944204489B280B25A460BE070
:10180000B9F1000F0ADBB8F80210B8F8000029445B
:10181000204489B280B24A46FFF77CFF641C3078CE
:10182000A042DFD86D1C7078A842D2D83178B8F8C1
:1018300000201144A8F80010BDE8F09F2DE9FC47F6
:10184000E74DDDE90A9828801F4614460646698060
:101850000BE00A2A0ED00D2A15D0CDE900983B46A0
:1018600069882888641CFFF798FF2278002AF0D145
:10187000BDE8FC8768887978401C084468806078F7
:101880000D2802D02E80641CEFE700202880641C05
:10189000F9E730B54D7800241D8002E00B78234431
:1018A0009CB210F8013B002BF8D1148030BD2DE91B
:1018B000FC5F9046CA4A0C46121D054611881F4619
:1018C000481EA94200D885B2414501D81FFA80F8C8
:1018D0005188481EA14200D884B2B94200D887B2CC
:1018E000454502D2A8EB050001E0A5EB08000FFA80
:1018F00080FABC4201D2381B00E0E01B0FFA80F9ED
:101900004FF0FF30454501D2012100E00146019131
:10191000BC4200D2012051460090CA4501DD084674
:1019200001E0C9F1000000EBD070401006B2CAF12E
:10193000000B214628460C9AFFF7ECFE454501D1E5
:10194000BC4211D030465E4505DDA0EB09010EB268
:10195000019929448DB24845EBDA06EB0A0006B23C
:101960000098204484B2E4E7BDE8FC9F2DE9F843E9
:101970001D46089C16460F4680460B460094FFF70E
:1019800096FF42462B46394610460094FFF78FFFDC
:1019900032462B46394610460094FFF788FF2B4607
:1019A0003246194640460094FFF781FFBDE8F883B0
:1019B0002DE9F8431D4617460C468046089E08E070
:1019C00023463A46194640460096FFF770FF641CCE
:1019D000A4B2AC42F4D3E9E72DE9FF4F0746C2F1C8
:1019E000010014460FFA80F8C2EBC43040000FFA31
:1019F00080F983B00E46081981B24FF0010A002524
:101A0000B8B2069AFFF786FE301B81B2B8B2069ACA
:101A1000FFF780FE3819B1B280B2069AFFF77AFE5E
:101A2000B1B2381B56E0B8F1000F09DB09F1020032
:101A30000FFA80F9641E08EB090024B20FFA80F84F
:101A40000AF102000FFA80FA6D1C08EB0A002DB2B1
:101A50000FFA80F87819019006EB040B1FFA8BF14E
:101A600080B2069AFFF756FE781B00901FFA8BF1A2
:101A700080B2069AFFF74EFE0198A6EB040B1FFA00
:101A80008BF180B2069AFFF745FE00981FFA8BF1A2
:101A900080B2069AFFF73EFE3819019006EB050B5F
:101AA0001FFA8BF180B2069AFFF734FE381B0090C4
:101AB0001FFA8BF180B2069AFFF72CFE0198A6EB75
:101AC000050B1FFA8BF180B2069AFFF723FE0098F0
:101AD0001FFA8BF180B2069AFFF71CFEA542A2DB2B
:101AE00007B0BDE8F08F2DE9FE4F0746C2F10100B7
:101AF00014460FFA80F8C2EBC43040000FFA80FAA7
:101B00000E46081981B299464FF0010B0025B8B274
:101B10001A46FFF7FFFD301B81B2B8B24A46FFF705
:101B2000F9FD38190290B1B280B24A46FFF7F2FDD2
:101B3000381B0190B1B280B24A46FFF7EBFD029824
:101B4000B3B2CDF8009082B2B1B240E0B8F1000F6C
:101B500009DB0AF102000FFA80FA641E08EB0A00A2
:101B600024B20FFA80F80BF102000FFA80FB6D1C13
:101B700008EB0B002DB20FFA80F8781982B20290B0
:101B8000781BCDE9009031198BB289B280B2FFF792
:101B90008EFE0198311B82B202988BB2CDF8009074
:101BA00089B280B2FFF783FE381B82B202903819E7
:101BB000CDE9009071198BB289B280B2FFF777FE40
:101BC000711B02988BB2CDF8009082B289B2019855
:101BD00080B2FFF76CFEA542B8DBBDE8FE8F0000C7
:101BE000340000201CB528B1032802D1FE48AFF311
:101BF00000801CBD05210320CDE9000100231A4609
:101C00004FF4E041F94800F07EFD1CBD7CB5052590
:101C1000F74E032438B101280BD0032802D1F54830
:101C2000AFF300807CBD00231A464FF4607130464C
:101C30000CE000231A464FF400613046CDE9004520
:101C400000F061FD0023EC481A46C021CDE90045B3
:101C500000F059FD7CBD1CB50522E84C032138B1CC
:101C600001280BD0032802D1E548AFF300801CBD4A
:101C7000CDE9001200231A46642105E0CDE90012E7
:101C800000231A464FF4E041204600F03CFD1CBD05
:101C90001CB50622032138B101280CD0032802D13B
:101CA000D848AFF300801CBDCDE9001200231A46CE
:101CB0003821D54806E0CDE9001200231A464FF43A
:101CC000E051D24800F01FFD1CBD7CB50525CE4E6D
:101CD000032448B1012815D0022819D0032802D1C5
:101CE000CB48AFF300807CBD00231A464FF48061DF
:101CF0003046CDE9004500F006FD00231A460C21D0
:101D0000C24809E000231A464FF46041304603E020
:101D10000023C0481A460D21CDE9004500F0F3FC30
:101D20007CBD1CB50522032138B101280CD0032845
:101D300002D1B948AFF300801CBDCDE900120023E9
:101D40001A46E021B54805E0CDE9001200231A4605
:101D50003821AD4800F0D7FC1CBD2DE9FF4F85B000
:101D60000446DDE912BA994616466846FFF717F8A9
:101D7000A948AB4F0025844208D1386840F4805010
:101D800038600698FFF7CDFFADF80450A048DFF8A3
:101D900090828442A8F104080AD1D8F8001041F4D6
:101DA0008041C8F800100698FFF78FFFADF8045087
:101DB000944884420AD1D8F8001041F40041C8F890
:101DC00000100698FFF764FFADF804508C48844279
:101DD00008D1386840F4005038600698FFF73BFFA0
:101DE000ADF804508348844208D1386840F480102C
:101DF00038600698FFF70AFFADF804507A4884422D
:101E000008D1386840F4001038600698FFF7EAFE01
:101E1000ADF80450ADF80C90ADF80050ADF80EA040
:101E2000ADF802B046B10120012E08D00221022EE9
:101E300008D0032E0BD00EE0ADF8065004E0ADF84C
:101E4000065006E0ADF80610ADF8085003E0ADF816
:101E50000610ADF808004FF40070ADF80A002088B5
:101E600020F04000208069462046FEF719FF2088B8
:101E700040F04000208009B0BDE8F08F2DE9FC4122
:101E80000446654800250F464FF48276844205D10A
:101E9000CDE9006520230022FFF75FFF5C48844204
:101EA00006D1CDE90065202300223946FFF755FF12
:101EB0005448844206D1CDE90065202300223946EA
:101EC000FFF74BFF4E48844206D1CDE90065202341
:101ED00000223946FFF741FF4648844206D1CDE94A
:101EE000006500231A463946FFF737FF3E48844213
:101EF00006D1CDE90065202300223946FFF72DFFEA
:101F0000BDE8FC812DE9FC41044643480025174605
:101F100088464FF48276844204D1CDE900652023BF
:101F2000FFF71BFF3A48844206D1CDE90065202324
:101F30003A464146FFF711FF3248844206D1CDE9C7
:101F4000006520233A464146FFF707FF2C488442AC
:101F500006D1CDE9006520233A464146FFF7FDFE54
:101F60002448844206D1CDE9006500233A46414623
:101F7000FFF7F3FE1C488442C2D1CDE9006520235F
:101F80003A464146FFF7E9FEBAE72DE9FC47044629
:101F9000DDE90A6520481F4690468946844205D1FE
:101FA000CDE9006513463A46FFF7D7FE184884424C
:101FB00006D1CDE9006543463A464946FFF7CDFED6
:101FC0001048844206D1CDE9006543463A46494669
:101FD000FFF7C3FE0A48844226D1CDE90065434697
:101FE0003A4649461EE000000054014000180240F5
:101FF0000014024000500140001C0240001002404A
:1020000000340140003C004000040240000802404F
:102010000038004000200240003001400000024033
:1020200044380240FFF799FE5848844206D1CDE972
:10203000006543463A464946FFF78FFE54488442BE
:1020400006D1CDE9006543463A464946FFF785FE8D
:10205000BDE8FC877FB50D00044620D06846FEF73A
:10206000E4F94C48844208D04B48844205D04748A4
:10207000844202D04648844201D1039900E002998B
:1020800000200124421C04FA02F3B1FBF3F3AB423B
:1020900002D8C00004B070BDD0B20828F2D33820F6
:1020A000F8E7818101898907FCD50189C907FCD03E
:1020B00001890906FCD48089C0B2704770B50D460D
:1020C0000646002406E0295D3046FFF7EAFF10557A
:1020D000641CA4B29C42F6D370BD30B50C460546D4
:1020E000002305E0E15C2846FFF7DBFF5B1C9BB2A9
:1020F0009342F7D330BD70B50D460646002406E086
:1021000011463046FFF7CDFF2855641CA4B29C420F
:10211000F6D370BD818101898907FCD50189C90782
:10212000FCD001890906FCD48089704770B50D4642
:102130000646002408E035F814103046FFF7EAFFA1
:1021400022F81400641CA4B29C42F4D370BD30B5D4
:102150000C460546002306E034F813102846FFF726
:10216000D9FF5B1C9BB29342F6D330BD70B50D46D0
:102170000646002407E011463046FFF7CBFF25F85E
:102180001400641CA4B29C42F5D370BD0050014001
:102190000054014000300140003401407CB504256A
:1021A000012438B1012812D0032802D1FC48AFF332
:1021B00000807CBD01231A461902FA48CDE900458A
:1021C00000F0A1FA01231A465902F74804E001235E
:1021D000F6481A464FF4C071CDE9004500F093FA75
:1021E0007CBD1CB50421012248B101280FD0022872
:1021F00014D0032802D1EE48AFF300801CBDCDE916
:10220000002101231A464FF44061EA480CE0CDE971
:10221000002101231A460321E74805E0CDE900210A
:1022200001231A463021E14800F06DFA1CBD1CB5AF
:102230000421E04C012248B101280DD0022812D01F
:10224000032802D1DD48AFF300801CBDCDE9002199
:1022500001231A46C0210CE0CDE9002101231A46D2
:102260004FF4407105E0CDE9002101231A464FF4F7
:102270001071204600F047FA1CBD2DE9FF471546B6
:102280000446CE4A0026CE48CE4F4FF480484BF647
:10229000FF7994420CD1026842F4001202600846B1
:1022A000FFF7C5FF3868A84200D93D6038681EE0D6
:1022B000BF4A94420CD1026842F480020260084690
:1022C000FFF78FFF7868A84200D97D6078680EE03C
:1022D000B34A944216D1026842F4000202600846F2
:1022E000FFF75CFFB868A84200D9BD60B868ADF8D8
:1022F0000460ADF808600090ADF80C80ADF80A609D
:10230000ADF80690208820F0010020806946204624
:10231000FEF7FCFA208840F001002080BDE8FF872E
:1023200070B50446008820F480602080208840F446
:1023300000702080A34D44F620602D1FA24E28601F
:1023400001E0521E2A6031462046FEF729FC10B9F2
:102350002A68002AF5D1208AC0B270BD2DE9F0416B
:10236000044600881746884640F480702080954DCA
:1023700044F620662D1F2E6002E0401E28602ED0FD
:10238000A08AC00702D128680028F6D11BB1208896
:1023900040F4806020802046FEF74DFB6FB928F0A6
:1023A000010020822E6002E0401E286017D0A08A23
:1023B000800702D428680028F6D1012F15D148F0F3
:1023C000010020822E60804E3E3E02E0401E2860CA
:1023D00005D031462046FEF7E3FB18B105E00120A9
:1023E000BDE8F08128680028F0D10020F8E7754AA0
:1023F00044F62061121F116002E0491E11600ED0E8
:10240000818A090602D5818A490702D41168002908
:10241000F3D1018841F40071018000207047012050
:102420007047684B44F620621B1F1A60828A1206AE
:1024300003D41A680AB1521EF7E70182704770B5DB
:10244000164600230C4605461A46FFF787FF31461D
:102450002846FFF7E6FF2846FFF7C9FF00230122C1
:1024600021462846FFF77AFF2846BDE8704057E727
:1024700070B50446008840F480602080514D44F6D9
:1024800020602D1F504E286001E0521E2A60314608
:102490002046FEF785FB10B92A68002AF5D1208A6C
:1024A000C0B270BD2DE9F0411D4616460C4680466F
:1024B00001230022069FFFF751FF31464046FFF7F8
:1024C000B0FF4046FFF793FF01231A4621464046DE
:1024D000FFF744FF00247E1E0AE0B442404602D1CA
:1024E000FFF71EFF01E0FFF7C3FF2855641CE4B2AD
:1024F000BC42F2D374E710B5012304461A46FFF735
:102500002DFF2046BDE810400AE72DE9F0411E46A8
:102510001546012380461A46FFF720FF0024771E48
:102520000AE0BC42404602D1FFF7FAFE01E0FFF7A5
:102530009FFF2855641CE4B2B442F2D350E770B553
:102540001D461646002304461A46FFF707FF31468C
:102550002046FFF766FF29462046FFF762FF204628
:10256000BDE8704043E72DE9F0411D4614460023C5
:1025700007461A46069EFFF7F1FE21463846FFF74A
:1025800050FF002405E0295D3846FFF74AFF641C30
:10259000E4B2B442F7D33846BDE8F04127E7000083
:1025A000005C00400000024000080240001C0240A5
:1025B0000058004000040240001402400054004053
:1025C00040380240440000204000030070B515462A
:1025D000002304461A46FFF7C1FE29462046FFF7AE
:1025E00020FF2046BDE8704001E72DE9F0411D467F
:1025F0001646002307461A46FFF7B0FE002405E002
:10260000315D3846FFF70DFF641CE4B2AC42F7D3EE
:102610003846BDE8F041EAE670B5002405460123DE
:102620002246FFF79BFE00B901242846FFF7DFFE94
:10263000204670BDA84AA949904203D10A6842F0D9
:1026400001020A60A64A904203D10A6842F00202DF
:102650000A60A44A904203D10A6842F004020A6068
:10266000A14A904203D10A6842F008020A609F4AD8
:10267000904203D10A6842F010020A609C4A9042DC
:1026800003D10A6842F020020A609A4A904203D1BC
:102690000A6842F040020A60974A904203D10A68F1
:1026A00042F080020A60954A904203D10A6842F4DF
:1026B00080720A60924A904203D10A6842F4007222
:1026C0000A60904A904203D1086840F48060086034
:1026D00070472DE9F0471E46DDE9088715460C00D6
:1026E00081460ED0FFF7A6FF874801460571867127
:1026F000046080F8078047714846BDE8F047FEF760
:102700004FB8BDE8F0872DE9F05F1F46DDE90A9A72
:1027100090460D00834624D0FFF78CFF002401264D
:1027200006FA04F028420AD0002101E04008491CC2
:102730000128FBD889B252465846FEF7A5F8641C1A
:10274000102CEDD370480221017180F806800560DD
:10275000C77180F8059001465846BDE8F05FFEF766
:102760001FB8BDE8F09F684A0323137100239371DB
:102770001160D37153711146FEF712B870B5002283
:102780000124032504FA02F3DBB2194205D00668DE
:102790005B0005FA03F39E430660521CD2B2102A76
:1027A000F0D370BDF0B500220127032607FA02F32B
:1027B0003C460B4208D00568530006FA03FC25EAA4
:1027C0000C059C4025430560521CD2B2102AEDD363
:1027D000F0BD0146424A0020914200D10120414A09
:1027E000914200D10220404A914200D103203F4A49
:1027F000914200D104203E4A914200D105203D4A39
:10280000914200D106203C4A914200D107203B4A28
:10281000914200D108203A4A914200D10920394A18
:10282000914200D10A207047002102E0491C89B280
:1028300040080128FAD808467047274A274990429D
:1028400003D10A6822F001020A60254A904203D1AE
:102850000A6822F002020A60224A904203D10A6802
:1028600022F004020A60204A904203D10A6822F052
:1028700008020A601D4A904203D10A6822F0100241
:102880000A601B4A904203D10A6822F020020A60C3
:10289000184A904203D10A6822F040020A60164AA0
:1028A000904203D10A6822F080020A60134A9042E3
:1028B00003D10A6822F480720A60114A904203D15F
:1028C0000A6822F400720A600E4A904203D1086836
:1028D00020F48060086070470000024030380240F9
:1028E0000004024000080240000C024000100240B8
:1028F0000014024000180240001C02400020024068
:10290000002402400028024050000020A0B000F047
:1029100099F8FEF775FBFEF7C1FE4FF6E43738462F
:10292000FEF76DFD0120FEF706FF0026304B31A2B9
:102930004FF49B715A20CDE90067FEF77FFFFEF749
:102940009DFB324D48B12E830A21314B31A20846FE
:10295000CDE90067FEF772FFFEE715208DF87A00DB
:1029600012208DF879001A208DF87C008DF878609F
:1029700001208DF87B0005208DF87D000E208DF85C
:102980007E001EA8FEF7D5FBFEF7E1FC0120FEF756
:10299000C2FC1EA8FEF78BFB9DF878009DF87E20F8
:1029A0009DF879309DF87A10CDE9033002F5FA628E
:1029B000CDE901219DF87D0000909DF87C309DF8C7
:1029C0007B20184905A800F0DBF8CDE90076104B14
:1029D00005AA0F210A20FEF731FF9DF87800A042DA
:1029E000D7D00446686980F020006861D1E7000014
:1029F0002400002073746D333266342D6469736370
:102A00006F766572792E636F6D00000000000240E2
:102A10002C000020445331333037204572726F72DE
:102A200000000000F84300087047FEE7FEE7FEE7FD
:102A3000FEE7704770477047704710B5FEF790FA91
:102A400010BD0000444810B5016841F470010160F8
:102A50004248016841F001010160404A002108320A
:102A6000116002683E4B1A400260031D3D4A1A6025
:102A7000026822F48022026038480C30016000F0C5
:102A800039F835494FF000608039086010BD70B5E5
:102A9000324E002208363068334B344910F00C00B7
:102AA00003D0042803D0082803D00B6018E0304876
:102AB00015E02A48001D0468C4F38055046804F03A
:102AC0003F042DB9B3FBF4F20368C3F388135A43F0
:102AD0000068C0F30140401C4000B2FBF0F0086009
:102AE0003068224AC0F30310121D105C0A68C2400D
:102AF0000A6070BD19484030016841F080510160A2
:102B00001C48016841F440410160144808300168E4
:102B1000016001680160016841F480510160021F99
:102B200015491160111F0A6842F080720A600A6834
:102B30009201FCD5114A40F202711160016821F046
:102B400003010160016841F0020101600168C1F305
:102B500081010229FAD1704788ED00E00038024077
:102B6000FFFFF6FE103000240024F400580000207F
:102B700000127A000070004010640107003C02401F
:102B80000FB41CB5074B06AA7B4469460090059814
:102B900000F06BF90020694600F07AF91CBC5DF882
:102BA00014FB00000503000070B504468569006849
:102BB000C10601D5302600E02026C00707D070BD31
:102BC000D4E9012130469047206A401C20626D1EE6
:102BD000F6D570BD70B5044685690078C00707D189
:102BE00070BDD4E9012120209047206A401C20625A
:102BF0006D1EF6D570BD00002DE9F041064600249B
:102C000010687529314616A510D0AFF30080002852
:102C100002DA404213A507E031688A0701D512A500
:102C200002E0490704D511A5012401E0AFF30080BB
:102C300000210A2206F1240709E0B0FBF2FCB0FBF8
:102C4000F2F302FB1C00303078541846491C00286F
:102C5000F3D123462A463046BDE8F04100F0A7B83C
:102C6000000000002D0000002B00000020000000EC
:102C70002DE9F05F894604464FF0000ADFF824B1E1
:102C8000FB44C0F820A02046E168884700287DD09A
:102C9000252806D0D4E901219047206A401C2062F3
:102CA000F1E700255F462046E16888472028064670
:102CB00007DB312E05D2B81910F8200C08B10543F6
:102CC000F1E7A80701D525F00405C4F81CA00027EA
:102CD000C4F818A02A2E09D0304600F014F938B3F1
:102CE00004EB8708303EC8F8186019E059F8041B57
:102CF000204604EB87029161E1688847012F064670
:102D000018D1E069002820DA25F020051DE0D8F868
:102D1000180000EB800006EB40003038C8F81800BF
:102D20002046E1688847064600F0EDF80028EED11D
:102D3000012F0AD02E2E08D12046E16888477F1C3B
:102D40000646022F45F02005C4DBA069002803DAFF
:102D5000404245F00105A061E80701D025F01005CB
:102D6000A6B1A6F14100192802D8203645F4006525
:102D70004A463146204625604D46FDF747FA60B188
:102D8000012807D0ED1D25F0070000E007E000F165
:102D9000080978E705F1040975E730467AE7206A03
:102DA000BDE8F09F621700007047704770472DE93B
:102DB000F0470D4699469246044600F12408016802
:102DC000880604D5E06921F01001216000E00120AF
:102DD000A84201DD471B00E00027A1697A1902EB38
:102DE0000900081AA0612078C00602D42046FFF727
:102DF000DBFE002608E0D4E901211AF8060090471E
:102E0000206A401C761C20624E45F4DB2078C00608
:102E10000AD52046FFF7C8FE06E0D4E9012130209C
:102E20009047206A401C2062381EA7F10107F4DC9D
:102E300007E0D4E9012118F805009047206A401CFA
:102E40002062281EA5F10105F3DC2046FFF7C2FE33
:102E50002078000602D50220BDE8F0870120FBE7BC
:102E600001694A1C02610878704700B58FB0CDE94E
:102E700001310021059105497944CDE9031011463E
:102E80006846FFF7F5FE0FB000BD0000E5FFFFFF4D
:102E90000A6802F8010B0A607047754600F028F8CE
:102EA000AE4605006946534620F00700854618B037
:102EB00020B5FDF7D3F9BDE820404FF000064FF0F4
:102EC00000074FF000084FF0000B21F00701AC465F
:102ED000ACE8C009ACE8C009ACE8C009ACE8C0097E
:102EE0008D4670470446AFF300802046FDF7A2F9F7
:102EF000004870476C00002001491820ABBEFEE777
:102F000026000200704730380A2801D2012070479D
:102F1000002070474FF04070E1EE100A704700004B
:102F200000000000000000000000000000000000A1
:102F30000000001000100010001000100010000031
:102F400000100000000000280028002800000000F9
:102F50000000000000000000000000240024007CAD
:102F600000240048007C00480048000000000038B1
:102F70000054005000380014005400540038001071
:102F800000000020005400580030002800540014B5
:102F90000008000000000010002800280010003485
:102FA000004800480034000000000010001000102D
:102FB0000000000000000000000000000000000809
:102FC0000010002000200020002000200020001021
:102FD0000008002000100008000800080008000891
:102FE0000008001000200010003800100028000029
:102FF00000000000000000000000000000000010C1
:103000000010007C00100010000000000000000014
:103010000000000000000000000000000010001090
:103020000010000000000000000000000038000058
:103030000000000000000000000000000000000090
:103040000000000000100000000000080008001050
:1030500000100010001000200020000000000038C8
:103060000044004400540044004400440038000080
:103070000000001000300050001000100010001080
:103080000010000000000038004400440004000864
:1030900000100020007C0000000000380044000404
:1030A000001800040004004400380000000000087C
:1030B0000018002800280048007C000800080000D4
:1030C0000000007C00400040007800040004004440
:1030D0000038000000000038004400400078004440
:1030E00000440044003800000000007C0004000898
:1030F0000010001000200020002000000000003818
:1031000000440044003800440044004400380000FB
:1031100000000038004400440044003C0004004427
:103120000038000000000000000000100000000057
:10313000000000000010000000000000000000007F
:10314000001000000000000000100010001000003F
:103150000000000C003000400030000C00000000B7
:103160000000000000000000007C0000007C000067
:1031700000000000000000000000006000180004D3
:103180000018006000000000000000380044000447
:1031900000080010001000000010000000000038BF
:1031A0000044004C0054005C004000400038000027
:1031B000000000100028002800280028007C00449F
:1031C00000440000000000780044004400780044FF
:1031D0000044004400780000000000380044004033
:1031E0000040004000400044003800000000007033
:1031F00000480044004400440044004800700000BF
:103200000000007C00400040007C00400040004086
:10321000007C00000000007C00400040007800407E
:103220000040004000400000000000380044004022
:103230000040005C004400440038000000000044EE
:1032400000440044007C004400440044004400006A
:1032500000000038001000100010001000100010D6
:103260000038000000000004000400040004000412
:1032700000040044003800000000004400480050F2
:10328000006000500048004800440000000000407A
:10329000004000400040004000400040007C000032
:1032A00000000044006C006C0054004400440044E2
:1032B0000044000000000044006400640054005416
:1032C000004C004C00440000000000380044004462
:1032D000004400440044004400380000000000782E
:1032E00000440044004400780040004000400000DA
:1032F00000000038004400440044004400440054EE
:1033000000380004000000780044004400440078C5
:10331000004800480044000000000038004400401D
:103320000030000800040044003800000000007C69
:10333000001000100010001000100010001000001D
:1033400000000044004400440044004400440044A1
:103350000038000000000044004400440028002819
:103360000028001000100000000000440044005439
:1033700000540054006C00280028000000000044A5
:103380000028002800100010002800280044000039
:103390000000004400440028002800100010001025
:1033A000001000000000007C000400080010001065
:1033B00000200040007C00000000001800100010F9
:1033C0000010001000100010001000100018002065
:1033D000002000100010001000100008000800007D
:1033E000000000300010001000100010001000104D
:1033F00000100010003000100028002800440000D9
:1034000000000000000000000000000000000000BC
:1034100000000000000000000000000000FE00208E
:10342000001000000000000000000000000000008C
:1034300000000000000000380044003C0044004C44
:1034400000340000000000400040005800640044C8
:103450000044006400580000000000000000003834
:103460000044004000400044003800000000000418
:1034700000040034004C00440044004C00340000C0
:1034800000000000000000380044007C00400044C0
:10349000003800000000000C0010007C001000103C
:1034A00000100010001000000000000000000034B8
:1034B000004C00440044004C0034000400780040FC
:1034C00000400058006400440044004400440000F0
:1034D000000000100000007000100010001000102C
:1034E000001000000000001000000070001000102C
:1034F000001000100010001000E0004000400048E4
:1035000000500060005000480044000000000070BF
:10351000001000100010001000100010001000003B
:1035200000000000000000780054005400540054D3
:103530000054000000000000000000580064004437
:103540000044004400440000000000000000003877
:103550000044004400440044003800000000000023
:10356000000000580064004400440064005800401B
:103570000040000000000034004C00440044004CB7
:103580000034000400040000000000580064004003
:103590000040004000400000000000000000003833
:1035A0000044003000080044003800000000002003
:1035B00000200078002000200020002000180000DB
:1035C0000000000000000044004400440044004C9F
:1035D0000034000000000000000000440044002807
:1035E0000028002800100000000000000000005427
:1035F00000540054006C0028002800000000000067
:1036000000000044002800100010002800440000C2
:1036100000000000000000440044002800280010C2
:1036200000100010006000000000007C0008001086
:1036300000200040007C0000000000180010001076
:1036400000100020002000100010001000180010D2
:1036500000100010001000100010001000100010EA
:1036600000100030001000100010000800080010CA
:103670000010001000300000000000000074004C3A
:10368000000000000000000000000000000000003A
:10369000000000000000000000000000000000002A
:1036A000000000000000000000000000000000001A
:1036B000000C000C000C000C000C000C000C000CAA
:1036C000000C000C000C0000000C000C00000000BE
:1036D00000000000001B001B001B001B001B000063
:1036E00000000000000000000000000000000000DA
:1036F0000000000000000000801980198019801966
:10370000C07FC07F80190033C07FC07F003300338B
:10371000003300330000000000000000001E003FE6
:10372000807580650074003C001E00078005806580
:1037300080658075003F001E00040004000000004A
:10374000007000D840D8C0D880D900730006000CA3
:10375000801BC036C066C046C00680030000000063
:1037600000000000001E003F003300330033001E45
:10377000000CC03CC066806380618063C03E801CDA
:103780000000000000000000000C000C000C000C09
:10379000000C00000000000000000000000000001D
:1037A0000000000000000000000080000001000395
:1037B000000600060004000C000C000C000C000CBD
:1037C000000C000400060006000300018000002039
:1037D00000100018000C000C000400060006000693
:1037E0000006000600060004000C000C0018001083
:1037F00000200000000C002D003F001E00330000E0
:1038000000000000000000000000000000000000B8
:10381000000000000000000000000000000C000C90
:10382000000C000CC0FFC0FF000C000C000C000CD2
:103830000000000000000000000000000000000088
:103840000000000000000000000000000000000078
:1038500000000000000C000C000400040008000040
:103860000000000000000000000000000000000058
:10387000001E001E0000000000000000000000000C
:103880000000000000000000000000000000000038
:10389000000000000000000000000000000C000C10
:1038A0000000000000000000000300030003000609
:1038B000000600060006000C000C000C000C0018AE
:1038C000001800180000000000000000001E003F6B
:1038D0000033806180618061806D806D8061806176
:1038E00080610033003F001E000000000000000067
:1038F0000006000E001E0036002600060006000628
:103900000006000600060006000600060000000093
:1039100000000000001E003F807380618061800114
:1039200000030006000C001800300060807F807FDC
:103930000000000000000000001C003E0063006367
:103940000003000E000E000380018001806180737F
:10395000003F001E00000000000000000006000EF6
:10396000000E001E001E0016003600360066807F26
:10397000807F000600060006000000000000000036
:10398000007F007F006000600060006E007F806349
:103990008001800180618073003F001E00000000F4
:1039A00000000000001E003F803380610060006E58
:1039B000007F80738061806180618033003F001EE2
:1039C0000000000000000000807F807F8001000375
:1039D000000300060006000C000C000C0008001894
:1039E000001800180000000000000000001E003F4A
:1039F0008063806180610021001E003F80618061E2
:103A000080618061003F001E000000000000000097
:103A1000001E003F00738061806180618073803F81
:103A2000801D800180610073003F001E00000000C7
:103A3000000000000000000000000000000C000C6E
:103A4000000000000000000000000000000C000C5E
:103A50000000000000000000000000000000000066
:103A60000000000C000C000000000000000000003E
:103A7000000C000C0004000400080000000000001E
:103A8000000080008003000E003800600038000E47
:103A90008003800000000000000000000000000023
:103AA0000000000000000000807F807F0000000018
:103AB000807F807F00000000000000000000000008
:103AC0000000000000000000000000400070001C2A
:103AD000000780010007001C00700040000000008B
:103AE0000000000000000000001F803FC071C060A7
:103AF000C000C00180030007000E000C000C000095
:103B0000000C000C0000000000000000001E003F40
:103B1000803180718063806F806D806D806F806781
:103B200000600032003E001C0000000000000000A9
:103B3000000E000E001B001B001B001B803180319B
:103B4000803F803F8031C060C060C06000000000E6
:103B500000000000007C007E0063006300630063DF
:103B6000007E007E0063806180618063007F007E54
:103B70000000000000000000001E003F8031806156
:103B80000060006000600060006000608061803163
:103B9000003F001E0000000000000000007C007FCD
:103BA0000063806380618061806180618061806189
:103BB00000630063007E007C000000000000000045
:103BC000807F807F0060006000600060007F007F79
:103BD0000060006000600060807F807F0000000067
:103BE00000000000807F807F006000600060006057
:103BF000007F007F00600060006000600060006087
:103C00000000000000000000001E003F80318061C5
:103C1000006000600060806380638061806180314B
:103C2000803F001E000000000000000080618061F5
:103C30008061806180618061807F807F8061806140
:103C400080618061806180610000000000000000F0
:103C5000003F003F000C000C000C000C000C000C9E
:103C6000000C000C000C000C003F003F00000000A6
:103C7000000000008001800180018001800180013E
:103C8000800180018001806180618073003F001E9F
:103C90000000000000000000C0608061006300665A
:103CA0000066006C0078007C00660066006380613E
:103CB0008061C06000000000000000000060006043
:103CC00000600060006000600060006000600060F4
:103CD00000600060807F807F000000000000000026
:103CE000C071C071C07BC07AC06AC06AC06EC06457
:103CF000C060C060C060C060C060C0600000000004
:103D00000000000080718071807980798079806DF9
:103D1000806D806D80658067806780678063806369
:103D20000000000000000000001E003F0033806122
:103D30008061806180618061806180618061003329
:103D4000003F001E0000000000000000007E007F19
:103D500080638061806180618063007F007E00609D
:103D600000600060006000600000000000000000D3
:103D7000001E003F0033806180618061806180614E
:103D80008061806580670033803F401E0000000036
:103D900000000000007E007F80638061806180639E
:103DA000007F007E00660063006380618061C06008
:103DB0000000000000000000000E001F8031803174
:103DC00000300038001E0007800380618061803170
:103DD000003F001E0000000000000000C0FFC0FF08
:103DE000000C000C000C000C000C000C000C000C73
:103DF000000C000C000C000C000000000000000093
:103E000080618061806180618061806180618061AA
:103E10008061806180618073003F001E00000000AF
:103E200000000000C060C060C0608031803180311F
:103E3000001B001B001B001B000E000E000E0004E8
:103E40000000000000000000C0C0C0C0C0C0C0C072
:103E5000C0C0C0CC804C804C805E80528052807349
:103E6000806180610000000000000000C0C0806030
:103E700080610033003B001E000C000C001E001F80
:103E8000003B80718061C0C00000000000000000A5
:103E9000C0C08061806100330033001E001E000C32
:103EA000000C000C000C000C000C000C00000000CA
:103EB00000000000803F803F8001000300030006F7
:103EC000000C000C0018001800300060807F807F1C
:103ED000000000000000000F000F000C000C000CA0
:103EE000000C000C000C000C000C000C000C000C72
:103EF000000C000C000C000F000F00000018001850
:103F00000018000C000C000C000C00060006000657
:103F10000006000300030003000000000000001E74
:103F2000001E000600060006000600060006000649
:103F30000006000600060006000600060006001E39
:103F4000001E0000000C000C001E001200330033A5
:103F5000806180610000000000000000000000009F
:103F60000000000000000000000000000000000051
:103F70000000000000000000000000000000000041
:103F8000000000000000E0FF000000000038001802
:103F9000000C000000000000000000000000000015
:103FA0000000000000000000000000000000000011
:103FB0000000000000000000001F803F80618001C1
:103FC000801F803F80618063807FC03800000000D8
:103FD000000000000060006000600060006E007F74
:103FE000807380618061806180618073007F006E7A
:103FF00000000000000000000000000000000000C1
:10400000001E003F807380610060006080618073EB
:10401000003F001E00000000000000008001800141
:1040200080018001801D803F80738061806180619C
:1040300080618073803F801D000000000000000050
:104040000000000000000000001E003F00738061BF
:10405000807F807F00608071003F001E00000000B4
:1040600000000000C007C00F000C000C807F807FA4
:10407000000C000C000C000C000C000C000C000CE0
:104080000000000000000000000000000000801D93
:10409000803F807380618061806180618073803F38
:1040A000801D80018063007F003E00000060006092
:1040B00000600060006F807F80718061806180613E
:1040C000806180618061806100000000000000006C
:1040D0000006000600000000003E003E000600064C
:1040E00000060006000600060006000600000000AC
:1040F00000000006000600000000003E003E000632
:10410000000600060006000600060006000600067F
:104110000046007E003C000000600060006000601F
:10412000806100630066006C007C007600630063C1
:104130008061C0600000000000000000003E003E02
:10414000000600060006000600060006000600063F
:104150000006000600060006000000000000000047
:10416000000000000000000080DDC0FFC0CEC0CC19
:10417000C0CCC0CCC0CCC0CCC0CCC0CC00000000F7
:10418000000000000000000000000000006F807FC1
:104190008071806180618061806180618061806107
:1041A000000000000000000000000000000000000F
:1041B000001E003F80738061806180618061807338
:1041C000003F001E00000000000000000000000092
:1041D0000000006E007F807380618061806180617B
:1041E0008073007F006E006000600060006000006F
:1041F000000000000000801D803F807380618061AE
:10420000806180618073803F801D8001800180011A
:104210008001000000000000000000000067803FF7
:104220000039003000300030003000300030003005
:10423000000000000000000000000000000000007E
:10424000001E803F80610060007F803F80018061B0
:10425000007F001E000000000000000000000008B9
:1042600000180018007F007F0018001800180018C0
:1042700000180018801F800F0000000000000000E0
:1042800000000000000000008061806180618061AA
:104290008061806180618063807F803D00000000DC
:1042A000000000000000000000000000C06080313D
:1042B00080318031001B001B001B000E000E000629
:1042C00000000000000000000000000000000000EE
:1042D00080DD80DD80DD00550055005500770077DA
:1042E000002200220000000000000000000000008A
:1042F00000000000806100330033001E000C000C41
:10430000001E003300338061000000000000000048
:1043100000000000000080618061803100330033C4
:10432000001B001B001B000E000E000E001C007C7A
:10433000007000000000000000000000C07FC07F8F
:10434000800100030006000C00180030C07FC07F11
:104350000000000000008003800700060006000641
:1043600000060006000E001C001C000E00060006E1
:10437000000600060006800780030006000600060F
:1043800000060006000600060006000600060006FD
:1043900000060006000600060006000600060038BB
:1043A000003C000C000C000C000C000C000E000780
:1043B0000007000E000C000C000C000C000C003C70
:1043C00000380000000000000000000000000000B5
:1043D0008038807F004700000000000000000000DF
:1043E00000000000000004000008000000000000C1
:1043F00000020001000010004461793A2025640A9F
:10440000446174653A20253032640A4D6F6E7468D9
:104410003A20253032640A596561723A20253034D9
:10442000640A486F7572733A20253032640A4D6908
:104430006E757465733A20253032640A5365636F74
:104440006E64733A20253032640000006C4400082A
:10445000000000206C000000D4010008D8440008CF
:104460006C00002064060000F0010008000000005D
:10447000010203040102030406070809000000000A
:10448000000000000000000000000000000000002C
:10449000070A00001E2F00080B1200008A360008D1
:1044A000000000000000000000000000000000000C
:1044B000FFFFFFFFFFFFFFFFFFFFFFFF0000000008
:1044C0000000000000E1F505000000000000000011
:0844D0000102030406070809BC
:040000050800019955
:00000001FF
