:020000040800F2
:10000000B8060020E103000855200008572000082A
:10001000592000085B2000085D2000080000000057
:100020000000000000000000000000005F20000849
:10003000612000080000000063200008652000081F
:10004000FB030008FB030008FB030008FB03000898
:10005000FB030008FB030008FB030008FB03000888
:10006000FB030008FB030008FB030008FB03000878
:10007000FB030008FB030008FB030008FB03000868
:10008000FB030008FB030008FB030008FB03000858
:10009000FB030008FB030008FB030008FB03000848
:1000A000FB030008FB030008FB030008FB03000838
:1000B000FB030008FB030008FB030008FB03000828
:1000C000FB030008FB030008FB030008FB03000818
:1000D000FB030008FB030008FB030008FB03000808
:1000E000FB030008FB030008FB030008FB030008F8
:1000F000FB030008FB030008FB030008FB030008E8
:10010000FB030008FB030008FB030008FB030008D7
:10011000FB030008FB030008FB030008FB030008C7
:10012000FB030008FB030008FB030008FB030008B7
:10013000FB030008FB030008FB030008FB030008A7
:10014000FB030008FB030008FB030008FB03000897
:10015000FB030008FB030008FB030008FB03000887
:10016000FB030008FB030008FB030008FB03000877
:10017000FB030008FB030008FB030008FB03000867
:10018000FB030008FB030008FB030008FB03000857
:10019000FB030008FB030008FB030008FB03000847
:1001A000FB030008FB030008FB03000800F002F853
:1001B00000F049F80AA090E8000C82448344AAF1B8
:1001C0000107DA4501D100F03EF8AFF2090EBAE8B6
:1001D0000F0013F0010F18BFFB1A43F0010318477B
:1001E0007845000098450000103A24BF78C878C1CF
:1001F000FAD8520724BF30C830C144BF04680C602D
:10020000704700000023002400250026103A28BF74
:1002100078C1FBD8520728BF30C148BF0B60704778
:10022000662902F0E987002070471FB502F0DFFF62
:1002300002F008FA04000020002102F04BFFE06009
:100240001FBD10B510BD02F0F7FA1146FFF7EDFF24
:1002500001F068FE02F015FB03B4FFF7F2FF03BCE8
:1002600002F056FB0CB50022544900920192086836
:1002700040F4803008604FF4A043086800F4003078
:1002800001900098401C0090019810B90098984285
:10029000F3D10868800334D50120019047484030ED
:1002A000026842F0805202604548026842F44042CF
:1002B00002604248083002680260026842F400426C
:1002C0000260026842F4A0520260031F3D4A1A60B5
:1002D0000A6842F080720A600A689201FCD53A49C5
:1002E00040F205720A60016821F0030101600168B3
:1002F00041F0020101600168C1F381010229FAD1D4
:100300000CBD01920CBD314810B5016841F470017B
:1003100001602A48016841F001010160274A00217B
:100320000832116002682A4B1A400260031D294AF4
:100330001A60026822F48022026020480C300160BA
:10034000FFF790FF21494FF000608039086010BD31
:1003500070B51A4D083528681F4B204910F00C0065
:1003600004D05E10042803D0082803D00B601BE0E3
:100370000E6019E0114A121D1068C0F38054106815
:1003800000F03F0014B1B6FBF0F001E0B3FBF0F079
:1003900013681268C3F388135843C2F30142521C16
:1003A0005200B0FBF2F0086028680C4AC0F303105A
:1003B000121D105C0A68C2400A6070BD003802401D
:1003C0000070004008544007003C024088ED00E007
:1003D000FFFFF6FE103000240024F400000000208F
:1003E0000948804709480047FEE7FEE7FEE7FEE7C9
:1003F000FEE7FEE7FEE7FEE7FEE7FEE70448054905
:10040000054A064B7047000007030008AD010008CD
:10041000B8000020B8060020B8020020B802002072
:10042000F848016841F001010160F64A00210832F4
:1004300011600268F44B1A400260031DF34A1A600F
:10044000F04BF34A84331A60F04A103A1B1D1A60CD
:10045000026822F480220260EA480C300160181D14
:1004600001607047E7490022891C0A7008707047D4
:1004700002460020510901290CD002290CD0E14983
:100480007431096802F01F02012393400B4200D02F
:1004900001207047DB49F4E7DA497031F1E718B51C
:1004A00000204FF4A04400903120FFF7E1FF0099B5
:1004B000491C0091A14201D00028F5D03120FFF75E
:1004C000D7FF002800D0012018BDCE4A116821F0C6
:1004D000F80141EAC00010607047CE4908607047DB
:1004E000C849002270310A700A70012802D004281D
:1004F00001D1052008707047C7490860704741EA7C
:1005000082115A0810B5C54B029C03EB02421143FD
:10051000014341EA0460BB49091D086010BDBD49A3
:1005200008667047800140EA0170B649843108606E
:100530007047B84988667047800140EA0160B14958
:1005400040EA0270883108607047B2490867704716
:10055000B049C8647047AB4B08331A68084322F0AF
:10056000EC62104318607047A64B08331A680843C2
:1005700022F07842104318607047A24A083211688E
:1005800021F003010143116070479E480830006864
:1005900000F00C0070479B4A0832116821F0F0010E
:1005A000014311607047974A0832116821F4E05105
:1005B000014311607047934A0832116821F4604189
:1005C00041EAC0001060704770B58E4B083319685F
:1005D000934C11F00C0104D06610042903D00829B3
:1005E00003D004601BE0066019E0864A121D116802
:1005F000C1F38055116801F03F0115B1B6FBF1F16F
:1006000001E0B4FBF1F114681268C4F3881461438B
:10061000C2F30142521C5200B1FBF2F101601968B1
:100620000F2202EA11117F4A545C0168E1404160E7
:100630001C68072505EA9424145D21FA04F48460FB
:100640001B6805EA5333D25CD140C16070BDC0F372
:100650000121032908D16B4B08331968724A21F430
:10066000F81102400A431A60664970310A68C0F303
:100670000B0002430A6070476749443908607047BD
:1006800065494039086070476249C1F85C017047AC
:100690005C4A8C321168401E21F01F010143116039
:1006A0007047584A8C3211686FF0FF0321F4F851FB
:1006B00003EB0020084310607047524A8C321168E7
:1006C00021F440110143116070474E4A8C32116889
:1006D00021F440010143116070474A4A8C3211688D
:1006E00021F440310143116070475049C1F8E001E5
:1006F0007047444A30320029116801D0014300E0BC
:100700008143116070473F4A34320029116801D09B
:10071000014300E08143116070473A4A38320029B2
:10072000116801D0014300E0814311607047354AF0
:1007300040320029116801D0014300E0814311607B
:100740007047304A44320029116801D0014300E06B
:100750008143116070472B4A10320029116801D083
:10076000014300E0814311607047264A143200299A
:10077000116801D0014300E0814311607047214AB4
:1007800018320029116801D0014300E08143116053
:1007900070471C4A20320029116801D0014300E053
:1007A000814311607047174A24320029116801D033
:1007B000014300E0814311607047124A5032002922
:1007C000116801D0014300E08143116070470D4A78
:1007D00054320029116801D0014300E081431160C7
:1007E0007047084A58320029116801D0014300E0DF
:1007F000814311607047034A60320029116817D0A5
:10080000014316E000380240FFFFF6EA10300024F2
:100810000030002000004742800E47420000FFFFEA
:100820000024F40014000020FFFCFF0F00104742DA
:10083000814311607047134A0029116801D00143B8
:1008400000E08143116070470E4A573A0029117841
:1008500001D0014300E08143117070470948103016
:10086000016841F08071016070470146054A00202F
:10087000583A12680A4200D001207047014956399F
:100880000870704764380240774910B5884206D135
:1008900001210846FFF75FFF002101205BE073495B
:1008A000884206D101210220FFF755FF00210220D6
:1008B00051E06F49884206D101210420FFF74BFF28
:1008C0000021042047E06B49884206D1012108201D
:1008D000FFF741FF002108203DE06749884206D12B
:1008E00001211020FFF737FF0021102033E063497A
:1008F000884206D101212020FFF72DFF0021202072
:1009000029E05F49884206D101214020FFF723FFFB
:10091000002140201FE05B49884206D10121802050
:10092000FFF719FF0021802015E05749884202D1C6
:10093000012184150AE05549884202D1012144155C
:1009400004E0534988420AD1012104152046FFF7EB
:1009500002FF00212046BDE81040FFF7FCBE10BD9D
:10096000F0B5002201274FF0030C0B6807FA02F5DF
:100970002B40AB422CD1066853000CFA03F4A6437B
:1009800006600E79D0F800E09E4046EA0E0606604A
:100990000E79012E01D0022E12D18668A643866000
:1009A0004E79D0F808E09E4046EA0E06866046681A
:1009B000AE43466045688E799640B6B23543456091
:1009C000C568A543C560CC799C40C3681C43C4601E
:1009D000521C102AC9D3F0BD4FF6FF7101600021EF
:1009E000017141718171C171704708B541F4803264
:1009F0000092C261C1610099C161C169C069009082
:100A000008BD0246002012690A4200D0012070474A
:100A1000006980B270470246002052690A4200D045
:100A200001207047406980B270470183704741835D
:100A300070470AB101837047418370474161704735
:100A400042694A40426170474B07DB0E9A40C90831
:100A500010B500EB8100016A0F249C40A1430162A4
:100A6000016A1143016210BD00000240000402400F
:100A700000080240000C0240001002400014024036
:100A800000180240001C02400020024000240240E6
:100A900000280240BF4910B5884202D101218414C8
:100AA00024E0BD49884202D10121041404E0BB497D
:100AB00088420AD10121C4132046FFF76AFE20466E
:100AC000BDE810400021FFF764BEB549884202D15D
:100AD000012144140AE0B349884202D101210C05E6
:100AE00004E0B14988420AD101214C052046FFF7B4
:100AF0005AFE2046BDE810400021FFF754BE10BD4D
:100B000030B502884C8802F441530A88CD882243CC
:100B10008C882C4322430C8922434C8922438C89A4
:100B20002243CC8922431A430280828B22F4006242
:100B30008283098A018230BDF0B502220023858BB1
:100B400001244FF24006354085830284858B8E68F0
:100B5000022E38D08A8802B10224944A13681B02FC
:100B600003D5136823F400031360904A7C321368A2
:100B70001268C3F388138D4EC2F30272361F3668B3
:100B80008B4F06F03F06B7FBF6F65E43B6FBF2F27C
:100B9000CB88B3F5007F2BD06301B2FBF3F202EBFD
:100BA00082028B685200B2FBF3F2521D92B20A230A
:100BB000B2FBF3F202F00103D21A4FF6FF74C2F354
:100BC0004F0204EA0323941EFE2C01D302220023C9
:100BD000CC881A43144304840A884B881A438B88B0
:100BE00089890B431A432A4342F400618183F0BD93
:100BF000120AD4E70021018041808180C1800181F7
:100C000041818181C18107210182704700210180DA
:100C100041808180C18002228260818170470029E9
:100C2000018802D041F0400101E021F04001018043
:100C300070470029818B02D041F4806101E021F4EA
:100C4000806181837047028822F4006202800288FA
:100C50000A4302807047B1F5804F018803D021F428
:100C600080410180704741F48041FAE7A1F57E425E
:100C70000188FF3A02D041F4807101E021F48071D3
:100C8000018070470029818802D041F0040101E011
:100C900021F00401818070470029818802D041F051
:100CA000100101E021F010018180704730B5828B86
:100CB00000234FF240042240828302220284848B6C
:100CC0000A884FF48075B2F5007F00D002B92B4638
:100CD0004A888D8889892A4319430A43224342F46A
:100CE0000061818330BD8089704781817047002910
:100CF000018802D041F4005101E021F4005101804B
:100D00007047018841F4805101807047012901D06A
:100D1000008B7047808A7047008A7047002A82885B
:100D200001D00A4300E08A43828070470909012309
:100D30008B40002A828899B201D00A4300E08A439E
:100D4000828070470246002012890A4200D00120AA
:100D50007047C9430181704730B501F00F03012589
:100D6000024605FA03F40020A3B2090905FA01F4CA
:100D70009188A4B2128921401A4202D0002900D0E1
:100D8000012030BD01F00F0201219140C9430181D2
:100D9000704700000030014000380040003C004037
:100DA0000034014000500140005401400838024026
:100DB00000127A0001B5304800994160416800296D
:100DC000FCD108BD01B54FF47A70009941432A481F
:100DD000416041680029FCD108BD27488168491C51
:100DE0008160C16811B1C168491EC16041680029B4
:100DF00002D04168491E4160704710B51E4C2078F2
:100E000000281CD10120FFF72DFBFFF748FB00282D
:100E1000FBD01A481A490068B0FBF1F0401EB0F14F
:100E2000807F0DD24FF0E0214861164AF02082F811
:100E3000140D00208861072008610120207010BD7A
:100E4000FEE70D48806870470B48C06870470A4944
:100E5000886070470849C8607047074800780028D4
:100E600003D04FF0E0210720086170474FF0E021E8
:100E700000200861704700002400002000000020CE
:100E800040420F000FE000E070B501210820FFF79D
:100E900030FC6E4C0220002520602571A5710121D7
:100EA000E1716B4E607121463046FFF759FD2571A7
:100EB00021463046FFF754FD002070BD10B5FFF706
:100EC0009CFFFFF7E1FF002010BD2DE9FE4F5F4FB3
:100ED0005F4E80464FF0010987F80490394630464E
:100EE000FFF73EFD5A4802241A3004804FF47A700E
:100EF000FFF760FF5648183004801E20FFF75AFFA6
:100F000000253D7139463046FFF72AFDFFF799FF6E
:100F1000009008E0FFF795FF0099401A142802D9C5
:100F20000220BDE8FE8F02213046FFF76AFD01284E
:100F3000F0D0FFF786FF009007E0FFF782FF0099EF
:100F4000401A552801D90320EBE702213046FFF76C
:100F500058FD0028F1D0FFF774FF009007E0FFF77D
:100F600070FF0099401A552801D90420D9E70221C1
:100F70003046FFF746FD0128F1D00024AA4601AF14
:100F8000082507F804A0FFF75CFF009007E0FFF7D3
:100F900058FF0099401A412801D90520C1E70221D4
:100FA0003046FFF72EFD0028F1D0FFF74AFF0090F2
:100FB00007E0FFF746FF0099401A502801D90620A4
:100FC000AFE702213046FFF71CFD0128F1D0FFF703
:100FD00038FF0099401A0090142801D9212805D320
:100FE000395D6A1E09FA02F0014339556D1E15F08C
:100FF000FF05C8D1641CE4B2052CC1D39DF80400E0
:101000009DF8051042189DF806009DF8071043183A
:101010001A449DF80830D2B29A4201D0072080E7E6
:10102000BDF8042052BAA8F80220020605D500F047
:101030007F0041EA0020404202E0BDF8060040BACD
:10104000A8F8000000206CE73FE700003400002013
:10105000000C024070B505464FF40051FB48FFF705
:10106000E4FCFB4C04212046FFF7E1FC2946F9484B
:1010700000F0FAFE2046BDE870400421FFF7D5BC21
:1010800070B505464FF40051F048FFF7D0FCF04C26
:1010900004212046FFF7CBFC2946EE4800F0E4FE91
:1010A0002046BDE870400421FFF7BFBC2DE9F041A8
:1010B00007461C4615460E462A20FFF7E1FF380A70
:1010C000FFF7C8FFF8B2FFF7C5FF280AFFF7C2FF16
:1010D000E8B2FFF7BFFF2B20FFF7D2FF300AFFF780
:1010E000B9FFF0B2FFF7B6FF200AFFF7B3FFE0B297
:1010F000BDE8F041AEE72DE9F041050AC7B2D64898
:1011000041880088491E8BB2401E82B200210846E9
:10111000FFF7CCFF2C20FFF7B3FF00244FF49636E7
:101120002846FFF797FF3846FFF794FF641CB44248
:10113000F6D3BDE8F08101B5009801E0401E0090B3
:101140000028FBD108BD10B54FF48051BF48FFF710
:101150006CFC0120FFF794FFC048FFF7ECFFCB20A9
:10116000FFF78EFF3920FFF775FF2C20FFF772FF86
:101170000020FFF76FFF3420FFF76CFF0220FFF71E
:1011800069FFCF20FFF77CFF0020FFF763FFC1203E
:10119000FFF760FF3020FFF75DFFE820FFF770FFEB
:1011A0008520FFF757FF0020FFF754FF7820FFF757
:1011B00051FFEA20FFF764FF0020FFF74BFF0020FC
:1011C000FFF748FFED20FFF75BFF6420FFF742FFCA
:1011D0000320FFF73FFF1220FFF73CFF8120FFF7BE
:1011E00039FFF720FFF74CFF2020FFF733FFC02027
:1011F000FFF746FF2320FFF72DFFC120FFF740FF39
:101200001020FFF727FFC520FFF73AFF3E20FFF72A
:1012100021FF2820FFF71EFFC720FFF731FF8620A0
:10122000FFF718FF3620FFF72BFF4820FFF712FFCC
:101230003A20FFF725FF5520FFF70CFFB120FFF7FD
:101240001FFF0020FFF706FF1820FFF703FFB6205F
:10125000FFF716FF0820FFF7FDFE8220FFF7FAFEDA
:101260002720FFF7F7FEF220FFF70AFF0020FFF725
:10127000F1FE2A20FFF704FF0020FFF7EBFE00201D
:10128000FFF7E8FE0020FFF7E5FEEF20FFF7E2FEA4
:101290002B20FFF7F5FE0020FFF7DCFE0020FFF714
:1012A000D9FE0120FFF7D6FE3F20FFF7D3FE262010
:1012B000FFF7E6FE0120FFF7CDFEE020FFF7E0FE9E
:1012C0000F20FFF7C7FE3120FFF7C4FE2B20FFF7EA
:1012D000C1FE0C20FFF7BEFE0E20FFF7BBFE08206C
:1012E000FFF7B8FE4E20FFF7B5FEF120FFF7B2FE84
:1012F0003720FFF7AFFE0720FFF7ACFE1020FFF707
:10130000A9FE0320FFF7A6FE0E20FFF7A3FE09208B
:10131000FFF7A0FE0020FFF79DFEE120FFF7B0FEE3
:101320000020FFF797FE0E20FFF794FE1420FFF732
:1013300091FE0320FFF78EFE1120FFF78BFE0720A2
:10134000FFF788FE3120FFF785FEC120FFF782FE00
:101350004820FFF77FFE0820FFF77CFE0F20FFF7F5
:1013600079FE0C20FFF776FE3120FFF773FE362062
:10137000FFF770FE0F20FFF76DFE1120FFF780FED4
:101380003748FFF7D8FE2920FFF77AFEBDE8104066
:101390002C2075E62DE9FC4101210820FFF7A9F971
:1013A0004FF40050009002208DF8050001258DF8C3
:1013B00004500024254E8DF806408DF807406946FC
:1013C0003046FFF7CDFA01210420FFF792F90420FF
:1013D0001F4F009069463846FFF7C2FA01210820E6
:1013E000FFF787F9280300908DF8075069463046CB
:1013F000FFF7B6FA04213846FFF717FB002115481E
:1014000000F00AFDFFF79FFE1348F021001F448003
:101410000480001D01804FF4A071418005714FF6DA
:10142000FF70FFF768FEBDE8FC8110B514460B465F
:101430000246FFF73BFE2C20FFF722FE200AFFF7B3
:1014400009FEE0B2BDE8104004E60000000C0240D6
:1014500000080240005001404000002080841E002F
:1014600040420F002DE9F04104463620FFF708FE08
:10147000FE4DF0274FF4A07634B1012C06D0022C9B
:101480000BD0032C0BD00DE0582000E08820FFF794
:10149000E1FD2F806E80012007E0282000E0E82099
:1014A000FFF7D8FD2E806F800020287141E62DE9DE
:1014B000F05FDFF8B8831978A8F10408DDE90ABA0B
:1014C000B8F800001E460844E84991460988884259
:1014D00008D97178B8F802201144A8F80210002148
:1014E000A8F8001000251EE0A9F1200111FB005012
:1014F0007268002432F8107011E007FA04F000045A
:10150000B8F80210B8F800002944204489B280B22B
:1015100001D55A4600E05246FFF787FF641C307839
:10152000A042EAD86D1C7078A842DDD83078B8F8AF
:1015300000201044A8F80000BDE8F09F2DE9FC470A
:10154000CA4DDDE90A982D1F1F462880144606461D
:1015500069800BE00A2A0ED00D2A15D0CDE900983B
:101560003B4669882888641CFFF7A1FF2278002A7F
:10157000F0D1BDE8FC8768887978401C0844688011
:1015800060780D2802D02E80641CEFE700202880B0
:10159000641CF9E730B54D7800241D8002E00B781B
:1015A00023449CB210F8013B002BF8D1148030BDCD
:1015B0002DE9F04705469146DDF820A098460C46F7
:1015C00010464D4501D9A94685B21846444501D972
:1015D000884684B2A9EB0500A8EB040100B20EB264
:1015E00050B1A6B1B04234DDC0EB46010FB271007C
:1015F000404201EB400829E0524621462846FFF7C9
:1016000014FF641CA4B2A045F6D2BDE8F087524690
:1016100021462846FFF709FF6D1CADB2A945F6D259
:10162000F3E7524621462846FFF7FFFE4D4501D21B
:101630006D1C00E06D1EADB2002F04DD641CA4B271
:1016400008EB070001E007EB460007B24D45E8D183
:101650001EE0C6EB40010FB27100404201EB4009B1
:1016600014E0524621462846FFF7DFFE444501D2EA
:10167000641C00E0641EA4B2002F04DD6D1CADB23A
:1016800009EB070001E007EB460007B24445E8D14B
:10169000524621462846BDE8F047C6E62DE9F84304
:1016A0001D46089C16460F4680460B460094FFF7E1
:1016B0007FFF42462B46394610460094FFF778FFDD
:1016C00032462B46394610460094FFF771FF2B46F1
:1016D0003246194640460094FFF76AFFBDE8F8839A
:1016E0002DE9F8431D4617460C468046089E08E043
:1016F00023463A46194640460096FFF759FF641CB8
:10170000A4B2AC42F4D3E9E72DE9FF4F0746C2F19A
:10171000010014460FFA80F8C2EBC43040000FFA03
:1017200080F983B00E46081981B24FF0010A0025F6
:10173000B8B2069AFFF779FE301B81B2B8B2069AAA
:10174000FFF773FE3819B1B280B2069AFFF76DFE4B
:10175000B1B2381B56E0B8F1000F09DB09F1020005
:101760000FFA80F9641E08EB090024B20FFA80F822
:101770000AF102000FFA80FA6D1C08EB0A002DB284
:101780000FFA80F87819019006EB040B1FFA8BF121
:1017900080B2069AFFF749FE781B00901FFA8BF182
:1017A00080B2069AFFF741FE0198A6EB040B1FFAE0
:1017B0008BF180B2069AFFF738FE00981FFA8BF182
:1017C00080B2069AFFF731FE3819019006EB050B3F
:1017D0001FFA8BF180B2069AFFF727FE381B0090A4
:1017E0001FFA8BF180B2069AFFF71FFE0198A6EB55
:1017F000050B1FFA8BF180B2069AFFF716FE0098D0
:101800001FFA8BF180B2069AFFF70FFEA542A2DB0A
:1018100007B0BDE8F08F2DE9FE4F0746C2F1010089
:1018200014460FFA80F8C2EBC43040000FFA80FA79
:101830000E46081981B299464FF0010B0025B8B247
:101840001A46FFF7F2FD301B81B2B8B24A46FFF7E5
:10185000ECFD38190290B1B280B24A46FFF7E5FDBF
:10186000381B0190B1B280B24A4601E0400000202E
:10187000FFF7DBFD0298B3B2CDF8009082B2B1B2AF
:1018800040E0B8F1000F09DB0AF102000FFA80FA1C
:10189000641E08EB0A0024B20FFA80F80BF1020074
:1018A0000FFA80FB6D1C08EB0B002DB20FFA80F8CD
:1018B000781982B20290781BCDE9009031198BB271
:1018C00089B280B2FFF774FE0198311B82B2029890
:1018D0008BB2CDF8009089B280B2FFF769FE381B59
:1018E00082B202903819CDE9009071198BB289B299
:1018F00080B2FFF75DFE711B02988BB2CDF80090AD
:1019000082B289B2019880B2FFF752FEA542B8DBDD
:10191000BDE8FE8F30B587B001214020FEF7E9FE1B
:1019200000248DF81A408DF81B4003208DF8190013
:1019300002208DF818004FF4E040F84D059005A9FD
:101940002846FFF70DF805220D212846FFF77CF801
:1019500005220C212846FFF777F805220E2128469C
:10196000FFF772F801214805FEF7EBFE6846FFF726
:1019700041F92020ADF80C00ADF80040ADF804406E
:101980004FF48270ADF80E40ADF80200ADF806409D
:10199000ADF808406815E24CADF80A0069462046EB
:1019A000FFF7AEF801212046FFF739F907B030BD47
:1019B00030B587B000248DF81A408DF81B40032104
:1019C0008DF8191002218DF81810D64D00284FF00F
:1019D00001014FF0200046D0FEF78BFE0121802050
:1019E000FEF787FEC020059005A92846FEF7B8FF40
:1019F000E914059105A92846FEF7B2FF05220B213F
:101A00002846FFF721F8C84D052206212846FFF792
:101A10001BF8052207212846FFF716F801210805C3
:101A2000FEF78FFE6846FFF7E5F8ADF80040ADF829
:101A30000C40ADF804404FF48270ADF80E40ADF8A4
:101A40000200ADF80640ADF808404FF40070B74C06
:101A5000ADF80A0069462046FFF752F801212046FA
:101A6000FFF7DDF8A2E7FEF744FE4FF46070059043
:101A700005A92846FEF774FF052207212846FEF730
:101A8000E3FF052208212846FEF7DEFF0522092193
:101A9000C1E730B587B000248DF81A408DF81B409F
:101AA00003218DF8191002218DF81810A04D00287F
:101AB0004FF001014FF010003DD0FEF71AFE4FF439
:101AC000E040059005A92846FEF74AFF05220C21B3
:101AD0002846FEF7B9FF05220D212846FEF7B4FF80
:101AE00005220E212846FEF7AFFF01214803FEF72D
:101AF00028FE6846FFF77EF82020ADF80C00ADF810
:101B00000040ADF804404FF48270ADF80E40ADF8DF
:101B10000200ADF80640ADF808404FF40070854C67
:101B2000ADF80A0069462046FEF7EAFF012120468B
:101B3000FFF775F83AE7FEF7DCFD6420059005A98C
:101B40002846FEF70DFF052202212846FEF77CFFFE
:101B5000052211462846FEF777FF05220621C1E738
:101B600030B587B000248DF81A408DF81B40032152
:101B70008DF8191002218DF818104FF00101E8B30B
:101B80000420FEF7B6FD4FF4E0506B4D059005A91B
:101B90002846FEF7E5FE06220A212846FEF754FFF6
:101BA00006220B212846FEF74FFF06220C2128466D
:101BB000FEF74AFF0121C803FEF7B9FD6846FFF7AB
:101BC00019F82020ADF80C00ADF80040ADF8044045
:101BD0004FF48270ADF80E40ADF80200ADF806404B
:101BE000ADF808404FF40070544CADF80A00694657
:101BF0002046FEF785FF0121204600E002E0FFF7C6
:101C00000EF8D3E60220FEF774FD38204C4D059007
:101C100005A92846FEF7A4FE062203212846FEF762
:101C200013FF062204212846FEF70EFF0622052197
:101C3000BDE770B588B000248DF81A4001218DF8F9
:101C40001B1003218DF8191002218DF818103C4D3E
:101C500000284FF001014FF002003ED0FEF749FD91
:101C60004FF46040059005A92846FEF779FE05224D
:101C70000D212846FEF7E8FE05220E212846FEF734
:101C8000E3FE05220F212846FEF7DEFE0121880330
:101C9000FEF74DFD6846FEF7ADFF2020ADF80C00C5
:101CA000ADF80040ADF804404FF48270ADF80E403E
:101CB000ADF80200ADF80640ADF808404FF40070F2
:101CC000204CADF80A0069462046FEF719FF0121B5
:101CD0002046FEF7A4FF08B070BDFEF70AFD012103
:101CE0000420FEF706FD0C20134E059005A9304692
:101CF000FEF736FE3015059005A92846FEF730FEA2
:101D0000052202213046FEF79FFE052203213046C0
:101D1000FEF79AFE05220A21B5E7000000180240EE
:101D20000054014000140240001C024000500140D9
:101D3000001002400034014000080240003C004016
:101D4000000402400038004030B587B000248DF810
:101D50001A408DF81B4003218DF8191002218DF8CF
:101D600018104FF00101E0B30220FEF7C2FC38204A
:101D7000644D059005A92846FEF7F2FD05220321D2
:101D80002846FEF761FE052204212846FEF75CFE88
:101D9000052211462846FEF757FE01210803FEF7EB
:101DA000D0FC6846FEF726FF2020ADF80C00ADF809
:101DB0000040ADF804404FF48270ADF80E40ADF82D
:101DC0000200ADF80640ADF808404FF400704E4CEC
:101DD000ADF80A0069462046FEF792FE0121204632
:101DE00000E002E0FEF71BFFE0E50120FEF781FCCA
:101DF000E020464D059005A92846FEF7B1FD0522D5
:101E000011462846FEF720FE052206212846FEF749
:101E10001BFE05220721BDE770B504463A480D4672
:101E2000844202D10846FFF78FFF3948844202D12D
:101E30002846FFF7FEFE3748844202D12846FFF7C6
:101E40008FFE3548844202D12846FFF722FE3348F0
:101E5000844202D12846FFF7ABFD3148844202D1CB
:101E6000BDE8704056E570BD10B504468181022181
:101E70002046FEF767FF0028F9D001212046FEF733
:101E800061FF0028F9D080212046FEF75BFF002883
:101E9000F9D1A089C0B210BD2DE9F0411D4616460A
:101EA0000F468046002406E0395D4046FFF7DCFF20
:101EB0003055641CE4B2AC42F6D3BDE8F0812DE9A4
:101EC000F04115460E460746002405E0315D3846D0
:101ED000FFF7CAFF641CA4B2AC42F7D3EDE72DE9CB
:101EE000F0411D4617460E468046002406E039465E
:101EF0004046FFF7B9FF3055641CA4B2AC42F6D39C
:101F0000DBE7000000040240003001400000024016
:101F100000380040003C00400034014000500140C7
:101F2000005401402DED028B90B0FEF7ECF9FEF766
:101F300064FFFFF72FFA0120FFF794FA4FF6E4361B
:101F40003046FFF7D8F80027CDE900760A21284B64
:101F500028A20846FFF7F2FACDE900762B4B2CA217
:101F60004FF49B715A20FFF7E9FAFEF7A7FF002014
:101F7000FEF76DFFDFF8B080FEF763FF4045FBD949
:101F80000020FEF764FF0FA8FFF75EF80028F3D1EA
:101F9000BDF93C00B2EE048A00EE100AF8EEC00A69
:101FA00080EE880A10EE100A01F0B0F80446BDF881
:101FB0003E000D4600EE100AF8EE400A80EE880A58
:101FC00010EE100A01F0A2F841EC100B17A153EC2F
:101FD000102B02A8CDE9004500F046F8CDE90076C7
:101FE000034B02AA64210A20FFF7A8FAC4E7000005
:101FF00050000020414D32333031202844485432C3
:1020000031290A73656E736F72000000480000206A
:1020100073746D333266342D646973636F766572E1
:10202000792E636F6D00000040420F0048756D69A6
:10203000646974793A2025322E31662025250A54A8
:10204000656D70657261747572653A2025322E3146
:10205000662043007047FEE7FEE7FEE7FEE77047B5
:1020600070477047FEF7B9BE0FB41CB5074B06AA00
:102070007B4469460090059800F0CBFA0020694641
:1020800000F0DAFA1CBC5DF814FB0000C505000086
:1020900070B5044685690068C10601D5302600E0A8
:1020A0002026C00707D070BDD4E9012130469047F3
:1020B000206A401C20626D1EF6D570BD70B50446C6
:1020C00085690078C00707D170BDD4E901212020BF
:1020D0009047206A401C20626D1EF6D570BD2DE928
:1020E000F0474FF0000A89460446C0F820A0204679
:1020F000E1688847002876D0252806D0D4E9012158
:102100009047206A401C2062F1E7E16820460025E4
:102110008847C4F81CA006460027C4F818A02A2E39
:1021200009D0304600F0CEFF38B304EB8708303ECC
:10213000C8F8186019E059F8041B204604EB870220
:102140009161E1688847012F064618D1E0690028AF
:1021500020DA25F020051DE0D8F8180000EB8000FB
:1021600006EB40003038C8F818002046E168884780
:10217000064600F0A7FF0028EED1012F0AD02E2E30
:1021800008D12046E16888477F1C0646022F45F0AB
:102190002005C4DBA069002803DA404245F00105B0
:1021A000A061E80701D025F01005B6B1A6F1410005
:1021B000192802D8203645F400654A4631462046A3
:1021C00025604D46FEF72CF858B1012806D0ED1DCC
:1021D00025F0070000F1080989E704E005F104098A
:1021E00085E730468AE7206ABDE8F0877047704788
:1021F000704770472DE9FF4F0C461E464FF0FF37E2
:102200008BB0D2E90001DDF860800A908A46C1F304
:102210000A5505B93D46002108464FF00000BAF1C5
:10222000000F00F4400005DA00EB80004FF440019D
:1022300001EA50004FEA9059B9F1010F00DDB946AB
:102240000A9850EA4A000ED044F61050A5F2FF3525
:1022500045432F14B8F1000F1ED07542291E1EDD14
:10226000C9F100021CE0B8F1010F4FF0000001D0ED
:10227000302103E0F24305E02154401CB042FBDB77
:1022800030460022002121540B99C1F80880C1E991
:1022900000200FB0BDE8F08FBD1B6D1CDEE74A4685
:1022A00000DA694206A800F057FA06AB93E8070087
:1022B00003AB83E8070050460A9900F030FB8DE835
:1022C0000700A0F500501F3800900398002D09DD8D
:1022D00042F21F014A46084403A90390684600F0F1
:1022E0008FFD08E0A0F500504A461F3803A903906F
:1022F000684600F099FD8DE807000004000C03D04B
:102300004FF0FF30410800E01046B8F1000F03D055
:102310000022009215461EE0751E05D400F096F9C5
:10232000303262556D1EF9D5B3460122084302D002
:1023300000227F1C04E02078302801D100227F1E7B
:10234000002A099786D01DE0112D07DA00F07EF9EA
:10235000303262556D1C50EA0102F5D1084302D0BB
:102360000098C8B10EE00021681E05E0235C625CA5
:1023700063542254401E491C8142F7DBAB46A81B24
:10238000401E0990002004F80B000B98099AC0F831
:102390000880C0E9002B7CE711264FF0000859E7C0
:1023A0002DE9F04F88460446D21D22F0070191B076
:1023B000D1E90001CDE90A0100F06CFE02460B985C
:1023C000C00F01D02D2007E02068810701D52B2008
:1023D00002E0202101EAC000032A099001D0072A67
:1023E00005DB03464146204600F076F909E12078F6
:1023F000800601D5E06900E00620B8F1650F81464E
:1024000006D0B8F1660F18D0B8F1670F70D131E07F
:102410000020B9F1110F009001DB112301E009F157
:1024200001030AAA01A90CA8FFF7E4FEDDE90C707C
:10243000002609F10105834647E001204B46009044
:102440004FF000470AAA01A90CA8FFF7D3FEDDE967
:102450000DB00C995D46002610B909F101000D1868
:10246000B9EB050003D4C0F1FF3609F10105A5EB76
:1024700009002BE0B9F1010F01DA4FF0010900204A
:10248000B9F1110F0090484601DD112300E0034629
:102490000AAA01A90CA8FFF7ADFEDDE90C704D46B4
:1024A00000268346207800070AD4AB4500DA5D4653
:1024B00001A8012D04DD411911F8011C302907D0B4
:1024C0004F4502DA17F1040F04DA012082460FE0CB
:1024D0006D1EEEE7002F02DCED1B3E4403E0781C8E
:1024E000A84200DD7D1CB81B00F1010A4FF0004737
:1024F0002078000703D4AA4501DB4FF0FF3A002102
:10250000B7F1004F0DF143088DF8431022D002209F
:102510002B23002F01DA7F422D234FF00A0C011EDE
:10252000A0F1010000DC47B197FBFCF10CFB11723C
:102530000F46303208F8012DF1E7A8F101000370D1
:102540002188090501D5452100E06521A0F1010898
:1025500000F8011C09980FA9A1EB0807FF1D00B1A5
:102560000120411901EBEA70A1693844081A401EA4
:10257000A0612078C00602D42046FFF789FD0998A3
:1025800028B1D4E901219047206A401C20622078BC
:10259000C00622D52046FFF77BFD1EE0002E04DB9F
:1025A000B34502DD01A8805D00E03020D4E90121BF
:1025B0009047206A401C2062761CAAF101005FEA65
:1025C000000A0AD100F03EF8C0680168405CD4E916
:1025D00001219047206A401C2062281EA5F10105B8
:1025E000DCDC07E0D4E9012118F8010B9047206AF0
:1025F000401C2062381EA7F10107F3DC2046FFF7DC
:102600005DFD022011B045E601694A1C02610878AF
:10261000704700B58FB0CDE9013100210591054922
:102620007944CDE9031011466846FFF758FD0FB015
:1026300000BD0000E5FFFFFF0A6802F8010B0A6019
:1026400070470000004870477800002030B5B0F1B6
:102650000A024FEA900E71F100034EEA817EB0EB60
:102660000E0061EB91014FEA101E4EEA017E10EB65
:102670000E0041EB11114FEA102E4EEA016E10EBE5
:102680000E0041EB11214FEA104E4EEA014E10EBC5
:102690000E0041EB1141401841F100014FEAD0001A
:1026A00040EA41704FEAD10110EB80054FEA810406
:1026B00044EA907444EB01046D1944EB0404521B8A
:1026C000A3414FF0000348BF0A3200D530BD401C83
:1026D00041F1000130BD00002DE9F0411F460446E4
:1026E00003260168072A01F4006004DB08B116A57F
:1026F00005E016A503E008B115A500E015A521F039
:1027000010002060A069C01EA0610FB1401EA06132
:102710002046FFF7BDFC4FB1D4E901213846904770
:10272000206A401C2062C01C206206E0206AFAE792
:10273000D4E9012115F8010B9047761EF8D2204606
:10274000FFF7BCFCBDE8F0814E414E006E616E00AB
:10275000494E4600696E66002DE9F04781461646EF
:102760008AB0324878440DC88DE80D002F4878446F
:10277000801C03AC0DC884E80D0041F69B30372265
:10278000014491FBF2F0A0F1800502FB10141B3C08
:1027900002D56442012000E00020DFF890A08046CE
:1027A0000027FA44AAF1BA0A0DE0E00709D0324640
:1027B000684607EB47010AEB810100F035FB8DE825
:1027C000070064107F1C002CEFD1184F7F44A83FF6
:1027D00018E0E80714D007EB04100DF1180A90E890
:1027E0000E008AE80E00C068F04201D198190890E6
:1027F000324606A903A800F017FB03AB83E80700E5
:102800006D10641C002DE4D132466946B8F1000F0A
:1028100003A802D000F0F4FA01E000F005FBC9E9DA
:102820000001C9F808200AB0BDE8F087D81F0000F1
:1028300000487047580000207546FFF7F9FFAE4684
:1028400005006946534620F00700854618B020B5BC
:10285000FDF7D4FDBDE820404FF000064FF0000723
:102860004FF000084FF0000B21F00701AC46ACE838
:10287000C009ACE8C009ACE8C009ACE8C0098D46A5
:1028800070470446AFF300802046FDF7E5FC0000EA
:102890004FF0013C50F8042B51F8043B9A4221D1EF
:1028A000A2EB0C03934313EACC1317D150F8042B7B
:1028B00051F8043B9A4215D1A2EB0C03934313EA5F
:1028C000CC130BD150F8042B51F8043B9A4209D198
:1028D000A2EB0C03934313EACC13DBD04FF00000C0
:1028E000704700BFD01A01BAB1FA81F101F01801A6
:1028F00022FA01F0CB40C1F12001DBB2C0B2C01A14
:102900002CFA01F3D11A914311EAC311E6D17047B1
:1029100001491820ABBEFEE72600020070475FEABF
:10292000400C08BF91F0000F4FEA8C234FEAC12200
:1029300043EA51514FEA1C5018BF00F5F0404FEAEE
:10294000300018BF41F000415FEA6C5C00F0298064
:10295000BCF1FF3F08BF40F080407047130C06BF3A
:1029600012044FF0100C4FF0000C130E04BF1202B3
:102970000CF1080C130F04BF12010CF1040C930F9F
:1029800004BF92000CF1020CD30F04BF52000CF1F3
:10299000010C11464FF00002A0F11F00A0EB0C004B
:1029A000704711F0004F08BF704731F000413FF40D
:1029B000D5AF0B0C06BF09044FF0100C4FF0000C04
:1029C0000B0E04BF09020CF1080C0B0F04BF090128
:1029D0000CF1040C8B0F04BF89000CF1020CCB0F1F
:1029E00004BF49000CF1010CCCF12003A0EB0C005A
:1029F00022FA03F302FA0CF241EA030100F10100AA
:102A0000704720F07F4C80EA030023F07F47ACEB57
:102A1000070303F57C5300F0004003F1FF032DE9A9
:102A200080494FEA154B09B44FEA144325EA0B4E8F
:102A300024EA03480FF2042606EB132749083E78E0
:102A40005FEA320203FB0667C7F5000707FB06F6DD
:102A50004FEA54374FEAD64606F1020607FB066CEA
:102A6000CCF1005C4FEA1C472CEA074C07FB06F44C
:102A70000CFB06F504EB15464FEA961634BF002012
:102A80004FF000404FEAD13706FB07FC4FEA1C4CE1
:102A90000CFB0BF7D21B03FB0CF761EB07010CFBE4
:102AA0000EF7B0EB074072EB17420CFB08F734BF90
:102AB000A2EB0742B2EB074261EB17414FEA0C442D
:102AC0004FEA910706FB07FC4FEA1C4C0CFB0BF787
:102AD000B0EBC74072EB573203FB0CF734BFA2EBED
:102AE000C742B2EBC74261EB57310CFB0EF7B0EBBC
:102AF000C70072EB57720CFB08F734BFA2EBC7029A
:102B0000B2EBC70261EB5771039F4FEA816141EA63
:102B1000921104EBCC044FEAD1374FEA826206FBF4
:102B200007FC42EA90124FEA80604FEA1C4C0CFB13
:102B30000BF7D21B03FB0CF761EB07010CFB0EF745
:102B4000B0EB074072EB17420CFB08F734BFA2EB67
:102B50000742B2EB074261EB17414FEA8C554FEA4F
:102B6000910704EB9C2406FB07FC4FEA1C4C0CFB72
:102B70000BF7B0EBC74072EB573203FB0CF734BFD7
:102B8000A2EBC742B2EBC74261EB57310CFB0EF729
:102B9000B0EBC70072EB57720CFB08F734BFA2EB27
:102BA000C702B2EBC70261EB577115EB4C254FEA38
:102BB000816141EA92114FEA82624FEAD13742EADB
:102BC000901206FB07FC44F100044FEA80604FEAD4
:102BD0001C4C0CFB0BF7D21B03FB0CF761EB070142
:102BE0000CFB0EF7B0EB074072EB17420CFB08F73B
:102BF00034BFA2EB0742B2EB074261EB174115EB82
:102C00001C154FEA813141EA92414FEA823242EA91
:102C100090424FEA80304FEA0C7644F1000448EAD3
:102C200003434EEA0B484FF0000EB2EB080C71EB79
:102C3000030724BF624639464EEB0E0E4FF0000BE1
:102C40000018524149414BEB0B0BB2EB080C71EBF6
:102C500003077BF1000B24BF624639464EEB0E0E94
:102C60004FF0000B0018524149414BEB0B0BB2EBFC
:102C7000080C71EB03077BF1000B24BF6246394659
:102C80004EEB0E0E51EA020718BF46F0010616EB96
:102C90000E7655F1000254F1000103D5BDE889011B
:102CA000BDE80088BDE88901B619BDE80048524179
:102CB00041EB0101A3F10103704780807F7E7D7CA1
:102CC0007B7A7978777676757473727171706F6EBE
:102CD0006E6D6C6C6B6A6A69686867666665646469
:102CE000636362616160605F5F5E5E5D5D5C5C5BF3
:102CF0005B5A5A5959585857575656555555545462
:102D0000535352525251515050504F4F4F4E4E4DBF
:102D10004D4D4C4C4C4B4B4B4A4A4A49494948480B
:102D2000484747474746464645454544444444434B
:102D300043434342424242414141002B26D4770063
:102D400021D01CB54FEA370703B44FF010004FF005
:102D500010014FF000000FBC0BF1010BBDE810405B
:102D6000BBF1010F08BF5FEA170722BF12F1010292
:102D700011F101014FF0004143F1000300F0004068
:102D800043EA00007047F9D35708DAE746EA0646F7
:102D900013F1400F4FEA16461FDD13F1200FDFBF7E
:102DA00016430A46002120335B42C8D0C3F12007F6
:102DB00046EA064602FA07F74FEA164646EA0706CB
:102DC000C3F1200722FA03F201FA07F721FA03F10F
:102DD0004FF0000342EA0702B1E746EA020646EA7C
:102DE00006464FEA164646EA0106BCBF46EA0646D4
:102DF000360C4FF000034FF000024FF000019EE749
:102E00002DE9C048934630B491E8380007C831EA4C
:102E1000400C48BF34EA430C03D5FFF7F2FDFFF73F
:102E20008CFFF0BCBDE800882DE9C048934630B463
:102E300091E8380007C810F0804F08BF13F0804FAA
:102E400003D100F005F8FFF778FFF0BCBDE800887B
:102E500020F07F4780EA030023F07F4C07EB0C0350
:102E6000A3F57C5300F00040A3F1FE0392F0000FA5
:102E700000F0B38095F0000F00F077802DE9014954
:102E80004FEA11404FEA144621EA004800FB06FCD5
:102E900024EA064708FB06F607FB08F800FB07F7DD
:102EA00018EB06484CEB164C4FEA124B18EB074850
:102EB0004FEA15464CEB174022EA0B4E0BFB06FC83
:102EC00025EA06470EFB06F607FB0EFE0BFB07F78F
:102ED0001EEB064E4CEB164C4FF000061EEB074E59
:102EE0004CEB174B18EB0B0840F1000018EB0E0BE6
:102EF00058EB000840F100008F1A4FF000013CBF72
:102F0000C943661B14BFB5EB040C00213CBFC94389
:102F1000F61B4FEA17444EEA8E0E27EA04454FEAA5
:102F20001C4704FB07622CEA074C05FB07F70CFB68
:102F300005F604FB0CFC16EB074642EB174216EBBA
:102F40000C4642EB1C421BEB060658EB02024141C9
:102F500046EA9E0601D5BDE80189B619524141EB0A
:102F60000101A3F10103BDE801894FEA14454FEACD
:102F7000114724EA054621EA074C05FB07F406FB46
:102F800007F70CFB06F105FB0CFC11EB074144EBCA
:102F900017444FEA124711EB0C4144EB1C4422EA60
:102FA000074C05FB07F206FB07F70CFB06F605FBD3
:102FB0000CFC16EB074642EB174216EB0C4642EBB5
:102FC0001C456A1854F1000148BF7047B6195241B8
:102FD00041EB0101A3F10103704795F0000F37D0D9
:102FE0004FEA11424FEA144721EA024624EA074C0D
:102FF00002FB07F106FB07F70CFB06F402FB0CFCD7
:1030000014EB074441EB17414FEA154714EB0C440E
:1030100041EB1C4125EA074C02FB07F506FB07F7CD
:103020000CFB06F602FB0CFC16EB074645EB1745BE
:1030300016EB0C4645EB1C42121951F1000148BF3A
:103040007047B619524141EB0101A3F101037047EA
:103050004FEA14454FEA114724EA054621EA074C96
:1030600005FB07F106FB07F70CFB06F24FF0000625
:1030700005FB0CFC12EB074241EB174112EB0C4233
:1030800051EB1C4148BF7047921841EB0101A3F17D
:103090000103704703B401984100009850EAC12031
:1030A00018BF04204A0D18BF40F0010040F2FF7223
:1030B000B2EB515F08BF40F00200012808BF0520B5
:1030C00002B0704730380A2801D201207047002032
:1030D0007047000010B500290AD00878002807D0F2
:1030E00005487844FFF7D4FB002801D0002010BD2C
:1030F0000248784410BD0000961600008E160000AD
:103100000808A0F500114FEA3101704743004FEA6B
:10311000D30C4FEA3C0C43401FBF40070CF16051F9
:1031200013F0FE4F70471CF0006F03D100200CF02D
:10313000004170470CF0004343EA507010B540EA7C
:10314000CC0000F00EF800BF000000924FEA000132
:10315000FFF7D6BF4FF000414FF00000A1F500216E
:1031600070470EF1020E2EF0030E5EF8044B24425F
:1031700004D44FEA4102B2F17F4F11D84FEA400325
:10318000B3F17F4F0CD80ED14FEAD07CB2F17F4F14
:103190000CEB4C0C0CF1020C08BF4CEBD17C04E0A6
:1031A0004FF0080C01E04FEAD17C0CEB4C0324FA01
:1031B00003F404F00704B4F1040C06D20EEB840C03
:1031C000BDE810404CF0010C6047DFE80CF0070848
:1031D00002024FF00040A0F5800010BD08464200FA
:1031E00018BFD2F1807288BF00F0004010BD4FF0D0
:1031F0004070E1EE100A7047FFF7D2B800000000FF
:1032000000000000000000000000000000000000BE
:10321000001000100010001000100010000000103E
:103220000000000000280028002800000000000026
:10323000000000000000000000240024007C0024A6
:103240000048007C0048004800000000003800549E
:1032500000500038001400540054003800100000E2
:1032600000200054005800300028005400140008CA
:103270000000000000100028002800100034004862
:103280000048003400000000001000100010000092
:103290000000000000000000000000000008001016
:1032A0000020002000200020002000200010000846
:1032B00000200010000800080008000800080008AE
:1032C000001000200010003800100028000000004E
:1032D00000000000000000000000000000100010CE
:1032E000007C001000100000000000000000000042
:1032F000000000000000000000000010001000109E
:103300000000000000000000000000380000000085
:1033100000000000000000000000000000000000AD
:10332000000000100000000000080008001000105D
:1033300000100010002000200000000000380044B1
:1033400000440054004400440044003800000000E1
:10335000001000300050001000100010001000108D
:103360000000000000380044004400040008001081
:103370000020007C00000000003800440004001819
:103380000004000400440038000000000008001899
:10339000002800280048007C000800080000000009
:1033A000007C004000400078000400040044003825
:1033B0000000000000380044004000780044004451
:1033C0000044003800000000007C000400080010E9
:1033D0000010002000200020000000000038004401
:1033E000004400380044004400440038000000005D
:1033F0000038004400440044003C0004004400380D
:1034000000000000000000000010000000000000AC
:10341000000000100000000000000000000000108C
:10342000000000000000001000100010000000006C
:10343000000C003000400030000C000000000000D4
:10344000000000000000007C0000007C0000000084
:1034500000000000000000000060001800040018D8
:103460000060000000000000003800440004000874
:1034700000100010000000100000000000380044A0
:10348000004C0054005C0040004000380000000088
:1034900000100028002800280028007C0044004478
:1034A000000000000078004400440078004400441C
:1034B0000044007800000000003800440040004054
:1034C0000040004000440038000000000070004848
:1034D0000044004400440044004800700000000024
:1034E000007C00400040007C004000400040007C28
:1034F00000000000007C00400040007800400040D8
:10350000004000400000000000380044004000403F
:10351000005C004400440038000000000044004407
:103520000044007C004400440044004400000000CB
:1035300000380010001000100010001000100038BB
:103540000000000000040004000400040004000463
:1035500000440038000000000044004800500060B3
:1035600000500048004800440000000000400040B7
:1035700000400040004000400040007C000000008F
:103580000044006C006C00540044004400440044BB
:103590000000000000440064006400540054004C2B
:1035A000004C004400000000003800440044004487
:1035B000004400440044003800000000007800444B
:1035C000004400440078004000400040000000003B
:1035D00000380044004400440044004400540038D3
:1035E00000040000007800440044004400780048D3
:1035F0000048004400000000003800440040003053
:10360000000800040044003800000000007C0010A6
:10361000001000100010001000100010000000004A
:103620000044004400440044004400440044003886
:103630000000000000440044004400280028002846
:10364000001000100000000000440044005400542A
:103650000054006C002800280000000000440028EE
:10366000002800100010002800280044000000007E
:103670000044004400280028001000100010001032
:1036800000000000007C0004000800100010002072
:103690000040007C00000000001800100010001026
:1036A0000010001000100010001000180020002072
:1036B00000100010001000100008000800000000BA
:1036C000003000100010001000100010001000105A
:1036D0000010003000100028002800440000000006
:1036E00000000000000000000000000000000000DA
:1036F0000000000000000000000000FE002000109C
:1037000000000000000000000000000000000000B9
:103710000000000000380044003C0044004C00342D
:1037200000000000004000400058006400440044D5
:103730000064005800000000000000000038004451
:103740000040004000440038000000000004000475
:103750000034004C00440044004C003400000000E1
:103760000000000000380044007C004000440038A5
:1037700000000000000C0010007C00100010001081
:103780000010001000000000000000000034004C99
:1037900000440044004C0034000400780040004025
:1037A000005800640044004400440044000000004D
:1037B0000010000000700010001000100010001039
:1037C0000000000000100000007000100010001049
:1037D00000100010001000E00040004000480050C1
:1037E000006000500048004400000000007000101D
:1037F0000010001000100010001000100000000069
:10380000000000000078005400540054005400549C
:103810000000000000000000005800640044004464
:103820000044004400000000000000000038004494
:103830000044004400440038000000000000000084
:1038400000580064004400440064005800400040F8
:10385000000000000034004C00440044004C0034E0
:103860000004000400000000005800640040004014
:10387000004000400000000000000000003800444C
:103880000030000800440038000000000020002044
:103890000078002000200020002000180000000018
:1038A000000000000044004400440044004C003488
:1038B0000000000000000000004400440028002830
:1038C0000028001000000000000000000054005418
:1038D0000054006C002800280000000000000000D8
:1038E00000440028001000100028004400000000E0
:1038F00000000000004400440028002800100010D0
:103900000010006000000000007C00080010002093
:103910000040007C000000000018001000100010A3
:1039200000200020001000100010001800100010EF
:103930000010001000100010001000100010001007
:1039400000300010001000100008000800100010E7
:10395000001000300000000000000074004C000067
:103960000000000000000000000000000000000057
:103970000000000000000000000000000000000047
:103980000000000000000000000000000000000C2B
:10399000000C000C000C000C000C000C000C000CC7
:1039A000000C000C0000000C000C000000000000E7
:1039B0000000001B001B001B001B001B0000000080
:1039C00000000000000000000000000000000000F7
:1039D0000000000000008019801980198019C07F44
:1039E000C07F80190033C07FC07F003300330033B5
:1039F00000330000000000000000001E003F807542
:103A000080650074003C001E0007800580658065AD
:103A10008075003F001E00040004000000000070DC
:103A200000D840D8C0D880D900730006000C801B95
:103A3000C036C066C046C00680030000000000001B
:103A40000000001E003F003300330033001E000C56
:103A5000C03CC066806380618063C03E801C000003
:103A6000000000000000000C000C000C000C000C1A
:103A70000000000000000000000000000000000046
:103A800000000000000000008000000100030006AC
:103A900000060004000C000C000C000C000C000CD4
:103AA0000004000600060003000180000020001052
:103AB0000018000C000C00040006000600060006BA
:103AC000000600060004000C000C00180010002086
:103AD0000000000C002D003F001E0033000000001D
:103AE00000000000000000000000000000000000D6
:103AF00000000000000000000000000C000C000CA2
:103B0000000CC0FFC0FF000C000C000C000C0000FB
:103B100000000000000000000000000000000000A5
:103B20000000000000000000000000000000000095
:103B30000000000C000C000400040008000000005D
:103B40000000000000000000000000000000001E57
:103B5000001E000000000000000000000000000047
:103B60000000000000000000000000000000000055
:103B700000000000000000000000000C000C00002D
:103B80000000000000000003000300030006000620
:103B900000060006000C000C000C000C00180018B9
:103BA00000180000000000000000001E003F00336D
:103BB000806180618061806D806D806180618061E5
:103BC0000033003F001E000000000000000000065F
:103BD000000E001E00360026000600060006000645
:103BE00000060006000600060006000000000000B7
:103BF0000000001E003F807380618061800100032F
:103C00000006000C001800300060807F807F0000FC
:103C1000000000000000001C003E00630063000381
:103C2000000E000E00038001800180618073003F60
:103C3000001E00000000000000000006000E000E44
:103C4000001E001E0016003600360066807F807F52
:103C50000006000600060000000000000000007FD3
:103C6000007F006000600060006E007F8063800164
:103C7000800180618073003F001E00000000000092
:103C80000000001E003F803380610060006E007FF6
:103C900080738061806180618033003F001E00007E
:103CA000000000000000807F807F8001000300038F
:103CB00000060006000C000C000C0008001800189C
:103CC00000180000000000000000001E003F80639C
:103CD000806180610021001E003F80618061806101
:103CE0008061003F001E0000000000000000001E78
:103CF000003F00738061806180618073803F801D20
:103D0000800180610073003F001E00000000000081
:103D100000000000000000000000000C000C00008B
:103D200000000000000000000000000C000C00007B
:103D30000000000000000000000000000000000083
:103D4000000C000C00000000000000000000000C4F
:103D5000000C000400040008000000000000000047
:103D600080008003000E003800600038000E8003E1
:103D700080000000000000000000000000000000C3
:103D8000000000000000807F807F00000000807F36
:103D9000807F000000000000000000000000000024
:103DA000000000000000000000400070001C000740
:103DB00080010007001C00700040000000000000AF
:103DC000000000000000001F803FC071C060C00004
:103DD000C00180030007000E000C000C0000000C66
:103DE000000C0000000000000000001E003F8031B9
:103DF00080718063806F806D806D806F80670060F0
:103E00000032003E001C0000000000000000000E18
:103E1000000E001B001B001B001B80318031803F07
:103E2000803F8031C060C060C060000000000000C2
:103E30000000007C007E0063006300630063007E7E
:103E4000007E0063806180618063007F007E0000EF
:103E5000000000000000001E003F80318061006013
:103E60000060006000600060006080618031003FA1
:103E7000001E0000000000000000007C007F0063C6
:103E800080638061806180618061806180610063A6
:103E90000063007E007C0000000000000000807FC6
:103EA000807F0060006000600060007F007F006035
:103EB000006000600060807F807F000000000000E4
:103EC0000000807F807F0060006000600060007FF5
:103ED000007F006000600060006000600060000023
:103EE000000000000000001E003F80318061006083
:103EF0000060006080638063806180618031803F0A
:103F0000001E0000000000000000806180618061F0
:103F1000806180618061807F807F8061806180615D
:103F20008061806180610000000000000000003FAF
:103F3000003F000C000C000C000C000C000C000CEE
:103F4000000C000C000C003F003F000000000000CF
:103F500000008001800180018001800180018001DA
:103F600080018001806180618073003F001E00003D
:103F7000000000000000C060806100630066006611
:103F8000006C0078007C00660066006380618061E0
:103F9000C0600000000000000000006000600060E1
:103FA0000060006000600060006000600060006011
:103FB0000060807F807F0000000000000000C07172
:103FC000C071C07BC07AC06AC06AC06EC064C06085
:103FD000C060C060C060C060C06000000000000041
:103FE000000080718071807980798079806D806D2A
:103FF000806D806580678067806780638063000074
:10400000000000000000001E003F0033806180615E
:104010008061806180618061806180610033003FE8
:10402000001E0000000000000000007E007F806392
:104030008061806180618063007F007E006000603D
:104040000060006000600000000000000000001E32
:10405000003F0033806180618061806180618061A8
:10406000806580670033803F401E00000000000034
:104070000000007E007F8063806180618063007F3C
:10408000007E00660063006380618061C0600000A4
:10409000000000000000000E001F80318031003061
:1040A0000038001E00078003806180618031003F7E
:1040B000001E0000000000000000C0FFC0FF000C58
:1040C000000C000C000C000C000C000C000C000C90
:1040D000000C000C000C00000000000000008061DB
:1040E00080618061806180618061806180618061C8
:1040F000806180618073003F001E000000000000AE
:104100000000C060C060C060803180318031001B21
:10411000001B001B001B000E000E000E0004000020
:10412000000000000000C0C0C0C0C0C0C0C0C0C00F
:10413000C0CC804C804C805E805280528073806105
:1041400080610000000000000000C0C0806080614D
:104150000033003B001E000C000C001E001F003B43
:1041600080718061C0C00000000000000000C0C07D
:104170008061806100330033001E001E000C000CC3
:10418000000C000C000C000C000C000000000000F3
:104190000000803F803F8001000300030006000C08
:1041A000000C0018001800300060807F807F000045
:1041B00000000000000F000F000C000C000C000CB1
:1041C000000C000C000C000C000C000C000C000C8F
:1041D000000C000C000F000F000000180018001861
:1041E000000C000C000C000C000600060006000687
:1041F000000300030003000000000000001E001E7A
:10420000000600060006000600060006000600067E
:10421000000600060006000600060006001E001E3E
:104220000000000C000C001E0012003300338061FF
:10423000806100000000000000000000000000009D
:10424000000000000000000000000000000000006E
:10425000000000000000000000000000000000005E
:1042600000000000E0FF0000000000380018000C13
:10427000000000000000000000000000000000003E
:10428000000000000000000000000000000000002E
:10429000000000000000001F803F80618001801F3F
:1042A000803F80618063807FC03800000000000094
:1042B00000000060006000600060006E007F80739E
:1042C00080618061806180618073007F006E00008A
:1042D0000000000000000000000000000000001EC0
:1042E000003F807380610060006080618073003FE8
:1042F000001E00000000000000008001800180011D
:104300008001801D803F8073806180618061806159
:104310008073803F801D000000000000000000004E
:10432000000000000000001E003F00738061807FDD
:10433000807F00608071003F001E000000000000D0
:104340000000C007C00F000C000C807F807F000CB5
:10435000000C000C000C000C000C000C000C000009
:10436000000000000000000000000000801D803FF1
:10437000807380618061806180618073803F801D77
:1043800080018063007F003E0000006000600060EC
:104390000060006F807F80718061806180618061DA
:1043A0008061806180610000000000000000000664
:1043B000000600000000003E003E00060006000669
:1043C00000060006000600060006000000000000CF
:1043D0000006000600000000003E003E0006000649
:1043E000000600060006000600060006000600465D
:1043F000007E003C000000600060006000608061A2
:1044000000630066006C007C0076006300638061DE
:10441000C0600000000000000000003E003E0006FA
:10442000000600060006000600060006000600065C
:10443000000600060006000000000000000000006A
:1044400000000000000080DDC0FFC0CEC0CCC0CCAA
:10445000C0CCC0CCC0CCC0CCC0CC000000000000A0
:1044600000000000000000000000006F807F8071ED
:104470008061806180618061806180618061000015
:104480000000000000000000000000000000001E0E
:10449000003F807380618061806180618073003F34
:1044A000001E0000000000000000000000000000EE
:1044B000006E007F807380618061806180618073A5
:1044C000007F006E0060006000600060000000007F
:1044D00000000000801D803F8073806180618061EA
:1044E00080618073803F801D800180018001800198
:1044F000000000000000000000000067803F00395D
:10450000003000300030003000300030003000005B
:104510000000000000000000000000000000001E7D
:10452000803F80610060007F803F80018061007F6C
:10453000001E00000000000000000000000800183D
:104540000018007F007F00180018001800180018DD
:104550000018801F800F0000000000000000000015
:1045600000000000000080618061806180618061E6
:10457000806180618063807F803D000000000000DA
:1045800000000000000000000000C06080318031A9
:104590008031001B001B001B000E000E00060000F7
:1045A000000000000000000000000000000080DDAE
:1045B00080DD80DD00550055005500770077002232
:1045C00000220000000000000000000000000000C9
:1045D0000000806100330033001E000C000C001E40
:1045E0000033003380610000000000000000000084
:1045F0000000000080618061803100330033001BC7
:10460000001B001B000E000E000E001C007C007042
:1046100000000000000000000000C07FC07F80019B
:1046200000030006000C00180030C07FC07F0000AF
:104630000000000080038007000600060006000658
:104640000006000E001C001C000E000600060006FE
:10465000000600068007800300060006000600062C
:10466000000600060006000600060006000600061A
:104670000006000600060006000600060038003CA2
:10468000000C000C000C000C000C000E00070007D2
:10469000000E000C000C000C000C000C003C00385C
:1046A0000000000000000000000000000000803852
:1046B000807F0047000000000000000000000000B4
:1046C0000000000002400000000000A00000000008
:1046D00005400000000000C8000000000C40000081
:1046E0000000409C00000000194000000020BCBEFB
:1046F0000000000034400000BFC91B8E0000000411
:10470000B5400000504BCFD06607E2CF010000005B
:104710006C4100003E8251AADFEEA7340100000088
:10472000D9420000DCB5A0E23A301F97FFFFFFFF3F
:10473000B4450000FD25A0C8E9A3C14FFFFFFFFF5E
:10474000FF3F00000000008000000000FF3F00006D
:1047500000000080000000009447000800000020D6
:1047600058000000E8010008EC470008580000204D
:1047700060060000040200081C0000004300000066
:10478000F8FFFFFF0C0000000E0000000F0000000B
:104790002E000000007A030A000000000000000064
:1047A00001020304060708090000000001020304D7
:1047B00001020304060708090000000000000000D1
:1047C00000000000000000000000000000000000E9
:1047D000000000000000000000000000070A0000C8
:0C47E000FC3100080B12000068390008D2
:04000005080003E10B
:00000001FF
