:020000040800F2
:10000000709800209D010008113400081334000886
:1000100017340008193400081B34000800000000E1
:100020000000000000000000000000001D34000877
:100030001F340008000000002134000825340008A7
:10004000B7010008B7010008B7010008F32B00084A
:10005000B7010008B7010008B7010008B7010008A0
:10006000B7010008B7010008B7010008B701000890
:10007000B7010008B7010008B7010008B701000880
:10008000B7010008B7010008B7010008B701000870
:10009000B7010008B7010008B7010008B701000860
:1000A000B7010008B7010008B7010008B701000850
:1000B000B7010008B7010008B7010008B701000840
:1000C000B7010008B7010008B7010008B701000830
:1000D000B7010008251F0008451F0008691F000818
:1000E000B7010008152C0008B7010008B701000887
:1000F000B7010008B7010008B7010008B701000800
:10010000B7010008B7010008B7010008B7010008EF
:100110008D1F0008B11F0008B7010008B7010008D3
:10012000B7010008B7010008B7010008B7010008CF
:10013000B7010008B7010008B7010008B7010008BF
:10014000B7010008B7010008B7010008B7010008AF
:10015000B7010008B7010008B7010008D31F000865
:10016000B7010008B7010008B7010008B70100088F
:10017000B7010008B7010008B7010008B70100087F
:10018000B7010008B7010008DFF80CD00BF0AEF89B
:1001900000480047E12E000870980020064880477C
:1001A00006480047FEE7FEE7FEE7FEE7FEE7FEE75C
:1001B000FEE7FEE7FEE7FEE7CF340008890100080E
:1001C0002849084328490860704730B50F23C27892
:1001D00001780125FAB1244A126801F1E02102F404
:1001E000E062C2F5E062C2F30722C2F10404D34028
:1001F0004278A24084781C401443220181F80024F4
:10020000007800F01F018D404009800000F1E020DF
:10021000C0F8005130BD01F01F0085404809800042
:1002200000F1E020C0F8805130BD104A1140014378
:100230000D48001F016070470B4A121D002911680C
:1002400001D0014300E08143116070474FF0E0218D
:100250000428086903D020F004000861704740F0CA
:100260000400FAE70000FA050CED00E080FFFF1F34
:10027000F848016841F001010160F64A00210832A6
:1002800011600268F44B1A400260031DF34A1A60C1
:10029000F04BF34A84331A60F04A103A1B1D1A607F
:1002A000026822F480220260EA480C300160181DC6
:1002B00001607047E7490022891C0A700870704786
:1002C00002460020510901290CD002290CD0E14935
:1002D0007431096802F01F02012393400B4200D0E1
:1002E00001207047DB49F4E7DA497031F1E718B5CE
:1002F00000204FF4A04400903120FFF7E1FF009967
:10030000491C0091A14201D00028F5D03120FFF70F
:10031000D7FF002800D0012018BDCE4A116821F077
:10032000F80141EAC00010607047CE49086070478C
:10033000C849002270310A700A70012802D00428CE
:1003400001D1052008707047C7490860704741EA2D
:1003500082115A0810B5C54B029C03EB02421143AF
:10036000014341EA0460BB49091D086010BDBD4955
:1003700008667047800140EA0170B6498431086020
:100380007047B84988667047800140EA0160B1490A
:1003900040EA0270883108607047B24908677047C8
:1003A000B049C8647047AB4B08331A68084322F061
:1003B000EC62104318607047A64B08331A68084374
:1003C00022F07842104318607047A24A0832116840
:1003D00021F003010143116070479E480830006816
:1003E00000F00C0070479B4A0832116821F0F001C0
:1003F000014311607047974A0832116821F4E051B7
:10040000014311607047934A0832116821F460413A
:1004100041EAC0001060704770B58E4B0833196810
:10042000934C11F00C0104D06610042903D0082964
:1004300003D004601BE0066019E0864A121D1168B3
:10044000C1F38055116801F03F0115B1B6FBF1F120
:1004500001E0B4FBF1F114681268C4F3881461433D
:10046000C2F30142521C5200B1FBF2F10160196863
:100470000F2202EA11117F4A545C0168E140416099
:100480001C68072505EA9424145D21FA04F48460AD
:100490001B6805EA5333D25CD140C16070BDC0F324
:1004A0000121032908D16B4B08331968724A21F4E2
:1004B000F81102400A431A60664970310A68C0F3B5
:1004C0000B0002430A60704767494439086070476F
:1004D00065494039086070476249C1F85C0170475E
:1004E0005C4A8C321168401E21F01F0101431160EB
:1004F0007047584A8C3211686FF0FF0321F4F851AD
:1005000003EB0020084310607047524A8C32116898
:1005100021F440110143116070474E4A8C3211683A
:1005200021F440010143116070474A4A8C3211683E
:1005300021F440310143116070475049C1F8E00196
:100540007047444A30320029116801D0014300E06D
:100550008143116070473F4A34320029116801D04D
:10056000014300E08143116070473A4A3832002964
:10057000116801D0014300E0814311607047354AA2
:1005800040320029116801D0014300E0814311602D
:100590007047304A44320029116801D0014300E01D
:1005A0008143116070472B4A10320029116801D035
:1005B000014300E0814311607047264A143200294C
:1005C000116801D0014300E0814311607047214A66
:1005D00018320029116801D0014300E08143116005
:1005E00070471C4A20320029116801D0014300E005
:1005F000814311607047174A24320029116801D0E5
:10060000014300E0814311607047124A50320029D3
:10061000116801D0014300E08143116070470D4A29
:1006200054320029116801D0014300E08143116078
:100630007047084A58320029116801D0014300E090
:10064000814311607047034A60320029116817D056
:10065000014316E000380240FFFFF6EA10300024A4
:100660000030002000004742800E47420000FFFF9C
:100670000024F40000000020FFFCFF0F00104742A0
:10068000814311607047194A0029116801D0014364
:1006900000E081431160704714490C31012808685B
:1006A00003D020F008000860704740F00800FAE727
:1006B0000E4A573A0029117801D0014300E08143E6
:1006C0001170704709481030016841F08071016075
:1006D00070470146054A0020583A12680A4200D085
:1006E000012070470149563908707047643802404C
:1006F000774910B5884206D101210846FFF753FF1C
:10070000002101205BE07349884206D101210220CB
:10071000FFF749FF0021022051E06F49884206D1CE
:1007200001210420FFF73FFF0021042047E06B492F
:10073000884206D101210820FFF735FF002108205B
:100740003DE06749884206D101211020FFF72BFFC9
:100750000021102033E06349884206D10121202086
:10076000FFF721FF0021202029E05F49884206D1C0
:1007700001214020FFF717FF002140201FE05B49C7
:10078000884206D101218020FFF70DFF0021802043
:1007900015E05749884202D1012184150AE05549E4
:1007A000884202D10121441504E0534988420AD10C
:1007B000012104152046FFF7F6FE00212046BDE882
:1007C0001040FFF7F0BE10BDF0B5002201274FF03A
:1007D000030C0B6807FA02F52B40AB422CD10668DC
:1007E00053000CFA03F4A64306600E79D0F800E03B
:1007F0009E4046EA0E0606600E79012E01D0022EBA
:1008000012D18668A64386604E79D0F808E09E40F3
:1008100046EA0E0686604668AE43466045688E79B5
:100820009640B6B235434560C568A543C560CC79EE
:100830009C40C3681C43C460521C102AC9D3F0BD3D
:100840004FF6FF7101600021017141718171C17129
:10085000704708B541F480320092C261C1610099CD
:10086000C161C169C069009008BD024600201269DB
:100870000A4200D001207047006980B270470246EA
:10088000002052690A4200D001207047406980B2BE
:10089000704701837047418370470AB101837047F5
:1008A000418370474161704742694A4042617047E5
:1008B0004B07DB0E9A40C90810B500EB8100016AB6
:1008C0000F249C40A1430162016A1143016210BDE3
:1008D000000002400004024000080240000C0240F8
:1008E000001002400014024000180240001C0240A8
:1008F00000200240002402400028024010B50121DF
:100900008C032046FFF777FE2046BDE8104000210B
:10091000FFF771BE144908607047144908627047B8
:1009200010B58A0721F003041149120F21440F2347
:10093000D1F8084893409C43C1F80848D1F80838DA
:1009400090400343C1F8083810BD0849C1F8DC00E5
:100950007047084908607047034900202031096842
:10096000C90500D50120704700380140000027422A
:100970000030014000042742354900200860091D6D
:100980000860091D0860091D0860314931481431AB
:100990000860704730B52E4A8379016853B31368F5
:1009A0008B431360111D0B680468A3430B6001792E
:1009B00011440B68046823430B60254B0833196806
:1009C0000468A14319601C1D21680568A9432160C2
:1009D0004179102905D011440A68006802430A6071
:1009E00030BD19680268114319602168006801432D
:1009F000216030BD0079104402688A43026030BD36
:100A00000021016001710C2242718171704710490F
:100A100010310A6802430A60704701460C4A002000
:100A2000143212680A4200D001207047084914317C
:100A3000086070470146064A0020143212680A42D4
:100A400000D001207047024914310860704700004F
:100A5000003C0140FFFF7F00CD4910B5884206D120
:100A600001211020FFF7C7FD0021102020E0C94917
:100A7000884202D101214C0429E0C749884202D1B1
:100A800001218C0423E0C549884202D10121CC0414
:100A90001DE0C349884202D101210C0517E0C1497C
:100AA000884209D101212020FFF7A5FD0021202047
:100AB000BDE81040FFF79FBDBB49884202D101212C
:100AC0008C0704E0B94988420AD101214405204637
:100AD000FFF787FD2046BDE810400021FFF781BDEC
:100AE00010BD7FB50446008A0D46C98820F44050E9
:100AF00001432182A08941F20C618843A9882A8997
:100B000011436A8902431143A181A08A20F44071F4
:100B1000A8890843A0826846FFF77EFC9C4884426F
:100B200002D0A048844201D1039800E00298A18934
:100B3000090400EBC00101EB0010296801D5490050
:100B400000E08900B0FBF1F06422B0FBF2F1090192
:100B50000B096FF018056B4300EB8300A3891D049C
:100B60004FF0320306D503EBC000B0FBF2F000F00B
:100B7000070005E003EB0010B0FBF2F000F00F00FF
:100B8000084320817FBD4FF4165101600021818010
:100B9000C18001810C2242818181704710B5028A97
:100BA0004C8822F470630A8822438C88C9880C43DD
:100BB00022431A43028210BD0021018041808180BE
:100BC000C18070470029818902D041F4005101E0C1
:100BD00021F4005181817047028B02F47F4202832D
:100BE000028B0A43028370470029818902D041F4B5
:100BF000004101E0C1F30E01818170470029818A23
:100C000002D041F4006101E021F40061818270476B
:100C1000C1F30801818070478088C0F308007047E5
:100C2000028A22F00F020282028A0A43028270477D
:100C30000029818902D041F0020101E021F0020186
:100C400081817047828922F40062828182890A430D
:100C500082817047028A22F020020282028A0A43BD
:100C6000028270470029018A02D041F4804101E0EC
:100C700021F4804101827047818941F00101818125
:100C800070470029818A02D041F0080101E021F07B
:100C9000080181827047028BD2B20283028B42EA42
:100CA0000121018370470029818A02D041F020018F
:100CB00001E021F02001818270470029818A02D061
:100CC00041F0100101E021F0100181827047828A19
:100CD00022F004028282828A0A43828270470029BB
:100CE000818A02D041F0020101E021F002018182FB
:100CF0007047002A828A01D00A4300E08A43828238
:100D0000704710B5C1F3421301F01F040121A14047
:100D1000012B07D0022B07D01430002A026805D01F
:100D20000A4304E00C30F8E71030F6E78A4302602B
:100D300010BD0246002012880A4200D001207047F0
:100D4000C9430180704770B501F01F0501260024DA
:100D5000C1F3421306FA05F2012B0FD0022B0FD07C
:100D6000838A4FEA11210088134206FA01F600EA4D
:100D7000060001D000B10124204670BD8389F0E750
:100D8000038AEEE70A0A01219140C94301807047B6
:100D9000001001400044004000480040004C00406A
:100DA000005000400014014000780040007C0040EA
:100DB00018B50020FA4B0090CA2018605320186024
:100DC000F7491839086820F0A00008604FF4003493
:100DD0000868009A00F02000521C0092A24201D044
:100DE0000028F5D00868800601D5012000E0002029
:100DF000FF21196018BD08B5E94900201839009095
:100E00000868400612D44FF0FF3008608B13086862
:100E1000009A00F04000521C00929A4201D0002833
:100E2000F5D00868400601D4002008BD012008BDA7
:100E300078B50024DA4ECA2000942546306053204D
:100E40003060FFF7D8FFE0B3D54824380460D449B8
:100E500042F20110203908600B1D186800F00700ED
:100E600018608D131A1D1068009900F00400491CC9
:100E70000091A94201D00028F5D01068400729D57B
:100E800018681C60C6494FF6FF7010390860091FCA
:100E9000C4480860C2480C380460001D0460001D8E
:100EA0000460BF4808300460BD4818300460BC4886
:100EB00020300460001D04601460B9481C300460D8
:100EC00000E003E0FFF774FF20B10125FF20306050
:100ED000284678BD0025F9E7B1481838016821F0A7
:100EE00080010160704770B5AD4E04460025CA20F0
:100EF000306053203060FFF77EFFA8B1A8481C384F
:100F0000016821F04001016001682268114301601D
:100F1000A348A168143801600168A28841EA02412F
:100F20000160FFF7D9FF0125FF203060284670BD22
:100F3000002101607F214160FF2181607047984955
:100F400008B1FF2002E0CA20086053200860704703
:100F500070B5934E05460024CA203060532030609F
:100F6000FFF749FF60B18E481C38016815B141F0A8
:100F7000100101E021F010010160FFF7ADFF012435
:100F8000FF203060204670BD854ACA211160532180
:100F9000116083491C390028086802D040F0200005
:100FA00001E000F0DF000860FF20106070472DE9CD
:100FB000F0410C4600267C4F01002078396832460B
:100FC0004FEA416104D000292FDA00F008FC2DE03F
:100FD000002900DBE27000F0F6FB0504607800F009
:100FE000F2FB45EA0025A07800F0EDFB0543E07830
:100FF00045EA00456A4CCA20206053202060FFF774
:10100000FAFE68B169480540674808380560FFF78F
:1010100063FF3868800602D4FFF7CAFE00B10126DC
:10102000FF2020603046BDE8F081E270A078217892
:1010300040EA01456078E178000240EA014005435A
:10104000D8E70021C17001704170817070470200C3
:1010500010B557480C460168544801EA0001C1F335
:1010600005402070C1F30623637001F07F03A37075
:101070004FF0400303EA1141E1700AD100F0AFFBE9
:101080002070607800F0ABFB6070A07800F0A7FBE8
:10109000A07010BD4248001D00684349091F09683F
:1010A000704770B50C460026010060780FD000F044
:1010B00096FBA07800F093FBA078E17840EA014528
:1010C00060782178000240EA4130054315E0C1060E
:1010D00003D520F010000A306070E07800F073FB58
:1010E0000504607800F06FFB45EA0025A07800F069
:1010F0006AFB0543207845EA4035294CCA20206028
:1011000053202060FFF777FE70B12A48054026483B
:10111000001F0560FFF7E0FE23480068800602D448
:10112000FFF746FE00B10126FF202060304670BD6B
:1011300001210170817041700021C170704702006F
:1011400010B51D480C4601681A4801EA00014FEA33
:101150001140E070C1F30423637001F03F03A370FA
:10116000C1F3423121700AD100F039FBE0706078A0
:1011700000F035FB6070A07800F031FBA07010BD6E
:1011800070B514460D46084A0021002810684FEA41
:10119000406013D000282ADA207800F020FB27E0F6
:1011A00024280040FF007F00082800407F7F7F0048
:1011B000002800403FFFFF0004280040002800DB1B
:1011C000E170207800F0FFFA0604607800F0FBFA86
:1011D00046EA0026A07800F0F6FA0643E07846EAF0
:1011E0000046207B00F0EFFA46EA006010E0E17074
:1011F000207B00F0F4FAA0782178E27840EA014000
:101200006178090241EA02410843217B40EA01601A
:10121000A168084361680843F849CA220A6053225A
:101220000A60B5F5807F04D00A1F1060FF200860B7
:1012300070BDF24A083AF8E70021C17001704170B0
:1012400081700122816002734160704710B51446BD
:101250000246B1F5807F2AD0E848001F0168C1F33B
:1012600005402070C1F30623637001F07F03A37073
:10127000402303EA1143E370C1F30563237301F0D4
:10128000804301F08031C4E90113002A0ED100F03F
:10129000A6FA2070607800F0A2FA6070A07800F0E2
:1012A0009EFAA070207B00F09AFA207310BDD348FC
:1012B0000838D3E738B50022D04C0092CA22226009
:1012C00053222260CD4A1C3A0029116802D0014302
:1012D000116012E081431160C84A183A95131168F1
:1012E000009B01EA10215B1C0093AB4201D0002956
:1012F000F5D0116811EA102000D00120FF212160F3
:1013000038BD10B5BD4BCA241C6053241C6011436A
:10131000B0F5807F05D0B94824300160FF20186007
:1013200010BDB6482030F8E7B0F5807F05D0B3484F
:1013300024300068C0F30E007047B0482030F8E752
:10134000AE4ACA21116053211160AC491C390B68A7
:1013500023F007030B600B6803430B60FF20106052
:101360007047A649CA220A6053220A60A34A103A6B
:101370001060FF2008607047A0481038006880B2F5
:10138000704718B500219D4B0091CA211960532167
:1013900019609A491C390028086803D040F480601D
:1013A000086014E020F480600860944918398C13B8
:1013B0000868009A00F00400521C0092A24201D07A
:1013C0000028F5D00868400701D4002000E0012083
:1013D000FF21196018BD894B10B5CA221A6053222B
:1013E0001A60864A1C3A146824F480241460146835
:1013F000084304431460FF20186010BD7F481C3868
:10140000006800F4802070477C4B10B5CA221A6037
:1014100053221A60794A1C3A146824F4E0041460D8
:101420001468084304431460FF20186010BDF0B531
:10143000724D06460024CA200F46286053202860BB
:10144000FFF7D9FC30B16D483E430C380660FFF71A
:1014500043FD0124FF2028602046F0BD70B5674E93
:1014600005460024CA20306053203060FFF7C3FCDB
:1014700060B162481C38016815B141F0800101E09B
:1014800021F080010160FFF727FD0124FF2030607B
:10149000204670BD594ACA21116053211160574935
:1014A0001C390028086802D040F4000001E020F454
:1014B00000000860FF2010607047504ACA21116088
:1014C000532111604D491C390B6823F400230B6034
:1014D0000B6803430B60FF2010607047F0B5474D69
:1014E0000023CA242C6053242C60444C183C2668EA
:1014F000F60308D54FF400362768FF0303D5B3423F
:1015000001D05B1CF8E72368DB0306D408433B49A2
:10151000104318310860012000E00020FF212960FD
:10152000F0BD364B10B51C3B1A6840F60804A243C8
:1015300042EA000209B142F400623048CA21016067
:10154000532101601A60FF21016010BD70B50D4686
:101550002A4914460C310968294A1140274A103299
:1015600012684FF63F731A40C1F305432B70C1F365
:1015700006236B7001F07F03AB70402303EA114137
:10158000E9700021E170C2F30421617002F03F01B3
:10159000A170C2F342312170002817D1287800F0E1
:1015A0001EF92870687800F01AF96870A87800F0C1
:1015B00016F9A870607800F012F96070A07800F059
:1015C0000EF9A070207800F00AF9207070BD0B4869
:1015D000143000687047094A1C320029116803D092
:1015E00041EA40001060704721EA4000FAE7034AF0
:1015F0001C320029116805D0014304E02428004072
:101600007F7F7F0081431160704779490A6822F427
:10161000C0520A600A6802430A60704774490A6847
:1016200022F4E0620A600A6802430A607047704967
:101630000A6822F4C0420A600A6802430A607047DE
:101640006B490028086802D040F0800001E020F0DB
:1016500080000860704766490028086802D020F4BE
:10166000004001E040F4004008607047604A08B55F
:10167000103202EB80000090016008BD5C4908B5A3
:10168000103101EB80000090006808BD58490A68DD
:1016900022F480320A600A6802430A6070475449A3
:1016A0000A6822F400320A600A6802430A6070473E
:1016B0004F490A6822F480220A600A6802430A60DD
:1016C000704770B54A4C0022CA231C3C2360532348
:1016D0002360474B343B1D682D0707D59E141D68BA
:1016E0002D0703D5B24201D0521CF8E71A68120741
:1016F0000DD43F4A383A1268D20608D401433C4818
:1017000014380160FFF754FB10B1012000E0002005
:10171000FF21216070BD30B5354DCA221C3D2A60C5
:1017200053222A60324C20F00402383C0029304B0E
:10173000216800F0040004D01143216019680143BE
:1017400003E091432160196881431960FF202860FC
:1017500030BD02462649002034390968254B19401E
:10176000114200D00120704780B240F08000C14398
:101770001F483438026802F080021143016070474C
:101780001B4A0021126802F00403194A383A126811
:1017900003EAD03302401A43174B1B6803EA1010C8
:1017A00003D00004000C00D0012108467047C0F3AC
:1017B0000F1040F08000C1430F48026802F0800221
:1017C000114301607047002103E0491C0A38C9B287
:1017D000C0B20A28F9D2090740EA1160704701092E
:1017E00001EB810100F00F0000EB4100C0B2704737
:1017F000402800407F3F01000C28004010B5012127
:101800000C072046FEF7EDFE2046BDE81040002103
:10181000FEF7E7BE404908627047404A116821F070
:10182000E0010143116070473B49086170473A4944
:10183000C1F8A00070473849C1F8A4007047374A82
:10184000116821F440410143116070473249086436
:10185000704731494864704730490028086802D011
:1018600040F4402001E020F44020086070472A49FD
:1018700000B10120C8627047274900B10120886289
:101880007047254948627047244B10B51A6840F6E6
:101890000344A24302431A602148026842F0040252
:1018A0000260012905D020BF016821F00401016018
:1018B00010BD30BFF8E7194B10B51A6840F6034465
:1018C000A24302431A601648026842F00402026012
:1018D000012905D020BF016821F00401016010BD7D
:1018E00030BFF8E70D48016841F0020101600C4883
:1018F000016841F00401016030BF7047074A0146AA
:10190000002052680A4200D00120704703490A684B
:1019100042EA80000860704700000E4200700040FC
:1019200010ED00E00D49086070470C4948607047B1
:101930000A498860704709494AF6AA20086070473A
:1019400006494CF6CC4008607047044A0146002026
:10195000D2680A4200D001207047000000300040E9
:10196000234810B54168491C4160816811B1816804
:10197000491E816001F003FB10BD10B51C4C20789E
:10198000002821D10120FEF795FCFEF7B0FC0028CD
:10199000FBD0184801684FF47A70B1FBF0F0401E9C
:1019A000B0F1807F11D24FF0E0225061124BF02055
:1019B00083F8140D00209061072010610F48B1FBDF
:1019C000F0F0E0600120207010BDFEE708480078CC
:1019D000002805D04FF0E020016941F002010161CB
:1019E00070474FF0E020016921F00201016170476A
:1019F00010000020BC0000200FE000E0C0C62D0059
:101A00001CB501210820FEF79CFD4FF470400090AA
:101A100000208DF8060001218DF804108DF80700D4
:101A200003208DF8050069461C48FEF7CDFE1CBD5D
:101A30001CB501210846FEF784FD0120009000201E
:101A40008DF806008DF804008DF8070003208DF84E
:101A5000050069461248FEF7B7FE1CBD1048006934
:101A6000C107104805D0017829B901210170084645
:101A70007047002101700020704709480069C107C4
:101A8000084803D001210170002070470178002927
:101A9000FAD000210170012070470000000C0240C4
:101AA0000000024020000020F74A0146904200D189
:101AB0000020F64A914200D10120F54A914200D11E
:101AC0000220F44A914200D10420F34A914200D10D
:101AD0000520F24A914200D1062070471CB5044609
:101AE00001212020FEF755FD082003215CB1012CC7
:101AF00008D1CDE90010012300224FF48441E848C9
:101B000001F061F91CBDCDE9001001230022C021C4
:101B1000E448F5E77CB5044601210805FEF72FFDF2
:101B2000002C11D108250324012300221903DD48CC
:101B3000CDE9004501F047F9012300220421DA48EC
:101B4000CDE9004501F03FF97CBD1CB504460121FB
:101B5000C804FEF714FD0820032154B1012C07D15D
:101B6000CDE90010012300228902CE4801F02BF9B3
:101B70001CBDCDE90010012300220321CB48F5E76D
:101B80001CB5044601218804FEF7F9FC0720032256
:101B9000910254B1012C0ED0022C13D1CDE90020BA
:101BA000012300228910C0480AE0CDE9002001236A
:101BB0000022BF4804E0CDE9002001230022B948FB
:101BC00001F001F91CBD1CB5044601214804FEF7D3
:101BD000D6FC0720032154B1012C07D1CDE9001018
:101BE000012300226021B04801F0EDF81CBDCDE9D1
:101BF0000010012300220C21AC48F5E71CB5044677
:101C000001211020FEF7C5FC0720032154B1012C4F
:101C100007D1CDE9001001230022C021A44801F022
:101C2000D2F81CBDCDE90010012300224FF4C061A1
:101C30009E48F4E72DE9F04104469E4886B0884668
:101C400002210171002585710127C77103214171AE
:101C50008D480C26009284420FD14046FFF7CEFFFC
:101C60002520ADF80A60ADF806508DF81000ADF8EB
:101C70000C50ADF80850ADF80450844884420FD1A0
:101C80004046FFF7A0FF2620ADF80A60ADF80650E9
:101C90008DF81000ADF80C50ADF80850ADF80450B8
:101CA0007B4884420FD14046FFF76AFF2720ADF8FA
:101CB0000A60ADF806508DF81000ADF80C50ADF884
:101CC0000850ADF80450734884420FD14046FFF7E6
:101CD0003CFF3420ADF80A60ADF806508DF81000D6
:101CE000ADF80C50ADF80850ADF804506A48844285
:101CF0000FD14046FFF70EFF3520ADF80A60ADF872
:101D000006508DF81000ADF80C50ADF80850ADF845
:101D10000450624884420FD14046FFF7DFFE47205F
:101D2000ADF80A60ADF806508DF81000ADF80C5013
:101D3000ADF80850ADF8045000212046FEF742FFF0
:101D40002046FEF789FE69462046FEF7CAFE0121BD
:101D50002046FEF737FF012240F225512046FEF7CC
:101D6000D0FF8DF8137006208DF811002046FFF784
:101D70009BFE8DF8120004A8FEF727FA06B0BDE816
:101D8000F081414A0146904201D14A4808303F4A19
:101D9000914201D1474814303D4A914201D1454812
:101DA00020303C4A914201D142482C303A4A91427B
:101DB00001D140483830394A914201D13D48443040
:101DC000704700B50023FFF7DCFFC28862B141898C
:101DD0008388994201D100214181036889B25B5611
:101DE000491C4181521EC280D8B200BD00B5FFF728
:101DF000C8FFC1888088814201D1012000BD002038
:101E000000BD10B50C46FFF7BCFFC38842890DE04A
:101E10008188914200D100220168895CA14201D1F0
:101E2000012010BD521C5B1E92B29BB2002BEFD161
:101E3000002010BD00B5FFF7A4FFC08808B1002046
:101E400000BD012000BDF0B515460E460746002432
:101E5000FFF7F0FF80BB0A213846FFF7D2FF18B921
:101E60003846FFF7C3FF38B36D1EAC4208DA384678
:101E7000FFF7A7FF305504F101040A28A4B2F4D1FA
:101E8000002030552046F0BD0010014000440040C5
:101E900000480040004C0040005000400014014049
:101EA0000018024000080240000C024000000240FE
:101EB0000004024024000020FFE70020E3E700B513
:101EC000FFF75FFF0021C1800181418100BD13B593
:101ED000044680212046FEF72CFF0028F9D09DF80B
:101EE0000400A0801CBD70B50C46054603E02846E2
:101EF000641CFFF7ECFF21780029F8D170BDC3887E
:101F0000828893420DD20389934201D1002202813B
:101F100003890268D1540189491C0181C188491C87
:101F2000C180704710B5344C40F225512046FEF771
:101F30000AFF002805D0A088BDE81040C1B22F4894
:101F4000DDE710BD10B540F225512D48FEF7FBFE30
:101F5000002808D02A48001D0088BDE81040C1B202
:101F600026480C30CBE710BD10B540F2255125486E
:101F7000FEF7E9FE002808D02248001D0088BDE8D1
:101F80001040C1B21D481830B9E710BD10B540F27D
:101F900025511D48FEF7D7FE002808D01A48001D1D
:101FA0000088BDE81040C1B214482430A7E710BD36
:101FB00010B5164C40F225512046FEF7C4FE00280D
:101FC00006D0A088BDE81040C1B20C48303096E77A
:101FD00010BD10B540F225510D48FEF7B4FE0028A3
:101FE00008D00B48001D0088BDE81040C1B203486E
:101FF0003C3084E710BD0000001001402C000020A0
:102000000044004000480040004C004000500040A8
:10201000001401402DE9F0471C4615460E460746C0
:102020004FF00009FFF7A9FCC8494FF0010847B17C
:1020300000200B183A5C401CC0B21A710628F8D375
:102040000BE00620087105204871042088710320E8
:10205000C8710220087281F80980C0234FF0A80CD3
:1020600000223EB10020375C0F54401CC0B204284F
:10207000F9D305E00B7081F801C08A707820C87030
:1020800045B100200E182B5C401CC0B2B37304286D
:10209000F8D305E08B7381F80FC00A7481F81180C2
:1020A00044B100200D18235C401CC0B2AB72042860
:1020B000F8D304E0FF208872C87208734A73CA74A8
:1020C00081F8148081F8482081F84C2081F84D2057
:1020D0000020C1E90A00C1E90800C1E910000A6353
:1020E000C1E90E00A1F84A2003F06CFB08B94FF0DB
:1020F000010902F01DFC964880F800804846BDE8C2
:10210000F087934910B5097829B1904C94F848109C
:1021100019B1002010BD012010BDB4F84A1011B94A
:1021200038B1A4F84A0002F031F9012084F84800DF
:10213000EFE75020F5E7864810B5007850B1834CA2
:1021400094F84800002804D002F030F9002084F808
:10215000480010BD012010BD10B502F032FC08B1DE
:1021600002F031FC7A48406802F030FC002010BDDB
:1021700077494A6810444860002070477348C17C22
:1021800019B1007D08B100207047012070477047E9
:10219000FEB56F4CDDE909652478089F9CB16B4C56
:1021A00094F814C0BCF1000F0FD0E47C7CB1009710
:1021B000CDE9016502F02FFB10F10B0F09D00028CB
:1021C00000D00120FEBD0520FEBD0320FEBD022083
:1021D000FEBDFFF7DCFF0420FEBD0020704710B5F8
:1021E0005B4C0A46A17809B1012010BD014659484F
:1021F00002F0E1F80120A070002010BD10B5544C91
:10220000E2780AB1012010BD02F0DAF80120E07096
:10221000002010BD7047704708B54D4B00225A7022
:1022200059B1096849B10A0E0092C1F30743C1F3DD
:102230000722C9B200F00CFF08BD00F028FF08BD5E
:102240007CB50446FFF79AFF10B9414D687808B194
:1022500001207CBD0023AFF23F0201A9204604F01B
:102260004DFC10F1050F10D018B1204600F00FFF03
:10227000EEE70198010E0091C0F30743C0F3072277
:10228000C1B2204600F0E4FE01E0012068700020A9
:102290007CBD704770477047704770B50D46044667
:1022A0002DA1284608F094FF2A4623462FA1104668
:1022B00009F0EAF831A1284608F040FF34A1284689
:1022C00008F03CFF284608F061FF80B270BD7047FF
:1022D0007047704770477047012070477047002073
:1022E00070474FF0FF307047704700207047002064
:1022F0007047704770470020704710B5FFF7FAFF2E
:1023000010BDF8B5114C069D0DB10026A6742070C5
:102310006170A270E3700126E6742675009500F0E6
:10232000C6FEF8BD094810B5012101750021C17430
:1023300002F06AF900F0F3FE10BD044910B5002068
:10234000087502F062F900F0E7FE10BD7803002086
:1023500074000020DB210008474554202F204854FA
:1023600054502F312E310D0A000000002573486FA4
:1023700073743A2025730D0A00000000436F6E6EDF
:10238000656374696F6E3A20636C6F73650D0A0044
:102390000D0A00002DE9F34F81B090F80690DDF8AA
:1023A00008C090F800A006794579447A037AC2798A
:1023B000BCF1010F23D0DC4662F31F616AF3070C06
:1023C00063F3070765F30F21E34664F30F2766F312
:1023D0000701CC46C7F3072A6CF31741BAF1630F24
:1023E0007ED8FFB25FEA070E7AD0BEF10C0F77D825
:1023F0000F0E00977ED05FEA8A7747D04FE04FEA12
:10240000121C02F00F080CEB8C0C08EB4C0C6CF35C
:102410001F614FEA131C03F00F080CEB8C0C08EB48
:102420004C0C6CF307074FEA141C04F00F080CEB7C
:102430008C0C08EB4C0C6CF30F274FEA151C05F0C5
:102440000F080CEB8C0C08EB4C0C6CF30F214FEAD3
:10245000161C06F00F080CEB8C0C08EB4C0C6CF304
:1024600007014FEA1A1C0AF00F080CEB8C0C08EB62
:102470004C08DC4668F3070CE3464FEA191C09F0E8
:102480000F080CEB8C0C08EB4C0CA3E70AF5FA6771
:102490004FF0640CB7FBFCF80CFB18776FBB0AF528
:1024A000FA674FF4C87CB7FBFCF80CFB187727B32E
:1024B000002707EB47074FF0FF3CDFF824840CEBC5
:1024C000870C0EEB080717F80CC0009FBC4511D312
:1024D000C1F30727172F0DD8CFB23B2F0AD800E042
:1024E00008E00BF0FF073B2F04D8C1F3074109B107
:1024F000072904D90120BDE8FE8F0127D9E7F84953
:1025000014390D704E7000788870081D002182709B
:102510004370C47080F80090F24801601F21416050
:1025200040F2FF318160FEF7DEFC0298EC490128A1
:10253000A1F1140112D00020FEF739FDE849002076
:102540001039FEF7AEFDE6481838006820B144F2B5
:1025500021310020FFF78AF80020CCE70120FEF7A8
:1025600026FDDF4910390120EBE710B510B1012835
:102570000BD016E00120FDF7E7FE6120FDF7A0FE7D
:102580000028FAD04FF4007009E00120FDF7D0FEDA
:102590004120FDF795FE0028FAD04FF48070FDF73A
:1025A0007EFF0120FDF790FFFEF702FCBDE8104022
:1025B00041F234210020FFF759B8F0B5427A0023E8
:1025C00040F2B27102F5FA628A4201D20020F0BDF7
:1025D0006425AE004FF4B77740F26D1C0FE08C0716
:1025E00004D1B1FBF5F405FB14147CB9B1FBF6F48E
:1025F00006FB141454B16446491C234489B2914229
:10260000EDD30121DFF8D8C2077A18E03C46F3E7A2
:10261000940704D1B2FBF5F405FB14242CBBB2FBE8
:10262000F6F406FB142404B3002404EB44040CEB7E
:1026300084040C44491C14F8014C89B223448F4291
:10264000E6D8C1795B1ECA18A7494A434179C1EB54
:102650004113C3EB012102EB011201790078C1EBB8
:10266000011102EB81010844F0BD0124DDE770B5E2
:102670000D009B490446A1F1140122D00120FEF770
:10268000E6FC9748143801786171417821718078AF
:102690002070FEF7FFFC9249608010399DB1012047
:1026A000FEF74DFD8E481038C17861724178217275
:1026B0008178E1710078A0712046FFF77EFFE0602D
:1026C00070BD0020DBE70020EAE72DE9FF41074667
:1026D00001210807FDF753FF0120FFF79BF80020B9
:1026E000FEF7CCFF7E4D44F22131183D4FF480447B
:1026F0004FF48008884211D1296014E0FEF758FB9E
:102700002046FFF754F84046FEF79DF90021684641
:10271000FFF7ADFF286804B0BDE8F08141F2342630
:10272000B04206D12E60002FE8D10020FFF71DFF38
:10273000E4E7002438462C60FFF717FF01208DF8EE
:1027400007008DF806008DF808008DF805408DF81B
:1027500009408DF804408DF8004000216846FFF7DD
:1027600019FE00202E60D6E77FB500210B468DF8BC
:1027700007106FF02F020AE09DF80750491C05EB87
:10278000850502EB45052C448DF80740C9B2445C31
:10279000A4F13005092DEFD9491CC9B28DF80830D4
:1027A0000AE09DF80850491C05EB850502EB45053C
:1027B0002C448DF80840C9B2445CA4F13005092DC1
:1027C000EFD9491CC9B28DF809300AE09DF80950CB
:1027D000491C05EB850502EB45052C448DF80940A5
:1027E000C9B2445CA4F13005092DEFD9491CC9B226
:1027F0008DF806300AE09DF80650491C05EB85056A
:1028000002EB45052C448DF80640C9B2445CA4F1A6
:102810003005092DEFD9491CC9B28DF805300AE001
:102820009DF80550491C05EB850502EB45052C4438
:102830008DF80540C9B2445CA4F13005092DEFD9EB
:10284000491CC9B28DF804300AE09DF80450491CB7
:1028500005EB850502EB45052C448DF80440C9B213
:10286000445CA4F13005092DEFD9491CC9B28DF89B
:1028700000300AE09DF80040491C04EB840402EBA0
:10288000440423448DF80030C9B2435CA3F1300402
:10289000092CEFD900216846FFF77CFD04B070BD1C
:1028A00008B10C2801D9002070478A0701F5FA61A8
:1028B00005D16422B1FBF2F302FB1312B2B94FF45B
:1028C000C872B1FBF2F302FB131179B10021044A83
:1028D00001EB410102EB8101084410F8010C704743
:1028E00094000020C8030020805101000121EEE780
:1028F000810700F5FA6005D16421B0FBF1F201FB1C
:10290000120149B94FF4C871B0FBF1F201FB12009A
:1029100010B140F26D10E2E74FF4B770DFE72DE938
:10292000F04704464FF480094846FEF78CF8C84D3E
:10293000032000272870042068702E1DAF70C6F891
:1029400000903771082070714FF4804904B301275B
:10295000EF702846FDF739FCB771281DFEF71AF80D
:102960000020FEF70EFD012C24D0022C25D0032CD4
:1029700026D0042C27D0052C28D0062C29D0072CB3
:102980002AD0082C2BD0092C2CD00A2C2DD02EE0AC
:102990000020FEF7F6FC00214846FEF7BCFEEF7073
:1029A000AB48FDF712FCB771BDE8F047A848001D21
:1029B000FDF7F0BFDFF89C8219E0DFF89C8216E09B
:1029C0004EF6FF7813E049F6FF7810E044F6FF7802
:1029D0000DE041F6FF780AE040F6FF7807E040F2AC
:1029E000FF7804E040F2FF3801E040F2FF180120D8
:1029F000FEF7A6FC4046FEF7B4FC01214846FEF770
:102A00008AFEBDE8F0470120FEF7BBBC3C22B1FBCB
:102A1000F2F3F0B502FB1313C160B1FBF2F10370E6
:102A2000B1FBF2F302FB1313B1FBF2F103711822B5
:102A3000B1FBF2F302FB1313B1FBF2F14371CA1CB9
:102A40000723B2FBF3F403FB1422521C4FF4B774B8
:102A50008271A61E642340F2B2729D00970704D1D2
:102A6000B2FBF3F703FB17275FB9B2FBF5F705FBE2
:102A7000172737B1B14209D9A1F26D11521C92B298
:102A8000ECE7A14202D3A1F5B771F7E7A2F5FA642A
:102A9000447200246E4F04720C3707F10C06940741
:102AA00004D1B2FBF3F403FB142424B9B2FBF5F414
:102AB00005FB14241CB9047AA45D8C4203D9047A62
:102AC0003C5D8C4206D8091B047A641CE4B2047293
:102AD0000C2CE4D3027A521C0272491CC171F0BD65
:102AE00010B510B1012817D108E000214FF4807013
:102AF000FEF7E0FB00214FF4805407E000214FF483
:102B00000070FEF7D7FB00214FF400542046FEF77B
:102B100002FE2046FEF728FE4FF400342046FDF763
:102B200092FF4B490020091D0C6008710820487174
:102B300001248C710846FDF72DFF454829210170BD
:102B4000042141708470C470BDE81040FDF73DBBA6
:102B50007FB516460C460546FFF7C2FFE0788DF8B4
:102B60000000A0788DF8010060788DF802004FF029
:102B70000040019020780121F0B1002002902079DE
:102B800018B31F2800D91F208DF80C0005B3012DA4
:102B900011D16C026A4621463046FEF7F1FA012156
:102BA0002046FEF787FB01214C032046FEF7B3FDCC
:102BB0002046FEF7D9FD7FBD4FF08040029020797E
:102BC00018B10728E0D90720DEE78DF80C10DDE703
:102BD0004FF480746A4621463046FEF7D1FA01214F
:102BE0002046FEF767FB01210C03DEE777E676E679
:102BF00075E610B54FF480442046FEF7C1FD00286D
:102C000007D02046FEF7D3FD2002FDF71CFFFFF79B
:102C1000EDFF10BD10B54FF480542046FEF7B0FD17
:102C200020B12046FEF7C3FDFFF7E1FF4FF400544B
:102C30002046FEF7A5FD20B12046FEF7B8FDFFF7C0
:102C4000D7FFBDE810404FF40030FDF7FCBE000098
:102C500088000020FFBF0300FFDF010070B50546BC
:102C6000002634467D20FDF72BFB10B10126FDF731
:102C700029FD45F25550FEF755FE0320FEF755FE9F
:102C8000A5B1012D14D0022D14D0032D14D0042D84
:102C900014D0052D14D0062D14D0072D15D0082DD5
:102CA00016D0092D17D00A2D18D019E0052417E0E9
:102CB0000A2415E00F2413E01F2411E03D240FE047
:102CC0007B240DE04FF480740AE04FF4007407E0B9
:102CD0004FF4806404E04FF4006401E040F6FF74B8
:102CE0002046FEF725FEFEF726FEFEF729FE3046BB
:102CF00070BDFEF720BE00006C4A6D49904203D1C2
:102D0000086840F0010005E06A4A904204D1086872
:102D100040F0020008607047674A904203D108689B
:102D200040F00400F6E7654A904203D1086840F09D
:102D30000800EFE7624A904203D1086840F01000B3
:102D4000E8E7604A904203D1086840F02000E1E7DC
:102D50005D4A904203D1086840F04000DAE75B4AE0
:102D6000904203D1086840F08000D3E7584A90426F
:102D700003D1086840F48070CCE7564A904203D1F2
:102D8000086840F40070C5E7534A9042C3D1086810
:102D900040F48060BEE72DE9F0411546DDE9067696
:102DA0000C0084460DD0FFF7A7FF4C480146057183
:102DB00083710460C7714671BDE8F0416046FDF75C
:102DC00003BDBDE8F0812DE9FC418046DDE908073F
:102DD0000D001AD0CDE90030134602224046FFF71D
:102DE000DAFF0024012606FA04F028420AD0002166
:102DF00001E04008491C0128FBD889B23A46404608
:102E0000FDF756FD641C102CEDD3BDE8FC81274A6C
:102E10002749904203D1086820F0010005E0254AC7
:102E2000904204D1086820F0020008607047224AEE
:102E3000904203D1086820F00400F6E71F4A904250
:102E400003D1086820F00800EFE71D4A904203D143
:102E5000086820F01000E8E71A4A904203D1086899
:102E600020F02000E1E7184A904203D1086820F0E2
:102E70004000DAE7154A904203D1086820F080004C
:102E8000D3E7134A904203D1086820F48070CCE75E
:102E9000104A904203D1086820F40070C5E70E4A3A
:102EA0009042C3D1086820F48060BEE70000024071
:102EB000303802400004024000080240000C02408A
:102EC000001002400014024000180240001C0240A2
:102ED000002002400024024000280240AC000020F4
:102EE0000EB500F0F4FA4FF4E13200219148FEF7FC
:102EF000A1FE0A20FFF7B2FE10B18FA008F0B4FACD
:102F0000FEF73BFDFEF77CFDFEF792FD93A008F077
:102F1000ABFA00231A4619461846FFF77BF8944986
:102F200050B14FF480400880FFF7E3FE914CFFF76B
:102F300013F9207818B10AE04FF48050F3E7607875
:102F400028B98DA0FFF77CF908B901202070FEF7A1
:102F500085FD88B1607878B1864A6079921E5021EB
:102F60008DE807002379E278A17883A0FFF710F9B4
:102F700010B187A008F078FAFFF7BBFED7E7012071
:102F8000FFF7F6B810B5406F0C4689A102882046BD
:102F900008F07AFA91A1204608F0D0F897A12046CF
:102FA00008F0CCF89AA1204608F0C8F8204608F0AE
:102FB000EDF880B210BD2DE9F04116460D460746EA
:102FC00002460024314693A008F04EFA97F86C00B0
:102FD00078B11CE0285D0D2809D1281941780A290B
:102FE00005D181780D2902D1C0780A2804D0641C4B
:102FF000A4B2B442EED30AE0012087F86C00E41CCE
:1030000004E0295D8DA008F02FFA641CA4B2B4423C
:10301000F7D3BDE8F081014689A008F025BA10B5C4
:103020000B00016F0A78014601D08B4800E08B4805
:1030300008F01AFA4F49891E0888401C088010BD04
:10304000014687A008F010BA01468EA008F00CBA1D
:103050002DE9FC410F461C461646804646A1089DB8
:1030600008F078F8002810D042480121334641701A
:103070008770C67004714571002101703A4641465F
:1030800087A0CDE9004508F0EFF9BDE8FC8110B557
:10309000044639A108F05EF818B1364A002353708F
:1030A00013702146BDE8104087A008F0DDB93EB599
:1030B00000931346069C0A4601460CB18DA000E021
:1030C00097A008F0D1F99F4CE079627A217A8DE8D7
:1030D0000700A379627921799BA008F0C5F9607C8B
:1030E0000090237CE27BA17BA0A008F0BDF9607B6F
:1030F0000090237BE27AA17AA2A008F0B5F994F8B7
:103100004C10A6A008F0B0F994F84D1003B0A7A099
:10311000BDE8304008F0A8B9A9A008F0A5B9B7A04B
:1031200008F0A2B910B50446C1B20248FEF7CFFEBE
:10313000204610BD001401405265736574206F6312
:1031400063757265642062656361757365206F667F
:10315000205761746368646F670A000050726F677C
:1031600072616D207374617274696E672E2E0A002D
:10317000180C0240B600002073746D333266342D93
:10318000646973636F766572792E636F6D000000FA
:1031900043616E206E6F74206D616B652061206EDF
:1031A000657720636F6E6E656374696F6E210A00C8
:1031B000474554202F68656C6C6F5F776F726C6445
:1031C0002E7068703F6E756D6265723D2564204893
:1031D0005454502F312E310D0A000000486F737483
:1031E0003A2073746D333266342D646973636F767D
:1031F0006572792E636F6D0D0A000000436F6E6E6D
:10320000656374696F6E3A20636C6F73650D0A00B5
:103210000D0A000052656365697665696E67202551
:1032200064206279746573206F6620646174612024
:1032300066726F6D2025730A000000002563000090
:1032400057652061726520636F6E6E656374656497
:1032500020746F2025730A00F0CB00083CCC0008D6
:10326000416E206572726F72206F63637572656460
:10327000206F6E20636F6E6E656374696F6E2025BC
:10328000730A0000436F6E6E656374696F6E20256C
:10329000732068617320737461727465640A00003E
:1032A00057652068617665204950206164647265C5
:1032B000737320666F722025733A2025642E25646F
:1032C0002E25642E25640A00444E53206861732025
:1032D0006661696C656420746F206765742049506D
:1032E000206164647265737320666F722025730AAF
:1032F0000000000049503A2025642E25642E2564E4
:103300002E25642061737369676E6564206279207D
:1033100044484350207365727665720A00000000CD
:1033200049503A2025642E25642E25642E25643BC1
:103330002053544154494320495020757365640A11
:1033400000000000780300204D41433A2025303230
:10335000582D253032582D253032582D25303258F1
:103360002D253032582D253032580A004E65746DA7
:1033700061736B3A2025642E25642E25642E256406
:103380000A000000476174657761793A2025642E50
:1033900025642E25642E25640A0000004C696E6B9E
:1033A000203130304D3A2025640A000046756C6C9F
:1033B000206475706C65783A2025640A000000006E
:1033C0004C696E6B20697320646F776E2C20646F7C
:1033D00020796F75206861766520636F6E6E656316
:1033E00074656420746F20796F7572206D6F6465E9
:1033F0006D2F726F757465723F0000004C696E6BC3
:10340000206973207570206261636B0A0000000000
:10341000704701BEFEE7FEE7FEE7FEE77047704734
:103420007047704710B5FEF79BFA10BD0CB500222F
:10343000544900920192086840F4803008604FF4CB
:10344000A043086800F4003001900098401C0090F0
:10345000019810B900989842F3D10868800334D5D8
:103460000120019047484030026842F080520260DB
:103470004548026842F4404202604248083002680F
:103480000260026842F400420260026842F4A05204
:103490000260031F3D4A1A600A6842F080720A60A7
:1034A0000A689201FCD53A4940F205720A60016847
:1034B00021F003010160016841F00201016001682F
:1034C000C1F381010229FAD10CBD01920CBD314832
:1034D00010B5016841F4700101602A48016841F0AB
:1034E00001010160274A00210832116002682A4B5D
:1034F0001A400260031D294A1A60026822F48022E1
:10350000026020480C300160FFF790FF21494FF026
:1035100000608039086010BD70B51A4D0835286804
:103520001F4B204910F00C0004D05E10042803D07B
:10353000082803D00B601BE00E6019E0114A121D31
:103540001068C0F38054106800F03F0014B1B6FB5F
:10355000F0F001E0B3FBF0F013681268C3F38813D6
:103560005843C2F30142521C5200B0FBF2F0086013
:1035700028680C4AC0F30310121D105C0A68C24090
:103580000A6070BD003802400070004008544007D7
:10359000003C024088ED00E0FFFFF6FE1030002402
:1035A0000024F400BC0000202DE9F04180460020FA
:1035B0004B494C4E0125074600EB800201EB0212FD
:1035C00092F84C20C2B1401C0A28F5DB3C46E4B11D
:1035D000404607F0DBFD32281AD241462046FEF76E
:1035E0007EFEA8B165762776A760414604F11A00F1
:1035F000E76007F0EDFD23E000EB800201EB021431
:1036000084F84C5020746661E1E70020BDE8F08149
:103610006776354D05E04046696807F0BEFD30B17C
:103620002D68002DF7D1204600F045F8EDE7A86899
:103630002060E8686060E868C4E90207287C2076BA
:103640003088401C30802046E0E7264A10B51188BB
:103650000446491E1180407E10B12046FEF744FE0C
:103660002046BDE8104000F026B870B50446407E04
:103670000E4630B12046FEF734FEA1680144A16039
:1036800070BDD4E90130984202D14FF0FF3070BDD7
:103690001D1A954200DD154621682A460144304630
:1036A00007F028FDA0682844A060284670BDD0E936
:1036B0000110081A70470A4A002101EB810302EB4E
:1036C0000313834207D101EB810102EB01110020BA
:1036D00081F84C007047491C0A29EEDB7047000056
:1036E000D4030020D000002098CA00082DE9F04142
:1036F000044616460F46084607F048FD050013D05D
:10370000264409E03978884205D12A4639462046C0
:1037100007F067FD40B1641C207810B16119B14217
:10372000F0D90020BDE8F0812046FBE770B5040029
:103730000FD02068002510B1FFF787FF2560E068F3
:1037400010B103F0B4FAE5602046BDE8704003F024
:10375000AEBA70BD2DE9F0471488DFF8F0889946BD
:1037600016468A46054600274B46224651462846BD
:1037700005F06CFC4346D3E90E2112197941C8E9E2
:103780000E21411C0BD1B5F8661019B1B5F86810BF
:10379000082901D3012402E06408012CE4D8348014
:1037A000BDE8F0872DE9FC5F0C0005464FF00007EF
:1037B0006ED00026B4F8E202B146032858D2B5F81C
:1037C0006600ADF80000ADF804003AE004EB8000BC
:1037D000D0F8D40207F0DAFCB4F8E0121FFA80F84F
:1037E000BDF80020A8EB0100904200DD104680B239
:1037F000ADF80400B4F8E222824604EB8202002312
:10380000D2F8D4222846114401AAFFF7A3FF0600EC
:1038100024D0ADF80490B4F8E002BDF804100844D8
:1038200080B2A4F8E002BDF80020511AADF80010F3
:10383000404506D1B4F8E202401CA4F8E202A4F824
:10384000E092BDF800000028B4F8E2020CD0032892
:103850000CD2BDF804100029B8D10CE0BDF804105A
:103860008A45D8D00127D6E7032804D3606810B171
:10387000606918B13BE00120BDE8FC9F206818B1E9
:10388000FFF715FF002804DC2146284600F0EDF97B
:1038900026E0E06810B1D4F810800EE0A87F0007A1
:1038A000E88E00D50C384FEA40081FFA88F003F084
:1038B00078FAE06068B1C4F810804246E168206898
:1038C000FFF7D3FE00280DDA2146284600F0CDF997
:1038D000D1E708EBD8704FEA6008B8F1640FE4DC78
:1038E0000020C9E76061E1686160E161606294F8AD
:1038F0002C0058B3B5F86620ADF800206168E06987
:10390000DFF84CB74FF0010A04F12E08884248D97D
:10391000401A904201DCADF80000A87F0007E88E55
:1039200000D50C38BDF8002080B2B2EB400F05D9AD
:103930004FF6FF7202EA4000ADF8000001236A462C
:103940002846FFF707FF06001ED026E0B5F8660000
:103950006169884202D2ADF8000001E0ADF80010C4
:10396000A87F0007E88E00D50C38BDF8001080B2A3
:10397000B1EB400F05D94FF6FF7101EA4000ADF8F9
:103980000000002361682CE1BDF800006168012798
:10399000014461606169081A6061B5F86600002839
:1039A0007DD0EDE0BDF80020002AF9D094F8501247
:1039B000052910D2DFE801F003102963B200E169A4
:1039C0000A783C2A03D184F850A2A4F828A0401E0B
:1039D000491CE1616062D3E0218D05290AD0E269CA
:1039E000DBF8003092F800C05B5C9C4506D1491CB6
:1039F000218505E0A4F828900220BFE084F85092C9
:103A0000401E521CE2616062BAE0218D49B9E3694F
:103A10001A78202A52D0092A50D00A2A4ED00D2ACC
:103A20004CD0E06900782D280ED020280CD0092831
:103A30000AD00A2808D00D2806D0202916D24A1C00
:103A4000228501F8080013E081B1032084F85002B8
:103A500084F82D1001F80890E169484609782D296D
:103A600001D0208504E0A4F828A001E084F8509259
:103A7000606A401E6062E069401CE06180E0218D68
:103A800049B9E3691A78202A18D0092A16D00A2AD7
:103A900014D00D2A12D0E26912F801CB00E0B6E092
:103AA000DBF80430A0F101005B5CE2619C456062E0
:103AB00031D1022907D0491C218561E0401E5B1CE1
:103AC000E36160625CE0204600F07EFCA4F8289090
:103AD000042084F85002E0692062616888424FD96E
:103AE000BDF80020401A904224DAADF8000021E031
:103AF000012300E000236A462846FFF72BFE06005C
:103B00003ED1BDF800006168012701446160616930
:103B1000081A606134E084F8509231E06168206AEC
:103B200088420ED9401A904204DA0004000CADF825
:103B3000000004D094F82C000028DBD0D8E7002641
:103B4000DFE7208D618D884215D2091A914201DA92
:103B5000ADF8001004F14F01014401236A462846E4
:103B6000FFF7F8FD06000BD1208DBDF800100127EE
:103B70000844208504E04846A4F8289084F85002C0
:103B8000606A10B1002E3FF40DAF94F85002042883
:103B900035D06168E069884231D9B5F86620401AAD
:103BA000904202DDADF8002001E0ADF80000AA7FF0
:103BB0001007E88E00D50C38BDF80030B3EB400F8D
:103BC00009DD1007E88E00D50C384FF6FF7202EAC7
:103BD0004000ADF8000094F82C0008B1012300E08B
:103BE00000236A462846FFF7B5FD40B9BDF800003E
:103BF00061680127014461606169081A6061606958
:103C000028B92068FFF753FD00287FF73DAE3846FE
:103C100032E610B50C46010010D0087E401CC0B240
:103C2000087604280AD0086830B12046FFF7BAFDAC
:103C300010B1204605F0F1FB002010BD204600F039
:103C400014F8F9E710B50346002008700C46184632
:103C5000FEF74FFB2078002806D1FE484169204638
:103C6000BDE8104007F0B4BA10BD70B50546D1F8F4
:103C7000E4020C4648B1F74A0020403AF54910707A
:103C80003F2240392046FFF7DDFF0021284604F09F
:103C90009EFA0021284604F09CFA0021284604F0F0
:103CA0009CFA00221146284604F09CFA002128467E
:103CB00004F091FA2046FFF739FD284603F0A1FFF2
:103CC00030B12846BDE870400422E34904F08ABAC6
:103CD000BDE87040FEF702BB2DE9F047DFF87C83BA
:103CE00004460D00D8F860004FF0000AC4F8D8026E
:103CF00007D0DBA1284607F02DFA48B1D8F83C00E0
:103D000018E0D8F83C10C4F8D412D8F864004CE09D
:103D1000D4A1284607F01EFA10B1D8F8400009E0F7
:103D2000D1A1284607F016FA10B1D8F8440001E0F6
:103D3000D8F83800C4F8D4023F21284607F01CFA0E
:103D4000070001D087F800A000262E21284602E0B7
:103D5000401C06462E2107F00FFA0028F8D1DFF8A4
:103D6000FC92002509F1680908E059F83500314650
:103D700007F013FA58B16D1C112D01D2002EF4D1A9
:103D80000FB13F20387056B1112D0CD00FE009EB68
:103D9000C500416858F82100C4F8DC02F0E70320B0
:103DA000A4F8E202FCE4D8F83400C4F8DC02A4F879
:103DB000E2A2A4F8E0A2F3E410B50446ABA02060B0
:103DC000FFF7F2FB00280DD1ABA02060FFF7ECFB62
:103DD000002807D1ABA02060FFF7E6FB002801D147
:103DE0000021216010BD2DE9F7434FF00008064681
:103DF00080F82C800198914601782F2901D14178D3
:103E000071B13F2107F0B8F9050001D005F8018B29
:103E1000924F1C3F786978B3386968B3002421E079
:103E20008B4F0024083757F83400FFF7BDFB05001F
:103E300057F83400019003D007EBC400007944E048
:103E4000641C052CEFD301A8FFF7B6FF054686F8E2
:103E50002C8040E0386950F83410019807F09DF943
:103E600080B1641C78698442F4DB7869844203D1B0
:103E700015B13F2005F8010C0198FFF795FB0500EF
:103E800012D016E02946304600F0E8FA01463869BB
:103E900006F5257300EBC40006F51572D0F804C0D2
:103EA0002046E0470190E0E701A8FFF785FF050005
:103EB00011D06A4F002486F82C80F037019857F80B
:103EC000241007F047F918B1012086F82C0002E011
:103ED000641C042CF2D34A4629463046019B00F06C
:103EE000F0FABDE8FE8370B50C465A49012508601A
:103EF000608928B125B121465648FEF7F8F90546F4
:103F00002046246803F01EF9002CF1D10DB10020E9
:103F100070BD6FF00C0070BD70B50446D0F8E402BF
:103F20000A890025904202D2C4F8E45202E0801AC5
:103F3000C4F8E4022046FFF7D6FF20B9D4F8E40223
:103F400008B1002070BD43483F224038014605704B
:103F50002046FFF777FE2046BDE870403D4900222D
:103F6000403940E72DE9F04106AC94E8E000394CD7
:103F700084E80700A381C4E9045627830020307039
:103F80002046FEF7B2F905466069017811B940A1F3
:103F900007F01EF915B10020BDE8F0816FF00C00AC
:103FA000FAE72DE9F04F85B09846109C0E9D934698
:103FB000A4EB08002A1A894638A1601C521EFFF79C
:103FC00095FB060040D0321B36A1601C521EFFF745
:103FD0008DFB002838D010300A2237A10746FFF7A2
:103FE00085FB88B34FF0000A80F800A0384607F040
:103FF00007F9071E7DDDA6EB0800621C011DA94222
:1040000001DD284600E0001D1FFA80F8B01A011DEE
:10401000A94200DC0D4601208DF810000D4804A9CE
:1040200040383F2480F800A000970391CDE90104B7
:10403000ABB2554658460F99FFF794FF28B1054992
:1040400000224039584639E064E03CE07803002023
:10405000ACCA0008340B0020133C0008F00000201C
:104060003430340034303000353031002F343034C7
:104070002E68746D6C0000002F3430342E68746D1F
:10408000000000002F3430342E7368746D6C000013
:104090002F696E6465782E68746D6C000D0A0D0AC8
:1040A00000000000436F6E74656E742D4C656E6782
:1040B00074683A20000000000D0A0000FFF793FE2C
:1040C00005B0BDE8F08FD9F80040CBF8E47208E005
:1040D0002046A8EB010124681FFA81F8056003F06F
:1040E00031F814B161894145F2D9C9F8005064B181
:1040F00000E00CE0C8F1000001B2204603F025F911
:1041000021465846FFF708FFDAE70020D8E76FF0AE
:104110000D00D5E76FF00400D2E72DE9F74F0468F2
:10412000086884B00D4608B9686818B16FF00700D8
:1041300007B0C6E7FA486389D0E91061F31841F186
:104140000001C0E91031A86898B1214603F03CF99C
:10415000A868016879B1018940F2FF32914200D329
:10416000114688460A460023EE4903F0A8F9ED4FB0
:1041700004E0AC60ECE7B4F80A8067684046B8F148
:10418000070F64D30246AFF2D0013846FFF7AEFA0C
:1041900000285CD04FF0000A0422E3A13846CDF895
:1041A00000A007F01EF840B10522E1A1384607F053
:1041B00018F820B10020387156E0FC1C02E04FF0E6
:1041C000010A3C1DE11BA8EB0100401E80B28146A4
:1041D0000246D8A1601CFFF789FA06000BD14A46B7
:1041E000AFF22C11601CFFF781FA06460120009007
:1041F000BAF1000F38D1301B401E1FFA80FB36B3D6
:10420000A64224D9002004F101092070494609F88A
:104210000B00BAF1000F14D0CDF80080CDE9019663
:1042200005F108013B462A460698FFF7BAFE20B181
:1042300020212170317009F80B1010F10E0F13D0EE
:1042400076E7009A07B02846BDE8F04FCBE5A868AE
:1042500003F0ABF8A9680989B1F5806F04D20A2888
:1042600002D86FF0040063E76FF00D0060E70028EC
:1042700001D0FFF75BBA704710B50A46010004D0C1
:10428000002008761046FFF78DFA002010BD2DE9BA
:10429000FF41044602980E466FF0090563B130B144
:1042A0000189304603F0D9FC029802F04BFF214609
:1042B0003046FFF7DAFC28E00028F8D0002CEFD0D9
:1042C0000189304603F0C9FCD4F8E402002750B15C
:1042D000277620460299FFF71FFE19E02146304657
:1042E000FFF760FA11E0206828B93246214602A89B
:1042F000FFF713FF0546681D05D0A06810B102F056
:1043000021FFA76025B10E35D1D0002004B043E6CF
:10431000D4F8E4020028E1D0F7E770B580480D46F4
:10432000016B491C01632846FDF7D6FF40B301210C
:10433000284603F0CAFE4FF43A76304602F031FDCB
:10434000040005D0314606F0EEFE0320A4F8E20298
:10435000210018D0284603F03AFF7749284603F099
:1043600038FF7649284603F038FF0422744928466E
:1043700003F038FF7349284603F02DFF002070BD7D
:104380006FF00C0070BD4FF0FF3070BD10B56E4C7B
:10439000207828B1A069BDE810406C4903F020BF27
:1043A0006B4800F0F4F80120207010BD6648002131
:1043B000806903F015BF644BD960C3E901027047FF
:1043C000614AC2E9040170472DE9F0415E4E05469D
:1043D00000F12E07716800F14F0881B1F06870B1EB
:1043E000B06860B1002407E0F06850F82410384647
:1043F00006F0D3FE68B1641CB0688442F4DB384632
:1044000006F0C4FEB0F5F37F0AD8384606F0BEFECB
:1044100008E073684FF400724146204698471BE05D
:1044200040F2E710044612224AA1404606F062FE1E
:104430002246394605F1610006F05CFE4AA12819C2
:104440000A6840F8612F898881803E2181710021AE
:10445000C171404606F09AFE68859DE52DE9F0475A
:10446000814691B1087880B100250C462F4609EBB2
:104470008506A04626212046C6F8544206F07CFE5A
:1044800028B100F8017B044608E000208AE42021DE
:10449000404606F071FE00B1077000243D21404601
:1044A00006F06AFE20B100F8017BC6F8940201E034
:1044B000C6F894726D1C102D01DA002CD7D1284655
:1044C00070E470B51D460446002339B3238584F893
:1044D00050320868E06148686062086821602062C4
:1044E000086860604E7E0EB1636101E04E686661EF
:1044F0002376097E99B1FAB31DA16269FFF7F6F838
:1045000038B16168401A001D014461606169081A90
:104510006061206818B1007E08B136E02DE030E01F
:1045200078030020F40600204745542000000000D6
:10453000504F5354200000008F4200086F42000883
:10454000133C000879420008D40000201B430008F7
:1045500054CB00083C623E2A2A2A554E4B4E4F57F8
:104560004E205441472000002A2A2A3C2F623E0058
:104570000D0A0D0A0000000007E02360636063611C
:10458000237629462046FFF7A7FB002070BD70B5B3
:10459000054603F01AFE0D4C0121A06103F095FDC4
:1045A0000B482946B0F84A20A06903F081FCFF219E
:1045B000A06903F0BAFC0146A06103F008FEA069FF
:1045C000BDE87040034903F00BBE0000D40000209A
:1045D000780300201B43000870B50021CB4DCC4C64
:1045E0000B4601EB411205EB8202824207D1836741
:1045F000C0F880302678761E267082F86430491C18
:10460000C9B20429EDD370BD7047C14801780029B3
:1046100001D001214170704770B50446806F0D468E
:1046200078B1002103F0D5FD0021A06F03F0D3FD88
:1046300000221146A06F03F0D5FDA06F08B103F072
:10464000E0FAA06F02F033FBB248C169491CC161B6
:1046500015B18169491C81612046FFF7BDFF2946DC
:104660002046BDE87040FEF7DABC70B505461BE099
:104670000123616804F0EAFC20B1401C01D1C5F8B7
:10468000804070BDA3486289D0E908319A1841F191
:104690000001C0E908212068C5F8800008B102F0D7
:1046A0008DFE204602F04EFDD5F88040002CE8D06B
:1046B000A86F6289B0F866108A42D9D970BD10B56A
:1046C0002046FEF7BDFC2046BDE810400021A3E7D0
:1046D00010B570B1D0F8801011B1FFF7C6FF06E039
:1046E00090F87C10032902D10121FFF795FF0020EB
:1046F00010BD084603F0B1FB6FF0090010BD10B506
:10470000D0F8801009B1FFF7B0FF002010BD2DE9EF
:10471000F0411F461500884606461FD0298940F201
:10472000B450814213D87B482C46D0E90A3259183C
:1047300042F10002C0E90A12628922B1238930469F
:104740006168FEF738FC2468002CF5D135B1AFB1B3
:10475000284602F0F7FC3846BDE8F081032086F8D1
:104760007C00D6F8800020B13046FFF77EFF0020A5
:10477000F2E701213046FFF74FFFF8E7298940466D
:1047800003F06BFA284602F0DDFCF0E770B5160086
:10479000044604D00021FFF73FFF304670BD0120E2
:1047A00084F87C0082025C492046FEF7EBFB0500A2
:1047B0002AD0594806F0EAFC81B20322002002F018
:1047C000E9FCC4F880000028E7D02046FEF723FC6F
:1047D0002A465149D4F8800002F0A4FE4F49A06F48
:1047E00003F0F7FC4E49A06F03F0F5FC01224D49A0
:1047F000A06F03F0F7FC4C49A06F03F0EEFC2046DD
:10480000FFF733FF002070BD01212046FFF704FFB2
:104810006FF00C0070BD2DE9FF4FDFF8F48081B020
:104820001D4698F80000DDF8389016460F466FF0E8
:104830000C0B28B198F8010010B1FDF7A8FC63E05B
:10484000019806F0A3FC642804D36FF00D0005B0B6
:10485000BDE8F08F00202D49824600EB401201EBAD
:10486000820292F86420BAB3401CC0B20428F4D388
:10487000544694B303F0A9FCA06778B34FEA0960EB
:1048800040EA054040EA06203843009084F865700D
:1048900084F8666084F8675084F868900F98A4F8EC
:1048A0006A0084F86CA0109860672046019906F0B1
:1048B0008FFC2146A06F03F08AFC1B49A06F03F018
:1048C0008CFC1A4BA06F69460F9A03F083FB2046BD
:1048D000FEF7BAFB0020BAE701E00FE011E000EBC1
:1048E000401001EB8004012284F8642098F8000055
:1048F000401C88F80000C4F87080BAE74FF0FF3021
:10490000A5E72046FFF768FE5846A0E7500F0020B5
:10491000F001002078030020500B00200F47000812
:10492000FF460008D1460008BF4600088D47000832
:1049300030B587B0002502F0A5F902F0BBFA01F00E
:10494000F4FF334C05AB04AA2078D4F8011040EAF8
:1049500001200390A07AD4F80B1040EA01200490C3
:10496000A07BD4F80F1040EA0120059029482A497D
:104970000095CDE9011003A9284802F027FB27483C
:1049800002F048FB264800681128244809D002F0AC
:1049900044FBFDF7D2FC2349204802F0C8FB07B0D6
:1049A00030BD10F8351F41F0100101701B4802F0B6
:1049B00080FB20786178A278E3780095FDF7A1FC70
:1049C000E9E700F0EEBB154806F0C6BA31B5164C63
:1049D00000982168401AFA2803D30098206003F059
:1049E000C6F900986168401A41F28831884203D3C1
:1049F0000098606005F024FF0098A168401AB0F5A7
:104A00007A7F04D3BDE83840012000F0F3BE38BD02
:104A100078030020E5AC00087FAF0008601100209B
:104A2000100200207B580008F401002010B501217D
:104A30004C062046FBF7B7FD2046BDE8104000219C
:104A4000FBF7B1BD012101600021416081604FF49D
:104A50008042C160C0E90412D2108161C0E907122E
:104A600041628162C1620163416340228163C0E9A6
:104A70000F122022C0E91121C164016541658165E1
:104A80008022C165C0E918128166C166016741676D
:104A9000D2048167C0E91F125210C0E9212113110D
:104AA000C0E92331C0F89410C0F89810C0F89C10E9
:104AB000C0E928125212C0F8A8209201C0F8AC2018
:104AC0005212C0E92C21C0F8B810704738B5002345
:104AD0000093F94B1C694FF6FF7504F01C0405EABE
:104AE000C02020434FF4F86404EA8111014341F0EF
:104AF00003005A611861F1490098401C0090186940
:104B0000C00702D000988842F6D30098884201D1AD
:104B1000002038BD012038BD18B500220092E64AB9
:104B200013694FF6FF7403F01C0304EAC020184316
:104B30004FF4F86303EA8111014321F0020040F0D1
:104B400001001061DD490098401C00901069C00709
:104B500002D000988842F6D30098884201D1002004
:104B600018BD506980B218BD2DE9F04186B000270C
:104B7000044601200097D04ECDE9000730698846F1
:104B800020F01C0502A8FBF747FCCD490398CD4A4D
:104B90000144914202D245F0080516E0CA49CB4AC9
:104BA0000144914202D245F00C050EE0C849C94AC1
:104BB0000144914209D3C8490844C849884202D2F5
:104BC00045F0040501E045F0100535614FF4004261
:104BD00000214046FFF77AFFA0B1FF2000F03AFD28
:104BE000206878B3B54D01980121401C01904046E2
:104BF000FFF792FF400702D40198A842F3D301982F
:104C0000A84201D1009730E04FF480520021404685
:104C10000197FFF75BFF00B9009701980121401C45
:104C200001904046FFF778FF800602D40198A84221
:104C3000F3D30198A842E5D021464046019700F001
:104C4000F5FD10E0FFE7206A6169C00840EA510005
:104C500082B200214046FFF739FF00B9009740F6C5
:104C6000FF7000F0F7FC009820B94FF4006020625C
:104C7000C000606130689A490840D4E901121143CC
:104C8000E26854F8103F1A43114362681143A26866
:104C90001143E26811432269114354F8142F114360
:104CA00062681143A2681143E2681143226911430B
:104CB000014331603568012000F0CCFC3560F4E937
:104CC00005010843D4E9021211430843216908434E
:104CD00061690843A1690843E16908437060756828
:104CE000012000F0B7FC7560206AB060606AF06077
:104CF000B0694FF641710840D4E90B121143238D7E
:104D0000626B42EA03421143A26B1143E26B11430F
:104D10000143B161B569012000F09CFCB561D4E9A3
:104D200010010843F061F569012000F093FCF56182
:104D30006C4DA9696C480140D4E912021043D4E9D2
:104D400014231A431043A26D1043E26D1043226EE8
:104D50001043626E1043A26E10430843A861AE690F
:104D6000012000F077FCAE61D4E91B010843616FBC
:104D700054F8782F11430843616840EA8100A16824
:104D8000084340F4000028602C68012000F062FC19
:104D90002C60286840F0800028602C68012000F01A
:104DA00059FC2C600098012800D0002006B0BDE816
:104DB000F0814C490028886902D040F0020001E0EF
:104DC00020F002008861704746490028886902D0B7
:104DD00040F4005001E020F400508861704738B57D
:104DE000404CA06940F48010A061A06900900120AF
:104DF00000F030FC0098A06138BD38B500212E4C81
:104E000000910028206802D040F0040001E020F06A
:104E10000400206020680090012000F01BFC009836
:104E2000206038BD38B50021234C0091002820684F
:104E300002D040F0080001E020F008002060206867
:104E40000090012000F006FC0098206038BD10B5ED
:104E50000120FFF7E7FF0120FFF7CFFFFFF7BFFFBC
:104E60000120FFF7B1FFBDE810400120A1E710B518
:104E70000020FFF7A9FF0020FFF79BFF0020FFF7AE
:104E8000BCFFFFF7ACFFBDE810400020CAE70A49AD
:104E900000208969C90700D00120704738B5064C49
:104EA000A06940F00100A061A0690090012000F01D
:104EB000D1FB0098A06138BD00800240FFFF0300D5
:104EC00000D3CEFEC0E1E40040F1E9FD40787D0171
:104ED00000796CFC005A6202001F0AFA80F0FA02A4
:104EE0000F8120FF00900240233FDEF838B50021FB
:104EF000F64C00910028A06902D040F0010001E0CA
:104F000020F00100A061A0690090012000F0A2FB48
:104F10000098A061CFE7ED4A01460020926B0A425B
:104F200000D001207047E94A01460020926B0A42F6
:104F300000D001207047E54A0029D16B01D08143A0
:104F400000E00143D1637047E04B8A881844026453
:104F50000A78D1F8011042EA012141647047DB4A26
:104F60000244106C030A4B710871506C020ECA7037
:104F7000020C8A70020A4A700870704738B5002225
:104F80000092D24A8418206C11B140F0004001E038
:104F900020F000402064206C0090012000F05AFBBB
:104FA0000098206487E738B500220092C74A841829
:104FB0000829206C02D040F0804001E020F08040C1
:104FC0002064206C0090012000F044FB00982064D5
:104FD00071E738B50D46BD494418206C20F07C506F
:104FE0002064206C0090012000F034FB00982064C5
:104FF000206C28432064206C0090012000F02AFBE4
:105000000098206457E730B5B14B59680A68C2F37D
:105010000D449A68156812689268C9685960241F1F
:105020008560C0E9004230BD38B5A94B002400942A
:10503000D3E9012117E06D1C00951568AD0507D572
:105040001568ED0504D40A6001228A605A6808E0F8
:105050001568ED0511D41568AD050ED48D686D1C6D
:105060008D60D2685A601568002D02DB009D042D0A
:10507000E1D30460446084601DE74A608C68641C6E
:105080008C608C68012C00D10A605C682268C2F3D5
:105090000D458A682D1F012A02D90A68926800E02E
:1050A000A2680968E4685C600560C0E9012102E764
:1050B000F0B5874E002231680B68002B01DA002022
:1050C000F0BD40F2F454A04215D9B0FBF4F5B0FBAA
:1050D000F4F304FB150505B15B1C012B0BD0C3F1E8
:1050E0000107C7EBC71707EB470700EB87005D1EFB
:1050F000C0F30C0023E00A6842F040520A60C0F39B
:105100000C004860086840F000400860C96818E07A
:105110000F6827F040570F601AB90F6847F08057A3
:105120000F604C60AA4204D10F6847F000570F602F
:1051300048600F6847F000470F60C968521C9A42E8
:10514000E6D3644831604169490703D504214161D0
:10515000002141600120F0BDF0B55D4F00234FF00C
:10516000004C44F2F45E561E786013E000EB4314EA
:10517000C4F800C0C3EBC31505EB450501EB85057D
:10518000C4E901E5B34203D204F12005E56000E083
:10519000E0605B1C9342E9D34E49C8604E48B8605A
:1051A000F0BD4B4A51680B681046002B80680DDB40
:1051B0000B68DB050AD583685B1C83608368012B61
:1051C00000D1016051684160012070470B68002BDD
:1051D0000DDB0B689B050AD50B68DB0507D4016066
:1051E00000214160012181605068C0680CE00B68BB
:1051F000002B0ADB0B689B0507D40B68DB0504D486
:1052000083685B1C8360C868506000207047F0B5FD
:105210002F4C00234FF48017561E206011E000EB46
:1052200043142760C3EBC31505EB450501EB85056A
:10523000A560B34203D204F12005E56000E0E06020
:105240005B1C9342EBD323490861F0BD024600206A
:1052500012680A4200D0012070470068C0F3C30002
:105260007047016841F00041016070470029016802
:1052700002D041F0804101E021F08041016070479F
:1052800002680A430260704702680A43026070477E
:105290000029016802D021F0006101E041F00061C5
:1052A000016070470029016802D041F4801101E0DB
:1052B00021F48011016070470029016802D021F0BB
:1052C000806101E041F08061016070470080024030
:1052D00000020020009002403C420020436841EA66
:1052E00002410B43436070470246002012680A42A5
:1052F00000D0012070470246002012690A4200D007
:1053000001207047016841F000410160704700686A
:10531000C0F30D407047426811B122F0004101E036
:1053200042F0004141607047406811B1C0F30C4049
:105330007047C0F30C00704702680021002A08DBA8
:105340000268120405D40268D20502D50068C0F3D1
:105350000D410846704738B50021C14C0091002826
:10536000206802D040F0800001E020F08000206042
:1053700020680090012000F06DF9009820609AE507
:10538000B748016841F0010101607047B44900204D
:105390000968C90700D001207047B14A01460020C2
:1053A00052690A4200D001207047AD4948617047F8
:1053B000AB4A0029D16901D0014300E08143D161AA
:1053C0007047A74A0146002052690A4200D00120D6
:1053D0007047A34948617047A148406900F0010047
:1053E00070479F48406900F0400070479C4900208A
:1053F0008969C90200D501207047994A01460020F9
:10540000126A0A4200D0012070479548006AC0F332
:105410004A4070479248006A80B270479048806C5A
:1054200070478F48C06C70478D48006D70478C483E
:10543000406D70478A4900204860704788490020C5
:105440008860704786494862704730B50C4605460B
:105450000021FFF761FB14B140F4804201E020F429
:10546000804200212846FFF731FB002800D00120B0
:1054700030BD38B57B4CE06A40F00040E062E06A45
:105480000090012000F0E6F80098E06213E5F8B51E
:1054900006460020734D0446009056F82400A8628A
:1054A000A86A0090012000F0D5F80098A862641C5A
:1054B000082CF2D3F8BD38B500216A4C00910028C1
:1054C000E06A02D040F4007001E020F40070E06275
:1054D000E06A0090012000F0BDF80098E062EAE484
:1054E000604A01460020D26A0A4200D0012070477B
:1054F00038B500215B4C00910028E06A02D040F0F2
:10550000040001E020F00400E062E06A0090012065
:1055100000F0A0F80098E062CDE438B50021514CCD
:1055200000910028E06A02D040F0020001E020F083
:105530000200E062E06A0090012000F08BF8009821
:10554000E062B8E438B50021464C00910028E06ADA
:1055500002D040F0010001E020F00100E062E06ACA
:105560000090012000F076F80098E062A3E43D4846
:10557000D0F8001141F03001C0F8001170473948EF
:10558000D0F8001121F02001C0F80011D0F800116E
:1055900041F01001C0F80011704732490028D1F8DD
:1055A000000102D040F0080001E020F00800C1F83E
:1055B000000170472B490028D1F8000102D040F0CB
:1055C000040001E020F00400C1F800017047254903
:1055D0000028D1F8000102D020F0020001E040F0E4
:1055E0000200C1F8000170471E48D0F8001141F0D8
:1055F0000101C0F8001170471A4AC3000BD50029F9
:10560000D2F80C1120F0805001D0814300E001431A
:10561000C2F80C1170470029D2F8101101D0814353
:1056200000E00143C2F81011704700210D4AC30089
:1056300002D5D2F8043101E0D2F80831034204D097
:10564000D2F80C21024200D10121084670470549D9
:1056500040587047044909684843401EFDD27047CE
:1056600000900240008002401C00002010B5012183
:105670004FF06060FAF765FFFFF7D8F9FFF780FE9B
:10568000FFF784FE0128FBD0A948FFF7DBF9A84803
:1056900001214FF4007240F81C1B002140F80C1B44
:1056A000E0E803215200416001618161C161016252
:1056B00040F8102CD20313118365C0E91312016660
:1056C00041660421C0E91B12890341678901816792
:1056D0004912C1674900C0F8841001219448FFF7BE
:1056E00043FA9449486010BD1CB501218803FAF7BC
:1056F00050FF4FF48070009003208DF805000220C9
:105700008DF8040000208DF806008B4C8DF8070002
:1057100069462046FBF758F800216001FAF743FE7E
:105720000120FBF712F9FCF7E6FD002849D1012121
:105730000520FAF706FF8620009069462046FBF711
:1057400043F80B2201212046FBF7B2F80B2202217D
:105750002046FBF7ADF80B2207212046FBF7A8F8FF
:105760003220764C009069462046FBF72DF80B223C
:1057700001212046FBF79CF80B2204212046FBF771
:1057800097F80B2205212046FBF792F80121022011
:10579000FAF7D7FE4FF46050694C009069462046F6
:1057A000FBF712F80B2211462046FBF781F80B227B
:1057B0000C212046FBF77CF80B220D212046FBF73D
:1057C00077F81CBD10B5FCF7D8F8FFF78DFFFFF791
:1057D0004DFF01210846FFF79FF9564C400703D5BE
:1057E000606840F0100060600120FCF786FD606892
:1057F000C0B210BD70B501210846FFF78DF94D4CC0
:1058000010F0040F4FF00105607806D0002803D196
:105810004C4801F05EFC657070BD0028FCD025701E
:10582000484801F077FC0020607070BD70B50C46F0
:1058300010210120FFF770F943074FF400624FF089
:10584000000101D5226200E0216280074FF480430D
:1058500001D5616100E063613B4880F84C1080F83D
:105860004D10656901219D4201D180F84C10236AD9
:10587000934201D180F84D1070BD7FB50024009493
:1058800090F83500C0064AD5294D286820B34FF45A
:10589000805200210120FFF719F92C4E00980121B8
:1058A000401C00900846FFF737F9800602D40098A4
:1058B000B042F3D31E4901200094FFF7B7FF244AFA
:1058C00011682B6A68691843084310602148006812
:1058D000401EFDD210681060FFF7B9FA1A4803ABFA
:1058E0000178D0F8012041EA02210191817AD0F8B3
:1058F0000B2041EA02210291817BD0F80F0002AA1D
:1059000041EA0020039001A90E4801F050FB0D4828
:1059100001F0CFFBFCF706FD064804707FBDFFF7E2
:10592000A6FA084801F079FBFCF707FD7FBD0000EF
:10593000484200200C020020000002400008024003
:10594000000402406011002078030020FFFF0300E4
:10595000008002401C00002040BA704740BA7047E7
:1059600000BA704700BA7047002812D0018B436913
:10597000FF220B44491C018383F8F020002205E03C
:1059800043690B44491C018383F8F020018B4429AF
:10599000F6D370472DE9F04116460C4605000CD0B1
:1059A0007CB100224FF49A71104601F0F3FB2061A4
:1059B00050B1627BFE4952B10CE06FF00D00BDE8C2
:1059C000F0816FF00500FAE74FF0FF30F7E70A6863
:1059D000521C0A6009682160406801216061017001
:1059E000606900274170616995F82E0088706069D0
:1059F000C7702068FFF7B4FF6169082E48606069CE
:105A00000781606947816069C76008D0042E06D0AD
:105A1000032E07D1207B052801D0042802D161691B
:105A20006868C8606069076160694761606987612B
:105A3000002095F82E10814203D9291891F82F10D3
:105A400000E0002100F11C026369401C80B29954FF
:105A50001028EED3002000F12C016269401C80B2B6
:105A600057544028F7D3002000F16C016269401CB4
:105A700080B257548028F7D36169CE48C1F8EC0052
:105A800027830020626900F1F0015054401C80B26D
:105A90004428F7D301223521204600F0E0FD3146AD
:105AA000204600F0D4FD002089E7F8B5446A064698
:105AB000002060620621204600F0F2FD012221460E
:105AC0003046FFF767FF050030D10222392120461A
:105AD00000F0C5FDB18D204600F0D1FD0422372134
