:020000040800F2
:10000000C0060020B11C0008B91C0008BB1C000879
:10001000BD1C0008BF1C0008C11C00080000000037
:10002000000000000000000000000000C31C0008E9
:10003000C51C000800000000C71C0008830200085F
:10004000CB1C0008CB1C0008CB1C0008CB1C0008F4
:10005000CB1C0008CB1C0008CB1C0008CB1C0008E4
:10006000CB1C0008CB1C0008CB1C0008CB1C0008D4
:10007000CB1C0008CB1C0008CB1C0008CB1C0008C4
:10008000CB1C0008CB1C0008CB1C0008CB1C0008B4
:10009000CB1C0008CB1C0008CB1C0008CB1C0008A4
:1000A000CB1C0008CB1C0008CB1C0008CB1C000894
:1000B000CB1C0008CB1C0008CB1C0008CB1C000884
:1000C000CB1C0008CB1C0008CB1C0008CB1C000874
:1000D000CB1C0008CB1C0008CB1C0008CB1C000864
:1000E000CB1C0008CB1C0008CB1C0008CB1C000854
:1000F000CB1C0008CB1C0008CB1C0008CB1C000844
:10010000CB1C0008CB1C0008CB1C0008CB1C000833
:10011000CB1C0008CB1C0008CB1C0008CB1C000823
:10012000CB1C0008CB1C0008CB1C0008CB1C000813
:10013000CB1C0008CB1C0008CB1C0008CB1C000803
:10014000CB1C0008CB1C0008CB1C0008CB1C0008F3
:10015000CB1C0008CB1C0008CB1C0008CB1C0008E3
:10016000CB1C0008CB1C0008CB1C0008CB1C0008D3
:10017000CB1C0008CB1C0008CB1C0008CB1C0008C3
:10018000CB1C0008CB1C0008CB1C0008CB1C0008B3
:10019000CB1C0008CB1C0008CB1C0008CB1C0008A3
:1001A000CB1C0008CB1C0008CB1C000800F002F898
:1001B00000F041F80AA090E8000C82448344AAF1C0
:1001C0000107DA4501D100F036F8AFF2090EBAE8BE
:1001D0000F0013F0010F18BFFB1A43F0010318477B
:1001E000DC5A0000FC5A0000103A24BF78C878C1DD
:1001F000FAD8520724BF30C830C144BF04680C602D
:10020000704700000023002400250026103A28BF74
:1002100078C1FBD8520728BF30C148BF0B60704778
:10022000642902F07D87002070471FB503F004F9B0
:100230001FBD10B510BD03F0C2F81146FFF7F5FF62
:1002400001F0C8FC03F0E0F803B4FFF7F2FF03BCD1
:1002500003F0E4F801B545490098086000BF434841
:1002600000680028FBD108BD01B54FF47A710098F1
:1002700048433E49086000BF3C4800680028FBD165
:1002800008BD3B480068401C39490860394800688F
:1002900020B138480068401E36490860334800687D
:1002A00020B132480068401E30490860704770B580
:1002B0003148007800B170BD012001F0AEFF00BFF1
:1002C00001F0D0FF0028FBD02C4800682C4AB0FB7E
:1002D000F2F1481EB0F1807F01D301201BE0481EDF
:1002E0004FF0E022506150170F22002807DA130761
:1002F0001D0E244B00F00F04241F1D5503E01307AF
:100300001C0E214B1C5400BF00204FF0E0229061D6
:1003100007201061002008B100BFFEE70120164948
:10032000087000BFC7E712480068704711480068AE
:1003300070470F49086070470E49086070470E48C3
:10034000007800B970474FF0E020006940F00200EB
:100350004FF0E021086100BFF4E74FF0E0200069B2
:1003600020F002004FF0E0210861704704000020F7
:1003700008000020000000200C00002038000020B1
:1003800040420F0018ED00E000E400E01CB5044618
:1003900002208DF8040001208DF806008DF807007A
:1003A00002208DF8050004BB0121084602F0E9F89F
:1003B0000121042002F0E5F804220821F74801F0A9
:1003C000CAFE04220921F64801F0C5FE4FF48070F0
:1003D00000906946F14801F033FE4FF40070009040
:1003E0006946EF4801F02CFE12E0012C10D10121EA
:1003F000802002F0C6F84FF4C0700090042207215C
:10040000E84801F0A8FE04220821E64801F0A3FE16
:100410006946E44801F014FE1CBD1CB504460220E8
:100420008DF8040001208DF806008DF807000020EB
:100430008DF80500ACB90121022002F0A2F84FF4BA
:100440004060009004220A21D74801F084FE042273
:100450000B21D54801F07FFE6946D34801F0F0FD3D
:1004600015E0012C13D10121202002F08AF803208D
:10047000009004220021CD4801F06DFE04220121EC
:10048000CA4801F068FE6946C84801F0D9FD1CBDA4
:100490001CB504460121022002F073F802208DF8F9
:1004A000040001208DF806008DF8070000208DF86B
:1004B000050064B9C020009004220621BA4801F06A
:1004C0004AFE04220721B84801F045FE0EE0012C47
:1004D0000CD14FF44070009004220821B24801F082
:1004E0003AFE04220921B04801F035FE6946AE48C3
:1004F00001F0A6FD1CBD7FB504460D4616460096CC
:10050000AB48844214D10121480502F081F8284605
:10051000FFF7BEFF2014ADF80C000020ADF804007A
:10052000ADF80800ADF80A004BF6FF70ADF8060014
:10053000A048844214D10121880502F069F82846B8
:10054000FFF76BFF2014ADF80C000020ADF804009D
:10055000ADF80800ADF80A004BF6FF70ADF80600E4
:100560009548844214D10121C80502F051F828466B
:10057000FFF70CFF2014ADF80C000020ADF80400CC
:10058000ADF80800ADF80A004BF6FF70ADF80600B4
:100590006946204602F05DF90121204602F0D5F9B6
:1005A0007FBD70B504460021204602F011FA0121FA
:1005B000204602F0F9F944F620608049086004E022
:1005C0007E480068401E7D4908607D49204602F053
:1005D000D7FA18B9794800680028F1D1204602F00E
:1005E00075FA0546284670BD2DE9F04105460F46CF
:1005F00014461E460121284602F0CAF944F620603E
:100600006E49086008E06D480068401E6B4908604C
:1006100010B90120BDE8F0816A49284602F0D2FAFB
:1006200018B9664800680028EDD11EB10121604864
:1006300002F0CEF922463946284602F0C1F9BCB98B
:1006400044F620605D49086007E05C480068401E91
:100650005A49086008B90120DCE75A49491C284674
:1006600002F0B0FAE8B9554800680028EDD118E06A
:10067000012C16D144F620605049086007E04F482D
:100680000068401E4D49086008B90120C2E74C4986
:100690003E39284602F074FA18B948480068002824
:1006A000EDD1288B0020B5E710B5044644F6206054
:1006B0004249086007E041480068401E3F49086021
:1006C00008B9012010BD3F497F31204602F07AFA77
:1006D00028B13C49C91C204602F074FA18B93748C1
:1006E00000680028E7D10121204602F05DF90020D2
:1006F000E8E770B504460D4644F620602F490860CF
:1007000004E02E480068401E2C4908602D497F31C6
:10071000204602F057FA18B9284800680028F0D19E
:100720002946204602F0D0F970BD2DE9F04105467A
:100730000E46144600231A4631462846FFF754FF5A
:1007400021462846FFF7D5FF2846FFF7ADFF0023D7
:10075000012231462846FFF747FF2846FFF721FFD1
:1007600007463846BDE8F0812DE9F04106460F46C0
:1007700014461D4600231A4639463046FFF734FF1B
:1007800021463046FFF7B5FF29463046FFF7B1FF57
:100790003046FFF789FFBDE8F0810000000002400D
:1007A00000080240001C0240000402400014024005
:1007B0000054004000580040005C00401000002041
:1007C000400003000100001070B5044601212046DE
:1007D00002F0FEF844F620603B49086004E03A4825
:1007E0000068401E384908603849204602F0C8F9C0
:1007F00018B9354800680028F1D1204602F066F9A2
:100800000546284670BD2DE9F047804689461646C4
:100810001D46089F0123002249464046FFF7E4FE9B
:1008200031464046FFF765FF4046FFF73DFF012395
:100830001A4649464046FFF7D7FE00240DE0781ED1
:10084000A04204D14046FFF7ACFE285503E04046E5
:10085000FFF7BAFF2855601CC4B2BC42EFDBBDE80D
:10086000F0872DE9F0470746884615461E46DDF815
:10087000209000231A4641463846FFF7B5FE294628
:100880003846FFF736FF002405E0315D3846FFF7B4
:1008900030FF601CC4B24C45F7DB3846FFF704FF5D
:1008A000BDE8F08770B504460D46002601230022FE
:1008B00029462046FFF798FE00B901262046FFF79B
:1008C000F3FE304670BD0000100000204000030021
:1008D00010B504464FF40051FC4801F02DFC0421F2
:1008E000FB4801F02BFC2146FA4801F010F90421E5
:1008F000F74801F021FC10BD10B504464FF400513B
:10090000F24801F01BFC0421F14801F017FC2146DC
:10091000F04801F0FCF80421ED4801F00DFC10BD99
:100920002DE9F04104460D4616461F462A20FFF7E2
:10093000E3FF2012FFF7CCFFE0B2FFF7C9FF301250
:10094000FFF7C6FFF0B2FFF7C3FF2B20FFF7D4FF7E
:100950002812FFF7BDFFE8B2FFF7BAFF3812FFF722
:10096000B7FFF8B2FFF7B4FFBDE8F0812DE9F04121
:1009700004462612E7B2D8484088401E83B2D648C3
:100980000088401E82B200210846FFF7C9FF2C20D4
:10099000FFF7B2FF002506E0F0B2FFF799FFF8B2CB
:1009A000FFF796FF6D1CB5F5963FF5D3BDE8F081D6
:1009B00001B502E00098401E009000980028F9D18F
:1009C00008BD10B54FF48051C04801F0B5FB0120BF
:1009D000FFF792FFC148FFF7EBFFCB20FFF78CFF3B
:1009E0003920FFF775FF2C20FFF772FF0020FFF77B
:1009F0006FFF3420FFF76CFF0220FFF769FFCF2065
:100A0000FFF77AFF0020FFF763FFC120FFF760FFC9
:100A10003020FFF75DFFE820FFF76EFF8520FFF72E
:100A200057FF0020FFF754FF7820FFF751FFEA201F
:100A3000FFF762FF0020FFF74BFF0020FFF748FFA2
:100A4000ED20FFF759FF6420FFF742FF0320FFF777
:100A50003FFF1220FFF73CFF8120FFF739FFF7200F
:100A6000FFF74AFF2020FFF733FFC020FFF744FFC6
:100A70002320FFF72DFFC120FFF73EFF1020FFF7D7
:100A800027FFC520FFF738FF3E20FFF721FF282072
:100A9000FFF71EFFC720FFF72FFF8620FFF718FF85
:100AA0003620FFF729FF4820FFF712FF3A20FFF713
:100AB00023FF5520FFF70CFFB120FFF71DFF00209B
:100AC000FFF706FF1820FFF703FFB620FFF714FF1C
:100AD0000820FFF7FDFE8220FFF7FAFE2720FFF730
:100AE000F7FEF220FFF708FF0020FFF7F1FE2A20B3
:100AF000FFF702FF0020FFF7EBFE0020FFF7E8FE04
:100B00000020FFF7E5FEEF20FFF7E2FE2B20FFF7C6
:100B1000F3FE0020FFF7DCFE0020FFF7D9FE0120E6
:100B2000FFF7D6FE3F20FFF7D3FE2620FFF7E4FEB7
:100B30000120FFF7CDFEE020FFF7DEFE0F20FFF7DC
:100B4000C7FE3120FFF7C4FE2B20FFF7C1FE0C20AB
:100B5000FFF7BEFE0E20FFF7BBFE0820FFF7B8FE32
:100B60004E20FFF7B5FEF120FFF7B2FE3720FFF76A
:100B7000AFFE0720FFF7ACFE1020FFF7A9FE032011
:100B8000FFF7A6FE0E20FFF7A3FE0920FFF7A0FE49
:100B90000020FFF79DFEE120FFF7AEFE0020FFF7EB
:100BA00097FE0E20FFF794FE1420FFF791FE03201E
:100BB000FFF78EFE1120FFF78BFE0720FFF788FE60
:100BC0003120FFF785FEC120FFF782FE4820FFF7A6
:100BD0007FFE0820FFF77CFE0F20FFF779FE0C2038
:100BE000FFF776FE3120FFF773FE3620FFF770FE29
:100BF0000F20FFF76DFE1120FFF77EFE3848FFF74C
:100C0000D7FE2920FFF778FE2C20FFF775FE10BDD8
:100C10001CB50121082001F0B4FC4FF400500090F5
:100C200002208DF8050001208DF8040000208DF8C9
:100C300006008DF807006946244801F001FA0121F9
:100C4000042001F09EFC042000906946204801F039
:100C5000F7F90121082001F094FC01208DF807002C
:100C6000000300906946194801F0EAF90421184888
:100C700001F062FA0021174800F022FFFFF7A1FE01
:100C800000201849088018490880F020124908807F
:100C90004FF4A0704880012008714FF6FF70FFF7F5
:100CA00065FE1CBD70B505460E46144633462A4601
:100CB00031462846FFF734FE2C20FFF71DFE201298
:100CC000FFF706FEE0B2FFF703FE70BD000C024026
:100CD00000080240005001401800002080841E00DF
:100CE00040420F00160000201400002010B50446FA
:100CF0003620FFF701FE1CB95820FFF7E9FD10E090
:100D0000012C03D18820FFF7E3FD0AE0022C03D178
:100D10002820FFF7DDFD04E0032C02D1E820FFF7D7
:100D2000D7FD0CB1012C08D1F020FA4908804FF40E
:100D3000A07048800120087107E04FF4A070F549C9
:100D40000880F02048800020087110BD2DE9F05F78
:100D50000746884691461C46DDF828B0EE480780D5
:100D6000EE48A0F800802078EB4909880844E9495A
:100D70000988884208DD6078E84909880844E7491D
:100D800008800020E449088000252AE0A9F120001D
:100D9000617800FB0150616831F810A000261CE06A
:100DA0000AFA06F000F4004058B1DC4A12882A44DE
:100DB00091B2D94A1288324490B25A46FFF772FF74
:100DC0000AE0D64A12882A4491B2D34A12883244A1
:100DD00090B20B9AFFF766FF761C2078B042DFD8FE
:100DE0006D1C6078A842D1D82078CB490988084486
:100DF000C9490880BDE8F09F2DE9FC4705460E462D
:100E000014461F46DDE90A9AA846C3480580C34830
:100E1000068027E020780A2813D17878401CBF4943
:100E200009880844BD49088060780D2804D1002055
:100E3000B9490880641C02E0B748A0F80080641C2F
:100E400010E020780D2801D1641C0BE0CDE9009A58
:100E500014F8012B3B46B1480188AF480088FFF7E2
:100E600075FF00BF20780028D4D1BDE8FC8770B59D
:100E700000244D781D8002E00D782544ACB210F8B6
:100E8000016B002EF8D1148070BD2DE9F05F04468F
:100E90000D4690469946DDF828B0444503DD0FFA2B
:100EA00088F7A046BCB24D4503DD0FFA89F7A94685
:100EB000BDB2A8EB04000FFA80FAA9EB050006B258
:100EC000BAF1000F0BD100BF5A4629462046FFF762
:100ED000E9FE681C85B2A945F6DABDE8F09F56B96F
:100EE00000BF5A4629462046FFF7DCFE601C84B24C
:100EF000A045F6DAF1E7B24526DDCAEB460007B2B7
:100F00001AE05A4629462046FFF7CCFE444502DA4D
:100F1000601C84B201E0601E84B2002F08DD681CF2
:100F200085B27000022101FB1A00384407B203E0C9
:100F3000022000FB067007B24445E2D15A4629461A
:100F40002046FFF7AFFE25E0C6EB4A0007B21AE0E5
:100F50005A4629462046FFF7A5FE4D4502DA681C91
:100F600085B201E0681E85B2002F08DD601C84B2E6
:100F70007000022101FB1A00384407B203E002208E
:100F800000FB067007B24D45E2D15A46294620467D
:100F9000FFF788FE00BFA0E72DE9F84305460E469F
:100FA00017469846089C33463A46314628460094F0
:100FB000FFF76BFF43462A46314628460094FFF769
:100FC00064FF43463A46314638460094FFF75DFFDA
:100FD00043463A46414628460094FFF756FFBDE88F
:100FE000F8832DE9F84306460C4617461D46DDF802
:100FF000208009E023463A4621463046CDF800805D
:10100000FFF743FF601C84B2AC42F3DBBDE8F8831A
:101010002DE9FF5F05460E469046C8F101000FFA24
:1010200080F94FF0010A4FEA480040420FFA80FB76
:101030000027444606EB080291B2A8B2039AFFF7D4
:1010400031FEA6EB080291B2A8B2039AFFF72AFE7E
:10105000B1B205EB080290B2039AFFF723FEB1B2DA
:10106000A5EB080290B2039AFFF71CFE4EE0B9F11F
:10107000000F09DB601E04B20BF102000FFA80FBC7
:1010800009EB0B000FFA80F9781C07B20AF1020095
:101090000FFA80FA09EB0A000FFA80F9321991B2BF
:1010A000EA1990B2039AFFF7FDFD321991B2EA1BDB
:1010B00090B2039AFFF7F6FD321B91B2EA1990B293
:1010C000039AFFF7EFFD321B91B2EA1B90B2039A2D
:1010D000FFF7E8FDF21991B22A1990B2039AFFF7CF
:1010E000E1FDF21991B22A1B90B2039AFFF7DAFDE3
:1010F000F21B91B22A1990B2039AFFF7D3FDF21BAB
:1011000091B22A1B90B2039AFFF7CCFDA742AEDB47
:10111000BDE8FF9F180000201400002016000020EA
:101120002DE9FC5F05460E4617469946C7F10100BA
:101130000FFA80FA4FF0010B7800404200B20190A4
:101140004FF000083C46F21991B2A8B24A46FFF7A8
:10115000A9FDF21B91B2A8B24A46FFF7A3FDB1B2B6
:10116000EA1990B24A46FFF79DFDB1B2EA1B90B270
:101170004A46FFF797FDB3B205EB070C1FFA8CF256
:10118000B1B2A5EB070C1FFA8CF0CDF80090FFF779
:101190007CFE68E0BAF1000F09DB601E04B2019822
:1011A000801C00B20190019850440FFA80FA08F1B7
:1011B00001000FFA80F80BF102000FFA80FB0AEB36
:1011C0000B000FFA80FA06EB040C1FFA8CF305EB08
:1011D000080C1FFA8CF206EB040C1FFA8CF1A5EB3D
:1011E000080C1FFA8CF0CDF80090FFF74EFEA6EB2E
:1011F000040C1FFA8CF3A5EB080C1FFA8CF2A6EB7B
:10120000040C1FFA8CF105EB080C1FFA8CF0CDF8DA
:101210000090FFF73AFE06EB080C1FFA8CF3A5EBE3
:10122000040C1FFA8CF206EB080C1FFA8CF105EB8C
:10123000040C1FFA8CF0CDF80090FFF726FEA6EB09
:10124000080C1FFA8CF3A5EB040C1FFA8CF2A6EB2A
:10125000080C1FFA8CF105EB040C1FFA8CF0CDF88A
:101260000090FFF712FEA04594DBBDE8FC9F000054
:1012700010B5C94A0021C948FFF73DF910BD014624
:101280000A1102EB8202500001F00F020244D0B2B8
:1012900070473EB50446072001AB0022D0210090E4
:1012A000BE48FFF7B0FA9DF80400FFF7E8FF207092
:1012B0009DF80500FFF7E3FF60709DF80600FFF75B
:1012C000DEFFA0709DF80700FFF7D9FFE0709DF8E2
:1012D0000800FFF7D4FF20719DF80900FFF7CFFF4A
:1012E00060719DF80A00FFF7CAFFA0713EBD03467A
:1012F0008B4201DA08467047934201DD1046FAE757
:101300001846F8E70146002300220A2091FBF0F07E
:10131000C2B202EB8200A1EB4000C3B243EA02106A
:10132000C0B270473EB5044620783B220021FFF74B
:10133000DEFF0546FFF7E6FF8DF8040060783B22EC
:101340000021FFF7D4FF0546FFF7DCFF8DF805000D
:10135000A07817220021FFF7CAFF0546FFF7D2FF4A
:101360008DF80600E07807220121FFF7C0FF05464F
:10137000FFF7C8FF8DF8070020791F220121FFF732
:10138000B6FF0546FFF7BEFF8DF8080060790C2216
:101390000121FFF7ACFF0546FFF7B4FF8DF8090008
:1013A000A07963220021FFF7A2FF0546FFF7AAFFFD
:1013B0008DF80A00072001AB0022D0210090774869
:1013C000FFF74FFA3EBD10B50022D0217348FFF75A
:1013D000ACF90446FFF753FF10BD10B50122D02130
:1013E0006E48FFF7A2F90446FFF749FF10BD10B59C
:1013F0000222D0216948FFF798F90446FFF73FFF22
:1014000010BD10B50322D0216448FFF78EF90446C1
:10141000FFF735FF10BD10B50422D0215F48FFF75C
:1014200084F90446FFF72BFF10BD10B50522D0212B
:101430005A48FFF77AF90446FFF721FF10BD10B5AF
:101440000622D0215548FFF770F90446FFF717FF31
:1014500010BD70B504463B2200212046FFF747FF30
:101460000646FFF74FFF05462B460022D0214B488A
:10147000FFF77AF970BD70B504463B220021204683
:10148000FFF735FF0646FFF73DFF05462B460122D5
:10149000D0214248FFF768F970BD70B504461722A5
:1014A00000212046FFF723FF0646FFF72BFF0546E6
:1014B0002B460222D0213948FFF756F970BD70B58E
:1014C0000446072201212046FFF711FF0646FFF7D9
:1014D00019FF05462B460322D0213048FFF744F977
:1014E00070BD70B504461F2201212046FFF7FFFEA4
:1014F0000646FFF707FF05462B460422D021274862
:10150000FFF732F970BD70B504460C220121204668
:10151000FFF7EDFE0646FFF7F5FE05462B460522D2
:10152000D0211E48FFF720F970BD70B50446632234
:1015300000212046FFF7DBFE0646FFF7E3FE0546E7
:101540002B460622D0211548FFF70EF970BD70B565
:1015500005460DB9902412E0012D01D191240EE031
:10156000022D01D192240AE0032D01D1932406E03B
:10157000042D01D1802402E0052D00D10024234652
:101580000722D0210548FFF7EFF870BD10B5042001
:10159000FFF7DDFF10BD0000A086010000540040F1
:1015A00000B587B00121402000F0EBFF00208DF84E
:1015B0001A008DF81B0003208DF8190002208DF809
:1015C00018004FF4E040059005A9FD4800F038FDF3
:1015D00005220D21FA4800F0BEFD05220C21F84835
:1015E00000F0B9FD05220E21F54800F0B4FD0121FF
:1015F000480501F01EF8684601F047FC2020ADF8D0
:101600000C000020ADF80400ADF80000ADF80E00AD
:101610004FF48270ADF802000020ADF80600ADF87E
:1016200008004FF40070ADF80A006946E54801F083
:101630005FFB0121E34801F03EFC07B000BD10B59F
:1016400088B0044600208DF81E008DF81F0003208E
:101650008DF81D0002208DF81C00D4B90121202036
:1016600000F08FFF4FF46070069006A9D64800F096
:10167000E7FC05220721D44800F06DFD0522082172
:10168000D14800F068FD05220921CF4800F063FD34
:1016900023E00121202000F074FF0121802000F0D0
:1016A00070FFC020069006A9C74800F0C9FC4FF49F
:1016B0000060069006A9C44800F0C2FC05220B2178
:1016C000C14800F048FD05220621C04800F043FD56
:1016D00005220721BD4800F03EFD0121080500F06C
:1016E000A8FF01A801F0D1FB2020ADF810000020D8
:1016F000ADF80800ADF80400ADF812004FF48270A8
:10170000ADF806000020ADF80A00ADF80C004FF46B
:101710000070ADF80E0001A9AD4801F0E9FA012111
:10172000AB4801F0C8FB08B010BD10B588B0044646
:1017300000208DF81E008DF81F0003208DF81D007D
:1017400002208DF81C00CCB90121102000F019FFF7
:101750006420069006A99F4800F072FC0522022131
:101760009C4800F0F8FC052211469A4800F0F3FC72
:1017700005220621974800F0EEFC19E00121102017
:1017800000F0FFFE4FF4E040069006A9914800F0FB
:1017900057FC05220C218F4800F0DDFC05220D21AD
:1017A0008C4800F0D8FC05220E218A4800F0D3FCBA
:1017B0000121480300F03DFF01A801F066FB202055
:1017C000ADF810000020ADF80800ADF80400ADF849
:1017D00012004FF48270ADF806000020ADF80A0048
:1017E000ADF80C004FF40070ADF80E0001A97A4876
:1017F00001F07EFA0121784801F05DFB08B010BDD0
:1018000010B588B0044600208DF81E008DF81F002A
:1018100003208DF81D0002208DF81C00C4B90121A1
:1018200000F0AFFE3820069006A96C4800F008FCD6
:1018300006220321694800F08EFC06220421674835
:1018400000F089FC06220521644800F084FC19E0C0
:101850000121042000F095FE4FF4E050069006A907
:101860005F4800F0EDFB06220A215D4800F073FCA2
:1018700006220B215A4800F06EFC06220C21584823
:1018800000F069FC0121C80300F0C2FE01A801F0CC
:10189000FCFA2020ADF810000020ADF80800ADF8EB
:1018A0000400ADF812004FF48270ADF8060000207D
:1018B000ADF80A00ADF80C004FF40070ADF80E0062
:1018C00001A9484801F014FA0121464801F0F3FA51
:1018D00008B010BD10B588B0044600208DF81E0079
:1018E00001208DF81F0003208DF81D0002208DF8C7
:1018F0001C001CBB012100F044FE0121042000F06B
:1019000040FE0C20069006A9354800F099FB4FF4E4
:101910008060069006A9314800F092FB0522022162
:101920002F4800F018FC052203212D4800F013FC7D
:1019300005220A21294800F00EFC19E001210220AD
:1019400000F01FFE4FF46040069006A9234800F007
:1019500077FB05220D21214800F0FDFB05220E2119
:101960001E4800F0F8FB05220F211C4800F0F3FB95
:101970000121880300F04CFE01A801F086FA202026
:10198000ADF810000020ADF80800ADF80400ADF887
:1019900012004FF48270ADF806000020ADF80A0086
:1019A000ADF80C004FF40070ADF80E0001A90E4820
:1019B00001F09EF901210C4801F07DFA08B010BD3C
:1019C000001802400054014000140240001C024074
:1019D0000050014000100240003401400004024069
:1019E00000080240003C00400038004010B588B0BC
:1019F000044600208DF81E008DF81F0003208DF88E
:101A00001D0002208DF81C00CCB90121084600F011
:101A1000B8FDE020069006A9664800F011FB0522FB
:101A20001146644800F097FB05220621614800F04A
:101A300092FB052207215F4800F08DFB18E0012191
:101A4000022000F09EFD3820069006A95A4800F0BA
:101A5000F7FA05220321584800F07DFB05220421F6
:101A6000554800F078FB05221146534800F073FBFF
:101A70000121080300F0DDFD01A801F006FA202095
:101A8000ADF810000020ADF80800ADF80400ADF886
:101A900012004FF48270ADF806000020ADF80A0085
:101AA000ADF80C004FF40070ADF80E0001A94348EA
:101AB00001F01EF90121414801F0FDF908B010BD07
:101AC00070B504460D463D48844202D12846FFF7D2
:101AD0008DFF3B48844202D12846FFF7FBFE394880
:101AE000844202D12846FFF78BFE3748844202D158
:101AF0002846FFF71AFE3548844202D12846FFF7F0
:101B00009EFD3348844201D1FFF74AFD70BD70B598
:101B100004460D46A58100BF0221204601F083FA4C
:101B20000028F9D000BF0121204601F07CFA0028EE
:101B3000F9D000BF8021204601F075FA0028F9D1C4
:101B4000A089C0B270BD2DE9F04180460D46164611
:101B50001F46002406E0295D4046FFF7D8FF3055B8
:101B6000601CC4B2BC42F6DBBDE8F0812DE9F04157
:101B700007460D461646002405E0295D3846FFF766
:101B8000C6FF601C84B2B442F7DBBDE8F0812DE9EA
:101B9000F04180460D4616461F46002406E03146B9
:101BA0004046FFF7B4FF2855601C84B2BC42F6DB08
:101BB000BDE8F08100000240000402400030014016
:101BC00000380040003C004000340140005001401B
:101BD00000540140A0B000F013F9FFF719F84FF6D8
:101BE000E430FEF7C3FE0120FFF780F84FF6E43043
:101BF0000021264B26A2CDE900104FF49B715A20FC
:101C0000FFF7FAF8FFF734FB15208DF816001220C5
:101C10008DF8150000208DF814001A208DF818009A
:101C200001208DF8170005208DF819000E208DF881
:101C30001A0005A8FFF776FB26E005A8FFF729FBA9
:101C40009DF814009DF815109DF816209DF81A3087
:101C500003F5FA63CDE90132CDE903109DF81900CF
:101C600000909DF818309DF817200F4907A801F043
:101C70001BFA00204FF6E4310C4B07AACDE9001007
:101C80000F210A20FFF7B8F8D7E700002000002056
:101C900073746D333266342D646973636F76657265
:101CA000792E636F6D000000685C0008280000203A
:101CB0000948804709480047FEE7FEE7FEE7FEE7E0
:101CC000FEE7FEE7FEE7FEE7FEE7FEE7044805491C
:101CD000054A064B70470000011E0008AD010008D0
:101CE000C0000020C0060020C0020020C00200206A
:101CF0000CB50020019000908348006840F48030CB
:101D00008149086000BF8048006800F400300090FE
:101D10000198401C0190009818B90198B0F5A04FA7
:101D2000F1D17948006800F4003010B10120009032
:101D300001E0002000900098012860D172484030F6
:101D4000006840F080507049403108606F4800687A
:101D500040F440406D4908606B48083000686A49AB
:101D6000083108600846006840F4004008600846F2
:101D7000006840F4A05008606548091F0860081F0B
:101D8000006840F08070091F086000BF5E4800686E
:101D900000F000700028F9D05C48006840F4803002
:101DA0005A49086000BF5948406800F48030002854
:101DB000F9D05648006840F400305449086000BF2C
:101DC0005248406800F400300028F9D040F2057015
:101DD000504908604C480830006820F003004A4928
:101DE000083108600846006840F00200086000BF43
:101DF00045480830006800F00C000828F8D10CBDF8
:101E000010B54548006840F47000434908603E48FA
:101E1000006840F001003C49086000203A49083160
:101E20000860394800683D490840374908603C4827
:101E3000091D0860081F006820F48020091F086041
:101E4000002031490C310860FFF752FF4FF000606D
:101E500031498039086010BD70B50020002202238E
:101E600000240221284D08352D6805F00C0020B112
:101E7000042806D0082834D107E02A4D2A4E3560C0
:101E800033E02A4D284E35602FE01F4D2D1D2D6863
:101E9000C5F380541C4D2D1D2D6805F03F0154B134
:101EA000224DB5FBF1F5184E361D3668C6F388167F
:101EB00005FB06F209E01B4DB5FBF1F5124E361D90
:101EC0003668C6F3881605FB06F20F4D2D1D2D68EA
:101ED000C5F301456D1C6B00B2FBF3F5124E356086
:101EE00003E0104D104E356000BF00BF064D0835B1
:101EF0002D68C5F303150E4E705D0B4D2D68C54062
:101F0000094E356070BD000000380240007000408E
:101F1000085A4007003C024088ED00E0FFFFF6FE53
:101F2000103000240024F4003800002000127A0051
:101F30003C00002010B504469848844208D1012195
:101F4000084600F087FB0021012000F083FB76E0CB
:101F50009348844208D10121022000F07BFB00213C
:101F6000022000F077FB6AE08E48844208D101210C
:101F7000042000F06FFB0021042000F06BFB5EE00A
:101F80008948844208D10121082000F063FB002128
:101F9000082000F05FFB52E08448844208D1012110
:101FA000102000F057FB0021102000F053FB46E00A
:101FB0007F48844208D10121202000F04BFB002102
:101FC000202000F047FB3AE07A48844208D1012102
:101FD000402000F03FFB0021402000F03BFB2EE0C2
:101FE0007548844208D10121802000F033FB002194
:101FF000802000F02FFB22E07048844208D10121AC
:10200000801500F027FB0021A01500F023FB16E04F
:102010006B48844208D10121401500F01BFB0021D0
:10202000601500F017FB0AE06648844207D10121E1
:10203000001500F00FFB0021201500F00BFB10BD78
:10204000F0B50A4600210023002400BF3DE0012531
:1020500005FA01F3156805EA03049C4234D10568CA
:102060004F000326BE40B543056015794E00B540CC
:102070000668354305601579012D02D01579022DCA
:1020800016D185684F000326BE40B543856055795B
:102090004E00B540866835438560456801268E4010
:1020A000B5434560456896798E40B6B23543456084
:1020B000C5684F000326BE40B543C560D5794E00C4
:1020C000B540C6683543C560491C1029BFD3F0BD73
:1020D0004FF6FF7101600021017141718171C17181
:1020E000704708B54FF480320092009A0A4300927C
:1020F000009AC261C161009AC261C2690092C2695C
:10210000009208BD0246002013690B400BB101206C
:1021100000E0002070470146086980B2704702461F
:10212000002053690B400BB1012000E000207047F4
:102130000146486980B27047018370474183704708
:102140000AB1018300E041837047416170474269F1
:102150004A4042617047F0B5002300244D07ED0E60
:1021600002FA05F3CE1000F1200555F826504E076F
:10217000F70E0F26BE40B543CF1000F1200646F8FB
:102180002750CE1000F1200555F8265045EA0304EB
:10219000CE1000F1200545F82640F0BD00000240B9
:1021A0000004024000080240000C024000100240FF
:1021B0000014024000180240001C024000200240AF
:1021C0000024024000280240F648006840F0010068
:1021D000F44908600020F34908310860F1480068BC
:1021E000F1490840EF490860F048091D0860F048CF
:1021F000EC4984310860ED481038091D0860E94851
:10220000006820F48020E74908600020E5490C318F
:102210000860E4498C31086070470021E14A921C53
:10222000117011460870704710B501460022002356
:1022300000204A11012A02D1DA4C236808E0022A60
:1022400003D1D84C7034236802E0D64C7434236830
:1022500001F01F02012494401C400CB1012000E059
:10226000002010BD38B5002000900024002500BFDC
:102270003120FFF7D9FF05460098401C00900098D8
:10228000B0F5A04F01D0002DF2D03120FFF7CCFFE8
:1022900008B1012400E00024204638BD014600209A
:1022A000C04A106820F0F80040EAC1001060704792
:1022B000C049086070470021BA4A7032117011702D
:1022C000012802D004280AD104E00121B54A703265
:1022D000117005E00521B34A7032117000E000BFB3
:1022E00000BF7047B4490860704770B5049C41EA6C
:1022F00082150126C6EB530645EA0645054345EA25
:102300000465A84E361D356070BDAA490866704741
:1023100010B5830143EA016343EA0273A14C84349C
:10232000236010BDA3498866704710B5830143EA56
:10233000016343EA02739B4C8834236010BD9D49BE
:10234000086770479B49C864704702460020954B58
:102350000833186820F0EC6042EA01031843914BFF
:10236000083318607047024600208E4B0833186807
:1023700020F0784042EA010318438A4B0833186082
:10238000704701460020874A0832106820F0030099
:1023900008431060704783480830006800F00C0064
:1023A0007047014600207F4A0832106820F0F00094
:1023B000084310607047014600207A4A08321068CE
:1023C00020F4E05008431060704701460020754A31
:1023D0000832106820F4604040EAC1001060704785
:1023E000F0B50021002200240225002602236D4FB3
:1023F00008373F6807F00C0121B1042905D00829EE
:1024000037D105E06D4F076036E06D4F076033E070
:10241000644F3F1D3F68C7F38056624F3F1D3F68C2
:1024200007F03F036EB1664FB7FBF3F7DFF874C1F7
:102430000CF1040CDCF800C0CCF3881C07FB0CF496
:102440000CE05E4FB7FBF3F7DFF858C10CF1040C5A
:10245000DCF800C0CCF3881C07FB0CF4514F3F1D87
:102460003F68C7F301477F1C7D00B4FBF5F70760A9
:1024700002E0524F076000BF00BF4A4F08373F6875
:1024800007F0F00109094F4F7A5C0768D7404760B1
:10249000444F08373F6807F4E051890A494F7A5C96
:1024A0004768D74087603F4F08373F6807F460416F
:1024B000490B444F7A5C4768D740C760F0BD0021A4
:1024C00000F44072B2F5407F0AD1364A08321168F2
:1024D00021F4F8113C4A02401143324A083211609B
:1024E000304A70321268C0F30B031A432D4B70331D
:1024F0001A60704730494439086070472E494039A6
:102500000860704731490860704701460020254A3D
:102510008C32106820F01F004A1E1043214A8C3272
:1025200010607047014600201E4A8C32106820F46B
:10253000F8504A1E40EA02201A4A8C321060704756
:1025400001460020174A8C32106820F440100843DE
:102550001060704701460020124A8C32106820F447
:102560004000084310607047014600200D4A8C323D
:10257000106820F440300843106070471449086028
:10258000704739B1074A303212680243054B303385
:102590001A6006E0034A303212688243014B30333E
:1025A0001A60704700380240FFFFF6EA103000243E
:1025B0000030002000004742800E47420024F40013
:1025C00000127A004C000020FFFCFF0F5C01474224
:1025D000E011474229B1894A12680243874B1A60C9
:1025E00004E0864A12688243844B1A60704739B10E
:1025F000824A121D12680243804B1B1D1A6006E0BE
:102600007E4A121D126882437C4B1B1D1A60704764
:1026100039B17A4A0C3212680243784B0C331A6093
:1026200006E0764A0C3212688243744B0C331A600F
:10263000704739B1714A1032126802436F4B103340
:102640001A6006E06D4A1032126882436B4B1033F9
:102650001A60704739B1694A243A12680243674BDD
:10266000243B1A6006E0654A243A12688243634BB1
:10267000243B1A60704739B1604A203A126802431D
:102680005E4B203B1A6006E05C4A203A12688243A7
:102690005A4B203B1A60704739B1584A1C3A1268AD
:1026A0000243564B1C3B1A6006E0544A1C3A12681F
:1026B0008243524B1C3B1A60704739B14F4A143A5F
:1026C000126802434D4B143B1A6006E04B4A143A21
:1026D00012688243494B143B1A60704739B1474A2C
:1026E000103A12680243454B103B1A6006E0434A19
:1026F000103A12688243414B103B1A60704739B15F
:102700003E4A1C32126802433C4B1C331A6006E0FE
:102710003A4A1C3212688243384B1C331A607047A5
:1027200039B1364A203212680243344B20331A60E2
:1027300006E0324A203212688243304B20331A605E
:10274000704739B12D4A2432126802432B4B24338F
:102750001A6006E0294A243212688243274B243348
:102760001A60704739B1254A2C3212680243234B54
:102770002C331A6006E0214A2C32126882431F4B28
:102780002C331A60704739B11C4A30321268024348
:102790001A4B30331A6006E0184A3032126882430E
:1027A000164B30331A60704739B1144A273A127801
:1027B0000243124B273B1A7006E0104A273A127860
:1027C00082430E4B273B1A7070470C48403000681C
:1027D00040F0807009494031086070470146002090
:1027E000064A283A12680A400AB1012000E0002097
:1027F000704702492639087070470000343802409B
:1028000010B50446F848844209D101214805FFF774
:1028100054FF00214FF40010FFF74FFF18E0F3487A
:10282000844209D101218805FFF747FF00214FF4B9
:102830008000FFF742FF0BE0ED48844208D1012100
:10284000C805FFF73AFF00214FF40000FFF735FFFE
:1028500010BD2DE9FF4704460D460026B14604276A
:10286000DFF89083A6884FF6C07006406846FFF7F1
:10287000B7FDDDF80880E048B8FBF0F01FFA80F9FA
:1028800046EA0906A68020884FF6FE71084020809F
:102890000026DA49286888420CD828684000B8FB2E
:1028A000F0F087B2042F00DA04273E4309F101005B
:1028B000208427E0E8884BF6FF71884206D128681B
:1028C00000EB4000B8FBF0F087B209E0286800EBAD
:1028D000C00101EB0010B8FBF0F087B247F480476D
:1028E000C7F30B0008B947F0010747F4004006435F
:1028F0004FF4967009FB00F04FF47A7190FBF1F001
:10290000401C2084A683208840F001002080268877
:102910004FF6F5300640A8886989084306432680AB
:10292000A889298908432081BDE8FF8741F28831C1
:102930000160002181804BF6FF71C180002101817F
:1029400041814FF480418181704721B1028842F07A
:102950000102028004E002884FF6FE731A400280F2
:10296000704729B1828C4FF6EF731A40828403E0DE
:10297000828C42F01002828470470A460021818CCA
:102980004FF6F073194002F00F031943818470472A
:1029900021B1028842F48072028004E002884FF67E
:1029A000FF631A400280704721B1028842F400722E
:1029B000028004E002884FF6FF531A4002807047FD
:1029C00012B141F0010101E001F0FE010182704706
:1029D00021B1028842F48062028004E002884FF64E
:1029E000FF331A40028070470A46002181894FF662
:1029F0000173194002F0FE0319438181704721B130
:102A0000828942F00102828104E082894FF6FE73DE
:102A10001A408281704721B1028842F04002028050
:102A200004E002884FF6BF731A400280704721B15C
:102A3000028842F40042028003E00288C2F30E02E0
:102A40000280704721B9028842F08002028004E0CF
:102A500002884FF67F731A4002807047B1F5804FAD
:102A600005D0828B4BF6FF731A40828303E0828B82
:102A700042F4804282837047B1F5006F04D102882E
:102A800042F40062028004E002884FF2FF731A40B1
:102A900002807047B1F5005F04D1028842F4005211
:102AA000028004E002884DF6FF731A4002807047EE
:102AB00021B1028842F01002028004E002884FF641
:102AC000EF731A4002807047018270470146088AFE
:102AD000C0B2704721B1028842F48052028004E003
:102AE00002884EF6FF731A4002807047B1F5006FFE
:102AF00004D1028842F40062028004E002884FF2AE
:102B0000FF731A400280704721B1028842F0200210
:102B1000028004E002884FF6DF731A40028070479B
:102B20000146088B0012704721B1828842F400628E
:102B3000828004E082884FF2FF731A4082807047DF
:102B400021B1828842F48052828004E082884EF66D
:102B5000FF731A408280704708B50246002000903B
:102B600000920098084400900098008808BD1AB1AF
:102B700083880B43838002E083888B438380704784
:102B800070B502460024002500230020958A138B8F
:102B90001B0445EA030626F07F4404EA01068E4240
:102BA00001D1012000E0002070BD10B501460020D9
:102BB000002300228B8A0A8B120443EA020424F0C9
:102BC0007F4010BD0CB50246002000230193009306
:102BD00000920B0F019321F07F41019B83B1009B79
:102BE0001433009310E000000054004000580040EF
:102BF000005C004000127A0040420F00A0860100F5
:102C0000090C009B18330093009B1B680B400BB111
:102C1000012000E000200CBD002221F07F42D343C0
:102C20008382704730B5024600200023948801F06B
:102C3000E06504EA154321F07F41948A0C4014B109
:102C40000BB1012000E0002030BD002221F07F42C6
:102C5000D34383827047000010B50446F64884428F
:102C600008D101218014FFF739FD0021A014FFF7DE
:102C700035FD3CE0F148844208D101210014FFF702
:102C80001CFD00212014FFF718FD30E0EC488442C1
:102C900008D10121C013FFF710FD0021E013FFF759
:102CA0000CFD24E0E748844208D101214014FFF7DD
:102CB00015FD00216014FFF711FD18E0E248844281
:102CC00009D101210805FFF709FD00214FF480100B
:102CD000FFF704FD0BE0DD48844208D101214805DF
:102CE000FFF7FCFC00214FF40010FFF7F7FC10BDCC
:102CF00010B50022028802F441520B884C8823430D
:102D00008C882343CC8823430C8923434C89234359
:102D10008C892343CC8923431A430280838B4FF24F
:102D2000FF74234083830B8A038210BD2DE9F04F8B
:102D30000025022300240127002200269446904605
:102D40009146B0F81CA04FF2400B0AEA0B0AA0F81B
:102D50001CA04FF0020AA0F820A0858BD1F808A093
:102D6000BAF1020F01D100BF6CE0B1F804A0BAF1D2
:102D7000000F01D1012700E00227DFF8D4A2DAF822
:102D800000A00AF4000ABAF1000F09D0DFF8C0A2CF
:102D9000DAF800A02AF4000ADFF8B4B2CBF800A0F9
:102DA000DFF8ACA20AF17C0ADAF800A0CAF38818AE
:102DB000DFF89CA20AF17C0ADAF800A0CAF30279D3
:102DC000DFF88CA2AAF1040ADAF800A00AF03F0C9E
:102DD000DFF880A2BAFBFCFA0AFB08FABAFBF9F6A4
:102DE000B1F806A0BAF5007F0ED14FEA162A0AEB19
:102DF0008A0A4FEA4A0AD1F808B0BAFBFBFA0AF18C
:102E0000050A1FFA8AF20FE04FEA471AB6FBFAFAF0
:102E10000AEB8A0A4FEA4A0AD1F808B0BAFBFBFA71
:102E20000AF1050A1FFA8AF24FF00A0AB2FBFAF217
:102E300002F00104A2EB040ACAF34F034FF6FF7A33
:102E40000AEA0424022B01DBFF2B01DD022300240C
:102E5000B1F806A04AEA040A4AEA030AA0F820A048
:102E6000B1F804A0B1F80CB04AEA0B0AB1F802B00C
:102E70004AEA0B0AB1F800B04AEA0B0A4AF4006ABF
:102E80004AEA05058583BDE8F08F00210180418075
:102E90008180C180018141818181C18107210182BD
:102EA00070470021018041808180C18002218160C2
:102EB00000218181704721B1028842F040020280E6
:102EC00004E002884FF6BF731A400280704721B1B8
:102ED000828B42F48062828304E0828B4FF6FF3360
:102EE0001A408283704702884FF2FF731A400280B3
:102EF00002880A4302807047B1F5804F04D10288EE
:102F000042F48042028004E002884BF6FF731A40CC
:102F1000028070474FF6FF62914204D0028842F46B
:102F20008072028004E002884FF6FF631A4002803C
:102F3000704721B1828842F00402828004E08288D6
:102F40004FF6FB731A408280704721B1828842F0AD
:102F50001002828004E082884FF6EF731A4082806C
:102F6000704730B500220023848B4FF240052C407F
:102F7000848302240484828B0C88B4F5007F01D002
:102F80000C8814B94FF4807308E00C88B4F5407FC6
:102F900003D00C88B4F5807F00D100238C888D8904
:102FA0002C434D882C431C4344F400642243828309
:102FB00030BD0146888970478181704721B1028800
:102FC00042F40052028004E002884DF6FF731A407A
:102FD00002807047018841F48051018070470246A9
:102FE0000020012901D0108B00E0908A7047014633
:102FF000088A70471AB183880B43838002E0838874
:103000008B438380704730B5002400230C110125C9
:10301000A540ABB21AB185881D43858002E0858842
:103020009D43858030BD0246002013890B400BB1C3
:10303000012000E0002070470030014000380040CF
:10304000003C004000340140005001400054014069
:103050000838024000127A00CA4302817047F0B576
:103060000246002000240023002501F00F0701265E
:10307000BE40B4B20B1101269E40B3B2968806EA58
:1030800003051689264016B10DB1012000E000208D
:10309000F0BD10B5002201F00F040123A3409AB245
:1030A000D343038110BD00000FB41CB5074B06AA23
:1030B0007B4469460090059800F069F90020694654
:1030C00000F078F91CBC5DF814FB0000010300005F
:1030D00070B5044685690068C10601D5302600E058
:1030E0002026C00707D070BDD4E9012130469047A3
:1030F000206A401C20626D1EF6D570BD70B5044676
:1031000085690078C00707D170BDD4E9012120206E
:103110009047206A401C20626D1EF6D570BD0000ED
:103120002DE9F0410646002410687529314615A5A1
:1031300010D0AFF30080002802DA404212A507E069
:1031400031688A0701D511A502E0490704D510A509
:10315000012401E0AFF3008000210A2306F12407D7
:1031600007E0B0FBF3F203FB120030307854104656
:10317000491C0028F5D123462A463046BDE8F041D7
:1031800000F0A7B8000000002D0000002B00000098
:10319000200000002DE9F05F894604464FF0000A48
:1031A000DFF824B1FB44C0F820A02046E16888473E
:1031B00000287DD0252806D0D4E901219047206A37
:1031C000401C2062F1E700255F462046E168884701
:1031D0002028064607DB312E05D2B81910F8200C3E
:1031E00008B10543F1E7A80701D525F00405C4F8A7
:1031F0001CA00027C4F818A02A2E09D0304600F0E1
:1032000014F938B304EB8708303EC8F8186019E0A9
:1032100059F8041B204604EB87029161E168884756
:10322000012F064618D1E069002820DA25F0200594
:103230001DE0D8F8180000EB800006EB40003038A5
:10324000C8F818002046E1688847064600F0EDF807
:103250000028EED1012F0AD02E2E08D12046E16899
:1032600088477F1C0646022F45F02005C4DBA06975
:10327000002803DA404245F00105A061E80701D0CB
:1032800025F01005A6B1A6F14100192802D8203674
:1032900045F400654A463146204625604D46FCF718
:1032A000BFFF60B1012807D0ED1D25F0070000E049
:1032B00007E000F1080978E705F1040975E73046F1
:1032C0007AE7206ABDE8F09FAE2A00007047704799
:1032D00070472DE9F0470D4699469246044600F1A5
:1032E00024080168880604D5E06921F010012160F6
:1032F00000E00120A84201DD471B00E00027A16992
:103300007A1902EB0900081AA0612078C00602D4DD
:103310002046FFF7DDFE002608E0D4E901211AF877
:1033200006009047206A401C761C20624E45F4DB64
:103330002078C0060AD52046FFF7CAFE06E0D4E989
:10334000012130209047206A401C2062381EA7F1DE
:103350000107F4DC07E0D4E9012118F805009047E3
:10336000206A401C2062281EA5F10105F3DC2046DE
:10337000FFF7C4FE2078000602D50220BDE8F087E2
:103380000120FBE701694A1C02610878704700B51B
:103390008FB0CDE901310021059105497944CDE98E
:1033A000031011466846FFF7F5FE0FB000BD0000A0
:1033B000E5FFFFFF0A6802F8010B0A6070477546D7
:1033C00000F028F8AE4605006946534620F0070095
:1033D000854618B020B5FEF779FCBDE820404FF0D7
:1033E00000064FF000074FF000084FF0000B21F0EF
:1033F0000701AC46ACE8C009ACE8C009ACE8C009BC
:10340000ACE8C0098D4670470446AFF30080204603
:10341000FCF71AFF004870475C00002001491820A3
:10342000ABBEFEE726000200704730380A2801D202
:1034300001207047002070474FF04070E1EE100A05
:1034400070470000000000000000000000000000C5
:10345000000000000000001000100010001000101C
:1034600000100000001000000000002800280028C4
:103470000000000000000000000000000000002428
:103480000024007C00240048007C00480048000024
:10349000000000380054005000380014005400545C
:1034A00000380010000000200054005800300028B0
:1034B000005400140008000000000010002800283C
:1034C00000100034004800480034000000000010E4
:1034D00000100010000000000000000000000000CC
:1034E0000000000800100020002000200020002024
:1034F000002000100008002000100008000800084C
:10350000000800080008001000200010003800101B
:103510000028000000000000000000000000000083
:10352000000000100010007C0010001000000000DF
:10353000000000000000000000000000000000008B
:10354000001000100010000000000000000000004B
:103550000038000000000000000000000000000033
:103560000000000000000000001000000000000843
:1035700000080010001000100010002000200000C3
:10358000000000380044004400540044004400445B
:103590000038000000000010003000500010001043
:1035A000001000100010000000000038004400442B
:1035B0000004000800100020007C0000000000381B
:1035C0000044000400180004000400440038000017
:1035D000000000080018002800280048007C0008AF
:1035E000000800000000007C00400040007800045B
:1035F000000400440038000000000038004400408F
:103600000078004400440044003800000000007CC2
:10361000000400080010001000200020002000001E
:1036200000000038004400440038004400440044D6
:103630000038000000000038004400440044003C12
:1036400000040044003800000000000000000010EA
:10365000000000000000000000100000000000005A
:10366000000000000010000000000000001000102A
:10367000001000000000000C003000400030000C82
:10368000000000000000000000000000007C0000BE
:10369000007C00000000000000000000000000604E
:1036A000001800040018006000000000000000384E
:1036B000004400040008001000100000001000008A
:1036C000000000380044004C0054005C0040004002
:1036D0000038000000000010002800280028002802
:1036E000007C0044004400000000007800440044D6
:1036F00000780044004400440078000000000038D6
:1037000000440040004000400040004400380000F9
:103710000000007000480044004400440044004899
:10372000007000000000007C00400040007C004071
:1037300000400040007C00000000007C0040004091
:1037400000780040004000400040000000000038C9
:10375000004400400040005C004400440038000089
:103760000000004400440044007C00440044004445
:10377000004400000000003800100010001000108D
:1037800000100010003800000000000400040004D5
:10379000000400040004004400380000000000445D
:1037A00000480050006000500048004800440000FD
:1037B0000000004000400040004000400040004049
:1037C000007C000000000044006C006C00540044C9
:1037D0000044004400440000000000440064006411
:1037E00000540054004C004C00440000000000381D
:1037F00000440044004400440044004400380000F9
:10380000000000780044004400440078004000407C
:103810000040000000000038004400440044004420
:1038200000440054003800040000007800440044C4
:1038300000440078004800480044000000000038C0
:10384000004400400030000800040044003800003C
:103850000000007C0010001000100010001000108C
:1038600000100000000000440044004400440044F4
:1038700000440044003800000000004400440044BC
:10388000002800280028001000100000000000445C
:103890000044005400540054006C0028002800002C
:1038A0000000004400280028001000100028002814
:1038B00000440000000000440044002800280010DC
:1038C00000100010001000000000007C0004000840
:1038D0000010001000200040007C000000000018D4
:1038E0000010001000100010001000100010001058
:1038F0000018002000200010001000100010000828
:10390000000800000000003000100010001000103F
:1039100000100010001000100030001000280028D7
:103920000044000000000000000000000000000053
:103930000000000000000000000000000000000087
:1039400000FE002000100000000000000000000049
:103950000000000000000000000000380044003CAF
:103960000044004C003400000000004000400058BB
:10397000006400440044006400580000000000009F
:1039800000000038004400400040004400380000BF
:103990000000000400040034004C00440044004CCB
:1039A0000034000000000000000000380044007CEB
:1039B00000400044003800000000000C0010007CB3
:1039C00000100010001000100010000000000000A7
:1039D00000000034004C00440044004C003400045B
:1039E0000078004000400058006400440044004457
:1039F00000440000000000100000007000100010E3
:103A00000010001000100000000000100000007006
:103A100000100010001000100010001000E0004026
:103A20000040004800500060005000480044000082
:103A300000000070001000100010001000100010B6
:103A40000010000000000000000000780054005446
:103A50000054005400540000000000000000005812
:103A600000640044004400440044000000000000E2
:103A700000000038004400440044004400380000C6
:103A8000000000000000005800640044004400648E
:103A9000005800400040000000000034004C00448A
:103AA0000044004C003400040004000000000058F2
:103AB00000640040004000400040000000000000A2
:103AC00000000038004400300008004400380000C6
:103AD00000000020002000780020002000200020AE
:103AE00000180000000000000000004400440044F2
:103AF0000044004C003400000000000000000044BE
:103B000000440028002800280010000000000000E9
:103B10000000005400540054006C002800280000ED
:103B200000000000000000440028001000100028E1
:103B30000044000000000000000000440044002891
:103B40000028001000100010006000000000007C41
:103B50000008001000200040007C00000000001859
:103B600000100010001000200020001000100010B5
:103B700000180010001000100010001000100010BD
:103B8000001000100010003000100010001000089D
:103B900000080010001000100030000000000000BD
:103BA0000074004C00000000000000000000000055
:103BB0000000000000000000000000000000000005
:103BC00000000000000000000000000000000000F5
:103BD00000000000000C000C000C000C000C000C9D
:103BE000000C000C000C000C000C0000000C000C81
:103BF0000000000000000000001B001B001B001B59
:103C0000001B000000000000000000000000000099
:103C10000000000000000000000000008019801972
:103C200080198019C07FC07F80190033C07FC07F9A
:103C300000330033003300330000000000000000B8
:103C4000001E003F807580650074003C001E000768
:103C50008005806580658075003F001E00040004BB
:103C600000000000007000D840D8C0D880D9007390
:103C70000006000C801BC036C066C046C00680032C
:103C80000000000000000000001E003F0033003371
:103C90000033001E000CC03CC066806380618063FE
:103CA000C03E801C0000000000000000000C000C62
:103CB000000C000C000C00000000000000000000E0
:103CC0000000000000000000000000000000800074
:103CD00000010003000600060004000C000C000CAC
:103CE000000C000C000C000400060006000300019C
:103CF0008000002000100018000C000C00040006DA
:103D0000000600060006000600060004000C000C79
:103D10000018001000200000000C002D003F001EC5
:103D20000033000000000000000000000000000060
:103D30000000000000000000000000000000000083
:103D4000000C000C000C000CC0FFC0FF000C000CAD
:103D5000000C000C0000000000000000000000004B
:103D60000000000000000000000000000000000053
:103D70000000000000000000000C000C0004000423
:103D8000000800000000000000000000000000002B
:103D900000000000001E001E0000000000000000E7
:103DA0000000000000000000000000000000000013
:103DB0000000000000000000000000000000000003
:103DC000000C000C000000000000000000030003D5
:103DD00000030006000600060006000C000C000CA4
:103DE000000C00180018001800000000000000007F
:103DF000001E003F0033806180618061806D806DB6
:103E00008061806180610033003F001E000000007F
:103E1000000000000006000E001E0036002600060E
:103E20000006000600060006000600060006000662
:103E30000000000000000000001E003F8073806151
:103E40008061800100030006000C00180030006053
:103E5000807F807F0000000000000000001C003E0A
:103E6000006300630003000E000E00038001800168
:103E700080618073003F001E000000000000000011
:103E80000006000E000E001E001E00160036003652
:103E90000066807F807F00060006000600000000AC
:103EA00000000000007F007F006000600060006E86
:103EB000007F80638001800180618073003F001E6D
:103EC0000000000000000000001E003F8033806101
:103ED0000060006E007F807380618061806180334C
:103EE000003F001E0000000000000000807F807F77
:103EF00080010003000300060006000C000C000C0B
:103F00000008001800180018000000000000000061
:103F1000001E003F8063806180610021001E003F21
:103F20008061806180618061003F001E00000000B0
:103F300000000000001E003F00738061806180610E
:103F40008073803F801D800180610073003F001EF0
:103F50000000000000000000000000000000000061
:103F6000000C000C00000000000000000000000039
:103F7000000C000C00000000000000000000000029
:103F8000000000000000000C000C00000000000019
:103F900000000000000C000C0004000400080000F9
:103FA00000000000000080008003000E0038006068
:103FB0000038000E800380000000000000000000B8
:103FC000000000000000000000000000807F807FF3
:103FD00000000000807F807F0000000000000000E3
:103FE0000000000000000000000000000000004091
:103FF0000070001C000780010007001C00700040DA
:10400000000000000000000000000000001F803FD2
:10401000C071C060C000C00180030007000E000C2A
:10402000000C0000000C000C00000000000000006C
:10403000001E003F803180718063806F806D806DD5
:10404000806F806700600032003E001C00000000AE
:1040500000000000000E000E001B001B001B001BD8
:1040600080318031803F803F8031C060C060C0605F
:104070000000000000000000007C007E0063006380
:1040800000630063007E007E006380618061806366
:10409000007F007E0000000000000000001E003FC6
:1040A000803180610060006000600060006000603E
:1040B00080618031003F001E000000000000000011
:1040C000007C007F0063806380618061806180612B
:1040D0008061806100630063007E007C000000005E
:1040E00000000000807F807F006000600060006052
:1040F000007F007F0060006000600060807F807F44
:104100000000000000000000807F807F00600060F1
:1041100000600060007F007F006000600060006061
:10412000006000600000000000000000001E003F72
:104130008031806100600060006080638063806126
:1041400080618031803F001E000000000000000000
:10415000806180618061806180618061807F807F1B
:104160008061806180618061806180610000000009
:1041700000000000003F003F000C000C000C000C91
:10418000000C000C000C000C000C000C003F003F69
:10419000000000000000000080018001800180011B
:1041A00080018001800180018001806180618073D5
:1041B000003F001E0000000000000000C0608061A1
:1041C000006300660066006C0078007C0066006694
:1041D000006380618061C06000000000000000009A
:1041E00000600060006000600060006000600060CF
:1041F0000060006000600060807F807F0000000041
:1042000000000000C071C071C07BC07AC06AC06A83
:10421000C06EC064C060C060C060C060C060C0608C
:1042200000000000000000008071807180798079BA
:104230008079806D806D806D806580678067806724
:10424000806380630000000000000000001E003F4B
:104250000033806180618061806180618061806104
:1042600080610033003F001E0000000000000000DD
:10427000007E007F80638061806180618063007F59
:10428000007E0060006000600060006000000000D0
:1042900000000000001E003F0033806180618061EB
:1042A000806180618061806580670033803F401E4F
:1042B0000000000000000000007E007F806380613D
:1042C00080618063007F007E006600630063806120
:1042D0008061C0600000000000000000000E001FB0
:1042E0008031803100300038001E0007800380617B
:1042F00080618031003F001E0000000000000000CF
:10430000C0FFC0FF000C000C000C000C000C000CE7
:10431000000C000C000C000C000C000C0000000055
:104320000000000080618061806180618061806147
:10433000806180618061806180618073003F001EC8
:104340000000000000000000C060C060C06080315C
:1043500080318031001B001B001B001B000E000E73
:10436000000E00040000000000000000C0C0C0C03B
:10437000C0C0C0C0C0C0C0CC804C804C805E8052E9
:1043800080528073806180610000000000000000A6
:10439000C0C0806080610033003B001E000C000C38
:1043A000001E001F003B80718061C0C00000000043
:1043B00000000000C0C08061806100330033001E37
:1043C000001E000C000C000C000C000C000C000C7B
:1043D0000000000000000000803F803F80010003DB
:1043E00000030006000C000C0018001800300060EC
:1043F000807F807F000000000000000F000F000C95
:10440000000C000C000C000C000C000C000C000C4C
:10441000000C000C000C000C000C000F000F000042
:10442000001800180018000C000C000C000C00060E
:104430000006000600060003000300030000000061
:104440000000001E001E0006000600060006000612
:10445000000600060006000600060006000600062C
:104460000006001E001E0000000C000C001E0012C2
:104470000033003380618061000000000000000014
:10448000000000000000000000000000000000002C
:10449000000000000000000000000000000000001C
:1044A00000000000000000000000E0FF000000002D
:1044B00000380018000C00000000000000000000A0
:1044C00000000000000000000000000000000000EC
:1044D000000000000000000000000000001F803FFE
:1044E00080618001801F803F80618063807FC03851
:1044F000000000000000000000600060006000603C
:10450000006E007F80738061806180618061807354
:10451000007F006E000000000000000000000000AE
:1045200000000000001E003F80738061006000609A
:1045300080618073003F001E00000000000000004A
:104540008001800180018001801D803F8073806137
:104550008061806180618073803F801D0000000069
:10456000000000000000000000000000001E003FEE
:1045700000738061807F807F00608071003F001E3B
:104580000000000000000000C007C00F000C000C7D
:10459000807F807F000C000C000C000C000C000CD5
:1045A000000C000C000000000000000000000000F3
:1045B0000000801D803F8073806180618061806128
:1045C0008073803F801D80018063007F003E00007B
:1045D0000060006000600060006F807F807180611B
:1045E0008061806180618061806180610000000085
:1045F000000000000006000600000000003E003E33
:10460000000600060006000600060006000600067A
:104610000000000000000006000600000000003E50
:10462000003E000600060006000600060006000622
:10463000000600060046007E003C000000600060AE
:1046400000600060806100630066006C007C0076A2
:10465000006300638061C060000000000000000093
:10466000003E003E000600060006000600060006AA
:104670000006000600060006000600060000000016
:1046800000000000000000000000000080DDC0FF0E
:10469000C0CEC0CCC0CCC0CCC0CCC0CCC0CCC0CCB8
:1046A000000000000000000000000000000000000A
:1046B000006F807F80718061806180618061806136
:1046C0008061806100000000000000000000000028
:1046D00000000000001E003F8073806180618061E7
:1046E00080618073003F001E000000000000000099
:1046F000000000000000006E007F80738061806118
:10470000806180618073007F006E006000600060E7
:1047100000600000000000000000801D803F8073EA
:1047200080618061806180618073803F801D800135
:1047300080018001800100000000000000000000F6
:104740000067803F0039003000300030003000301A
:1047500000300030000000000000000000000000F9
:1047600000000000001E803F80610060007F803FED
:1047700080018061007F001E00000000000000003A
:104780000000000800180018007F007F00180018C3
:104790000018001800180018801F800F000000008B
:1047A0000000000000000000000000008061806147
:1047B000806180618061806180618063807F803DF5
:1047C00000000000000000000000000000000000E9
:1047D000C060803180318031001B001B001B000E47
:1047E000000E0006000000000000000000000000B5
:1047F0000000000080DD80DD80DD005500550055A3
:104800000077007700220022000000000000000076
:104810000000000000000000806100330033001E33
:10482000000C000C001E003300338061000000000B
:104830000000000000000000000080618061803105
:1048400000330033001B001B001B000E000E000E87
:10485000001C007C00700000000000000000000050
:10486000C07FC07F800100030006000C00180030EC
:10487000C07FC07F000000000000800380070006AA
:104880000006000600060006000E001C001C000EBC
:1048900000060006000600060006800780030006EA
:1048A00000060006000600060006000600060006D8
:1048B00000060006000600060006000600060006C8
:1048C00000060038003C000C000C000C000C000C32
:1048D000000E00070007000E000C000C000C000C7E
:1048E000000C003C00380000000000000000000048
:1048F000000000008038807F0047000000000000BA
:1049000000000000000000000000000000000000A7
:104910000000000000000000000000000000000097
:104920000000000000000000000000000000000087
:104930000000000000000000000000000000E00394
:10494000E003E003E003E003E003E003E003C0036F
:10495000C003C001C001C001C001C00100000000CF
:104960000000E003E003E00300000000000000009E
:1049700000003C1E3C1E3C1E3C1E3C1E3C1E3C1EC1
:104980000000000000000000000000000000000027
:104990000000000000000000000000000000000017
:1049A000000000000000CE01CE03DE039E039C0346
:1049B0009C07FF3FFF7F3807380F780F780F780E7E
:1049C000FFFFFFFFF01EF01CE01CE03CE03DE03983
:1049D00000000000000000000000FC03FE0FEE1FBE
:1049E000E01EE01EE01EE01EE01FE00FE007F00307
:1049F000FC01FE01FE01FE01FE01FE01FE01FE3D85
:104A0000FC3FF00FE001E001000000000000033E69
:104A100007F78FE78EE79EE3BCE3B8E7F8E7F0F728
:104A2000E03FC001FF03FF07F307F30FF31EF33C62
:104A3000F338F3787FF03FE0000000000000000052
:104A40000000E007F80F780F781F781F781F780FA5
:104A5000F00FE00F801FC37FC3FBE7F3F7F1F7F020
:104A6000FFF07FF03EF87F7CFF3FEF1F000000006B
:104A7000000000000000E003E003E003E003E003C7
:104A8000C003C001000000000000000000000000A2
:104A90000000000000000000000000000000000016
:104AA000000000000000000000003F007C00F0015A
:104AB000E001C003C00780078007800F000F000FD0
:104AC000000F000F000F000F800F80078007C00746
:104AD000C003E001F0017C003F000F000000007EF9
:104AE000001FC007C003E001F001F000F000F80073
:104AF000780078007800780078007800F800F000FE
:104B0000F000F001E001C003C007001F007E007844
:104B10000000E003C003C001CE39FF3F7F3F200308
:104B20007003F807780F3C1F3806000000000000F3
:104B30000000000000000000000000000000000075
:104B40000000000000000000000000000000000065
:104B50000000C001C001C001C001C001C001C0010E
:104B6000FFFFFFFFC001C001C001C001C001C001C3
:104B70000000000000000000000000000000000035
:104B80000000000000000000000000000000000025
:104B9000000000000000000000000000E003E0034F
:104BA000E003E003E001E001E001C0018003000058
:104BB00000000000000000000000000000000000F5
:104BC00000000000FE3FFE3F00000000000000006B
:104BD00000000000000000000000000000000000D5
:104BE00000000000000000000000000000000000C5
:104BF00000000000000000000000000000000000B5
:104C000000000000E003E003E003E0030000000018
:104C10000000000000000F000F001E001E003C00FE
:104C20003C0078007800F000F000E001E001C003F3
:104C3000C00380078007000F000F001E001E003C0D
:104C4000003C0078007800F00000F007F80F7C1FAF
:104C50003E3E1E3C1F7C1F7C0F780F780F780F782C
:104C60000F780F780F781F7C1F7C1E3C3E3E7C1F08
:104C7000F80FF00700000000000000000000F00046
:104C8000F007F03FF03FF001F001F001F001F0011A
:104C9000F001F001F001F001F001F001F001F0018C
:104CA000F001F001FF3FFF3F0000000000000000A6
:104CB0000000E00FF83F7C3C3C003E003E003E0020
:104CC0003C003C007C00F800F001E003C0078007D6
:104CD000000F001E003E003CFE3FFE3F00000000B3
:104CE000000000000000F00FF81F7C1C3E003E009A
:104CF0003E003C003C00F800F00FF80F7C003E0046
:104D00001E001E001E001E003E007C1CF81FE01F3F
:104D1000000000000000000000007800F800F8002B
:104D2000F801F803F807F807780F781E781E783C2A
:104D300078787878FFFFFFFF7800780078007800B7
:104D40007800780000000000000000000000FC1F58
:104D5000FC1FFC1F001E001E001E001E001EE01F88
:104D6000F81FFC007C003E003E001E003E003E009E
:104D70003C007C1CF81FE01F000000000000000049
:104D80000000FC01FE078E0F001F001E003E003CCD
:104D9000003CF83DFC3F3E7F1F7E0F3C0F3C0F3C2C
:104DA0000F3C0F3E1F1E3E1FFC0FF00300000000D3
:104DB000000000000000FF3FFF3FFF3F0F001E000C
:104DC0001E003C0038007800F000F000E001E00137
:104DD000C003C0038007800F800F000F001F001F5B
:104DE00000000000000000000000F807FC0F3E1F5C
:104DF0001E1E1E3E1E3E1E1E3C1FF80FF007F80F23
:104E0000FC1E3E3E1F3C1F7C0F7C0F7C1F3C3E3F28
:104E1000FC1FF00700000000000000000000F00789
:104E2000F80F7C1E3E3C1E3C1F7C1F7C1F7C1F7CA1
:104E30001F3C3F3EFF1FEF071F001E001E003E00ED
:104E40003C00F838F03FE01F0000000000000000C8
:104E50000000000000000000000000000000E0036F
:104E6000E003E003E0030000000000000000000099
:104E700000000000E003E003E003E00300000000A6
:104E80000000000000000000000000000000000022
:104E90000000E003E003E003E00300000000000086
:104EA0000000000000000000E003E003E003E00376
:104EB000E001E001E001C003800300000000000009
:104EC00000000000000003000F003F00FC00F003A2
:104ED000C00F003F00FE003FC00FF003FC003F008A
:104EE0000F000300000000000000000000000000B0
:104EF00000000000000000000000000000000000B2
:104F00000000FFFFFFFF000000000000FFFFFFFFA9
:104F10000000000000000000000000000000000091
:104F2000000000000000000000000000000000E0A1
:104F300000F8007E801FE007F8017E001F007E0061
:104F4000F801E007801F007E00F800E0000000008C
:104F5000000000000000F01FFC3F3E381F381F38E3
:104F60001E001E003C007800F000E001C003C003FA
:104F7000C007C007000000000000C007C007C0074E
:104F800000000000000000000000F803FE0F1E1FDC
:104F90000F3E7F3CFF78EF79C773C7F38FF38FF332
:104FA0008FF39FF39FF3FF73FF7BF779003C1C1F88
:104FB000FC0FF803000000000000000000000000EB
:104FC00000000000E003E003F007F007F007780FAF
:104FD000780F7C0E3C1E3C1E3E3CFE3FFF3F1F7880
:104FE0000F780FF007F007F000000000000000004D
:104FF0000000000000000000F83FFC3F3E3C1E3C6B
:105000001E3C1E3C3E3C7C3CF03FF83F7E3C1F3C3F
:105010001F3C0F3C0F3C1F3CFE3FF83F00000000D0
:10502000000000000000000000000000FF01FF077A
:10503000871F003E003C007C0078007800780078F4
:105040000078007C007C003E003F831FFF07FF01CB
:105050000000000000000000000000000000000050
:10506000F07FFC7F7E781F781F780F780F780F789D
:105070000F780F780F780F780F781F781E787E786A
:10508000F87FE07F0000000000000000000000004A
:1050900000000000FF3FFF3F003E003E003E003E9C
:1050A000003E003EFE3FFE3F003E003E003E003E12
:1050B000003E003EFF3FFF3F0000000000000000F8
:1050C0000000000000000000FF1FFF1F001E001E68
:1050D000001E001E001E001EFF1FFF1F001E001EE0
:1050E000001E001E001E001E001E001E000000000C
:1050F000000000000000000000000000FE03FF0FA1
:10510000871F003E007C007C007800F800F87FF8E4
:105110007FF80F780F7C0F7C0F3E8F1FFF0FFE0371
:10512000000000000000000000000000000000007F
:105130001F7C1F7C1F7C1F7C1F7C1F7C1F7C1F7C97
:10514000FF7FFF7F1F7C1F7C1F7C1F7C1F7C1F7CC1
:105150001F7C1F7C00000000000000000000000019
:1051600000000000FF3FFF3FE003E003E003E00337
:10517000E003E003E003E003E003E003E003E00317
:10518000E003E003FF3FFF3F0000000000000000DD
:105190000000000000000000FC1FFC1F7C007C00E1
:1051A0007C007C007C007C007C007C007C007C001F
:1051B0007C0078007800F838F03FC03F0000000025
:1051C0000000000000000000000000001F3C1E3C2A
:1051D0003C3C783CF03CE03DE03FC03F803FC03F7E
:1051E000E03FF03DF03C783C7C3C3E3C1F3C0F3CBB
:1051F00000000000000000000000000000000000AF
:10520000003E003E003E003E003E003E003E003EAE
:10521000003E003E003E003E003E003E003E003E9E
:10522000FF3FFF3F00000000000000000000000002
:10523000000000001FF81FFC1FFC3FFE3FFE3FFE6A
:105240007FFF77FF77FFF7F7E7F7E7F3E7F3C7F3BA
:1052500007F007F007F007F0000000000000000072
:1052600000000000000000000F7C0F7C0F7E0F7F0D
:105270000F7F8F7F8F7FCF7FEF7BEF79FF79FF7875
:10528000FF787F783F783F781F781F780000000014
:10529000000000000000000000000000F007FC1FFC
:1052A0003E3E1F7C0F780F780FF80FF80FF80FF8BD
:1052B0000FF80FF80F780F781F7C3E3EFC1FF007A9
:1052C00000000000000000000000000000000000DE
:1052D000FC3FFF3F1F3E0F3E0F3E0F3E0F3E1F3E67
:1052E0003F3EFC3FF03F003E003E003E003E003EA1
:1052F000003E003E00000000000000000000000032
:1053000000000000F007FC1F3E3E1F7C0F780F7866
:105310000FF80FF80FF80FF80FF80FF80F780F7855
:105320001F7C3E3EFC1FF8077C003F000F0003007F
:105330000000000000000000F03FFC3F7E3C3E3CCF
:105340001E3C1E3C3E3C3C3CFC3CF03FE03FF03D04
:10535000F83C7C3C3E3C1E3C1F3C0F3C00000000E7
:10536000000000000000000000000000FC07FE1F1D
:105370000E3E003C003C003C003EC01FF80FFE0308
:105380007F001F000F000F001F203E3CFC3FF01F5E
:10539000000000000000000000000000000000000D
:1053A000FFFFFFFFE003E003E003E003E003E003AF
:1053B000E003E003E003E003E003E003E003E003D5
:1053C000E003E00300000000000000000000000017
:1053D000000000000F7C0F7C0F7C0F7C0F7C0F7C8B
:1053E0000F7C0F7C0F7C0F7C0F7C0F7C0F7C1E3C96
:1053F0001E3C3E3EFC1FF0070000000000000000C5
:10540000000000000000000007F007F007F80F7828
:105410000F7C1E3C1E3C1E3E3C1E3C1F781F780F1E
:10542000F80FF007F007F007E003E00300000000CA
:1054300000000000000000000000000003E003F096
:1054400003F007F0E7F3E7F3E7F3E773F77BF77FA2
:10545000FF7F7F7F7F7F7E7F7E3F3E3E3E3E3E3EA4
:10546000000000000000000000000000000000003C
:1054700007F80F7C1E3E3E3E3C1FF80FF007E0078A
:10548000E003E003F007F80F7C0F7C1E3E3C1F7822
:105490000F780FF000000000000000000000000086
:1054A0000000000007F807780F7C1E3C1E3E3C1FE2
:1054B000780FF80FF007E003E003E003E003E003F8
:1054C000E003E003E003E003000000000000000050
:1054D0000000000000000000FF7FFF7F0F001F00A2
:1054E0003E007C00F800F000E001E003C007800F00
:1054F000000F001E003E007CFF7FFF7F00000000C9
:10550000000000000000FF07800780078007800779
:105510008007800780078007800780078007800753
:105520008007800780078007800780078007800743
:1055300080078007FF07FF07000000780078003C25
:10554000003C001E001E000F000F80078007C003F4
:10555000C003E001E001F000F000780078003C00BA
:105560003C001E001E000F000F0007000000F07F2F
:10557000F000F000F000F000F000F000F000F000AB
:10558000F000F000F000F000F000F000F000F0009B
:10559000F000F000F000F000F000F000F07FF07F8D
:1055A0000000C000C001C001E003E003F007F00705
:1055B0007807780F380F3C1E3C1E1E3C1E3C0F38EF
:1055C0000F780778000000000000000000000000D5
:1055D00000000000000000000000000000000000CB
:1055E00000000000000000000000000000000000BB
:1055F00000000000000000000000000000000000AB
:10560000FFFFFFFF000000000000F00000000000AE
:10561000000000000000000000000000000000008A
:10562000000000000000000000000000000000007A
:10563000000000000000000000000000000000006A
:1056400000000000000000000000F80FFC3F7C3C60
:105650003E003E003E00FE07FE1F3E3E3E7C3E7882
:105660003E7C7E7CFF3FCF1F00000000000000005A
:105670000000003C003C003C003C003C003CF83D8D
:10568000FE3F3E3F1F3E0F3C0F3C0F3C0F3C0F3C8C
:105690000F3C1F3C1E3C3E3FFC3FF03B0000000027
:1056A00000000000000000000000000000000000FA
:1056B0000000FE03FF0F871F003E003E003C007C01
:1056C000007C007C003C003E003E871FFF0FFE0375
:1056D000000000000000000000001F001F001F006D
:1056E0001F001F001F00FF07FF1F3F3E1F3C1F7CC6
:1056F0001F7C1F7C1F781F781F7C1F7C3F3C7F3ED8
:10570000FF1FDF0F0000000000000000000000008D
:1057100000000000000000000000F803FC0F3E1F26
:105720001E3E1F3C1F7CFF7FFF7F007C007C003CF7
:10573000003E071FFF0FFE030000000000000000F6
:105740000000FF01E103C003C007C007C007FF7FDF
:10575000FF7FC007C007C007C007C007C007C0075A
:10576000C007C007C007C007C007C007000000008F
:105770000000000000000000000000000000000029
:105780000000EF07FF1F7F3E1F3C1F7C1F7C1F7820
:105790001F781F781F7C1F7C3F3C7F3EFF1FDF0F61
:1057A0001E001E001E007C38F83F003C003C003C00
:1057B000003C003C003CFC3DFE3F9E3F1F3F1F3E27
:1057C0001F3C1F3C1F3C1F3C1F3C1F3C1F3C1F3C01
:1057D0001F3C1F3C00000000000000000000F00122
:1057E000F0010000000000000000E07FE07FE00129
:1057F000E001E001E001E001E001E001E001E001A1
:10580000E001E001E001E001000000000000000014
:105810000000F800F8000000000000000000F83F61
:10582000F83FF800F800F800F800F800F800F80079
:10583000F800F800F800F800F800F800F800F800A8
:10584000F000F071E07F003C003C003C003C003C7C
:10585000003C1F3C3E3C7C3CF83CF03DE03DC03F02
:10586000C03FE03FF03DF83C7C3C3E3C1F3C1F3CD1
:1058700000000000000000000000F07FF001F001D7
:10588000F001F001F001F001F001F001F001F00190
:10589000F001F001F001F001F001F001F001F00180
:1058A000F001F00100000000000000000000000016
:1058B000000000000000000000009EF7FFFFFFFF57
:1058C000FFFFE7FBE7F9C7F1C7F1C7F1C7F1C7F180
:1058D000C7F1C7F1C7F1C7F10000000000000000E8
:1058E0000000000000000000000000000000FC3D7F
:1058F000FE3F9E3F1F3F1F3E1F3C1F3C1F3C1F3C67
:105900001F3C1F3C1F3C1F3C1F3C1F3C0000000075
:105910000000000000000000000000000000000087
:105920000000F007FC1F3E3E1F3C1F7C0F780F78E5
:105930000F780F780F781F7C1F3C3E3EFC1FF0074E
:105940000000000000000000000000000000000057
:10595000000000000000F83DFE3F3E3F1F3E0F3CB0
:105960000F3C0F3C0F3C0F3C0F3C1F3C1E3E3E3F8C
:10597000FC3FF83F003C003C003C003C003C000089
:1059800000000000000000000000EE07FE1F7E3E49
:105990001E3C1E7C1E781E781E781E781E781E7C8B
:1059A0003E7C7E3EFE1FDE0F1E001E001E001E00FF
:1059B0001E000000000000000000000000007F1F2B
:1059C000FF1FE71FC71F871F001F001F001F001FAB
:1059D000001F001F001F001F001F001F000000000D
:1059E00000000000000000000000000000000000B7
:1059F0000000FC07FE1F0E1E003E003E003FE01FA1
:105A0000FC07FE003E001E001E003E3CFC3FF01F57
:105A10000000000000000000000000000000000086
:105A2000800780078007FF7FFF7F80078007800750
:105A30008007800780078007800780078007C007EE
:105A4000FF03FF0100000000000000000000000054
:105A5000000000000000000000001E3C1E3C1E3C38
:105A60001E3C1E3C1E3C1E3C1E3C1E3C1E3C3E3C46
:105A70007E3CFE3EFE1FDE0F000000000000000026
:105A8000000000000000000000000000000007F01F
:105A90000F780F781E3C1E3C1E3E3C1E3C1E780FAD
:105AA000780FF00FF007F007E003E00300000000BC
:105AB00000000000000000000000000000000000E6
:105AC000000003F0E3F1E3F3E7F3F7F3F7F3F77F15
:105AD000777F7F7F7F7F7F7F3E3E3E3E3E3E3E3EE6
