:020000040800F2
:10000000080C0020AD010008D5260008D7260008FE
:10001000D9260008DB260008DD26000800000000C5
:10002000000000000000000000000000DF260008C3
:10003000E126000800000000E3260008E72600088B
:10004000C7010008C7010008C7010008C701000870
:10005000C7010008C7010008C7010008C701000860
:10006000C7010008C7010008C7010008C701000850
:10007000C7010008C7010008C7010008C701000840
:10008000C7010008C7010008C70100080000000000
:10009000000000000000000000000000C701000890
:1000A000C7010008C7010008C7010008C701000810
:1000B000C7010008C7010008C7010008C701000800
:1000C000C7010008C7010008C7010008C7010008F0
:1000D000C7010008E7200008F92000080000000020
:1000E000C7010008C7010008C701000800000000A0
:1000F000000000000000000000000000C701000830
:1001000000000000C7010008C7010008C70100087F
:1001100000000000000000000000000000000000DF
:10012000C7010008C7010008C7010008C70100088F
:10013000C7010008000000000000000000000000EF
:10014000000000000000000000000000C7010008DF
:10015000C7010008C7010008C701000811210008F5
:10016000C7010008C70100080000000000000000EF
:10017000000000000000000000000000000000007F
:1001800000000000C701000800000000000000009F
:10019000C7010008C7010008DFF80CD002F030FEEC
:1001A0000048004755210008080C002006488047F9
:1001B00006480047FEE7FEE7FEE7FEE7FEE7FEE74C
:1001C000FEE7FEE7FEE7FEE7F126000899010008DA
:1001D0002849084328490860704730B50F23C27882
:1001E00001780125FAB1244A126801F1E02102F4F4
:1001F000E062C2F5E062C2F30722C2F10404D34018
:100200004278A24084781C401443220181F80024E3
:10021000007800F01F018D404009800000F1E020CF
:10022000C0F8005130BD01F01F0085404809800032
:1002300000F1E020C0F8805130BD104A1140014368
:100240000D48001F016070470B4A121D00291168FC
:1002500001D0014300E08143116070474FF0E0217D
:100260000428086903D020F004000861704740F0BA
:100270000400FAE70000FA050CED00E080FFFF1F24
:10028000F648016841F001010160F44A002108329A
:1002900011600268F24B1A400260031DF14A1A60B5
:1002A000EE4BF14A84331A60EE4A103A1B1D1A6075
:1002B000026822F480220260E8480C300160181DB8
:1002C00001607047E5490022891C0A700870704778
:1002D00002460020510901290CD002290CD0DF4927
:1002E0007431096802F01F02012393400B4200D0D1
:1002F00001207047D949F4E7D8497031F1E718B5C2
:1003000000204FF4A04400903120FFF7E1FF009956
:10031000491C0091A14201D00028F5D03120FFF7FF
:10032000D7FF002800D0012018BDCC4A116821F069
:10033000F80141EAC00010607047CC49086070477E
:10034000C649002270310A700A70012802D00428C0
:1003500001D1052008707047C5490860704741EA1F
:1003600082115A0810B5C34B029C03EB02421143A1
:10037000014341EA0460B949091D086010BDBB4949
:1003800008667047800140EA0170B4491043843127
:1003900008607047B54988667047800140EA01608F
:1003A000AE4940EA0270883108607047AF4908677B
:1003B0007047AE49C8647047A84B08331A680843B1
:1003C00022F0EC62104318607047A44B08331A689F
:1003D000084322F078421043186070479F4A083261
:1003E000116821F003010143116070479B480830F8
:1003F000006800F00C007047984A0832116821F03C
:10040000F001014311607047944A0832116821F4E9
:10041000E051014311607047904A0832116821F49D
:10042000604141EAC0001060704770B58B4B0833E3
:100430001968914C11F00C0104D06610042903D006
:10044000082903D004601BE0066019E0834A121DEE
:100450001168C1F38055116801F03F0115B1B6FB79
:10046000F1F101E0B4FBF1F114681268C4F38814EF
:100470006143C2F30142521C5200B1FBF2F1016030
:1004800019680F2202EA11117C4A545C0168E140AC
:1004900041601C68072505EA9424145D21FA04F4E0
:1004A00084601B6805EA5333D25CD140C16070BDE3
:1004B000C0F30121032908D1684B08331968704A39
:1004C00021F4F81102400A431A60644970310A6845
:1004D000C0F30B0002430A60704765494439086065
:1004E000704763494039086070476049C1F85C0152
:1004F00070475A4A8C32116821F44011014311604F
:100500007047564A8C32116821F440010143116052
:100510007047524A8C321168401E21F01F0101437E
:10052000116070474D4A8C3211686FF0FF0321F45F
:10053000F85103EB0020084310607047474A8C32A3
:10054000116821F440310143116070474D49C1F8F1
:10055000E0017047414A30320029116801D001435F
:1005600000E08143116070473C4A34320029116831
:1005700001D0014300E0814311607047374A4032A7
:100580000029116801D0014300E0814311607047E8
:10059000324A44320029116801D0014300E081430E
:1005A000116070472D4A10320029116801D00143B3
:1005B00000E0814311607047284A14320029116815
:1005C00001D0014300E0814311607047234A20328B
:1005D0000029116801D0014300E081431160704798
:1005E0001E4A24320029116801D0014300E08143F2
:1005F00011607047194A50320029116801D0014337
:1006000000E0814311607047144A54320029116898
:1006100001D0014300E08143116070470F4A60320E
:100620000029116801D0014300E081431160704747
:100630000A4A64320029116801D0014300E0814375
:1006400011607047054970310128086803D020F017
:1006500008000860704740F00800FAE700380240E0
:10066000FFFFF6EA1030002400300020000047426F
:10067000800E47420000FFFF0024F400000000202D
:10068000FFFCFF0F001047420E4A0029117801D0ED
:10069000014300E08143117070470A4867300168E8
:1006A00041F08071016070470146064A0020521EE9
:1006B00012680A4200D0012070470249491C0870A4
:1006C000704700000D380240CD4910B5884206D170
:1006D00001211020FFF784FF0021102020E0C949EC
:1006E000884202D101214C0429E0C749884202D145
:1006F00001218C0423E0C549884202D10121CC04A8
:100700001DE0C349884202D101210C0517E0C1490F
:10071000884209D101212020FFF762FF002120201B
:10072000BDE81040FFF75CBFBB49884202D1012100
:100730008C0704E0B94988420AD1012144052046CA
:10074000FFF744FF2046BDE810400021FFF73EBF01
:1007500010BD7FB50446008A0D46C98820F440507C
:1007600001432182A08941F20C618843A9882A892A
:1007700011436A8902431143A181A08A20F4407188
:10078000A8890843A0826846FFF74FFE9C48844230
:1007900002D0A048844201D1039800E00298A189C8
:1007A000090400EBC00101EB0010296801D54900E4
:1007B00000E08900B0FBF1F06422B0FBF2F1090126
:1007C0000B096FF018056B4300EB8300A3891D0430
:1007D0004FF0320306D503EBC000B0FBF2F000F09F
:1007E000070005E003EB0010B0FBF2F000F00F0093
:1007F000084320817FBD4FF41651016000218180A4
:10080000C18001810C2242818181704710B5028A2A
:100810004C8822F470630A8822438C88C9880C4370
:1008200022431A43028210BD002101804180818051
:10083000C18070470029818902D041F4005101E054
:1008400021F4005181817047028B02F47F420283C0
:10085000028B0A43028370470029818902D041F448
:10086000004101E0C1F30E01818170470029818AB6
:1008700002D041F4006101E021F4006181827047FF
:10088000C1F30801818070478088C0F30800704779
:10089000028A22F00F020282028A0A430282704711
:1008A0000029818902D041F0020101E021F002011A
:1008B00081817047828922F40062828182890A43A1
:1008C00082817047028A22F020020282028A0A4351
:1008D000028270470029018A02D041F4804101E080
:1008E00021F4804101827047818941F001018181B9
:1008F00070470029818A02D041F0080101E021F00F
:10090000080181827047028BD2B20283028B42EAD5
:100910000121018370470029818A02D041F0200122
:1009200001E021F02001818270470029818A02D0F4
:1009300041F0100101E021F0100181827047828AAC
:1009400022F004028282828A0A438282704700294E
:10095000818A02D041F0020101E021F0020181828E
:100960007047002A828A01D00A4300E08A438282CB
:10097000704710B5C1F3421301F01F040121A140DB
:10098000012B07D0022B07D01430002A026805D0B3
:100990000A4304E00C30F8E71030F6E78A430260BF
:1009A00010BD0246002012880A4200D00120704784
:1009B000C9430180704770B501F01F05012600246E
:1009C000C1F3421306FA05F2012B0FD0022B0FD010
:1009D000838A4FEA11210088134206FA01F600EAE1
:1009E000060001D000B10124204670BD8389F0E7E4
:1009F000038AEEE70A0A01219140C943018070474A
:100A0000001001400044004000480040004C0040FD
:100A1000005000400014014000780040007C00407D
:100A2000234810B54168491C4160816811B1816853
:100A3000491E8160AFF3008010BD10B51C4C2078BA
:100A4000002821D10120FFF73DFCFFF758FC0028CA
:100A5000FBD0184801684FF47A70B1FBF0F0401EEB
:100A6000B0F1807F11D24FF0E0225061124BF020A4
:100A700083F8140D00209061072010610F48B1FB2E
:100A8000F0F0E0600120207010BDFEE7084800781B
:100A9000002805D04FF0E020016941F0020101611A
:100AA00070474FF0E020016921F0020101617047B9
:100AB00010000020780000200FE000E0C0C62D00EC
:100AC0002DE9F04F8A46DDE9099C00214FF0010B2A
:100AD0004FF0030E0BFA01F515EA0A0F21D0076853
:100AE0004C000EFA04F6B74302FA04F847EA080786
:100AF0000760012A01D0022A0DD14768ADB2AF4389
:100B000003FA01F5ADB22F43476085680CFA04F78C
:100B1000B5433D438560C568B54309FA04F63543DE
:100B2000C560491CC9B21029D4D3BDE8F08FB04AC2
:100B3000B049904203D10A6842F001020A60AE4A0D
:100B4000904203D10A6842F002020A60AB4A904226
:100B500003D10A6842F004020A60A94A904203D114
:100B60000A6842F008020A60A64A904203D10A6865
:100B700042F010020A60A44A904203D10A6842F08F
:100B800020020A60A14A904203D10A6842F0400262
:100B90000A609F4A904203D10A6842F080020A60CC
:100BA0009C4A904203D10A6842F480720A609A4AD1
:100BB000904203D10A6842F400720A60974A904258
:100BC00003D1086840F4806008607047FCB51646A1
:100BD000DDE907C50C00074608D0FFF7A8FFCDE9FF
:100BE00000C5324621463846FFF76AFFFCBD2DE9B5
:100BF000FC4F9946DDE90BB792460D00064622D020
:100C0000FFF795FF002201214FF00F0C01FA02F0CF
:100C100028420DD0D00806EB8003186A5407E40E72
:100C20000CFA04F820EA080007FA04F420431862DA
:100C3000521C102AEAD3CDE9009B534602222946D2
:100C40003046FFF73DFFBDE8FC8FF0B500220125DF
:100C5000032605FA02F30B4205D00468570006FA92
:100C600007F31C430460521CD2B2102AF1D3F0BD2A
:100C7000F0B500220125032605FA02F30B4205D048
:100C80000468570006FA07F39C430460521CD2B272
:100C9000102AF1D3F0BDF0B500220127032607FA90
:100CA00002F33C460B4208D00568530006FA03FCE9
:100CB00025EA0C059C4025430560521CD2B2102A3F
:100CC000EDD3F0BDF0B500220125032605FA02F3AD
:100CD0000B4205D00468570006FA07F31C43046072
:100CE000521CD2B2102AF1D3F0BD0146424A002074
:100CF000914200D10120414A914200D10220404A54
:100D0000914200D103203F4A914200D104203E4A43
:100D1000914200D105203D4A914200D106203C4A33
:100D2000914200D107203B4A914200D108203A4A23
:100D3000914200D10920394A914200D10A207047DE
:100D4000002102E0491C89B240080128FAD808466F
:100D50007047274A2749904203D10A6822F00102CE
:100D60000A60254A904203D10A6822F002020A6012
:100D7000224A904203D10A6822F004020A60204A03
:100D8000904203D10A6822F008020A601D4A90428C
:100D900003D10A6822F010020A601B4A904203D174
:100DA0000A6822F020020A60184A904203D10A68B9
:100DB00022F040020A60164A904203D10A6822F0EB
:100DC00080020A60134A904203D10A6822F48072BA
:100DD0000A60114A904203D10A6822F400720A6044
:100DE0000E4A904203D1086820F480600860704782
:100DF0000000024030380240000402400008024077
:100E0000000C024000100240001402400018024092
:100E1000001C024000200240002402400028024042
:100E2000FE490022CA60114606E000EB8103491C1E
:100E3000D3F8F430C9B2DA7590F81C318B42F4D88B
:100E4000704770B505460A460121F54801F055F88E
:100E5000F24C01212846E172FFF7E2FF206940F0E1
:100E6000FF0040F47F4040F4E020206170BD80F836
:100E7000F21008467047E949D1E903218A420FD1AF
:100E8000002190F81C2107E000EB8103D3F8F43037
:100E9000DB7D2BB1491CC9B28A42F5D801207047CD
:100EA0000020704770B50446FFF7E5FF0100DB48FE
:100EB00057D0DC490025C57291ED000A84ED000A87
:100EC00091ED010A84ED010A087A2072487A607275
:100ED00091ED030AA1F1100084ED030A026A226178
:100EE00091ED060A84ED060A828CA28290F8260013
:100EF000A075087F207791ED080A84ED080A91ED2E
:100F0000090A84ED090A91ED0B0A84ED0B0A91EDB3
:100F10000A0A84ED0A0A91F8300084F830000020B3
:100F20000A182318401C92F83120C0B283F83120EF
:100F30000C28F5D391F83D0084F83D00002000EB2B
:100F4000400204EB420301EB4202401C52F83E6FA8
:100F500043F83E6F9288C0B29A801828EFD3284693
:100F600004E0C07A08B1022000E0012084F8F20019
:100F700070BDAA490A7A42400A72704730B50246EB
:100F800000206FF02F05086009E00C68401C04EB9E
:100F9000840405EB44042344C0B2521C0B60137854
:100FA000A3F13004092CF0D930BD9C49CA68024332
:100FB000CA6070470346012000E05843491EC9B289
:100FC000FBD2704706E010F8013B491C9A4201D061
:100FD000002070470A78002AF5D1012070472DE9DA
:100FE000F0438E4F06462DED028B81B0B8794FF05D
:100FF0000009012510B10024A84647E089488AA1CC
:101000001038FFF7DFFF10B187F8009019E085482E
:1010100087A11038FFF7D6FF08B13D7011E0814875
:1010200085A11038FFF7CEFF08B1022008E07D4807
:1010300083A11038FFF7C6FF08B1032000E00420A9
:101040003870784975481039143001F0EFFB01B061
:10105000BDEC028BBDE8F08306EB84056F48D5F844
:10106000F4101430FFF7AEFF70B1D5F8F400BA7980
:10107000C179914208D16B490830103901F0D6FB93
:10108000D5F8F41081F81780641CE4B296F81C01BE
:10109000A042E1D8B8793978624D40EA4110103D5C
:1010A000604C44281FD01FDC4FF0640642F2107CD5
:1010B000092878D009DC9FED648B082874D2DFE81A
:1010C00000F073F72A7783EAF6F829286DD006DC5A
:1010D00022286BD027286AD0282865D1D3E142285E
:1010E00071D04328F9D19CE24C28FCD004DCA0F15B
:1010F0004500062858D894E250287CD006DC4D28BC
:10110000F1D04E28EFD04F28E7D11EE2512873D0FE
:101110006328E2D1A3E2434869461038FFF72EFF67
:1011200081460098B0FBF6F1804606FB110001F005
:101130000EFD53EC182B01F09BFC01F028FD00EE96
:10114000100AB8FBF6F000EE900A09F10100C0B2F7
:10115000F8EE600A2844694630EE800A84ED000A01
:10116000FFF70CFF01460A20FFF724FF01F0EFFC18
:1011700053EC182B01F00AFC41EC180B009801F01D
:10118000E6FC53EC182B01F073FC41EC180B2068C3
:1011900001F0EAFC53EC182B01F051FB01F0F7FCD5
:1011A0002060012051E294E051E246E160E113E168
:1011B0002878532805D194ED000AB1EE400A84ED59
:1011C000000A402041E222E2164869461038FFF743
:1011D000D5FE81460098B0FBF6F1804606FB110073
:1011E00001F0B5FC53EC182B01F042FC01F0CFFCF0
:1011F00000EE100A01E077E1D8E1B8FBF6F000EE6E
:10120000900A09F10100C0B2F8EE600A284469466C
:1012100030EE800A84ED010A1AE000002000002070
:1012200000100140AC000020244750474741000017
:10123000244750524D43000024475047534100007B
:1012400024475047535600000000000000004E4065
:10125000FFF794FE01460A20FFF7ACFE01F077FC91
:1012600053EC182B01F092FB41EC180B009801F0A5
:101270006EFC53EC182B01F0FBFB41EC180B606883
:1012800001F072FC53EC182B01F0D9FA01F07FFC4D
:1012900060600220D9E12878572805D194ED010A31
:1012A000B1EE400A84ED010A2020CEE101E008E021
:1012B0006FE06946FE48FFF761FE00982072042047
:1012C000C3E16946FA48FFF759FE009860720820AA
:1012D000BBE1287869462D282BD0F548FFF74EFE54
:1012E0009DED000A401CC0B2B8EE400A2844694691
:1012F00084ED030AFFF742FE01460A20FFF75AFE7B
:1013000001F025FC41EC180B009801F020FC53EC97
:10131000182B01F0ADFB41EC180BE06801F024FC48
:1013200053EC182B01F08BFA01F031FCE060102037
:101330008BE1681CFFF722FE9DED000A801CC0B205
:10134000B8EE400A2844694684ED030AFFF716FE0A
:1013500001460A20FFF72EFE01F0F9FB41EC180BC5
:10136000009801F0F4FB53EC182B01F081FB41ECE9
:10137000180BE06801F0F8FB53EC182B01F05FFA52
:1013800001F005FC00EE100AB1EE400A84ED030AFC
:10139000CDE76946C648FFF7F1FD02460098521CAA
:1013A000B0FBF6F106FB1101A174B0FBF6F1B1FB45
:1013B000F6F3B0FBFCF006FB13116174B0FBF6F121
:1013C00006FB11002074D0B228446946FFF7D6FD11
:1013D0000098E074802038E16946B548FFF7CEFDFB
:1013E0009DED000A401CC0B2B8EE400A2844694690
:1013F00084ED060AFFF7C2FD01460A20FFF7DAFD79
:1014000001F0A5FB9DED000A41EC180BB8EE400A77
:1014100010EE100A01F0A8FB53EC182B01F028FB8A
:1014200001F0B5FB00EE100AD4ED060A4FF480700F
:1014300030EE200A84ED060A07E169469C48FFF772
:101440009DFD0098B0FBF6F106FB1101A175B0FB04
:10145000F6F1B1FBF6F2B0FBFCF006FB1211617580
:10146000B0FBF6F106FB110020754FF40070ECE0C4
:101470002878412804D084F81C904FF48060E4E080
:1014800084F81C80F9E769468948FFF777FD9DEDF0
:10149000000A401CC0B2B8EE400A2844694684EDF8
:1014A000080AFFF76BFD01460A20FFF783FD01F0F4
:1014B0004EFB9DED000A41EC180BB8EE400A10EE11
:1014C000100A01F051FB53EC182B01F0D1FA01F096
:1014D0005EFB00EE100AD4ED080A4FF4004030EE37
:1014E000200A84ED080AB0E069467148FFF746FD1E
:1014F0009DED000A401CC0B2B8EE400A284469467F
:1015000084ED090AFFF73AFD01460A20FFF752FD74
:1015100001F01DFB9DED000A41EC180BB8EE400AEE
:1015200010EE100A01F020FB53EC182B01F0A0FA8A
:1015300001F02DFB00EE100AD4ED090A4FF4006013
:1015400030EE200A84ED090A7FE069465848FFF72B
:1015500015FD9DED000A401CC0B2B8EE400A2844BB
:10156000694684ED0A0AFFF709FD01460A20FFF7E4
:1015700021FD01F0ECFA9DED000A41EC180BB8EEEC
:10158000400A10EE100A01F0EFFA53EC182B01F0AC
:101590006FFA01F0FCFA00EE100AD4ED0A0A4FF4DB
:1015A000005030EE200A84ED0A0A4EE069464048B9
:1015B000FFF7E4FC9DED000A401CC0B2B8EE400A03
:1015C0002844694684ED0B0AFFF7D8FC01460A203F
:1015D000FFF7F0FC01F0BBFA9DED000A41EC180B9F
:1015E000B8EE400A10EE100A01F0BEFA53EC182BC8
:1015F00001F03EFA01F0CBFA00EE100AD4ED0B0A2E
:101600004FF4805030EE200A84ED0B0A1DE069464D
:101610002748FFF7B3FC009884F830004FF480406F
:1016200013E069462248FFF7A9FCB97900982144E4
:1016300081F82E007879401CC0B27871217A8142FD
:1016400005D187F805904FF40030FFF7AEFC3878ED
:1016500003287FF4FCACB87901280AD00FE0694672
:101660001348FFF78BFC009884F83D004FF480305E
:10167000EBE769460E48FFF781FC00987870B8796F
:10168000022805D169460A48FFF778FC0098B8702F
:10169000B8790428FFF4DBAC69460548FFF76EFC17
:1016A000B879001FC0B200F003013971BA7801E0C7
:1016B0009C0000209200121F02EB9000C0B2F87054
:1016C0001828BFF4C4AC69B1012913D0022919D07C
:1016D0000329BED100EB400004EB4000009980F8E4
:1016E0004210B4E400EB400004EB4000009980F8A5
:1016F0003E10ACE400EB400004EB4000009980F8A1
:101700003F10A4E400EB400004EB40000099A0F877
:1017100040109CE4FE48C179012962D181790078AA
:1017200041EA4010442859D01BDC092840D007DC8E
:10173000082856D2DFE800F0553E303234363A38C9
:1017400029283CD008DC22283CD0272834D028285F
:1017500047D14FF400401EE042283CD0432840D1FE
:101760003CE04C283AD004DCA0F14500062838D8EB
:1017700034E0502829D008DC4D282FD04E282DD019
:101780004F282ED14FF4005005E0512820D0632877
:1017900027D14FF4803008E40120FCE74020FAE72D
:1017A0000220F8E72020F6E70420F4E70820F2E71B
:1017B0001020F0E78020EEE74FF48070EBE74FF465
:1017C0000070E8E74FF48060E5E74FF40060E2E77F
:1017D0004FF48050DFE74FF48040DCE74FF40030F7
:1017E000D9E77047A0F13001092901D8C8B2704784
:1017F000A0F14101052901D8373804E0A0F16101C9
:10180000052902D85738C0B27047002070472DE92B
:10181000F0410C460746FFF72EFB4FF0010C20B1BC
:101820003846FFF7FDFA87F8F2C0BA4B0026B84DEC
:10183000242C0AD02C2C0FD00A2C11D00D2C1CD00B
:101840002A2C32D0A87A78B343E0AE722E72AE71F1
:101850001C7085F807C040E02046FFF78AFB26E0B1
:10186000AE712878032838D16878A978884234D1B5
:101870004FF48020FFF799FB2FE0E8791E54401CBD
:10188000E8715878FFF7AEFF02461878FFF7AAFF15
:1018900002EB0010C0B26872297A884202D0384642
:1018A000FFF7BEFAAE7118E010E085F80AC0E879DB
:1018B0001E54401CE8713846FFF72CFF3846FFF7EE
:1018C0008EFBA879401CA871EE7106E02046FFF758
:1018D00050FBE8791C54401CE8713846BDE8F041E3
:1018E000FFF7E0BA70B58C4D0446284600F094FB33
:1018F00050B10EE0284600F056FB01462046FFF7A7
:1019000086FF94F8F20048B1284600F085FB0028D5
:10191000F0D07F48C07A18B1022002E0C0B270BD9A
:10192000012084F8F20070BD2DE9F041044690F8E2
:101930001C0116460F460A2816D2182002F030FC69
:10194000050011D0394600F071FFEE7194F81C01CA
:1019500004EB8000C0F8F45094F81C01401C84F89B
:101960001C012846BDE8F0810020FBE70F2835D296
:10197000DFE800F0080B0E1114171A1D202326298A
:101980002C2F3300DFED650A25E0DFED650A22E04C
:10199000DFED640A1FE0DFED640A1CE0DFED630A9F
:1019A00019E0DFED630A16E0DFED620A13E0DFED18
:1019B000620A10E0DFED610A0DE0DFED610A0AE086
:1019C000DFED600A07E0DFED600A04E0DFED5F0AAB
:1019D00001E0DFED5F0A20EE200A70479FED5D0A0F
:1019E000704710B50446092900D90921FDEEC00A47
:1019F000B5EEC00A4FF00A00F1EE10FAC4ED000A8D
:101A00000CD2FFF7D7FA00EE900AB8EE601AD4EDC8
:101A1000000AF8EEE00A30EEC00A0BE0FFF7CAFA5F
:101A200000EE900AB8EE601AD4ED000AF8EEE00A73
:101A300030EE600A21EE000ABDEEC00A84ED010A14
:101A400010BD70B504462DED0C8B90ED002A9FED76
:101A5000420AD0ED021AD0ED030A90ED011A21EEF0
:101A6000808A20EE80CA71EEC21A70EEC10A62EE60
:101A7000008A61EE00CA21EE80DA20EE800AF6EEDE
:101A800000DA20EE2D9A19EE100A01F06DF841EC03
:101A9000100B01F0F9FCB0EE40BAF0EE60BA19EEAE
:101AA000100A01F061F841EC100B01F0EDFCB0EE12
:101AB00040AAF0EE60AA18EE100A01F055F841ECC9
:101AC000100B01F07DFCB0EE409AF0EE609A18EE3B
:101AD000900A01F049F841EC100B01F071FC53EC55
:101AE000192B51EC100B00F051FF53EC1A2B00F0A6
:101AF0004DFF53EC1B2B00F049FF2DEE2DBA41ECAE
:101B00001A0B1BEE100A01F02FF841EC100B25E028
:101B1000200000209C00002000100140F5BD063A86
:101B2000B8AF033F560EED3FC3F5F641689DA739A8
:101B3000F853933F6210D83F9A99CA429A9901424A
:101B40000000F344666642435C8F50420080434588
:101B500033B331430000000035FA8E3C01F094FCB1
:101B6000B0EE409AF0EE609A1BEE100A00F0FCFF17
:101B700041EC100B01F088FCB0EE401AF0EE601A58
:101B800053EC192B51EC110B00F000FF53EC1A2B06
:101B900000F055FE00F0FBFF0AEE100AB7EE000A57
:101BA00030EE4A0A10EE100A00F0DEFF41EC100B96
:101BB00001F0CEFCB0EE409AF0EE609A1AEE100AF8
:101BC00000F0D2FF41EC100B01F0C2FCB0EE491A5C
:101BD000F0EE691A01F0FCFA9FED531B51EC100B6B
:101BE00053EC112B00F0D2FE9FED511B53EC112B47
:101BF00000F0CCFE00F0CBFF206118EE100A00F0E0
:101C0000B3FF41EC100B01F0DBFB3CEE6CAAB0EE35
:101C1000409AF0EE609A1AEE100A00F0A5FF41EC2F
:101C2000100B01F031FC53EC192B51EC100B00F0B0
:101C3000ADFE00F0ACFF05461AEE100A00F094FF6E
:101C400041EC100B01F0BCFBB0EE40AAF0EE60AA34
:101C500018EE100A00F088FF41EC100B01F0B0FB09
:101C6000B0EE409AF0EE609A18EE900A00F07CFF19
:101C700041EC100B01F008FC53EC192B51EC100B4C
:101C800000F084FE53EC1A2B00F080FE41EC190B9F
:101C900018EE100A00F068FF41EC100B01F0F4FBA5
:101CA000B0EE40AAF0EE60AA18EE900A00F05CFFD9
:101CB00041EC100B01F084FB53EC1A2B51EC100B90
:101CC00000F064FE53EC192B00F05AFE00F05FFFA9
:101CD00000F04AFF41EC180B284600F045FF41ECAC
:101CE000100BB0EE481AF0EE681A01F071FA9FED91
:101CF000121B51EC100B53EC112B00F047FE00F0BF
:101D000046FF00EE100A84ED050AB5EEC00AF1EEBA
:101D100010FA05D2DFED0A0A30EE200A84ED050A3A
:101D2000BDEC0C8B70BD00000000000000E3C8405B
:101D30000000000000408F4000000020DCA54C4067
:101D40000000B443F84A0146904200D10020F74A0F
:101D5000914200D10120F64A914200D106207047FD
:101D600070471CB50822032138B101280CD0032884
:101D700002D1EF48FFF7F4FF1CBDCDE900120123AB
:101D80000022C021EB4806E0CDE900120123002229
:101D90004FF48441E848FEF72AFF1CBD1CB507221A
:101DA000032138B101280CD0032802D1DF48FFF706
:101DB000D7FF1CBDCDE90012012300220C21DF4812
:101DC00005E0CDE90012012300226021DC48FEF786
:101DD0000EFF1CBD1CB50722032138B101280DD010
:101DE000032802D1D048FFF7BBFF1CBDCDE900128C
:101DF000012300224FF4C061D04805E0CDE9001274
:101E000001230022C021CF48FEF7F1FE1CBDC64AC7
:101E10000146904200D1CC48C44A914201D1CA48FF
:101E20001030C34A914201D1C748203070472DE994
:101E3000FF4F85B09946DDE914B7DDE912A81346D6
:101E40000446FFF7E4FF0546B748C04E00938442BE
:101E500009D1306840F0100030600698FFF7BAFFF3
:101E600025208DF81000B14884420BD1B748001FDF
:101E7000016841F4003101600698FFF78FFF2620CA
:101E80008DF81000AA48844209D1306840F0200043
:101E900030600698FFF765FF47208DF81000ADF819
:101EA0000AA0ADF806B0ADF80C90ADF80880ADF81A
:101EB000047000202873A08920F40050A081694696
:101EC0002046FEF746FCA08940F02000A0810126B4
:101ED0008DF8136006208DF811002046FFF732FFC1
:101EE0008DF8120004A8FEF778F92E73A08940F44B
:101EF0000050A08109B0BDE8F08F2DE9FF410446F4
:101F0000894800250C2617468846844206D1CDE92B
:101F10000065029500230395FFF789FF83488442FB
:101F200008D1CDE90065029500233A464146039564
:101F3000FFF77DFF7E48844208D1CDE90065029518
:101F400000233A4641460395FFF771FFBDE8FF8144
:101F50002DE9FF470446744800250C261F4690468D
:101F60008946844205D1CDE9006502950395FFF7C6
:101F70005EFF6E48844208D1CDE9006502953B467C
:101F8000424649460395FFF752FF6948844208D10B
:101F9000CDE9006502953B46424649460395FFF769
:101FA00046FFBDE8FF8700B50023FFF730FFC2887A
:101FB00062B141898388994201D10021418103683E
:101FC00089B25B56491C4181521EC280D8B200BD05
:101FD00000B5FFF71CFFC1888088814201D1012034
:101FE00000BD002000BD10B50C46FFF710FFC388F0
:101FF00042890DE08188914200D100220168895C0C
:10200000A14201D1012010BD521C5B1E92B29BB2B5
:10201000002BEFD1002010BD00B5FFF7F8FEC088FF
:1020200008B1002000BD012000BDF0B515460E46E8
:1020300007460024FFF7F0FFC0B90A213846FFF732
:10204000D2FF18B93846FFF7C3FF78B16D1EAC4216
:1020500008DA3846FFF7A7FF305504F101040A28D3
:10206000A4B2F4D1002030552046F0BD0020F0BDD0
:1020700000B5FFF7CCFE0021C1800181418100BD88
:1020800010B50B460446FFF7C2FE007B002808D0BF
:1020900004E0A1805B1C21880906FCD51978002981
:1020A000F7D110BD03B50346FFF7B1FE007B002852
:1020B00005D09DF80400988019880906FCD50CBD50
:1020C000C388828893420DD20389934201D10022B2
:1020D000028103890268D1540189491C0181C188A8
:1020E000491CC180704710480188890603D5808843
:1020F000C1B21548E4E770470C480088800606D551
:102100000A48001D0088C1B20F481030D8E7704758
:102110000748008880061BD50548001D0088C1B20D
:1021200009482030CCE70000001001400044004086
:102130000014014000080240001802400000024064
:10214000000C0240000402403C00002044380240E1
:102150007047000008B500F0CBFAFEF76EFC4FF4B4
:10216000E13421469748FEF76CFE2246002196484E
:10217000FFF7C3FE9FED950A954C84ED000A9FED95
:10218000950A84ED010A9FED940A84ED020A9FED01
:10219000930A204684ED030AFFF753FC94ED040AEA
:1021A00006218F48FFF71DFC8D4D8EA0D5E900124A
:1021B00000F078FE94ED050A06212846FFF711FC91
:1021C000D5E900128FA000F06DFE9648002606604B
:1021D0007C4FA5F104087B48FFF784FB414688F853
:1021E000000050B102287DD00128F4D148780128A0
:1021F000F1D0012088F80100EDE788F80160387F10
:10220000002870D088A000F04DFE92A000F04AFE99
:102210009BA000F047FE97ED000A06217048FFF7EB
:10222000E0FBD5E900129BA000F03CFE97ED010A0F
:1022300006216B48FFF7D5FBD5E900129AA000F004
:1022400031FE397A9EA000F02DFEF87C0090BB7C18
:102250007A7C397CA0A000F025FE797AA7A000F056
:1022600021FE97ED030A06215D48FFF7BAFBD5E989
:102270000012A5A000F016FEA9A000F013FEBB7D81
:102280007A7D397DABA003F5FA6300F00BFE97ED84
:10229000060A06215248FFF7A4FBD5E90012ACA0BC
:1022A00000F000FE97ED060A0220FFF75FFB062113
:1022B0004B48FFF796FBD5E90012ACA000F0F2FD09
:1022C00097ED080A03214648FFF78BFBD5E900127A
:1022D000ADA000F0E7FDB2A000F0E4FD97ED090A23
:1022E000022101E05AE057E03D48FFF77AFBD5E9CB
:1022F0000012B0A000F0D6FD97ED0B0A022138487D
:10230000FFF76FFBD5E90012AFA000F0CBFD97ED12
:102310000A0A02213248FFF764FBD5E90012AFA098
:1023200000F0C0FD97F83010B1A000F0BBFDB5A0E3
:1023300000F0B8FD002407E0381990F83110B9A07A
:1023400000F0B0FD641CE4B2387AA042F4D834A0A6
:1023500000F0A8FDB4A000F0A5FD97F83D10B7A0CF
:1023600000F0A0FD002411E004EB440007EB400066
:1023700090F84210009190F83F30B0F8402090F86B
:102380003E10B5A000F08EFD641CE4B297F83D004D
:10239000A042E9D82FA009E0BAA007E048780228B7
:1023A0003FF42AAF022088F80100C2A000F07AFDB5
:1023B00011E710B50446C1B20348FFF773FE20468B
:1023C00010BD0000CC040020004400406C334142AA
:1023D000EC0500206292F4C29AA137423CA362420B
:1023E0007000002044697374616E63652069733AFC
:1023F0002025642E25303664206D65746572730A5D
:102400000000000042656172696E672069733A20BE
:1024100025642E2530366420646567726565730A0D
:102420000A000000140000204E6577207265636585
:1024300069766564206461746120686176652076E0
:10244000616C696420475053207369676E616C0A40
:10245000000000002D2D2D2D2D2D2D2D2D2D2D2D60
:102460002D2D2D2D2D2D2D2D2D2D2D2D2D2D2D2D9C
:102470002D2D2D2D2D2D2D2D2D2D2D0A0000000063
:1024800047504747412073746174656D656E743AB7
:102490000A000000202D204C617469747564653A4F
:1024A0002025642E25640A00202D204C6F6E67695C
:1024B000747564653A2025642E25640A00000000C6
:1024C000202D205361747320696E207573653A2046
:1024D000253032640A000000202D2055544320543A
:1024E000696D653A20253032642E253032642E2500
:1024F0003032643A253032640A000000202D204634
:1025000069783A2025640A00202D20416C74697492
:102510007564653A202533642E253036640A000040
:102520004750524D432073746174656D656E743A03
:102530000A000000202D20446174653A20253032C5
:10254000642E253032642E253034640A00000000E9
:10255000202D20537065656420696E206B6E6F744A
:10256000733A2025642E253036640A00202D20532E
:102570007065656420696E206B6D2F683A20256454
:102580002E253036640A0000202D204469726563D0
:1025900074696F6E3A202533642E253033640A0047
:1025A00047504753412073746174656D656E743A8A
:1025B0000A000000202D2048444F503A2025326464
:1025C0002E253032640A0000202D2056444F503A08
:1025D000202532642E253032640A0000202D205040
:1025E000444F503A202532642E253032640A0000D0
:1025F000202D20466978206D6F64653A2025640A95
:1026000000000000202D2049442773206F662075AC
:1026100073656420736174656C6C697465733A20CA
:102620000000000025642C00475047535620737467
:102630006174656D656E743A0A000000202D2053A8
:102640006174656C6C6974657320696E2076696568
:10265000773A2025640A0000202D20533A202530A7
:1026600032642C20413A20253033642C20453A2016
:10267000253032642C20534E523A20253032640AE1
:10268000000000004E6577207265636569766564B9
:10269000206461746120686176656E2774207661BC
:1026A0006C696420475053207369676E616C210A1E
:1026B0000000000057616974696E67206669727373
:1026C0007420646174612066726F6D2047505321DD
:1026D0000A0000007047FEE7FEE7FEE7FEE77047EE
:1026E00070477047704710B5FEF79AF910BD0000AB
:1026F000444810B5016841F4700101604248016826
:1027000041F001010160404A002108321160026875
:102710003E4B1A400260031D3D4A1A60026822F4D3
:102720008022026038480C30016000F039F83549E9
:102730004FF000608039086010BD70B5324E002245
:1027400008363068334B344910F00C0003D00428AD
:1027500003D0082803D00B6018E0304815E02A4861
:10276000001D0468C4F38055046804F03F042DB9CB
:10277000B3FBF4F20368C3F388135A430068C0F351
:102780000140401C4000B2FBF0F008603068224A73
:10279000C0F30310121D105C0A68C2400A6070BDCD
:1027A00019484030016841F0805101601C480168BF
:1027B00041F440410160144808300168016001683B
:1027C0000160016841F480510160021F15491160E8
:1027D000111F0A6842F080720A600A689201FCD5F3
:1027E000114A40F202711160016821F00301016099
:1027F000016841F0020101600168C1F38101022911
:10280000FAD1704788ED00E000380240FFFFF6FE85
:10281000103000240024F4007800002000127A0018
:102820000070004010640108003C0240034611F8AB
:10283000012B00F8012B002AF9D1184670472DE929
:10284000FE4F804681EA0300C00F0C46009021F045
:10285000004123F00045B8EB0200A94105D24046F3
:10286000214690461C460B46024623F0004010438A
:1028700047D0270DC7F30A00C3F30A510290401A4C
:10288000019040286BDAC3F3130040F4801B0098DA
:10289000924620B10023D2EB030A63EB0B0B0198A5
:1028A0005946C0F14002504600F0A3F906460D46D5
:1028B00050465946019A00F0ABF910EB080061410F
:1028C000002487EA115284EAE7731A4340D0009A41
:1028D00062B3019A012A4FEA075215DC001B61EB33
:1028E00002014FF0004202EA0752CDE90042001C0B
:1028F00041F5801132462B4600F0E2F903B0BDE805
:10290000F08F40462146F9E7001B61EB0201001CF5
:1029100041F5801300185B412018A2F5001747EB22
:10292000030140EAD570B6196D4111E06D084FEA18
:10293000360645EAC0754FEA0752001B61EB0201FB
:10294000001C41F5801149084FEA3000001951413F
:1029500032462B4603B0BDE8F04F00F0A2B9009814
:10296000012240000023D0EB020263EBE0730098E9
:1029700021464FEAE074B8EB000061EB0401E9E79F
:1029800083F000435BE781F0004158E72DE9FE4FFB
:1029900081EA030404F0004421F0004100944FF068
:1029A000000B23F0004350EA01045ED052EA030416
:1029B0005BD0C3F30A54C1F30A552C44A4F2F33498
:1029C0000194A0FB0254C1F3130141F48011C3F33D
:1029D000130343F4801301FB024400FB034E840AFB
:1029E000970A44EA815447EA8357A4FB0768029593
:1029F0008D0A05FB07854FEA932C04FB0C54270531
:102A0000029D4FEA065847EA1637B5EB08056EEB0C
:102A1000070C870E920E47EA811742EA8312A7FB42
:102A20000201B6EB0B0164EB00042B0D43EA0C33FF
:102A30005E1844EB1C50DA465146E7FB0201C5F331
:102A400013044FEA0B3343EA14534FEA0432019C58
:102A500043EA0603A4F10C040294009CCDE900B4FF
:102A600000F02EF903B0BDE8F08F00200146F9E731
:102A70002DE9F04D81EA030404F0004B21F00045FC
:102A800014464FF0000A23F0004150EA050220D01E
:102A900054EA01021DD0C5F30A570246C5F31303D9
:102AA000C1F31300C1F30A5640F4801543F48013B8
:102AB000A7EB0608101BD64608F2FD3873EB05009D
:102AC00002D308F1010801E092185B41B8F1000F50
:102AD00003DA00200146BDE8F08D00204FF480119C
:102AE000064684460EE0171B73EB050705D3121B41
:102AF00063EB050306434CEA010C49084FEA30003A
:102B000092185B4150EA0107EDD152EA030012D05E
:102B100082EA040083EA0501084305D0101BAB419B
:102B200006D20122002306E000224FF0004302E01B
:102B30006FF0010253101AEB06004CEB085110EB3A
:102B40000A0041EB0B01BDE8F04D00F0AAB80EB54C
:102B500040F2334102910021CDE900110A460B46B3
:102B600000F0AEF803B000BD00F0004230F00040CD
:102B70000AD0C10D01F56071C0F3160042EA01519F
:102B8000C20840071143704700200146704701F01A
:102B9000004330B421F0004150EA010206D00A0D92
:102BA000A2F56072C1F31301002A02DC30BC0020E0
:102BB0007047440F44EAC104C100E01830BC00EB88
:102BC000C25000F037B830B50B4601460020202235
:102BD000012409E021FA02F59D4205D303FA02F52A
:102BE000491B04FA02F52844151EA2F10102F1DC8A
:102BF00030BD202A04DB203A00FA02F100207047A1
:102C00009140C2F1200320FA03F31943904070472A
:102C1000202A06DBCB17203A41FA02F043EAE073A0
:102C200006E041FA02F3D040C2F12002914008438D
:102C3000194670470029A8BF7047401C490008BFCB
:102C400020F00100704710B4B0FA80FC00FA0CF0DC
:102C500050EA010404BF10BC704749B1CCF1200414
:102C600021FA04F411FA0CF118BF012121430843A1
:102C7000A3EB0C01CB1D4FEA00614FEA102042BFCD
:102C8000002010BC704700EBC35010440029A4BFC3
:102C900010BC7047401C490008BF20F0010010BC68
:102CA000704710B5141E73F1000408DA401C41F19E
:102CB000000192185B411A4301D120F0010010BDC0
:102CC0002DE9F04D92469B4611B1B1FA81F202E036
:102CD000B0FA80F220329046FFF78BFF04460F4691
:102CE00040EA0A0041EA0B0153465A46084313D012
:102CF000114653EA010019D0C8F14002504600F0D5
:102D000091F805460E46504659464246FFF771FF78
:102D1000084305D0012004E020463946BDE8F08D87
:102D20000020054346EAE0762C4337430A986305C2
:102D3000E40AA0EB08000022FD0A44EA47540A30E6
:102D400002D500200146E9E7010510196941DDE9D6
:102D5000084500196941BDE8F04DA2E72DE9F04DA5
:102D600000231A461B1A8A4103DB00200146BDE8F6
:102D7000F08DC1F30A52C1F3130141F480154FF0F5
:102D8000000BD10702D100186D41521E00270446E6
:102D900040F2FF11384601EB620A3E468046024689
:102DA00000204FF4801100F03DF8C2197141BB18AA
:102DB00046EB0100B4EB030C75EB000C04D3E41AF2
:102DC00065EB000517460E46241908F101006D4118
:102DD00080463428E3DDF91946EB0600091BA841BB
:102DE00003D24FF0FF32134601E0002213461BEBE3
:102DF000070046EB0A51BDE8F04DFFF752BF000057
:102E0000064C074D06E0E06840F0010394E8070037
:102E100098471034AC42F6D3FDF7C2F9D04300080E
:102E2000F0430008202A04DB203A21FA02F00021B6
:102E3000704721FA02F3D040C2F1200291400843CA
:102E4000194670470EB5C10F80EAE0700844CA0702
:102E5000002140F233438DE80E000A460B46FFF78F
:102E60002FFF03B000BD70B5C1F30A5201F0004559
:102E70000024C1F3130140F2FF3341F480119A4260
:102E800001DA002070BD40F233439A42A2F233428D
:102E900003DC5242FFF7C6FF00E090402C43F1D024
:102EA000404270BD0FB4054B10B503A9044A029807
:102EB00000F0C0FF10BC5DF814FB0000B323000855
:102EC0008C00002003B401984100009850EAC12012
:102ED00018BF04204A0D18BF40F0010040F2FF72F5
:102EE000B2EB515F08BF40F00200012808BF052087
:102EF00002B070470000000070B59B482DED020B3A
:102F00002DED068B079D25F00044A04218DC974864
:102F1000844202DC0AD1069840B19DED060BBDEC5F
:102F2000068B02B0BDE8704000F03ABF002DCCBF68
:102F30009FED8F0B9FED900BBDEC068B02B070BD2B
:102F40008F48A04215DD8F48A042D8BF4FF0FF3414
:102F500058DD9DED060B51EC100BFFF7B3FF042875
:102F600008BF00F041FF9DED060BBDEC068B02B0E3
:102F700070BD9DED060B51EC100B01F004F9CDE98D
:102F8000060181489FED828BA0423CDD8248A04231
:102F90001FDD00249FED82AB9DED060B53EC1A2B39
:102FA00051EC100BFFF74BFC9DED060B41EC190BA0
:102FB00053EC1A2B51EC100BFFF7E8FC53EC182BD9
:102FC000FFF7DEFC53EC192BFFF752FDCDE90601AC
:102FD00049E09DED060B012453EC182B51EC100B2E
:102FE000FFF72DFC9DED060B41EC190B53EC182B54
:102FF00051EC100BFFF7C4FC53EC192BFFF738FD15
:10300000CDE906012FE06848A0421FDD02249FEDB4
:10301000689B9DED060B53EC192B51EC100BFFF741
:10302000B5FC53EC182BFFF70AFC9DED060B41ECA9
:10303000180B53EC192B51EC100BFFF7A1FC53ECC0
:10304000182BFFF715FDCDE906010CE09DED060BF1
:10305000032453EC102B9FED580B51EC100BFFF792
:1030600007FDCDE906019DED060B53EC102B51EC4D
:10307000100BFFF78BFC41EC180B53EC182BFFF7F0
:1030800085FC41EC190B4E480621B0EE490AF0EEE2
:10309000690A784400F070FD53EC182B51EC100BCA
:1030A000FFF774FC41EC180B4648B0EE490AF0EE0D
:1030B000690A0521784400F05FFD53EC192B51ECAF
:1030C000100BFFF763FC41EC100B51EC180B53ECA9
:1030D000102B002C0EDAFFF7B2FB9DED061B53EC14
:1030E000112BFFF753FC9DED061B53EC112BFFF743
:1030F0004AFC35E0FFF7A3FB9DED061B53EC112BBB
:10310000FFF744FC41EC100B2F48784400EBC4005F
:1031100090ED001B51EC100B53EC112BFFF730FC22
:103120009DED061B53EC112BFFF72AFC41EC100B15
:103130002648784400EBC40090ED001B51EC100BC6
:1031400053EC112BFFF71FFC41EC100B002DA2BF1D
:10315000BDEC068B02B070BD51EC100B81F000414C
:1031600041EC100B01E70000000010440000F07F6C
:10317000182D4454FB21F93F182D4454FB21F9BF6D
:103180000000DC3F0000203E0000F33F0000000094
:10319000000000000000F03F0000E63F00000000DB
:1031A000000000000000004000800340000000001C
:1031B000000000000000F83F000000000000F0BF29
:1031C000E21100009811000022110000DA10000046
:1031D00070B56B4E2DED040B2DED028B82B0DDF83A
:1031E0001CC0DDE905235C422CF000411C4341EA90
:1031F000D474049D22F00040B44205D86C422C43A4
:1032000040EAD474B4420BD99DED061B9DED040B2E
:1032100002B0BDEC028B04B0BDE8704000F0CABD46
:10322000ACF14054A4F17F641C430BD0022404EAA7
:10323000AC7444EAD27405439FED538B9FED542B3D
:1032400007D015E09DED040B51EC100B00F093FF3F
:1032500042E0002C11BF012C9DED040B02B0BDEC2F
:10326000028B04BF04B070BD022C38D0032C3BD0BD
:103270000B439FED491B9FED4A0B0AD0B14218D179
:10328000B04209D121F0804120F0804007910590A3
:103290000FE0002A15DA10E0434B7B44002C08BFF6
:1032A00093ED000B0DD0012C10D0022C17D0032C65
:1032B0001AD0B0421DD1002A03DAB0EE410AF0EE76
:1032C000610A02B0BDEC028B04B070BD93ED000B3F
:1032D00051EC100B81F0004141EC100BF1E7B0EE26
:1032E000480AF0EE680AECE7B0EE420AF0EE620A35
:1032F000E7E7401A00153C28C8BF8DED000B19DC2C
:10330000BCF1000FBEBF10F13C0F9FED290B8DEDFE
:10331000000B0FDB9DED060B53EC102B9DED040B0A
:1033200051EC100BFFF7A4FB00F02DFF00F023FF82
:10333000CDE90001002C08BF9DED000BC1D0012C90
:1033400010D0022C9FED1C0B53EC102B9DED000BAD
:1033500051EC100B0DD0FFF713FB53EC182BFFF7BC
:103360000FFBB9E7019880F0004001909DED000B44
:10337000A7E7FFF705FB53EC182BFFF704FBABE7C0
:103380000000F07F00000000182D4454FB2109408C
:10339000182D4454FB2109C0182D4454FB21F9BFBA
:1033A000182D4454FB21F93F3A10000000000000A2
:1033B0000000000000000000075C143326A6A13CBA
:1033C00010B52F499FED2C1B2DED020B84B00598F5
:1033D00020F000408842D8BF9DED040B2DDD294927
:1033E000884209D1049840B94FF0010000F01CFD5B
:1033F00000F0EAFC06B010BD05DB9DED040B00F00B
:10340000CFFC06B010BD68469DED040B00F0E0F85F
:1034100010F0030004BF9DED021B9DED000B0CD0CE
:1034200001280ED09DED021B9DED000B022817D048
:10343000012000F01DFC06B010BD00F0E5FA06B05A
:1034400010BD9DED021B9DED000B012000F010FC56
:1034500051EC100B81F0004106B041EC100B10BD97
:1034600000F0D2FA51EC100B81F0004106B041ECB3
:10347000100B10BD00000000000000000000000064
:10348000FB21E93F0000F07F10B52F499FED2C1B79
:103490002DED020B84B0059820F000408842DCBF7F
:1034A00000209DED040B32DD2849884209D10498A3
:1034B00040B94FF0010000F0B7FC00F085FC06B009
:1034C00010BD05DB9DED040B00F06AFC06B010BDDD
:1034D00068469DED040B00F07BF810F0030011D05E
:1034E000012818D09DED021B9DED000B02281AD07B
:1034F00000F08AFA51EC100B81F0004106B041EC6B
:10350000100B10BD9DED021B9DED000B012000F086
:10351000AFFB06B010BD9DED021B9DED000B00F052
:1035200073FA06B010BD012000F0A2FB51EC100BA5
:1035300081F0004106B041EC100B10BD000000000E
:103540000000000000000000FB21E93F0000F07FC8
:1035500000B52DED048BB0EE409AF0EE609A83B08A
:1035600051EC190BFFF7FAFB41EC180B18EE100A9F
:1035700018EE901A8DED008B002818BF012008432B
:1035800020F00040C0F17F6000F1E040C00F14D097
:1035900019EE101A19EE900A8DED009B002918BF44
:1035A0000121084320F00040C0F17F6000F1E040BD
:1035B000C00F04BF012000F037FCB0EE480A03B092
:1035C000F0EE680ABDEC048B00BD000000000000B6
:1035D0002DE9F14F04462DED020B2DED088B8AB03D
:1035E0009FEDE70B80ED020B139EE74826F00045A8
:1035F00085420ADC9DED120B002084ED000B0AB021
:10360000BDEC088B03B0BDE8F08FE0489FEDE0AB68
:103610009FEDE1BBA84247DDE14F9FEDE39B9FEDAE
:10362000E48B9DED120B53EC1A2B51EC100B002E7A
:103630001CDDFFF7A5F941EC100BBD4208D053EC9F
:103640001B2B51EC100BFFF79BF9C4E900010BE0B9
:1036500053EC192B51EC100BFFF792F953EC182B8C
:10366000FFF78EF9C4E900010120C8E7FFF7E7F88A
:1036700041EC100BBD4208D053EC1B2B51EC100B4E
:10368000FFF7DDF8C4E900010BE053EC192B51EC16
:10369000100BFFF7D4F853EC182BFFF7D0F8C4E960
:1036A00000014FF0FF30AAE7C348A84279DB9DED47
:1036B000120B51EC100B00F066FD41EC180B9FED66
:1036C000C00B53EC102BFFF761F99FEDBF1B53ECC0
:1036D000112BFFF7B4F8FFF7C6FB0746FFF7B2FB65
:1036E00041EC190B53EC1A2BFFF750F953EC182B44
:1036F000FFF749F941EC180B53EC1B2B51EC190B5C
:10370000FFF744F9DFF8C8A241EC100B4FEA155857
:103710000125FA4453EC102B51EC180BFFF730F94C
:10372000032DC4E900013DD0C1F30A5005EB45115A
:10373000A8EB00001139814234DA0AEB051BB0EE28
:1037400048AA9BED000BF0EE68AA53EC102B51EC4D
:10375000190BFFF71BF941EC1B0B51EC1A0B53EC47
:103760001B2BFFF70DF941EC180B51EC1A0B53EC26
:10377000182BFFF705F953EC1B2BFFF701F99BED15
:10378000020B41EC1A0B53EC102B51EC190BFFF709
:10379000FDF853EC1A2BFFF7F3F841EC100B6D1CFE
:1037A000B8E70EE0002EA8BF3846BFF628AF94ED6C
:1037B000000B51EC100B81F00041C4E9000178428C
:1037C0001DE7C6F3130040F4801EC6F30A50A0F2B2
:1037D000F530471100F01F05C5F12000DDF848B0B5
:1037E00008900020069007900520EC467949002DAE
:1037F00007EB0002794408BF51F8221009D051F8B4
:10380000223001EB8201AB404A68089922FA01F1AB
:103810001943A1FB0E26A1FB0B131A449A4234BF95
:103820000123002303EB06080CEB8003D3E901A678
:103830000E448E4234BF0121002192448A4411B1CA
:10384000924502D903E0924501D2012100E0002116
:10385000C3E901A641444CF82010011EA0F101006B
:10386000C4DC029800F10050850F0298DDE903677F
:103870008000DDF81480FFF7E5FA41EC1A0B3046C2
:10388000FFF765F99FED541B53EC112BFFF77EF802
:1038900041EC1B0B3846FFF75AF99FED511B53ECD7
:1038A000112BFFF773F841EC180B4046FFF74FF967
:1038B0009FED4D1B53EC112BFFF768F841EC190BF2
:1038C00051EC180B53EC192BFEF7B9FF53EC1B2BE3
:1038D000FEF7B5FF53EC1A2BFEF7B1FFCDE9080157
:1038E000002008909DED080B53EC1A2B51EC100BA7
:1038F000FFF746F853EC1B2BFFF742F853EC182B5D
:10390000FFF73EF853EC192BFFF73DF89FED381BFE
:1039100053EC112BFFF73AF89FED370B41EC180BE6
:1039200053EC102B9DED080B51EC100BFFF72EF80C
:1039300053EC182BFEF783FF9FED310B41EC180B76
:1039400053EC102B9DED080B51EC100BFFF71EF8FC
:1039500053EC182BFEF773FF41EC100B139810F08B
:10396000004F06D06D4251EC100B81F0004141EC4C
:10397000100B284684ED000B41E60000000000001B
:103980000000000000000000FB21E93F7CD902405C
:1039900000004054FB21F93F3163621A61B4D03D0D
:1039A000FB21F93F000000000000601A61B4D03D27
:1039B0007370032E8A19A33BFB21394100000000DC
:1039C00083C8C96D305FE43F000000000000E03FA5
:1039D000CA0B0000180B0000000000000000103EA1
:1039E000000000000000103C000000000000103A41
:1039F000182D4454FB21F93D3326A611460B113CEA
:103A000000000054FB21F93D10B52DED040B2DED08
:103A1000088B82B0B0EE419AF0EE619A0B9820F0DC
:103A200000449FED4BABB4F1795F11DA9DED0A0BC9
:103A300051EC100BFFF717FA002801BFB0EE4A0A4D
:103A4000F0EE6A0A02B0BDEC088B04BF04B010BDF2
:103A50009DED0A0B53EC102B51EC100BFEF796FF6B
:103A600041EC180B3C480621B0EE480AF0EE680A1B
:103A7000784400F081F853EC182B51EC100BFEF752
:103A800085FF9DED0A0B41EC1B0B53EC192B51EC00
:103A9000100BFEF77BFF41EC190B53EC1B2B51EC89
:103AA000180BFEF773FF53EC192BFEF769FF9FED20
:103AB0002C0B41EC190B53EC102B51EC180BFEF7AF
:103AC00065FF41EC100B2848844210DA53EC192BA7
:103AD00051EC100BFEF754FF53EC1A2BFEF753FF7B
:103AE00041EC100B02B0BDEC088B04B010BD1F48B8
:103AF000A042BCBF9FED1E1B8DED001B06DBA4F595
:103B000000100190002000909DED001B51EC100B67
:103B100053EC112BFEF734FF9DED000B41EC180B1D
:103B200053EC102B51EC1A0BFEF72AFF41EC1A0B49
:103B300053EC192B51EC180BFEF722FF53EC1A2B08
:103B4000FEF721FF41EC100BCCE700000000000065
:103B5000000000000000F03F3408000000000000FA
:103B6000000000000000E03F3333D33F0000E93F96
:103B7000000000000000D23F70B504462DED028B1E
:103B80004D1E00EBC500B0EE408AF0EE608A90ED6D
:103B9000000B35F0060017D053EC182B51EC100B2E
:103BA000FEF7F4FE41EC100B6D1E04EBC50090ED2A
:103BB000001B51EC100B53EC112BFEF740FE41ECB7
:103BC000100B35F00600E7D1022D36D0042D1CD0A5
:103BD000062D1CBFBDEC028B70BD53EC182B51ECB5
:103BE000100BFEF7D3FE94ED0A1B53EC112BFEF7DE
:103BF00026FE53EC182BFEF7C9FE94ED081B53EC80
:103C0000112BFEF71CFE41EC100B53EC182B51EC62
:103C1000100BFEF7BBFE94ED061B53EC112BFEF7C9
:103C20000EFE53EC182BFEF7B1FE94ED040B53EC93
:103C3000102BFEF704FE41EC100B53EC182B51EC4B
:103C4000100BFEF7A3FE94ED021B53EC112BFEF7B5
:103C5000F6FD53EC182BFEF799FE94ED001B53EC88
:103C6000112BFEF7ECFDBDEC028B41EC100B70BD8F
:103C700031B504462DED040B2DED0A8BB0EE41BAA3
:103C8000F0EE61BA0B989DED0A0B20F00040B0F108
:103C9000795F0DDA51EC100BFFF714F9042808BF17
:103CA00000F0A2F89DED0A0BBDEC0A8B05B030BD0B
:103CB00053EC102B51EC100BFEF768FE41EC180B87
:103CC0009DED0A0B53EC182B51EC100BFEF75EFE2A
:103CD00041EC190B2C48B0EE480AF0EE680A0521B9
:103CE0007844FFF749FF9FED2ACBB0EE40AAF0EEF3
:103CF00060AA9CB353EC1C2B51EC190BFEF746FE4B
:103D000041EC1C0B53EC1A2B51EC190BFEF73EFE49
:103D10009FED210B41EC190B53EC102B51EC1B0BBD
:103D2000FEF734FE53EC192BFEF72AFE53EC182B4A
:103D3000FEF72CFE53EC1B2BFEF722FE53EC1C2B44
:103D4000FEF71EFE9DED0A1B53EC112BFEF71BFE2A
:103D5000BDEC0A8B05B041EC100B30BDFFE753EC16
:103D60001A2B51EC180BFEF711FE53EC1C2BFEF72F
:103D700066FD53EC192BFEF709FE9DED0A1B53EC73
:103D8000112BFEF75CFDE3E7C40600000000000015
:103D9000495555555555C5BF000000000000E03F8E
:103DA00010B553EC102B51EC100BFEF748FD41EC15
:103DB000100B10BD10B553EC112B51EC100BFEF78E
:103DC0003EFD41EC100B10BD9FED050B10B553EC03
:103DD000102B51EC100BFEF74BFE41EC100B10BDFD
:103DE00000000000000000009FED050B10B553EC33
:103DF000102B51EC100BFEF7C9FD41EC100B10BD60
:103E0000000000000000001002E008C8121F08C1F6
:103E1000002AFAD170477047002001E001C1121F4B
:103E2000002AFBD17047000001490860704700007C
:103E3000980000202DE9FF4F8BB0884605460026EC
:103E400006E025280BD0DDE90D1290476D1C761C8D
:103E500028780028F5D10FB03046BDE8F08F002457
:103E6000A146A2460122AE4900E0044315F8013FF5
:103E7000203B02FA03F00842F7D128782A2810D014
:103E80006FF02F022878A0F13001092915D809EB2D
:103E9000890102EB410144F0020400EB01096D1CB1
:103EA000F0E758F8041B5FEA010903D544F4005415
:103EB000C9F1000944F002046D1C28782E2817D19E
:103EC00015F8010F44F004042A280ED06FF02F02D9
:103ED0002878A0F1300109290AD80AEB8A0102EBFF
:103EE000410100EB010A6D1CF2E758F804AB6D1CB0
:103EF00028786C280FD006DC4C2817D068280DD005
:103F00006A2814D104E0742810D07A280FD10DE06B
:103F100044F400140AE044F4801401E044F4401432
:103F20006978814202D104F580146D1C6D1C2878DB
:103F3000692865D006DC00288DD0632827D0642846
:103F400006D15DE06E2808D073282AD0752877D076
:103F5000DDE90D129047761CE0E0C4F30250022820
:103F600009D003280DD0D8F8001004280DD00E6019
:103F700008F10408D2E0D8F80010F217C1E9006295
:103F8000F6E7D8F800100E80F2E70E70F0E718F8A8
:103F9000041B8DF8001000208DF80100EB46012075
:103FA00003E058F804BB4FF0FF3061074FF0000703
:103FB00001D40AE07F1C57450DDA8742FADB1BF873
:103FC00007100029F6D106E07F1C8742FCDB1BF8B6
:103FD00007100029F8D1DDE90D23A9EB0700814680
:103FE000214600F0B1F83044C61904E0DDE90D12B5
:103FF0001BF8010B90477F1EF8D22146484688E007
:1040000058F8040BC4F302514FF00A0B032900D1F6
:1040100000B2042900D140B2002802DA40422D212A
:1040200002E0210505D52B218DF82410012104E0A3
:1040300006E0E10710D02021F6E708AF089113E071
:1040400058F8040BC4F302514FF00A0B032900D1B6
:1040500080B2042900D1C0B20021EEE75946FEF734
:10406000B2FD303107F8011D0028F7D1ADEB070094
:1040700000F1200B600702D524F4803401E04FF0FA
:10408000010ADA4502DDAAEB0B0000E000208246BF
:1040900000EB0B0108980144A9EB01000A90E00332
:1040A00006D4DDE90D2321460A9800F04DF80644B8
:1040B0004FF0000908E009A911F80900DDE90D1227
:1040C000904709F10109761C08998945F3DBE00363
:1040D0000CD5DDE90D2321460A9800F035F8064499
:1040E00004E0DDE90D1230209047761CBAF10001A2
:1040F000AAF1010AF5DC05E0DDE90D1217F8010B64
:104100009047761CBBF10001ABF1010BF4DC0A987F
:104110002146DDE90D2300F005F806446D1C97E605
:10412000092801002DE9F041044600251E461746E6
:10413000880404D405E039462020B0476D1C641E75
:10414000F9D52846BDE8F0812DE9F0410446002567
:104150001E469046C80301D5302700E0202788047A
:1041600004D505E041463846B0476D1C641EF9D5BC
:104170002846BDE8F08110B541EC100BFEF7BCFEFF
:1041800051EC100B10BD82B0CDE9000121F00040D0
:1041900001909DED000B02B051EC100B7047000038
:1041A000F0B50B30154D20F007010024144A0FE044
:1041B00003688B420BD38B4205D95E1A43184768BC
:1041C000C3E9006700E04368136002C004E0021D19
:1041D00010680028ECD12046002802D1286808B1D8
:1041E0000020F0BD064A07481060074A121A22F064
:1041F0000702C0E9002401202860D7E794000020CE
:10420000900000200C06002008080020000000009C
:104210004FBB610567ACDD3F182D4454FB21E93FDE
:104220009BF681D20B73EF3F182D4454FB21F93FCD
:10423000E2652F227F2B7A3C075C143326A6813C53
:10424000BDCBF07A8807703C075C143326A6913CFE
:10425000C4EB98999999C9BF711623FEC671BCBF6A
:104260006D9A74AFF2B0B3BF9AFDDE522DDEADBFD2
:104270002F6C6A2C44B4A2BF0D5555555555D53FEA
:10428000FF8300922449C23F6E204CC5CD45B73F05
:10429000513DD0A0660DB13FEB0D76244B7BA93F7D
:1042A00011DA22E33AAD903F4C5555555555A53F8F
:1042B0007751C1166CC156BF9015CB19A001FA3EBB
:1042C000AD529C804F7E92BEC4B1B4BD9EEE213EE5
:1042D000D43888BEE9FAA8BD000000000000000044
:1042E00000004054FB21F93F3163621A61B4D03DB4
:1042F0000000601A61B4D03D7370032E8A19A33B8D
:104300000000002E8A19A33BC14920259A837B39DE
:1043100000000000000000006E83F9A22915444E41
:10432000D15727FCC0DD34F5999562DB4190433CC1
:10433000AB6351FE61C5BBDE3A6E24B7E0D24D429D
:10434000EA2E49061C92D1091CEB1DFE3EA729B19D
:10435000F53582E88444BB2E26709CE9417E5FB42B
:1043600039D69139F43953838B5F849C3B28F9BD4E
:10437000FF97F81F0F9805DE8B112FEF1F6D0A5A5C
:10438000CF7E366DB709CB27663F464F2DEA5F9E3D
:10439000C7BA27757BF1E5EBF739073DEA92528AF8
:1043A000B15FFB6B085D8D1FA6F810111111813FE5
:1043B000D561C119A0012ABF7DFEB157E31DC73EDB
:1043C000EB9C2B8AE6E55ABE7CD5CF5A3AD9E53D1F
:1043D000F0430008000000209C000000083E000898
:1043E0008C4400089C0000206C0B0000183E000864
:1043F000000000000102030401020304060708098B
:1044000000000000000000000000000000000000AC
:104410000400000000000000000000000000000098
:10442000000000000000000000000000CC0100209F
:10443000000100000000000000000000CC0200208D
:10444000000100000000000000000000CC0300207C
:10445000000100000000000000000000000000005B
:10446000000000000000000000E1F5050000000071
:104470000000000001020304060708090000000014
:0C44800000000000000000000000000030
:040000050800019955
:00000001FF
