:020000040800F2
:10000000F00700204D02000865150008671500087C
:10001000691500086B1500086D1500080000000048
:100020000000000000000000000000006F15000844
:10003000711500080000000073150008771500080E
:1000400067020008670200086702000867020008EC
:1000500067020008670200086702000867020008DC
:1000600067020008670200086702000867020008CC
:1000700067020008670200086702000867020008BC
:1000800067020008670200086702000867020008AC
:10009000670200086702000867020008670200089C
:1000A000670200086702000867020008670200088C
:1000B000670200086702000867020008670200087C
:1000C000670200086702000867020008670200086C
:1000D00067020008E313000803140008271400084F
:1000E000670200086702000867020008670200084C
:1000F000670200086702000867020008670200083C
:10010000670200086702000867020008670200082B
:100110004B1400086F14000867020008670200080B
:10012000670200086702000867020008670200080B
:1001300067020008670200086702000867020008FB
:1001400067020008670200086702000867020008EB
:10015000670200086702000867020008911400089F
:1001600067020008670200086702000867020008CB
:1001700067020008670200086702000867020008BB
:100180006702000867020008B5140008D9140008C7
:10019000670200086702000867020008670200089B
:1001A00067020008670200086702000800F002F812
:1001B00000F03CF80AA090E8000C82448344AAF1C5
:1001C0000107DA4501D100F031F8AFF2090EBAE8C3
:1001D0000F0013F0010F18BFFB1A43F0010318477B
:1001E000B4150000D4150000103A24BF78C878C1B7
:1001F000FAD8520724BF30C830C144BF04680C602D
:10020000704700000023002400250026103A28BF74
:1002100078C1FBD8520728BF30C148BF0B60704778
:100220001FB501F0B2FA1FBD10B510BD01F077FA8D
:100230001146FFF7F5FF01F073F901F095FA03B4E9
:10024000FFF7F2FF03BC01F099FA0000094880476C
:1002500009480047FEE7FEE7FEE7FEE7FEE7FEE7A8
:10026000FEE7FEE7FEE7FEE704480549054A064BC0
:10027000704700003F160008AD010008F0010020A3
:10028000F0070020F0030020F00300202849084375
:1002900028490860704730B50F23C27801780125DE
:1002A000FAB1244A126801F1E02102F4E062C2F5D9
:1002B000E062C2F30722C2F10404D3404278A240B4
:1002C00084781C401443220181F80024007800F057
:1002D0001F018D404009800000F1E020C0F800516E
:1002E00030BD01F01F0085404809800000F1E0208A
:1002F000C0F8805130BD104A114001430D48001F25
:10030000016070470B4A121D0029116801D001439A
:1003100000E08143116070474FF0E0210428086934
:1003200003D020F004000861704740F00400FAE7B1
:100330000000FA050CED00E080FFFF1FF94801689E
:1003400041F001010160F74A0021083211600268A2
:10035000F54B1A400260031DF44A1A60F14BF44A4F
:1003600084331A60F14A103A1B1D1A60026822F4A5
:1003700080220260EB480C300160181D016070475C
:10038000E8490022891C0A70087070470246002064
:10039000510901290CD002290CD0E24974310968B5
:1003A00002F01F02012393400B4200D0012070474E
:1003B000DC49F4E7DB497031F1E718B500204FF470
:1003C000A04400903120FFF7E1FF0099491C009103
:1003D000A14201D00028F5D03120FFF7D7FF002837
:1003E00000D0012018BDCF4A116821F0F80141EA80
:1003F000C00010607047CF4908607047C9490022AB
:1004000070310A700A70012802D0042801D1052039
:1004100008707047C8490860704741EA82115A085D
:1004200010B5C64B029C03EB02421143014341EA63
:100430000460BC49091D086010BDBE4908667047CC
:10044000800140EA0160B74940EA027084310860E7
:100450007047B84988667047800140EA0160B14939
:1004600040EA0270883108607047B24908677047F7
:10047000B049C8647047AB4B08331A68084322F090
:10048000EC62104318607047A64B08331A680843A3
:1004900022F07842104318607047A24A083211686F
:1004A00021F003010143116070479E480830006845
:1004B00000F00C0070479B4A0832116821F0F001EF
:1004C000014311607047974A0832116821F4E051E6
:1004D000014311607047934A0832116821F460416A
:1004E00041EAC0001060704770B58E4B0833196840
:1004F000934C11F00C0104D06610042903D0082994
:1005000003D004601BE0066019E0864A121D1168E2
:10051000C1F38055116801F03F0115B1B6FBF1F14F
:1005200001E0B4FBF1F114681268C4F3881461436C
:10053000C2F30142521C5200B1FBF2F10160196892
:100540000F2202EA11117F4A545C0168E1404160C8
:100550001C68072505EA9424145D21FA04F48460DC
:100560001B6805EA5333D25CD140C16070BDC0F353
:100570000121032908D16B4B08331968724A21F411
:10058000F81102400A431A60664970310A68C0F3E4
:100590000B0002430A60704767494439086070479E
:1005A00065494039086070476249C1F85C0170478D
:1005B0005C4A8C321168401E21F01F01014311601A
:1005C0007047584A8C3211686FF0FF0321F4F851DC
:1005D00003EB0020084310607047524A8C321168C8
:1005E00021F440110143116070474E4A8C3211686A
:1005F00021F440010143116070474A4A8C3211686E
:1006000021F440310143116070475049C1F8E001C5
:100610007047444A30320029116801D0014300E09C
:100620008143116070473F4A34320029116801D07C
:10063000014300E08143116070473A4A3832002993
:10064000116801D0014300E0814311607047354AD1
:1006500040320029116801D0014300E0814311605C
:100660007047304A44320029116801D0014300E04C
:100670008143116070472B4A10320029116801D064
:10068000014300E0814311607047264A143200297B
:10069000116801D0014300E0814311607047214A95
:1006A00018320029116801D0014300E08143116034
:1006B00070471C4A20320029116801D0014300E034
:1006C000814311607047174A24320029116801D014
:1006D000014300E0814311607047124A5032002903
:1006E000116801D0014300E08143116070470D4A59
:1006F00054320029116801D0014300E081431160A8
:100700007047084A58320029116801D0014300E0BF
:10071000814311607047034A60320029116817D085
:10072000014316E000380240FFFFF6EA10300024D3
:100730000030002000004742800E47420000FFFFCB
:100740000024F40000000020FFFCFF0F00104742CF
:10075000814311607047194A0029116801D0014393
:1007600000E081431160704714490C31012808688A
:1007700003D020F008000860704740F00800FAE756
:100780000E4A573A0029117801D0014300E0814315
:100790001170704709481030016841F080710160A4
:1007A00070470146054A0020583A12680A4200D0B4
:1007B000012070470149563908707047643802407B
:1007C000774910B5884206D101210846FFF753FF4B
:1007D000002101205BE07349884206D101210220FB
:1007E000FFF749FF0021022051E06F49884206D1FE
:1007F00001210420FFF73FFF0021042047E06B495F
:10080000884206D101210820FFF735FF002108208A
:100810003DE06749884206D101211020FFF72BFFF8
:100820000021102033E06349884206D101212020B5
:10083000FFF721FF0021202029E05F49884206D1EF
:1008400001214020FFF717FF002140201FE05B49F6
:10085000884206D101218020FFF70DFF0021802072
:1008600015E05749884202D1012184150AE0554913
:10087000884202D10121441504E0534988420AD13B
:10088000012104152046FFF7F6FE00212046BDE8B1
:100890001040FFF7F0BE10BDF0B5002201274FF069
:1008A000030C0B6807FA02F52B40AB422CD106680B
:1008B00053000CFA03F4A64306600E79D0F800E06A
:1008C0009E4046EA0E0606600E79012E01D0022EE9
:1008D00012D18668A64386604E79D0F808E09E4023
:1008E00046EA0E0686604668AE43466045688E79E5
:1008F0009640B6B235434560C568A543C560CC791E
:100900009C40C3681C43C460521C102AC9D3F0BD6C
:100910004FF6FF7101600021017141718171C17158
:10092000704708B541F480320092C261C1610099FC
:10093000C161C169C069009008BD0246002012690A
:100940000A4200D001207047006980B27047024619
:10095000002052690A4200D001207047406980B2ED
:10096000704701837047418370470AB10183704724
:10097000418370474161704742694A404261704714
:100980004B07DB0E9A40C90810B500EB8100016AE5
:100990000F249C40A1430162016A1143016210BD12
:1009A000000002400004024000080240000C024027
:1009B000001002400014024000180240001C0240D7
:1009C000002002400024024000280240CD4910B51A
:1009D000884206D101211020FFF775FE002110206A
:1009E00020E0C949884202D101214C0429E0C749CD
:1009F000884202D101218C0423E0C549884202D1FA
:100A00000121CC041DE0C349884202D101210C051B
:100A100017E0C149884209D101212020FFF753FE88
:100A200000212020BDE81040FFF74DBEBB498842A1
:100A300002D101218C0704E0B94988420AD1012181
:100A400044052046FFF735FE2046BDE81040002152
:100A5000FFF72FBE10BD7FB50446008A0D46C9883A
:100A600020F4405001432182A08941F20C61884367
:100A7000A9882A8911436A8902431143A181A08A66
:100A800020F44071A8890843A0826846FFF72CFD36
:100A90009C48844202D0A048844201D1039800E0DF
:100AA0000298A189090400EBC00101EB001029683C
:100AB00001D5490000E08900B0FBF1F06422B0FBF1
:100AC000F2F109010B096FF018056B4300EB83008D
:100AD000A3891D044FF0320306D503EBC000B0FB21
:100AE000F2F000F0070005E003EB0010B0FBF2F0BD
:100AF00000F00F00084320817FBD4FF416510160C4
:100B000000218180C18001810C2242818181704756
:100B100010B5028A4C8822F470630A8822438C88BC
:100B2000C9880C4322431A43028210BD0021018070
:100B300041808180C18070470029818902D041F4C1
:100B4000005101E021F4005181817047028B02F4D1
:100B50007F420283028B0A43028370470029818906
:100B600002D041F4004101E0C1F30E0181817047E0
:100B70000029818A02D041F4006101E021F4006182
:100B800081827047C1F30801818070478088C0F37B
:100B900008007047028A22F00F020282028A0A438A
:100BA000028270470029818902D041F0020101E0F0
:100BB00021F0020181817047828922F400628281E2
:100BC00082890A4382817047028A22F020020282CF
:100BD000028A0A43028270470029018A02D041F446
:100BE000804101E021F4804101827047818941F018
:100BF0000101818170470029818A02D041F00801FA
:100C000001E021F0080181827047028BD2B2028399
:100C1000028B42EA0121018370470029818A02D0B8
:100C200041F0200101E021F020018182704700297C
:100C3000818A02D041F0100101E021F0100181828F
:100C40007047828A22F004028282828A0A43828268
:100C500070470029818A02D041F0020101E021F0B1
:100C6000020181827047002A828A01D00A4300E093
:100C70008A438282704710B5C1F3421301F01F040A
:100C80000121A140012B07D0022B07D01430002AEC
:100C9000026805D00A4304E00C30F8E71030F6E7AC
:100CA0008A43026010BD0246002012880A4200D02A
:100CB00001207047C9430180704770B501F01F05DE
:100CC00001260024C1F3421306FA05F2012B0FD0CE
:100CD000022B0FD0838A4FEA11210088134206FAB3
:100CE00001F600EA060001D000B10124204670BDE3
:100CF0008389F0E7038AEEE70A0A01219140C9439C
:100D0000018070470010014000440040004800404E
:100D1000004C0040005000400014014000780040AA
:100D2000007C0040FE4A0146904200D10020FD4A6E
:100D3000914200D10120FC4A914200D10220FB4A9D
:100D4000914200D10420FA4A914200D10520F94A8B
:100D5000914200D10620F84A914200D10720F74A7B
:100D6000914200D10820704710B504460121C80700
:100D7000FFF76DFC002C17D101211020FFF749FC73
:100D8000EF4C082201212046FFF7FAFD082200213E
:100D90002046FFF7F5FDEB4A032120461160BDE830
:100DA00010401146FFF778BD10BD70B50446012113
:100DB0008807FFF74CFCE34DC4B1012C28D1012179
:100DC0002020FFF726FCE04C082207212046FFF7F1
:100DD000D7FD082206212046FFF7D2FDC021296059
:100DE0002046BDE87040D749FFF756BD01211020CD
:100DF000FFF70FFCD24C082211462046FFF7C0FD3A
:100E0000082207212046FFF7BBFD4FF4C071E6E73B
:100E100070BD70B5044601212020FFF722FCC94DAA
:100E2000CCB1012C28D101214020FFF7F2FBC74CA7
:100E300008220E212046FFF7A3FD082209212046A3
:100E4000FFF79EFD4FF4844129602046BDE87040C5
:100E5000BC49FFF721BD01210420FFF7DAFBBC4CA0
:100E6000082206212046FFF78BFD08220721204695
:100E7000FFF786FDC021E7E770BD70B5044601218C
:100E80000805FFF7E4FB002C22D101210420FFF725
:100E9000C0FB01210820FFF7BCFBAD4E08220C214E
:100EA0003046FFF76DFDAB4D082202212846FFF7C3
:100EB00067FDA44CA814214620603046FFF7ECFCE7
:100EC0000420206021462846BDE87040FFF7E4BCBE
:100ED00070BD70B504460121C804FFF7B8FB994DF9
:100EE000CCB1012C28D101210420FFF792FB984CB2
:100EF00008220A212046FFF743FD08220B21204645
:100F0000FFF73EFD4FF4406129602046BDE8704088
:100F10008C49FFF7C1BC01210846FFF77AFB8E4CD4
:100F2000082200212046FFF72BFD08220121204640
:100F3000FFF726FD0321E7E770BD70B504460121E8
:100F40008804FFF784FB7F4D4FF44066D4B1012C39
:100F500020D0022C2FD101210820FFF75AFB7D4C15
:100F6000072208212046FFF70BFD07220921204612
:100F7000FFF706FDB11029602046BDE870407149B9
:100F8000FFF78ABC01210220FFF743FB07220A2159
:100F9000724C06E001210420FFF73BFB07226C4C5A
:100FA0000A212046FFF7ECFC07220B212046FFF721
:100FB000E7FC2E60E0E770BD70B5044601214804EF
:100FC000FFF745FB5F4DC4B1012C27D1012108205B
:100FD000FFF71FFB5F4C072205212046FFF7D0FCDF
:100FE000072206212046FFF7CBFC6021296020461E
:100FF000BDE870405349FFF74FBC01210846FFF799
:1010000008FB554C072202212046FFF7B9FC0722B6
:1010100003212046FFF7B4FC0C21E7E770BD70B553
:10102000044601211020FFF71CFB464DC4B1012CE2
:1010300028D101210220FFF7ECFA484C07220621B3
:101040002046FFF79DFC072211462046FFF798FC3B
:10105000C02129602046BDE870403A49FFF71CBC1A
:1010600001210846FFF7D5FA3B4C0722092120460B
:10107000FFF786FC07220A212046FFF781FC4FF488
:10108000C061E6E770BD2DE9F04104462D4886B009
:10109000884602210171002585710127C77103214E
:1010A00041711F480C26009284420FD14046FFF741
:1010B000B6FF2520ADF80A60ADF806508DF8100097
:1010C000ADF80C50ADF80850ADF804501548844206
:1010D0000FD14046FFF770FF2620ADF80A60ADF84B
:1010E00006508DF81000ADF80C50ADF80850ADF872
:1010F00004500D4884420FD14046FFF71EFF2720C1
:10110000ADF80A60ADF806508DF81000ADF80C503F
:10111000ADF80850ADF804500448844230D11FE0C7
:10112000001001400044004000480040004C0040D6
:10113000005000400014014000780040007C004056
:10114000001002401000002000140240001802406D
:1011500000080240000C024000000240000402406F
:101160004046FFF7B6FE3420ADF80A60ADF80650F1
:101170008DF81000ADF80C50ADF80850ADF80450E3
:10118000DE4884420FD14046FFF777FE3520ADF8A8
:101190000A60ADF806508DF81000ADF80C50ADF8AF
:1011A0000850ADF80450D64884420FD14046FFF7AE
:1011B00030FE4720ADF80A60ADF806508DF81000FB
:1011C000ADF80C50ADF80850ADF80450CD4884424D
:1011D0000FD14046FFF7E9FD5220ADF80A60ADF8A7
:1011E00006508DF81000ADF80C50ADF80850ADF871
:1011F0000450C54884420FD14046FFF7B5FD532047
:10120000ADF80A60ADF806508DF81000ADF80C503E
:10121000ADF80850ADF8045000212046FFF78CFCD3
:101220002046FFF7D3FB69462046FFF714FC012157
:101230002046FFF781FC012240F225512046FFF7AE
:101240001AFD8DF813708DF811502046FFF76AFDD6
:101250008DF8120004A8FFF71EF806B0BDE8F08173
:10126000AA4A0146904200D1A948AA4A914201D116
:10127000A7480C30A84A914201D1A5481830A74A86
:10128000914201D1A24824309C4A914201D1A04808
:1012900030309B4A914201D19D483C30994A91425D
:1012A00001D19B484830984A914201D19848543026
:1012B000704700B50023FFF7D3FFC28862B14189B0
:1012C0008388994201D100214181036889B25B562C
:1012D000491C4181521EC280D8B200BD00B5FFF743
:1012E000BFFFC1888088814201D1012000BD00205C
:1012F00000BD10B50C46FFF7B3FFC38842890DE06F
:101300008188914200D100220168895CA14201D10B
:10131000012010BD521C5B1E92B29BB2002BEFD17C
:10132000002010BD00B5FFF79BFFC08808B100206A
:1013300000BD012000BDF0B515460E46074600244D
:10134000FFF7F0FFC0B90A213846FFF7D2FF18B9FE
:101350003846FFF7C3FF78B16D1EAC4208DA384655
:10136000FFF7A7FF305504F101040A28A4B2F4D115
:10137000002030552046F0BD0020F0BD00B5FFF73D
:101380006FFF0021C1800181418100BD13B504467A
:1013900080212046FFF787FC0028F9D09DF8040043
:1013A000A0801CBD70B50C46054603E02846641CB1
:1013B000FFF7ECFF21780029F8D170BDC38882883F
:1013C00093420DD20389934201D100220281038905
:1013D0000268D1540189491C0181C188491CC1801E
:1013E000704710B5494C40F225512046FFF765FC87
:1013F000002805D0A088BDE81040C1B24448DDE710
:1014000010BD10B540F225514248FFF756FC0028A8
:1014100008D04048001D0088BDE81040C1B23C48DB
:101420000C30CBE710BD10B540F225513A48FFF71C
:1014300044FC002808D03848001D0088BDE8104052
:10144000C1B233481830B9E710BD10B540F225518C
:101450003248FFF732FC002808D03048001D0088D1
:10146000BDE81040C1B22A482430A7E710BD10B52E
:10147000224C40F225512046FFF71FFC002806D0E1
:10148000A088BDE81040C1B22148303096E710BDB9
:1014900010B540F225511A48FFF70FFC002808D07C
:1014A0001748001D0088BDE81040C1B218483C3004
:1014B00084E710BD10B540F225511248FFF7FDFB3F
:1014C000002808D00F48001D0088BDE81040C1B2B8
:1014D0000F48483072E710BD10B540F225510A4858
:1014E000FFF7EBFB002808D00748001D0088BDE887
:1014F0001040C1B20648543060E710BD00500040B3
:101500000014014000780040007C004000100140C1
:10151000180000200044004000480040004C0040FB
:101520009AB000F08CF80A4C4FF4E13201212046C9
:10153000FFF7A9FD07A107E0642269462046FFF7EF
:10154000FAFE0028F8D069462046FFF72BFFF3E7A4
:101550000010014048656C6C6F20776F726C640AF4
:10156000000000007047FEE7FEE7FEE7FEE7704779
:1015700070477047704710B5FFF7FCFF10BD0000C3
:101580001CB500215B4A00910191106840F4803045
:1015900010604FF4A043106800F4003001900098F0
:1015A000401C0090019810B900989842F3D110683F
:1015B000800342D5012001904E484030016841F03F
:1015C000805101604C49086840F440400860494837
:1015D000083003680360036843F400430360036852
:1015E00043F4A0530360041F444B2360136843F08B
:1015F0008073136013689B01FCD50A6842F4803243
:101600000A604A68D203FCD50A6842F400320A60D4
:101610004A689203FCD53A4A40F2057111600168AC
:1016200021F003010160016841F0020101600168DD
:10163000C1F381010229FAD11CBD01911CBD3148C1
:1016400010B5016841F4700101602A48016841F059
:1016500001010160274A00210832116002682A4B0B
:101660001A400260031D294A1A60026822F480228F
:10167000026020480C300160FFF782FF21494FF0E3
:1016800000608039086010BD70B51A4D08352868B3
:101690001F4B204910F00C0004D05E10042803D02A
:1016A000082803D00B601BE00E6019E0114A121DE0
:1016B0001068C0F38054106800F03F0014B1B6FB0E
:1016C000F0F001E0B3FBF0F013681268C3F3881385
:1016D0005843C2F30142521C5200B0FBF2F00860C2
:1016E00028680C4AC0F30310121D105C0A68C2403F
:1016F0000A6070BD0038024000700040085A400780
:10170000003C024088ED00E0FFFFF6FE10300024B0
:101710000024F40078000020704770477047754639
:1017200000F028F8AE4605006946534620F0070051
:10173000854618B020B5FEF797FDBDE820404FF074
:1017400000064FF000074FF000084FF0000B21F0AB
:101750000701AC46ACE8C009ACE8C009ACE8C00978
:10176000ACE8C0098D4670470446AFF300802046C0
:10177000FEF765FD004870478C01002001491820E4
:10178000ABBEFEE72600020070474FF04070E1EE6E
:10179000100A7047B4170008000000208C000000F9
:1017A000E8010008401800088C00002064070000D1
:1017B0000402000800000000010203040102030407
:1017C0000607080900000000000000008C0000204F
:1017D0002000000000000000AC00002020000000FD
:1017E00000000000CC0000202000000000000000ED
:1017F000EC00002020000000000000000C01002090
:1018000020000000000000002C010020200000004B
:10181000000000004C01002020000000000000003B
:101820006C01002020000000000000000095BA0AB2
:101830000000000000000000010203040607080980
:040000050800024DA0
:00000001FF
