:020000040800F2
:10000000C8040020AD010008DD120008DF1200085E
:10001000E1120008E3120008E512000800000000E9
:10002000000000000000000000000000E7120008CF
:10003000E912000800000000EB120008EF120008AF
:10004000C7010008C7010008C7010008C701000870
:10005000C7010008C7010008C7010008C701000860
:10006000C7010008C7010008C7010008C701000850
:10007000C7010008C7010008C7010008C701000840
:10008000C7010008C7010008C70100080000000000
:10009000000000000000000000000000C701000890
:1000A000C7010008C7010008C7010008C701000810
:1000B000C7010008C7010008C7010008C701000800
:1000C000C7010008C7010008C7010008C7010008F0
:1000D000C701000879110008B311000800000000F2
:1000E000C7010008C7010008C701000800000000A0
:1000F000000000000000000000000000C701000830
:1001000000000000C7010008C7010008C70100087F
:1001100000000000000000000000000000000000DF
:10012000C7010008C7010008C7010008C70100088F
:10013000C7010008000000000000000000000000EF
:10014000000000000000000000000000C7010008DF
:10015000C7010008C7010008C7010008C91100084D
:10016000C7010008C70100080000000000000000EF
:10017000000000000000000000000000000000007F
:1001800000000000C701000800000000000000009F
:10019000C7010008C7010008DFF80CD001F064F9BE
:1001A00000480047ED110008C804002006488047B9
:1001B00006480047FEE7FEE7FEE7FEE7FEE7FEE74C
:1001C000FEE7FEE7FEE7FEE763130008990100087B
:1001D0002849084328490860704730B50F23C27882
:1001E00001780125FAB1244A126801F1E02102F4F4
:1001F000E062C2F5E062C2F30722C2F10404D34018
:100200004278A24084781C401443220181F80024E3
:10021000007800F01F018D404009800000F1E020CF
:10022000C0F8005130BD01F01F0085404809800032
:1002300000F1E020C0F8805130BD104A1140014368
:100240000D48001F016070470B4A121D00291168FC
:1002500001D0014300E08143116070474FF0E0217D
:100260000428086903D020F004000861704740F0BA
:100270000400FAE70000FA050CED00E080FFFF1F24
:10028000F648016841F001010160F44A002108329A
:1002900011600268F24B1A400260031DF14A1A60B5
:1002A000EE4BF14A84331A60EE4A103A1B1D1A6075
:1002B000026822F480220260E8480C300160181DB8
:1002C00001607047E5490022891C0A700870704778
:1002D00002460020510901290CD002290CD0DF4927
:1002E0007431096802F01F02012393400B4200D0D1
:1002F00001207047D949F4E7D8497031F1E718B5C2
:1003000000204FF4A04400903120FFF7E1FF009956
:10031000491C0091A14201D00028F5D03120FFF7FF
:10032000D7FF002800D0012018BDCC4A116821F069
:10033000F80141EAC00010607047CC49086070477E
:10034000C649002270310A700A70012802D00428C0
:1003500001D1052008707047C5490860704741EA1F
:1003600082115A0810B5C34B029C03EB02421143A1
:10037000014341EA0460B949091D086010BDBB4949
:1003800008667047800140EA0170B4491043843127
:1003900008607047B54988667047800140EA01608F
:1003A000AE4940EA0270883108607047AF4908677B
:1003B0007047AE49C8647047A84B08331A680843B1
:1003C00022F0EC62104318607047A44B08331A689F
:1003D000084322F078421043186070479F4A083261
:1003E000116821F003010143116070479B480830F8
:1003F000006800F00C007047984A0832116821F03C
:10040000F001014311607047944A0832116821F4E9
:10041000E051014311607047904A0832116821F49D
:10042000604141EAC0001060704770B58B4B0833E3
:100430001968914C11F00C0104D06610042903D006
:10044000082903D004601BE0066019E0834A121DEE
:100450001168C1F38055116801F03F0115B1B6FB79
:10046000F1F101E0B4FBF1F114681268C4F38814EF
:100470006143C2F30142521C5200B1FBF2F1016030
:1004800019680F2202EA11117C4A545C0168E140AC
:1004900041601C68072505EA9424145D21FA04F4E0
:1004A00084601B6805EA5333D25CD140C16070BDE3
:1004B000C0F30121032908D1684B08331968704A39
:1004C00021F4F81102400A431A60644970310A6845
:1004D000C0F30B0002430A60704765494439086065
:1004E000704763494039086070476049C1F85C0152
:1004F00070475A4A8C32116821F44011014311604F
:100500007047564A8C32116821F440010143116052
:100510007047524A8C321168401E21F01F0101437E
:10052000116070474D4A8C3211686FF0FF0321F45F
:10053000F85103EB0020084310607047474A8C32A3
:10054000116821F440310143116070474D49C1F8F1
:10055000E0017047414A30320029116801D001435F
:1005600000E08143116070473C4A34320029116831
:1005700001D0014300E0814311607047374A4032A7
:100580000029116801D0014300E0814311607047E8
:10059000324A44320029116801D0014300E081430E
:1005A000116070472D4A10320029116801D00143B3
:1005B00000E0814311607047284A14320029116815
:1005C00001D0014300E0814311607047234A20328B
:1005D0000029116801D0014300E081431160704798
:1005E0001E4A24320029116801D0014300E08143F2
:1005F00011607047194A50320029116801D0014337
:1006000000E0814311607047144A54320029116898
:1006100001D0014300E08143116070470F4A60320E
:100620000029116801D0014300E081431160704747
:100630000A4A64320029116801D0014300E0814375
:1006400011607047054970310128086803D020F017
:1006500008000860704740F00800FAE700380240E0
:10066000FFFFF6EA1030002400300020000047426F
:10067000800E47420000FFFF0024F400000000202D
:10068000FFFCFF0F001047420E4A0029117801D0ED
:10069000014300E08143117070470A4867300168E8
:1006A00041F08071016070470146064A0020521EE9
:1006B00012680A4200D0012070470249491C0870A4
:1006C000704700000D380240CD4910B5884206D170
:1006D00001211020FFF784FF0021102020E0C949EC
:1006E000884202D101214C0429E0C749884202D145
:1006F00001218C0423E0C549884202D10121CC04A8
:100700001DE0C349884202D101210C0517E0C1490F
:10071000884209D101212020FFF762FF002120201B
:10072000BDE81040FFF75CBFBB49884202D1012100
:100730008C0704E0B94988420AD1012144052046CA
:10074000FFF744FF2046BDE810400021FFF73EBF01
:1007500010BD7FB50446008A0D46C98820F440507C
:1007600001432182A08941F20C618843A9882A892A
:1007700011436A8902431143A181A08A20F4407188
:10078000A8890843A0826846FFF74FFE9C48844230
:1007900002D0A048844201D1039800E00298A189C8
:1007A000090400EBC00101EB0010296801D54900E4
:1007B00000E08900B0FBF1F06422B0FBF2F1090126
:1007C0000B096FF018056B4300EB8300A3891D0430
:1007D0004FF0320306D503EBC000B0FBF2F000F09F
:1007E000070005E003EB0010B0FBF2F000F00F0093
:1007F000084320817FBD4FF41651016000218180A4
:10080000C18001810C2242818181704710B5028A2A
:100810004C8822F470630A8822438C88C9880C4370
:1008200022431A43028210BD002101804180818051
:10083000C18070470029818902D041F4005101E054
:1008400021F4005181817047028B02F47F420283C0
:10085000028B0A43028370470029818902D041F448
:10086000004101E0C1F30E01818170470029818AB6
:1008700002D041F4006101E021F4006181827047FF
:10088000C1F30801818070478088C0F30800704779
:10089000028A22F00F020282028A0A430282704711
:1008A0000029818902D041F0020101E021F002011A
:1008B00081817047828922F40062828182890A43A1
:1008C00082817047028A22F020020282028A0A4351
:1008D000028270470029018A02D041F4804101E080
:1008E00021F4804101827047818941F001018181B9
:1008F00070470029818A02D041F0080101E021F00F
:10090000080181827047028BD2B20283028B42EAD5
:100910000121018370470029818A02D041F0200122
:1009200001E021F02001818270470029818A02D0F4
:1009300041F0100101E021F0100181827047828AAC
:1009400022F004028282828A0A438282704700294E
:10095000818A02D041F0020101E021F0020181828E
:100960007047002A828A01D00A4300E08A438282CB
:10097000704710B5C1F3421301F01F040121A140DB
:10098000012B07D0022B07D01430002A026805D0B3
:100990000A4304E00C30F8E71030F6E78A430260BF
:1009A00010BD0246002012880A4200D00120704784
:1009B000C9430180704770B501F01F05012600246E
:1009C000C1F3421306FA05F2012B0FD0022B0FD010
:1009D000838A4FEA11210088134206FA01F600EAE1
:1009E000060001D000B10124204670BD8389F0E7E4
:1009F000038AEEE70A0A01219140C943018070474A
:100A0000001001400044004000480040004C0040FD
:100A1000005000400014014000780040007C00407D
:100A20001E4810B54168491C4160816811B1816858
:100A3000491E816000F01AFC10BD194801684FF48E
:100A40007A70B1FBF0F0401EB0F1807F12D24FF00F
:100A5000E0225061134BF02083F8140D00209061C8
:100A6000072010611048B1FBF0F10C48C160012172
:100A700001707047FEE709480078002805D04FF064
:100A8000E020016941F00201016170474FF0E02070
:100A9000016921F00201016170470000100000208F
:100AA000500000200FE000E0C0C62D002DE9F04FFF
:100AB0009946DDE909A800234FF0010E4FF0030B22
:100AC0000EFA03F60E4222D0C7685C000BFA04F55A
:100AD000AF430AFA04FC47EA0C07C760076802FA4A
:100AE00004FCAF4347EA0C070760012A01D0022A41
:100AF0000DD14768B6B2B74309FA03F6B6B2374329
:100B00004760866808FA04F4AE43264386605B1C9F
:100B1000DBB2102BD4D3BDE8F08F68490844C0F392
:100B20008F20704700B5FFF7F8FF0121814064482E
:100B300002681143016000BDFCB51646DDE907C53A
:100B40000C00074608D0FFF7EDFFCDE900C532469F
:100B500021463846FFF7AAFFFCBD2DE9FC4F994618
:100B6000DDE90BB792460D00064622D0FFF7DAFF0B
:100B7000002201214FF00F0C01FA02F028420DD0A3
:100B8000D00806EB8003186A5407E40E0CFA04F848
:100B900020EA080007FA04F420431862521C102AC5
:100BA000EAD3CDE9009B5346022229463046FFF79F
:100BB0007DFFBDE8FC8FF0B500220125032605FA74
:100BC00002F30B4205D00468570006FA07F31C43F2
:100BD0000460521CD2B2102AF1D3F0BDF0B500224D
:100BE0000125032605FA02F30B4205D004685700DD
:100BF00006FA07F39C430460521CD2B2102AF1D3C8
:100C0000F0BDF0B500220127032607FA02F33C46A7
:100C10000B4208D00568530006FA03FC25EA0C05D0
:100C20009C4025430560521CD2B2102AEDD3F0BD82
:100C3000F0B500220125032605FA02F30B4205D088
:100C40000468570006FA07F31C430460521CD2B232
:100C5000102AF1D3F0BDF0B500230127032507FAD0
:100C600003F40C4209D0C6685C0005FA04FC26EACD
:100C70000C0602FA04F42643C6605B1CDBB2102BA0
:100C8000EDD3F0BD41F48032C261C161C261C1697E
:100C9000C0697047002102E0491C89B24008012860
:100CA000FAD80846704700B5FFF737FF01218140A9
:100CB000034802688A43026000BD00000000FEBFD6
:100CC000303802403648006800207047F0B4344B9A
:100CD000196841F0010119604FF6FF710A461C685E
:100CE000A40702D4521E92B2F9D22D4C08342268C5
:100CF00022F0030222601A6822F080721A60221F1A
:100D00001568068825F03F0535431560156847F6D8
:100D1000C076B543468845EA86151560156886880D
:100D2000204F760825F4403507EB0646354315601D
:100D30001568867925F0706545EA066515601568C1
:100D4000007A25F0E04545EA00701060186840F030
:100D5000807018601868491E89B2FBD2206820F0A4
:100D60000300801C2060F0BC00F0C6BA0C49091DCD
:100D70000A6802F03F0202800A68C2F388124280C9
:100D80000A68C2F30142521C520082800A68C2F310
:100D90000362C2800968C1F30271018170470000DB
:100DA000003802400000FFFFF74A0146904200D1A0
:100DB0000020F64A914200D10120F54A914200D12B
:100DC0000620704770471CB50822032138B101285E
:100DD0000CD0032802D1EE48FFF7F4FF1CBDCDE98B
:100DE000001201230022C021EA4806E0CDE90012EA
:100DF000012300224FF48441E748FFF7AEFE1CBDFB
:100E00001CB50722032138B101280CD0032802D1D8
:100E1000DE48FFF7D7FF1CBDCDE9001201230022F9
:100E20000C21DE4805E0CDE90012012300226021FB
:100E3000DB48FFF792FE1CBD1CB50722032138B129
:100E400001280DD0032802D1CF48FFF7BBFF1CBDFE
:100E5000CDE90012012300224FF4C061CF4805E024
:100E6000CDE9001201230022C021CE48FFF775FE14
:100E70001CBDC54A0146904200D1CB48C34A9142AD
:100E800001D1C9481030C24A914201D1C648203030
:100E900070472DE9FF4F85B09946DDE914B7DDE9CC
:100EA00012A813460446FFF7E4FF0546B648BF4EB6
:100EB0000093844209D1306840F0100030600698F9
:100EC000FFF7BAFF25208DF81000B04884420BD1FF
:100ED000B648001F016841F4003101600698FFF731
:100EE0008FFF26208DF81000A948844209D1306870
:100EF00040F0200030600698FFF765FF47208DF82E
:100F00001000ADF80AA0ADF806B0ADF80C90ADF841
:100F10000880ADF8047000202873A08920F40050E8
:100F2000A08169462046FFF714FCA08940F020000C
:100F3000A08101268DF8136006208DF8110020464F
:100F4000FFF732FF8DF8120004A8FFF746F92E7361
:100F5000A08940F40050A08109B0BDE8F08F2DE9D0
:100F6000FF410446884800250C26174688468442DF
:100F700006D1CDE90065029500230395FFF789FFAF
:100F80008248844208D1CDE90065029500233A46A3
:100F900041460395FFF77DFF7D48844208D1CDE9A6
:100FA0000065029500233A4641460395FFF771FF1D
:100FB000BDE8FF812DE9FF470446734800250C2654
:100FC0001F4690468946844205D1CDE900650295C9
:100FD0000395FFF75EFF6D48844208D1CDE90065B7
:100FE00002953B46424649460395FFF752FF684843
:100FF000844208D1CDE9006502953B464246494608
:101000000395FFF746FFBDE8FF8700B50023FFF714
:1010100030FFC28862B141898388994201D10021A1
:101020004181036889B25B56491C4181521EC280CE
:10103000D8B200BD10B50C46FFF71BFFC38842892C
:101040000DE08188914200D100220168895CA142B3
:1010500001D1012010BD521C5B1E92B29BB2002B2D
:10106000EFD1002010BDF0B516460F46844600248F
:10107000FFF7FFFE0546C08840B1697B6046FFF779
:10108000D9FF78B9E888A98888420BD00020F0BD44
:101090006046FFF7BAFF3855697B884205D0641C6B
:1010A000A4B200E0761EB442F2DB0021641CA0B2C0
:1010B0003954F0BD00B5FFF7DCFEC08808B1002050
:1010C00000BD012000BD00B5FFF7D3FEC1888088B8
:1010D000814201D1012000BD002000BD00B5FFF715
:1010E000C8FE0021C1800181418100BD00B50B46D1
:1010F000FFF7BFFE437300BD10B50C460346FFF774
:10110000B8FE007B00280BD007E019880906FCD543
:101110009880641C18880006FCD520780028F4D13B
:1011200010BD70B515460E460446FFF7A2FE007BC3
:1011300000280DD0002309E020880006FCD5F05CD3
:10114000A08020880006FCD55B1C9BB2AB42F3D389
:1011500070BDC388828893420DD20389934201D126
:101160000022028103890268D1540189491C01814E
:10117000C188491CC180704703480188890617D57A
:101180008088C1B20848E4E70010014000440040F4
:101190000014014000080240001802400000024014
:1011A000000C0240000402402000002044380240AD
:1011B00070470B480088800605D50948001D008847
:1011C000C1B20848C5E7704707480088800606D5C1
:1011D0000548001D0088C1B202481030B9E77047C9
:1011E00000440040300000200014014088B000F0AE
:1011F000B8F8FFF722FC1E4D4FF46124224600216F
:101200002846FFF7ACFE6846FFF70FF919A00099D2
:1012100000F03CF904A8FFF7A9FDC820ADF81200C2
:1012200004A8FFF753FD19A000F030F9FFF705FC03
:10123000224600212846FFF792FE6846FFF7F5F8A0
:101240001CA0009900F022F9FEE708B508498DF8C6
:1012500000008A89920408D50A881206FCD59DF8F8
:1012600000208A800A881206FCD508BD704700005D
:101270000044004053797374656D20636F7265207C
:10128000636C6F636B3A2025640A000054686973CD
:101290002077696C6C206E6F7420626520736565C1
:1012A0006E20636F7272656374206F6E20555341B8
:1012B00052540A0053797374656D20636F72652010
:1012C000636C6F636B20616674657220504C4C20B8
:1012D0006368616E67653A2025640A007047FEE71F
:1012E000FEE7FEE7FEE7704770477047704710B5AE
:1012F000FFF796FB10BD000070B5474D2868474BBF
:10130000474910F00C0004D05E10042803D00828D0
:1013100003D00B601BE00E6019E03F4A121F1068FB
:10132000C0F38054106800F03F0014B1B6FBF0F039
:1013300001E0B3FBF0F013681268C3F3881358435D
:10134000C2F30142521C5200B0FBF2F00860286860
:10135000334AC0F30310121D105C0A68C2400A60D1
:1013600070BD304810B5016841F4700101602A4831
:101370000838016841F001010160274A002111602D
:101380000268294B1A400260031D284A1A6002684D
:1013900022F4802202602048001D016000F006F85F
:1013A00020494FF000608039086010BD82B00020F5
:1013B0000090019018483830016841F08051016078
:1013C0001B48016841F44041016013480168016015
:1013D00001680160016841F480510160021F1549F4
:1013E0001160111F0A6842F080720A600A68920157
:1013F000FCD5114A40F202711160016821F003012D
:101400000160016841F0020101600168C1F38101DE
:101410000229FAD102B06FE7083802400024F40034
:101420005000002088ED00E0FFFFF6FE10300024A1
:101430000070004010640108003C024030B50B46CB
:10144000014600202022012409E021FA02F59D42F4
:1014500005D303FA02F5491B04FA02F52844151EC8
:10146000A2F10102F1DC30BD064C074D06E0E06858
:1014700040F0010394E8070098471034AC42F6D3DB
:10148000FEF78EFE20160008401600080FB4054B2C
:1014900010B503A9044A029800F018F810BC5DF8D2
:1014A00014FB00004B1200086400002002E008C892
:1014B000121F08C1002AFAD170477047002001E0CE
:1014C00001C1121F002AFBD1704700002DE9FF4F18
:1014D00089B09B460446002506E025280BD05A46D5
:1014E0000B999047641C6D1C20780028F5D10DB035
:1014F0002846BDE8F08F0027B8460122474900E0A2
:10150000074314F8013F203B02FA03F00842F7D1E9
:1015100020782E2819D114F8010F47F004072A2843
:101520000ED06FF02F022078A0F1300109290CD8DD
:1015300008EB880102EB410100EB0108641CF2E7B3
:101540000A98641C50F8048B0A9020780028CED0AA
:10155000642808D0692806D075281ED05A460B99F1
:1015600090476D1C58E00A994FF00A0901C90A9189
:10157000002802DA40422D2102E0390504D52B2152
:101580008DF82010012103E0F90704D02021F7E7AE
:101590008A4608AE0DE00021FAE70A994FF00A09E1
:1015A00001C90A91F7E74946FFF748FF303106F8CD
:1015B000011D0028F7D1ADEB060000F120097807E6
:1015C00001D44FF00108C84502DDA8EB090000E096
:1015D00000208046002706E008A85A46C05D0B9907
:1015E00090476D1C7F1C5745F6DB04E030205A46BF
:1015F0000B9990476D1CB8F10001A8F10108F5DCCA
:1016000005E016F8010B5A460B9990476D1CB9F18D
:101610000001A9F10109F4DC641C65E70928010057
:10162000401600080000002068000000AC1400080C
:10163000A81600086800002060040000BC14000820
:101640000000000001020304010203040607080968
:10165000000000000000000000000000000000008A
:10166000680000202000000000000000000A0000C8
:10167000880000202000000000000000000A000098
:10168000A80000202000000000000000000A000068
:1016900000E1F50500000000000000000102030465
:0816A000060708090000000024
:040000050800019955
:00000001FF
