:020000040800F2
:100000005008002045020008E9260008EB260008F9
:10001000ED260008EF260008F12600080000000089
:10002000000000000000000000000000F3260008AF
:10003000F526000800000000F7260008FB2600084F
:100040005F0200085F0200085F02000855200008F8
:100050005F0200085F0200085F0200085F020008FC
:100060005F0200085F0200085F0200085F020008EC
:100070005F0200085F0200085F0200085F020008DC
:100080005F0200085F0200085F0200080000000035
:100090000000000000000000000000005F020008F7
:1000A0005F0200085F0200085F0200085F020008AC
:1000B0005F0200085F0200085F0200085F0200089C
:1000C0005F0200085F0200085F0200085F0200088C
:1000D0005F02000899230008B9230008000000000F
:1000E0005F020008772000085F020008000000009F
:1000F0000000000000000000000000005F02000897
:10010000000000005F0200085F0200085F020008B4
:1001100000000000000000000000000000000000DF
:100120005F0200085F0200085F0200085F0200082B
:100130005F02000800000000000000000000000056
:100140000000000000000000000000005F02000846
:100150005F0200085F0200085F0200083F240008F9
:100160005F0200085F0200080000000000000000BD
:10017000000000000000000000000000000000007F
:10018000000000005F020008000000000000000006
:100190005F02000800F002F800F044F80AA090E8BE
:1001A000000C82448344AAF10107DA4501D100F032
:1001B00039F8AFF2090EBAE80F0013F0010F18BFBB
:1001C000FB1A43F001031847642A0000842A000048
:1001D000103A24BF78C878C1FAD8520724BF30C873
:1001E00030C144BF04680C60704700000023002445
:1001F00000250026103A28BF78C1FBD8520728BF37
:1002000030C148BF0B607047642902F073837529C1
:1002100002F07083002070471FB502F0F9FC1FBD8B
:1002200010B510BD02F0B7FC1146FFF7F5FF02F064
:10023000B3F902F0D5FC03B4FFF7F2FF03BC02F000
:10024000D9FC00000948804709480047FEE7FEE75F
:10025000FEE7FEE7FEE7FEE7FEE7FEE7FEE7FEE776
:1002600004480549054A064B704700000527000869
:100270009501000850020020500800205004002082
:10028000500400202849084328490860704730B5C9
:100290000F23C27801780125FAB1244A126801F1CE
:1002A000E02102F4E062C2F5E062C2F30722C2F18B
:1002B0000404D3404278A24084781C4014432201B5
:1002C00081F80024007800F01F018D404009800073
:1002D00000F1E020C0F8005130BD01F01F00854062
:1002E0004809800000F1E020C0F8805130BD104A7C
:1002F000114001430D48001F016070470B4A121D59
:100300000029116801D0014300E08143116070476A
:100310004FF0E0210428086903D020F004000861B0
:10032000704740F00400FAE70000FA050CED00E029
:1003300080FFFF1FF848016841F001010160F64AA3
:100340000021083211600268F44B1A400260031D5C
:10035000F34A1A60F04BF34A84331A60F04A103AB9
:100360001B1D1A60026822F480220260EA480C30E9
:100370000160181D01607047E7490022891C0A705E
:100380000870704702460020510901290CD002294B
:100390000CD0E1497431096802F01F020123934037
:1003A0000B4200D001207047DB49F4E7DA49703195
:1003B000F1E718B500204FF4A04400903120FFF77A
:1003C000E1FF0099491C0091A14201D00028F5D01D
:1003D0003120FFF7D7FF002800D0012018BDCE4AFA
:1003E000116821F0F80141EAC00010607047CE4961
:1003F00008607047C849002270310A700A700128ED
:1004000002D0042801D1052008707047C749086050
:10041000704741EA82115A0810B5C54B029C03EBA4
:1004200002421143014341EA0460BB49091D0860CF
:1004300010BDBD4908667047800140EA0170B649A9
:10044000843108607047B84988667047800140EA87
:100450000160B14940EA0270883108607047B249D2
:1004600008677047B049C8647047AB4B08331A68D7
:10047000084322F0EC62104318607047A64B083323
:100480001A68084322F07842104318607047A24A65
:100490000832116821F003010143116070479E4842
:1004A0000830006800F00C0070479B4A0832116861
:1004B00021F0F001014311607047974A083211683A
:1004C00021F4E051014311607047934A08321168EA
:1004D00021F4604141EAC0001060704770B58E4B56
:1004E00008331968934C11F00C0104D066100429EC
:1004F00003D0082903D004601BE0066019E0864A97
:10050000121D1168C1F38055116801F03F0115B14A
:10051000B6FBF1F101E0B4FBF1F114681268C4F329
:1005200088146143C2F30142521C5200B1FBF2F144
:10053000016019680F2202EA11117F4A545C0168B8
:10054000E14041601C68072505EA9424145D21FA06
:1005500004F484601B6805EA5333D25CD140C16067
:1005600070BDC0F30121032908D16B4B0833196812
:10057000724A21F4F81102400A431A606649703148
:100580000A68C0F30B0002430A60704767494439A8
:100590000860704765494039086070476249C1F892
:1005A0005C0170475C4A8C321168401E21F01F01CB
:1005B000014311607047584A8C3211686FF0FF0395
:1005C00021F4F85103EB0020084310607047524AB1
:1005D0008C32116821F440110143116070474E4A7A
:1005E0008C32116821F440010143116070474A4A7E
:1005F0008C32116821F44031014311607047504939
:10060000C1F8E0017047444A30320029116801D036
:10061000014300E08143116070473F4A34320029B2
:10062000116801D0014300E08143116070473A4AEC
:1006300038320029116801D0014300E08143116084
:100640007047354A40320029116801D0014300E06B
:10065000814311607047304A44320029116801D04B
:10066000014300E08143116070472B4A103200299A
:10067000116801D0014300E0814311607047264AB0
:1006800014320029116801D0014300E08143116058
:100690007047214A18320029116801D0014300E057
:1006A0008143116070471C4A20320029116801D033
:1006B000014300E0814311607047174A243200294A
:1006C000116801D0014300E0814311607047124A74
:1006D00050320029116801D0014300E081431160CC
:1006E00070470D4A54320029116801D0014300E0DF
:1006F000814311607047084A58320029116801D0BF
:10070000014300E0814311607047034A60320029D1
:10071000116817D0014316E000380240FFFFF6EAE7
:10072000103000240030002000004742800E474275
:100730000000FFFF0024F40000000020FFFCFF0F7A
:1007400000104742814311607047194A002911681F
:1007500001D0014300E081431160704714490C311E
:100760000128086803D020F008000860704740F0B6
:100770000800FAE70E4A573A0029117801D00143E0
:1007800000E081431170704709481030016841F062
:100790008071016070470146054A0020583A12688E
:1007A0000A4200D00120704701495639087070474D
:1007B00064380240774910B5884206D101210846C5
:1007C000FFF753FF002101205BE07349884206D107
:1007D00001210220FFF749FF0021022051E06F496B
:1007E000884206D101210420FFF73FFF00210420A9
:1007F00047E06B49884206D101210820FFF735FF09
:10080000002108203DE06749884206D101211020DF
:10081000FFF72BFF0021102033E06349884206D107
:1008200001212020FFF721FF0021202029E05F493E
:10083000884206D101214020FFF717FF0021402008
:100840001FE05B49884206D101218020FFF70DFFA0
:100850000021802015E05749884202D101218415EA
:100860000AE05549884202D10121441504E0534968
:1008700088420AD1012104152046FFF7F6FE002127
:100880002046BDE81040FFF7F0BE10BDF0B50022D5
:1008900001274FF0030C0B6807FA02F52B40AB421F
:1008A0002CD1066853000CFA03F4A64306600E79B7
:1008B000D0F800E09E4046EA0E0606600E79012E52
:1008C00001D0022E12D18668A64386604E79D0F8F8
:1008D00008E09E4046EA0E0686604668AE434660E3
:1008E00045688E799640B6B235434560C568A543E4
:1008F000C560CC799C40C3681C43C460521C102A5C
:10090000C9D3F0BD4FF6FF71016000210171417143
:100910008171C171704708B541F480320092C261A3
:10092000C1610099C161C169C069009008BD0246FA
:10093000002012690A4200D001207047006980B28D
:1009400070470246002052690A4200D001207047D9
:10095000406980B2704701837047418370470AB194
:1009600001837047418370474161704742694A4043
:10097000426170474B07DB0E9A40C90810B500EB87
:100980008100016A0F249C40A1430162016A114366
:10099000016210BD00000240000402400008024055
:1009A000000C0240001002400014024000180240F7
:1009B000001C0240002002400024024000280240A7
:1009C00018B50020FA4B0090CA2018605320186018
:1009D000F7491839086820F0A00008604FF4003487
:1009E0000868009A00F02000521C0092A24201D038
:1009F0000028F5D00868800601D5012000E000201D
:100A0000FF21196018BD08B5E94900201839009088
:100A10000868400612D44FF0FF3008608B13086856
:100A2000009A00F04000521C00929A4201D0002827
:100A3000F5D00868400601D4002008BD012008BD9B
:100A400078B50024DA4ECA20009425463060532041
:100A50003060FFF7D8FFE0B3D54824380460D449AC
:100A600042F20110203908600B1D186800F00700E1
:100A700018608D131A1D1068009900F00400491CBD
:100A80000091A94201D00028F5D01068400729D56F
:100A900018681C60C6494FF6FF7010390860091FBE
:100AA000C4480860C2480C380460001D0460001D82
:100AB0000460BF4808300460BD4818300460BC487A
:100AC00020300460001D04601460B9481C300460CC
:100AD00000E003E0FFF774FF20B10125FF20306044
:100AE000284678BD0025F9E7B1481838016821F09B
:100AF00080010160704770B5AD4E04460025CA20E4
:100B0000306053203060FFF77EFFA8B1A8481C3842
:100B1000016821F040010160016822681143016011
:100B2000A348A168143801600168A28841EA024123
:100B30000160FFF7D9FF0125FF203060284670BD16
:100B4000002101607F214160FF2181607047984949
:100B500008B1FF2002E0CA200860532008607047F7
:100B600070B5934E05460024CA2030605320306093
:100B7000FFF749FF60B18E481C38016815B141F09C
:100B8000100101E021F010010160FFF7ADFF012429
:100B9000FF203060204670BD854ACA211160532174
:100BA000116083491C390028086802D040F02000F9
:100BB00001E000F0DF000860FF20106070472DE9C1
:100BC000F0410C4600267C4F0100207839683246FF
:100BD0004FEA416104D000292FDA00F008FC2DE033
:100BE000002900DBE27000F0F6FB0504607800F0FD
:100BF000F2FB45EA0025A07800F0EDFB0543E07824
:100C000045EA00456A4CCA20206053202060FFF767
:100C1000FAFE68B169480540674808380560FFF783
:100C200063FF3868800602D4FFF7CAFE00B10126D0
:100C3000FF2020603046BDE8F081E270A078217886
:100C400040EA01456078E178000240EA014005434E
:100C5000D8E70021C17001704170817070470200B7
:100C600010B557480C460168544801EA0001C1F329
:100C700005402070C1F30623637001F07F03A37069
:100C80004FF0400303EA1141E1700AD100F0AFFBDD
:100C90002070607800F0ABFB6070A07800F0A7FBDC
:100CA000A07010BD4248001D00684349091F096833
:100CB000704770B50C460026010060780FD000F038
:100CC00096FBA07800F093FBA078E17840EA01451C
:100CD00060782178000240EA4130054315E0C10602
:100CE00003D520F010000A306070E07800F073FB4C
:100CF0000504607800F06FFB45EA0025A07800F05D
:100D00006AFB0543207845EA4035294CCA2020601B
:100D100053202060FFF777FE70B12A48054026482F
:100D2000001F0560FFF7E0FE23480068800602D43C
:100D3000FFF746FE00B10126FF202060304670BD5F
:100D400001210170817041700021C1707047020063
:100D500010B51D480C4601681A4801EA00014FEA27
:100D60001140E070C1F30423637001F03F03A370EE
:100D7000C1F3423121700AD100F039FBE070607894
:100D800000F035FB6070A07800F031FBA07010BD62
:100D900070B514460D46084A0021002810684FEA35
:100DA000406013D000282ADA207800F020FB27E0EA
:100DB00024280040FF007F00082800407F7F7F003C
:100DC000002800403FFFFF0004280040002800DB0F
:100DD000E170207800F0FFFA0604607800F0FBFA7A
:100DE00046EA0026A07800F0F6FA0643E07846EAE4
:100DF0000046207B00F0EFFA46EA006010E0E17068
:100E0000207B00F0F4FAA0782178E27840EA0140F3
:100E10006178090241EA02410843217B40EA01600E
:100E2000A168084361680843F849CA220A6053224E
:100E30000A60B5F5807F04D00A1F1060FF200860AB
:100E400070BDF24A083AF8E70021C17001704170A4
:100E500081700122816002734160704710B51446B1
:100E60000246B1F5807F2AD0E848001F0168C1F32F
:100E700005402070C1F30623637001F07F03A37067
:100E8000402303EA1143E370C1F30563237301F0C8
:100E9000804301F08031C4E90113002A0ED100F033
:100EA000A6FA2070607800F0A2FA6070A07800F0D6
:100EB0009EFAA070207B00F09AFA207310BDD348F0
:100EC0000838D3E738B50022D04C0092CA222260FD
:100ED00053222260CD4A1C3A0029116802D00143F6
:100EE000116012E081431160C84A183A95131168E5
:100EF000009B01EA10215B1C0093AB4201D000294A
:100F0000F5D0116811EA102000D00120FF212160E6
:100F100038BD10B5BD4BCA241C6053241C6011435E
:100F2000B0F5807F05D0B94824300160FF201860FB
:100F300010BDB6482030F8E7B0F5807F05D0B34843
:100F400024300068C0F30E007047B0482030F8E746
:100F5000AE4ACA21116053211160AC491C390B689B
:100F600023F007030B600B6803430B60FF20106046
:100F70007047A649CA220A6053220A60A34A103A5F
:100F80001060FF2008607047A0481038006880B2E9
:100F9000704718B500219D4B0091CA21196053215B
:100FA00019609A491C390028086803D040F4806011
:100FB000086014E020F480600860944918398C13AC
:100FC0000868009A00F00400521C0092A24201D06E
:100FD0000028F5D00868400701D4002000E0012077
:100FE000FF21196018BD894B10B5CA221A6053221F
:100FF0001A60864A1C3A146824F480241460146829
:10100000084304431460FF20186010BD7F481C385B
:10101000006800F4802070477C4B10B5CA221A602B
:1010200053221A60794A1C3A146824F4E0041460CC
:101030001468084304431460FF20186010BDF0B525
:10104000724D06460024CA200F46286053202860AF
:10105000FFF7D9FC30B16D483E430C380660FFF70E
:1010600043FD0124FF2028602046F0BD70B5674E87
:1010700005460024CA20306053203060FFF7C3FCCF
:1010800060B162481C38016815B141F0800101E08F
:1010900021F080010160FFF727FD0124FF2030606F
:1010A000204670BD594ACA21116053211160574929
:1010B0001C390028086802D040F4000001E020F448
:1010C00000000860FF2010607047504ACA2111607C
:1010D000532111604D491C390B6823F400230B6028
:1010E0000B6803430B60FF2010607047F0B5474D5D
:1010F0000023CA242C6053242C60444C183C2668DE
:10110000F60308D54FF400362768FF0303D5B34232
:1011100001D05B1CF8E72368DB0306D408433B4996
:10112000104318310860012000E00020FF212960F1
:10113000F0BD364B10B51C3B1A6840F60804A243BC
:1011400042EA000209B142F400623048CA2101605B
:10115000532101601A60FF21016010BD70B50D467A
:101160002A4914460C310968294A1140274A10328D
:1011700012684FF63F731A40C1F305432B70C1F359
:1011800006236B7001F07F03AB70402303EA11412B
:10119000E9700021E170C2F30421617002F03F01A7
:1011A000A170C2F342312170002817D1287800F0D5
:1011B0001EF92870687800F01AF96870A87800F0B5
:1011C00016F9A870607800F012F96070A07800F04D
:1011D0000EF9A070207800F00AF9207070BD0B485D
:1011E000143000687047094A1C320029116803D086
:1011F00041EA40001060704721EA4000FAE7034AE4
:101200001C320029116805D0014304E02428004065
:101210007F7F7F0081431160704779490A6822F41B
:10122000C0520A600A6802430A60704774490A683B
:1012300022F4E0620A600A6802430A60704770495B
:101240000A6822F4C0420A600A6802430A607047D2
:101250006B490028086802D040F0800001E020F0CF
:1012600080000860704766490028086802D020F4B2
:10127000004001E040F4004008607047604A08B553
:10128000103202EB80000090016008BD5C4908B597
:10129000103101EB80000090006808BD58490A68D1
:1012A00022F480320A600A6802430A607047544997
:1012B0000A6822F400320A600A6802430A60704732
:1012C0004F490A6822F480220A600A6802430A60D1
:1012D000704770B54A4C0022CA231C3C236053233C
:1012E0002360474B343B1D682D0707D59E141D68AE
:1012F0002D0703D5B24201D0521CF8E71A68120735
:101300000DD43F4A383A1268D20608D401433C480B
:1013100014380160FFF754FB10B1012000E00020F9
:10132000FF21216070BD30B5354DCA221C3D2A60B9
:1013300053222A60324C20F00402383C0029304B02
:10134000216800F0040004D01143216019680143B2
:1013500003E091432160196881431960FF202860F0
:1013600030BD02462649002034390968254B194012
:10137000114200D00120704780B240F08000C1438C
:101380001F483438026802F0800211430160704740
:101390001B4A0021126802F00403194A383A126805
:1013A00003EAD03302401A43174B1B6803EA1010BC
:1013B00003D00004000C00D0012108467047C0F3A0
:1013C0000F1040F08000C1430F48026802F0800215
:1013D000114301607047002103E0491C0A38C9B27B
:1013E000C0B20A28F9D2090740EA11607047010922
:1013F00001EB810100F00F0000EB4100C0B270472B
:10140000402800407F3F01000C280040CD4910B526
:10141000884206D101211020FFF74FF9002110204A
:1014200020E0C949884202D101214C0429E0C74982
:10143000884202D101218C0423E0C549884202D1AF
:101440000121CC041DE0C349884202D101210C05D1
:1014500017E0C149884209D101212020FFF72DF969
:1014600000212020BDE81040FFF727B9BB49884282
:1014700002D101218C0704E0B94988420AD1012137
:1014800044052046FFF70FF92046BDE81040002133
:10149000FFF709B910BD7FB50446008A0D46C9881B
:1014A00020F4405001432182A08941F20C6188431D
:1014B000A9882A8911436A8902431143A181A08A1C
:1014C00020F44071A8890843A0826846FFF706F817
:1014D0009C48844202D0A048844201D1039800E095
:1014E0000298A189090400EBC00101EB00102968F2
:1014F00001D5490000E08900B0FBF1F06422B0FBA7
:10150000F2F109010B096FF018056B4300EB830042
:10151000A3891D044FF0320306D503EBC000B0FBD6
:10152000F2F000F0070005E003EB0010B0FBF2F072
:1015300000F00F00084320817FBD4FF41651016079
:1015400000218180C18001810C224281818170470C
:1015500010B5028A4C8822F470630A8822438C8872
:10156000C9880C4322431A43028210BD0021018026
:1015700041808180C18070470029818902D041F477
:10158000005101E021F4005181817047028B02F487
:101590007F420283028B0A430283704700298189BC
:1015A00002D041F4004101E0C1F30E018181704796
:1015B0000029818A02D041F4006101E021F4006138
:1015C00081827047C1F30801818070478088C0F331
:1015D00008007047028A22F00F020282028A0A4340
:1015E000028270470029818902D041F0020101E0A6
:1015F00021F0020181817047828922F40062828198
:1016000082890A4382817047028A22F02002028284
:10161000028A0A43028270470029018A02D041F4FB
:10162000804101E021F4804101827047818941F0CD
:101630000101818170470029818A02D041F00801AF
:1016400001E021F0080181827047028BD2B202834F
:10165000028B42EA0121018370470029818A02D06E
:1016600041F0200101E021F0200181827047002932
:10167000818A02D041F0100101E021F01001818245
:101680007047828A22F004028282828A0A4382821E
:1016900070470029818A02D041F0020101E021F067
:1016A000020181827047002A828A01D00A4300E049
:1016B0008A438282704710B5C1F3421301F01F04C0
:1016C0000121A140012B07D0022B07D01430002AA2
:1016D000026805D00A4304E00C30F8E71030F6E762
:1016E0008A43026010BD0246002012880A4200D0E0
:1016F00001207047C9430180704770B501F01F0594
:1017000001260024C1F3421306FA05F2012B0FD083
:10171000022B0FD0838A4FEA11210088134206FA68
:1017200001F600EA060001D000B10124204670BD98
:101730008389F0E7038AEEE70A0A01219140C94351
:101740000180704700100140004400400048004004
:10175000004C004000500040001401400078004060
:10176000007C0040354900200860091D0860091D03
:101770000860091D0860314931481431086070471C
:1017800030B52E4A8379016853B313688B431360D5
:10179000111D0B680468A3430B60017911440B68A9
:1017A000046823430B60254B083319680468A14380
:1017B00019601C1D21680568A94321604179102921
:1017C00005D011440A68006802430A6030BD1968F8
:1017D000026811431960216800680143216030BD2F
:1017E0000079104402688A43026030BD0021016024
:1017F00001710C22427181717047104910310A68E1
:1018000002430A60704701460C4A002014321268F5
:101810000A4200D00120704708491431086070471F
:101820000146064A0020143212680A4200D0012004
:10183000704702491431086070470000003C0140C5
:10184000FFFF7F0010B501210C072046FEF72BFF9C
:101850002046BDE810400021FEF725BF4049086240
:101860007047404A116821F0E00101431160704760
:101870003B49086170473A49C1F8A00070473849B0
:10188000C1F8A4007047374A116821F44041014370
:1018900011607047324908647047314948647047A5
:1018A00030490028086802D040F4402001E020F4CC
:1018B0004020086070472A4900B10120C862704783
:1018C000274900B101208862704725494862704766
:1018D000244B10B51A6840F60344A24302431A6031
:1018E0002148026842F004020260012905D020BFAD
:1018F000016821F00401016010BD30BFF8E7194B09
:1019000010B51A6840F60344A24302431A60164811
:10191000026842F004020260012905D020BF01687C
:1019200021F00401016010BD30BFF8E70D480168E7
:1019300041F0020101600C48016841F004010160BE
:1019400030BF7047074A0146002052680A4200D063
:101950000120704703490A6842EA80000860704726
:1019600000000E420070004010ED00E001B532486A
:101970000099416041680029FCD108BD01B54FF4D0
:101980007A70009941432C48416041680029FCD19C
:1019900008BD29488168491C8160C16811B1C168CE
:1019A000491EC1604168002902D04168491E41605A
:1019B000704710B5204C207800281CD10120FEF77C
:1019C000DBFCFEF7F6FC0028FBD01C481C49006835
:1019D000B0FBF1F0401EB0F1807F0DD24FF0E0215E
:1019E0004861184AF02082F8140D00208861072011
:1019F00008610120207010BDFEE70F488068704725
:101A00000D48C06870470C49886070470A49C86033
:101A1000704709480078002805D04FF0E0200169A0
:101A200041F00201016170474FF0E020016921F0AF
:101A300002010161704700001000002058000020E2
:101A400040420F000FE000E01CB501210846FEF700
:101A5000DAFD2020009000208DF8060001218DF88D
:101A600004108DF8070003208DF8050069461D4815
:101A7000FEF70CFF1CBD1CB501210420FEF7C3FDC1
:101A80004FF40050009000208DF806008DF80400FF
:101A90008DF8070003208DF8050069461248FEF70F
:101AA000F5FE1CBD01460F48FEF755BF01460D4827
:101AB000FEF753BF01460B48FEF758BF10B501466D
:101AC0000848FEF73EFF012800D0002010BD10B5E9
:101AD0004FF400510448FEF72AFF08B1002010BD62
:101AE000012010BD000002400008024010B5F84A75
:101AF0000C46417911700179517001789170121D75
:101B0000C1799170017A5170417AD17080791070E9
:101B1000F048002101601F21416040F2FF318160E7
:101B2000FEF7E9FFEA49012C13D00020FFF747F840
:101B3000E7490020091DFFF7BCF8E548001F0068D1
:101B400000280DD0BDE8104044F221310020FFF7FD
:101B500095BB0120FFF733F8DD49091D0120EAE7B5
:101B600010BD10B510B101280BD016E00120FEF712
:101B70004DFC6120FEF706FC0028FAD04FF40070FF
:101B800009E00120FEF736FC4120FEF7FBFB0028B0
:101B9000FAD04FF48070FEF7E4FC0120FEF7F6FC6B
:101BA000FEF70EFFBDE8104041F234210020FFF7A0
:101BB00065BBF0B5427A002340F2B27102F5FA62D9
:101BC0008A4201D20020F0BD6425AE004FF4B77701
:101BD00040F26D1C0FE08C0704D1B1FBF5F405FB5E
:101BE0001414BCB9B1FBF6F406FB141494B16446AA
:101BF000491C234489B29142EDD3017A0C24B1FBF4
:101C0000F4F704FB1717DFF8C8C2077201210CF1C3
:101C1000140C18E03C46EBE7940704D1B2FBF5F452
:101C200005FB14242CBBB2FBF6F406FB142404B30E
:101C3000002404EB44040CEB84040C44491C14F809
:101C4000014C89B223448F42E6D8C1795B1ECA1881
:101C5000A1494A434179C1EB4113C3EB012102EB96
:101C6000011201790078C1EB011102EB81010844F6
:101C7000F0BD0124DDE770B50D009549044621D083
:101C80000120FEF7ECFF92480178617141782171E3
:101C900080782070FFF706F88D496080091D9DB19E
:101CA0000120FFF754F88A48001DC178617241781D
:101CB00021728178E1710078A0712046FFF779FFE9
:101CC000E06070BD0020DCE70020EAE72DE9FF417D
:101CD000074601210807FEF7B4FC0120FFF7BEFD0F
:101CE0000020FFF7D3FA7A4D44F221312D1F4FF433
:101CF00080444FF48008884211D1296014E0FEF737
:101D00005FFE2046FFF75BFB4046FFF792FD002198
:101D10006846FFF7B0FF286804B0BDE8F08141F2E3
:101D20003426B04206D12E60002FE8D10020FFF704
:101D300018FFE4E7002438462C60FFF712FF01206B
:101D40008DF807008DF806008DF808008DF8054025
:101D50008DF809408DF804408DF800400021684658
:101D6000FFF7C4FE00202E60D6E72DE9F0470446B9
:101D70004FF480094846FFF75CFD554D03200835B8
:101D800000272870042068702E1DAF70C6F80090E0
:101D90003771082070714FF4804904B30127EF7048
:101DA0002846FEF774FAB771281DFFF7E9FC0020FA
:101DB000FFF7EFF8012C25D0022C26D0032C27D0DA
:101DC000042C28D0052C29D0062C2AD0072C2BD067
:101DD000082C2CD0092C2DD00A2C2ED02FE000203E
:101DE000FFF7D7F800214846FFF79DFA3848EF7013
:101DF0000830FEF74CFAB771BDE8F04734480C30B4
:101E0000FFF7BEBCDFF8D48019E0DFF8D48016E01D
:101E10004EF6FF7813E049F6FF7810E044F6FF78BD
:101E20000DE041F6FF780AE040F6FF7807E040F267
:101E3000FF7804E040F2FF3801E040F2FF18012093
:101E4000FFF786F84046FFF794F801214846FFF770
:101E50006AFABDE8F0470120FFF79BB83C22B1FBCE
:101E6000F2F3F0B502FB1313C160B1FBF2F10370A2
:101E7000B1FBF2F302FB1313B1FBF2F10371182271
:101E8000B1FBF2F302FB1313B1FBF2F14371CA1C75
:101E90000723B2FBF3F403FB1422521C4FF4B77474
:101EA0008271A61E642340F2B2729D00970704D18E
:101EB000B2FBF3F703FB172727B9B2FBF5F705FBD6
:101EC00017277FB9A1420DD3A1F5B7710EE000002D
:101ED000240000206C00002080510100FFBF03009F
:101EE000FFDF0100B14204D9A1F26D11521C92B280
:101EF000DCE7A2F5FA6444726D4F0024047207F126
:101F00000C06940704D1B2FBF3F403FB142424B9A8
:101F1000B2FBF5F405FB14241CB9047AA45D8C42D1
:101F200003D9047A3C5D8C4206D8091B047A641CF0
:101F3000E4B204720C2CE4D3027A521C0272491CE3
:101F4000C171F0BD10B510B1012817D108E0002112
:101F50004FF48070FEF7B6FF00214FF4805407E085
:101F600000214FF40070FEF7ADFF00214FF4005444
:101F70002046FFF7D8F92046FFF7FEF94FF400346A
:101F80002046FFF756FC4A49002008390C600871CA
:101F90000820487101248C710846FFF7F1FB444882
:101FA00029210C380170042141708470C470BDE88F
:101FB0001040FEF76CB97FB516460C460546FFF794
:101FC000C1FFE0788DF80000A0788DF801006078FE
:101FD0008DF802004FF00040019020780121012887
:101FE0001ED000200290207918B31F2800D91F208E
:101FF0008DF80C0005B3012D11D16C026A46214603
:102000003046FEF7C5FE01212046FEF75BFF0121A9
:102010004C032046FFF787F92046FFF7ADF97FBD57
:102020004FF080400290207918B10728E0D90720AE
:10203000DEE78DF80C10DDE74FF480746A46214628
:102040003046FEF7A5FE01212046FEF73BFF0121A9
:102050000C03DEE710B54FF480442046FFF798F9F3
:10206000002807D02046FFF7AAF92002FFF7E1FB7E
:1020700000F0DEFA10BD10B54FF480542046FFF793
:1020800087F920B12046FFF79AF900F0F5FA4FF4EE
:1020900000542046FFF77CF920B12046FFF78FF966
:1020A00000F0EEFABDE810404FF40030FFF7C1BB7E
:1020B00038000020FB49884222D0FB49884201D1E8
:1020C00001207047F949884201D102207047F84940
:1020D000884201D103207047F649884201D104208B
:1020E0007047F549884201D105207047F34988427D
:1020F00001D106207047F249884201D1072070477C
:10210000002070471CB5044601212020FEF7A3FAE9
:1021100002208DF8040000208DF8060001208DF8C3
:10212000070003208DF80500C4B1012C15D1012151
:102130004020FEF768FAE34C08220E212046FEF705
:1021400019FC082209212046FEF714FC4FF48441B3
:10215000009169462046FEF799FB1CBD0121042031
:10216000FEF751FAD84C082206212046FEF702FC61
:10217000082207212046FEF7FDFBC021E8E71CB539
:10218000044601214804FEF75CFA02208DF80400A1
:1021900000208DF8060001208DF8070003208DF83F
:1021A0000500BCB1012C14D101210820FEF72BFA47
:1021B000C64C072205212046FEF7DCFB072206213C
:1021C0002046FEF7D7FB6021009169462046FEF7C6
:1021D0005DFB1CBD01210846FEF715FABC4C072229
:1021E00002212046FEF7C6FB072203212046FEF708
:1021F000C1FB0C21E8E71CB5044601211020FEF7C5
:102200002AFA02208DF8040000208DF80600012033
:102210008DF8070003208DF80500BCB1012C14D106
:1022200001210220FEF7EFF9AA4C072206212046E1
:10223000FEF7A0FB072211462046FEF79BFBC021BC
:10224000009169462046FEF721FB1CBD012108468E
:10225000FEF7D9F99E4C072209212046FEF78AFB9A
:1022600007220A212046FEF785FB4FF4C061E7E70D
:10227000F0B5044685B08B480C2600250F46009229
:1022800084420FD10846FFF7B6FF2520ADF80A605B
:10229000ADF806508DF81000ADF80C50ADF80850B0
:1022A000ADF80450804884420FD13846FFF767FFED
:1022B0002620ADF80A60ADF806508DF81000ADF894
:1022C0000C50ADF80850ADF804507B4884420FD153
:1022D0003846FFF717FF4720ADF80A60ADF8065003
:1022E0008DF81000ADF80C50ADF80850ADF8045062
:1022F00069462046FFF7CFF801212046FFF73CF959
:10230000012240F225512046FFF7D5F901208DF832
:1023100013008DF811502046FFF7CCFE8DF8120007
:1023200004A8FDF7B4FF05B0F0BD13B50446802145
:102330002046FFF7D8F90028F9D09DF80410204670
:10234000BDE81C40FFF73EB970B50C46054603E0FA
:102350002846641CFFF7E9FF21780029F8D170BDF9
:1023600070B55D4D35F81020202A14D2A5F1200457
:1023700034F810301F2B02D9002324F81030564EA9
:102380009BB2103606EB401699555B1C24F81030B2
:10239000521C25F8102070BD10B5424C40F225515A
:1023A0002046FFF7AAF9002805D0A088BDE8104014
:1023B000C1B20020D4E710BD10B540F225513A4813
:1023C000FFF79BF9002807D03748001D0088BDE8BB
:1023D0001040C1B20120C3E710BD10B540F2255135
:1023E0003248FFF78AF9002807D03048001D0088DE
:1023F000BDE81040C1B20220B2E710BD10B540F2F6
:1024000025512B48FFF779F9002807D02848001DEF
:102410000088BDE81040C1B20320A1E710BD10B58F
:10242000244C40F225512046FFF767F9002805D0DB
:10243000A088BDE81040C1B2042091E710BD10B5DE
:1024400040F225511C48FFF758F9002807D01A48D8
:10245000001D0088BDE81040C1B2052080E710BD16
:1024600010B540F225511548FFF747F9002807D06D
:102470001248001D0088BDE81040C1B206206FE779
:1024800010BD10B540F225510D48FFF736F9002870
:1024900024D00B48001D0088BDE81040C1B20720C1
:1024A0005EE700000010014000440040004800408A
:1024B000004C0040005000400014014000780040F3
:1024C000007C00400018024000080240000C02405E
:1024D00000000240000402409800002010BDF0B54A
:1024E000FFF7E8FD2B4E002236F81040B4B1A6F1FC
:1024F0001005002735F810101F2901D925F8107094
:10250000244A35F81010103202EB4013CA5CCF5445
:10251000491C25F81010641E26F810401046F0BD26
:1025200000B5FFF7C7FD1B4931F8100008B10020C6
:1025300000BD012000BDF0B500240E4684462746AC
:10254000FFF7EEFF08B10020F0BD9AB1551E6046BE
:10255000FFF7E6FF0028FAD16046FFF7C0FF3055CD
:102560000A2805D0AC4201DA641CA4B2002FEED0D8
:10257000002030552046F0BD00B5FFF79BFD054A11
:10258000002122F81010203A22F81010103222F800
:10259000101000BD9800002000F0B4F8FFF709FA11
:1025A000FFF769FAFFF750FA4FF4E132002136489D
:1025B000FFF75EFE0020FFF789FB0720FFF7D5FB42
:1025C000FFF785FA0028FBD0304C152000276071FA
:1025D0000B20207127700E2060720A2020724FF0AD
:1025E000140884F807800126A67139462046FFF7B3
:1025F0007DFA274D60790022E8702079A870207854
:102600002946401D68702F702E711046FFF7D3FCCD
:102610006079E8702079A870207800220A3068700C
:1026200085F804802E7029460120FFF7C4FCC7E717
:1026300010B586B000211548FFF71DFB13480DF1BA
:10264000040C417903780279C4688CE81E00417A51
:1026500001F5FA610091037AC2790EA1343800F0D5
:102660000DF90A4908483439FFF76EFE06B02020FC
:10267000BDE81040FFF71EBA11A10348FFF764BE82
:1026800014A10148FFF760BE00480040DC010020B3
:1026900050000020253032642E253032642E253043
:1026A000346420253032643A253032643A253032A1
:1026B000642020556E69783A2025750A00000000D4
:1026C000416C61726D204120747269676765726543
:1026D000640A0000416C61726D2042207472696767
:1026E00067657265640A00007047FEE7FEE7FEE773
:1026F000FEE7704770477047704710B5FFF749F91C
:1027000010BD0000544810B5016841F4700101602B
:102710005248016841F001010160504A002108322D
:10272000116002684E4B1A400260031D4D4A1A6048
:10273000026822F48022026048480C30016000F0F8
:102740003CF845494FF000608039086010BD70B515
:10275000424D08352868444B444910F00C0004D021
:102760005E10042803D0082803D00B601BE00E6025
:1027700019E03A4A121D1068C0F38054106800F046
:102780003F0014B1B6FBF0F001E0B3FBF0F01368CA
:102790001268C3F388135843C2F30142521C52001B
:1027A000B0FBF2F008602868304AC0F30310121D35
:1027B000105C0A68C2400A6070BD0CB5002227494F
:1027C00000920192086840F4803008604FF4A04302
:1027D000086800F4003001900098401C00900198B7
:1027E00010B900989842F3D10868800332D50120CF
:1027F00001901A484030026842F0805202601C4842
:10280000026842F4404202601448083002680260E4
:1028100002680260026842F480520260031F154A97
:102820001A600A6842F080720A600A689201FCD558
:10283000114A40F202711160016821F00301016048
:10284000016841F0020101600168C1F381010229C0
:10285000FAD10CBD01920CBD88ED00E000380240B9
:10286000FFFFF6FE103000240024F4005800002082
:102870000070004008544107003C02400FB41CB5F2
:10288000074B06AA7B4469460090059800F06BF957
:102890000020694600F07AF91CBC5DF814FB0000CA
:1028A0000503000070B5044685690068C10601D5BE
:1028B000302600E02026C00707D070BDD4E90121F2
:1028C00030469047206A401C20626D1EF6D570BDD0
:1028D00070B5044685690078C00707D170BDD4E99A
:1028E000012120209047206A401C20626D1EF6D5F1
:1028F00070BD00002DE9F0410646002410687529DE
:10290000314616A510D0AFF30080002802DA40420D
:1029100013A507E031688A0701D512A502E049072F
:1029200004D511A5012401E0AFF3008000210A22A3
:1029300006F1240709E0B0FBF2FCB0FBF2F302FB66
:102940001C00303078541846491C0028F3D1234627
:102950002A463046BDE8F04100F0A7B8000000006C
:102960002D0000002B000000200000002DE9F05F8A
:10297000894604464FF0000ADFF824B1FB44C0F852
:1029800020A02046E168884700287DD0252806D071
:10299000D4E901219047206A401C2062F1E700251C
:1029A0005F462046E16888472028064607DB312E2F
:1029B00005D2B81910F8200C08B10543F1E7A807B3
:1029C00001D525F00405C4F81CA00027C4F818A000
:1029D0002A2E09D0304600F014F938B304EB8708EA
:1029E000303EC8F8186019E059F8041B204604EB83
:1029F00087029161E1688847012F064618D1E06996
:102A0000002820DA25F020051DE0D8F8180000EB9A
:102A1000800006EB40003038C8F818002046E16816
:102A20008847064600F0EDF80028EED1012F0AD0C5
:102A30002E2E08D12046E16888477F1C0646022FCB
:102A400045F02005C4DBA069002803DA404245F0C8
:102A50000105A061E80701D025F01005A6B1A6F197
:102A60004100192802D8203645F400654A4631460F
:102A7000204625604D46FDF7C7FB60B1012807D011
:102A8000ED1D25F0070000E007E000F1080978E7F8
:102A900005F1040975E730467AE7206ABDE8F09F42
:102AA0009A0200007047704770472DE9F0470D46C5
:102AB00099469246044600F124080168880604D528
:102AC000E06921F01001216000E00120A84201DD51
:102AD000471B00E00027A1697A1902EB0900081AD8
:102AE000A0612078C00602D42046FFF7DBFE002656
:102AF00008E0D4E901211AF806009047206A401C3A
:102B0000761C20624E45F4DB2078C0060AD52046AC
:102B1000FFF7C8FE06E0D4E9012130209047206A83
:102B2000401C2062381EA7F10107F4DC07E0D4E95D
:102B3000012118F805009047206A401C2062281ED9
:102B4000A5F10105F3DC2046FFF7C2FE2078000660
:102B500002D50220BDE8F0870120FBE701694A1C8D
:102B600002610878704700B58FB0CDE901310021CE
:102B7000059105497944CDE9031011466846FFF7F0
:102B8000F5FE0FB000BD0000E5FFFFFF0A6802F888
:102B9000010B0A607047754600F028F8AE46050044
:102BA0006946534620F00700854618B020B5FDF76A
:102BB00057FBBDE820404FF000064FF000074FF0F4
:102BC00000084FF0000B21F00701AC46ACE8C0094B
:102BD000ACE8C009ACE8C009ACE8C0098D46704754
:102BE0000446AFF300802046FDF725FB0048704700
:102BF000EC01002001491820ABBEFEE726000200D0
:102C0000704730380A2801D20120704700207047F1
:102C10004FF04070E1EE100A704704000008000019
:102C20000000000000020001000010004C2C000811
:102C3000000000206C000000D0010008B82C000843
:102C40006C000020E4070000EC0100080000000018
:102C50000102030401020304060708090000000042
:102C60000000000000000000000000000000000064
:102C70000000000000000000000000000000000054
:102C8000000000001F1C1F1E1F1E1F1F1E1F1E1FD7
:102C90001F1D1F1E1F1E1F1F1E1F1E1F00000000C6
:102CA0000000000000BD0105000000000000000061
:082CB0000102030406070809F4
:0400000508000245A8
:00000001FF
