:020000040800F2
:10000000600800207102000835190008371900083F
:10001000391900083B1900083D19000800000000CC
:100020000000000000000000000000003F19000870
:100030004119000800000000431900084719000892
:100040008B0200088B0200088B0200088B0200085C
:100050008B0200088B0200088B0200088B0200084C
:100060008B0200088B0200088B0200088B0200083C
:100070008B0200088B0200088B0200088B0200082C
:100080008B0200088B0200088B0200088B0200081C
:100090008B0200088B0200088B0200088B0200080C
:1000A0008B0200088B0200088B0200088B020008FC
:1000B0008B0200088B0200088B0200088B020008EC
:1000C0008B0200088B0200088B0200088B020008DC
:1000D0008B0200081B1500082D15000845150008A7
:1000E0008B0200088B0200088B0200088B020008BC
:1000F0008B0200088B0200088B0200088B020008AC
:100100008B0200088B0200088B0200088B0200089B
:100110005D150008751500088B0200088B020008A9
:100120008B0200088B0200088B0200088B0200087B
:100130008B0200088B0200088B0200088B0200086B
:100140008B0200088B0200088B0200088B0200085B
:100150008B0200088B0200088B020008891500083A
:100160008B0200088B0200088B0200088B0200083B
:100170008B0200088B0200088B0200088B0200082B
:100180008B0200088B02000800F002F800F061F812
:100190000AA090E8000C82448344AAF10107DA45E2
:1001A00001D100F056F8AFF2090EBAE80F0013F0D3
:1001B000010F18BFFB1A43F001031847801B000012
:1001C000A01B00000A444FF0000C10F8013B13F094
:1001D000070408BF10F8014B1D1108BF10F8015BA0
:1001E000641E05D010F8016B641E01F8016BF9D193
:1001F00013F0080F1EBF10F8014BAD1C0C1B09D1EA
:100200006D1E58BF01F801CBFAD505E014F8016B5B
:1002100001F8016B6D1EF9D59142D6D370470000ED
:100220000023002400250026103A28BF78C1FBD8FF
:10023000520728BF30C148BF0B607047752901F0D5
:100240008D84002070471FB501F073FD1FBD10B5F0
:1002500010BD01F038FD1146FFF7F5FF01F00EFB70
:1002600001F056FD03B4FFF7F2FF03BC01F05AFDA5
:100270000948804709480047FEE7FEE7FEE7FEE73A
:10028000FEE7FEE7FEE7FEE7FEE7FEE70448054976
:10029000054A064B70470000F31900088901000861
:1002A000600200206008002060040020600400203C
:1002B0002849084328490860704730B50F23C278A1
:1002C00001780125FAB1244A126801F1E02102F413
:1002D000E062C2F5E062C2F30722C2F10404D34037
:1002E0004278A24084781C401443220181F8002403
:1002F000007800F01F018D404009800000F1E020EF
:10030000C0F8005130BD01F01F0085404809800051
:1003100000F1E020C0F8805130BD104A1140014387
:100320000D48001F016070470B4A121D002911681B
:1003300001D0014300E08143116070474FF0E0219C
:100340000428086903D020F004000861704740F0D9
:100350000400FAE70000FA050CED00E080FFFF1F43
:10036000F848016841F001010160F64A00210832B5
:1003700011600268F44B1A400260031DF34A1A60D0
:10038000F04BF34A84331A60F04A103A1B1D1A608E
:10039000026822F480220260EA480C300160181DD5
:1003A00001607047E7490022891C0A700870704795
:1003B00002460020510901290CD002290CD0E14944
:1003C0007431096802F01F02012393400B4200D0F0
:1003D00001207047DB49F4E7DA497031F1E718B5DD
:1003E00000204FF4A04400903120FFF7E1FF009976
:1003F000491C0091A14201D00028F5D03120FFF71F
:10040000D7FF002800D0012018BDCE4A116821F086
:10041000F80141EAC00010607047CE49086070479B
:10042000C849002270310A700A70012802D00428DD
:1004300001D1052008707047C7490860704741EA3C
:1004400082115A0810B5C54B029C03EB02421143BE
:10045000014341EA0460BB49091D086010BDBD4964
:1004600008667047800140EA0170B649843108602F
:100470007047B84988667047800140EA0160B14919
:1004800040EA0270883108607047B24908677047D7
:10049000B049C8647047AB4B08331A68084322F070
:1004A000EC62104318607047A64B08331A68084383
:1004B00022F07842104318607047A24A083211684F
:1004C00021F003010143116070479E480830006825
:1004D00000F00C0070479B4A0832116821F0F001CF
:1004E000014311607047974A0832116821F4E051C6
:1004F000014311607047934A0832116821F460414A
:1005000041EAC0001060704770B58E4B083319681F
:10051000934C11F00C0104D06610042903D0082973
:1005200003D004601BE0066019E0864A121D1168C2
:10053000C1F38055116801F03F0115B1B6FBF1F12F
:1005400001E0B4FBF1F114681268C4F3881461434C
:10055000C2F30142521C5200B1FBF2F10160196872
:100560000F2202EA11117F4A545C0168E1404160A8
:100570001C68072505EA9424145D21FA04F48460BC
:100580001B6805EA5333D25CD140C16070BDC0F333
:100590000121032908D16B4B08331968724A21F4F1
:1005A000F81102400A431A60664970310A68C0F3C4
:1005B0000B0002430A60704767494439086070477E
:1005C00065494039086070476249C1F85C0170476D
:1005D0005C4A8C321168401E21F01F0101431160FA
:1005E0007047584A8C3211686FF0FF0321F4F851BC
:1005F00003EB0020084310607047524A8C321168A8
:1006000021F440110143116070474E4A8C32116849
:1006100021F440010143116070474A4A8C3211684D
:1006200021F440310143116070475049C1F8E001A5
:100630007047444A30320029116801D0014300E07C
:100640008143116070473F4A34320029116801D05C
:10065000014300E08143116070473A4A3832002973
:10066000116801D0014300E0814311607047354AB1
:1006700040320029116801D0014300E0814311603C
:100680007047304A44320029116801D0014300E02C
:100690008143116070472B4A10320029116801D044
:1006A000014300E0814311607047264A143200295B
:1006B000116801D0014300E0814311607047214A75
:1006C00018320029116801D0014300E08143116014
:1006D00070471C4A20320029116801D0014300E014
:1006E000814311607047174A24320029116801D0F4
:1006F000014300E0814311607047124A50320029E3
:10070000116801D0014300E08143116070470D4A38
:1007100054320029116801D0014300E08143116087
:100720007047084A58320029116801D0014300E09F
:10073000814311607047034A60320029116817D065
:10074000014316E000380240FFFFF6EA10300024B3
:100750000030002000004742800E47420000FFFFAB
:100760000024F40000000020FFFCFF0F00104742AF
:10077000814311607047194A0029116801D0014373
:1007800000E081431160704714490C31012808686A
:1007900003D020F008000860704740F00800FAE736
:1007A0000E4A573A0029117801D0014300E08143F5
:1007B0001170704709481030016841F08071016084
:1007C00070470146054A0020583A12680A4200D094
:1007D000012070470149563908707047643802405B
:1007E000774910B5884206D101210846FFF753FF2B
:1007F000002101205BE07349884206D101210220DB
:10080000FFF749FF0021022051E06F49884206D1DD
:1008100001210420FFF73FFF0021042047E06B493E
:10082000884206D101210820FFF735FF002108206A
:100830003DE06749884206D101211020FFF72BFFD8
:100840000021102033E06349884206D10121202095
:10085000FFF721FF0021202029E05F49884206D1CF
:1008600001214020FFF717FF002140201FE05B49D6
:10087000884206D101218020FFF70DFF0021802052
:1008800015E05749884202D1012184150AE05549F3
:10089000884202D10121441504E0534988420AD11B
:1008A000012104152046FFF7F6FE00212046BDE891
:1008B0001040FFF7F0BE10BDF0B5002201274FF049
:1008C000030C0B6807FA02F52B40AB422CD10668EB
:1008D00053000CFA03F4A64306600E79D0F800E04A
:1008E0009E4046EA0E0606600E79012E01D0022EC9
:1008F00012D18668A64386604E79D0F808E09E4003
:1009000046EA0E0686604668AE43466045688E79C4
:100910009640B6B235434560C568A543C560CC79FD
:100920009C40C3681C43C460521C102AC9D3F0BD4C
:100930004FF6FF7101600021017141718171C17138
:10094000704708B541F480320092C261C1610099DC
:10095000C161C169C069009008BD024600201269EA
:100960000A4200D001207047006980B270470246F9
:10097000002052690A4200D001207047406980B2CD
:10098000704701837047418370470AB10183704704
:10099000418370474161704742694A4042617047F4
:1009A0004B07DB0E9A40C90810B500EB8100016AC5
:1009B0000F249C40A1430162016A1143016210BDF2
:1009C000000002400004024000080240000C024007
:1009D000001002400014024000180240001C0240B7
:1009E000002002400024024000280240CD4910B5FA
:1009F000884206D101211020FFF775FE002110204A
:100A000020E0C949884202D101214C0429E0C749AC
:100A1000884202D101218C0423E0C549884202D1D9
:100A20000121CC041DE0C349884202D101210C05FB
:100A300017E0C149884209D101212020FFF753FE68
:100A400000212020BDE81040FFF74DBEBB49884281
:100A500002D101218C0704E0B94988420AD1012161
:100A600044052046FFF735FE2046BDE81040002132
:100A7000FFF72FBE10BD7FB50446008A0D46C9881A
:100A800020F4405001432182A08941F20C61884347
:100A9000A9882A8911436A8902431143A181A08A46
:100AA00020F44071A8890843A0826846FFF72CFD16
:100AB0009C48844202D0A048844201D1039800E0BF
:100AC0000298A189090400EBC00101EB001029681C
:100AD00001D5490000E08900B0FBF1F06422B0FBD1
:100AE000F2F109010B096FF018056B4300EB83006D
:100AF000A3891D044FF0320306D503EBC000B0FB01
:100B0000F2F000F0070005E003EB0010B0FBF2F09C
:100B100000F00F00084320817FBD4FF416510160A3
:100B200000218180C18001810C2242818181704736
:100B300010B5028A4C8822F470630A8822438C889C
:100B4000C9880C4322431A43028210BD0021018050
:100B500041808180C18070470029818902D041F4A1
:100B6000005101E021F4005181817047028B02F4B1
:100B70007F420283028B0A430283704700298189E6
:100B800002D041F4004101E0C1F30E0181817047C0
:100B90000029818A02D041F4006101E021F4006162
:100BA00081827047C1F30801818070478088C0F35B
:100BB00008007047028A22F00F020282028A0A436A
:100BC000028270470029818902D041F0020101E0D0
:100BD00021F0020181817047828922F400628281C2
:100BE00082890A4382817047028A22F020020282AF
:100BF000028A0A43028270470029018A02D041F426
:100C0000804101E021F4804101827047818941F0F7
:100C10000101818170470029818A02D041F00801D9
:100C200001E021F0080181827047028BD2B2028379
:100C3000028B42EA0121018370470029818A02D098
:100C400041F0200101E021F020018182704700295C
:100C5000818A02D041F0100101E021F0100181826F
:100C60007047828A22F004028282828A0A43828248
:100C700070470029818A02D041F0020101E021F091
:100C8000020181827047002A828A01D00A4300E073
:100C90008A438282704710B5C1F3421301F01F04EA
:100CA0000121A140012B07D0022B07D01430002ACC
:100CB000026805D00A4304E00C30F8E71030F6E78C
:100CC0008A43026010BD0246002012880A4200D00A
:100CD00001207047C9430180704770B501F01F05BE
:100CE00001260024C1F3421306FA05F2012B0FD0AE
:100CF000022B0FD0838A4FEA11210088134206FA93
:100D000001F600EA060001D000B10124204670BDC2
:100D10008389F0E7038AEEE70A0A01219140C9437B
:100D2000018070470010014000440040004800402E
:100D3000004C00400050004000140140007800408A
:100D4000007C0040234810B54168491C416081681F
:100D500011B18168491E8160AFF3008010BD10B5EC
:100D60001C4C2078002821D10120FFF71BFBFFF746
:100D700036FB0028FBD0184801684FF47A70B1FBAD
:100D8000F0F0401EB0F1807F11D24FF0E0225061B0
:100D9000124BF02083F8140D0020906107201061A1
:100DA0000F48B1FBF0F0E0600120207010BDFEE7BD
:100DB00008480078002805D04FF0E020016941F094
:100DC0000201016170474FF0E020016921F002014A
:100DD0000161704710000020280100200FE000E0B2
:100DE000C0C62D001CB500200321CDE9000103463B
:100DF00001224FF47041174800F0E0FB1CBD1CB508
:100E0000002101200B460A46CDE9000101461248A7
:100E100000F0D4FB1CBD10480069C1070F4805D085
:100E2000017829B90121017008467047002101703D
:100E30000020704708480069C107084803D0012115
:100E400001700020704701780029FAD0002101705C
:100E500001207047000C02400000024020000020EA
:100E600070B5754901240C8002250D8004220A808A
:100E7000724BDE78082306B90B8000280AD06E4931
:100E8000891C012807D0022807D0032807D004288E
:100E900000D10B8070BD0C8070BD0D8070BD0A80CC
:100EA00070BD7CB5654E0124634DF070183D009413
:100EB0000023224621462846019400F07FFB00943F
:100EC0000023012202212846019400F077FB0094C0
:100ED0000023012204212846019400F06FFBF078E2
:100EE00038B900940023012208212846019400F01B
:100EF00065FB534D002300941A46022128460194B5
:100F000000F05CFB002300941A460421284601945B
:100F100000F054FB002300941A460821284601944F
:100F200000F04CFB002300941A462021284601942F
:100F300000F044FBBDE87C40002091E740491031BF
:100F40000A6893073D4A02F10C02104402D410F8DB
:100F5000010C70470A68520701D4C07870470A68CC
:100F6000120701D4C0797047344AD27822B909688F
:100F7000890601D4C07A7047FF20704700B5012070
:100F8000FFF76EFF0120FFF7D9FFFF281BD10220DA
:100F9000FFF766FF0220FFF7D1FFFF2813D10320E0
:100FA000FFF75EFF0320FFF7C9FFFF280BD123489F
:100FB000C07838B90420FFF753FF0420FFF7BEFFC5
:100FC000FF2800D1FF2000BD30B5FFF7D7FF1B4B36
:100FD000002201241870FF2811D0597881421DD1B8
:100FE00099780129996801F101049C600DD003F101
:100FF0001C0454F82040A1421BD39A6030BD5A60B3
:10100000FF209A6058709C7013E00C4C5C3454F8CC
:101010002040A1420DD39A609A7030BD59684D1C92
:101020005D6041F28835A94203D35A609C705870C4
:1010300030BDFF2030BD0000180C0240240000200D
:1010400000080240F84A0146904200D10020F74AC9
:10105000914200D10120F64A914200D10220F54A86
:10106000914200D10420F44A914200D10520F34A74
:10107000914200D1062070471CB50822032138B1E7
:1010800001280CD0032802D1EC48AFF300801CBD2E
:10109000CDE9001201230022C021E94806E0CDE994
:1010A0000012012300224FF48441E64800F0A0FA28
:1010B0001CBD7CB528B1032802D1DF48AFF3008006
:1010C0007CBD08250324012300221903DC48CDE957
:1010D000004500F08DFA012300220421DA48CDE911
:1010E000004500F085FA7CBD1CB50822032138B10B
:1010F00001280CD0032802D1CE48AFF300801CBDDC
:10110000CDE90012012300220321D04806E0CDE9F9
:101110000012012300224FF44061C94800F068FA30
:101120001CBD1CB507220323990248B101280DD02C
:10113000022813D0032802D1BD48AFF300801CBDA4
:10114000CDE9003201230022C14804E0CDE900329C
:1011500001230022BA4800F04BFA1CBDCDE9003251
:10116000012300224FF44071B748F4E71CB5072271
:10117000032138B101280CD0032802D1AB48AFF3CA
:1011800000801CBDCDE90012012300220C21AF48D4
:1011900005E0CDE90012012300226021AA4800F0F9
:1011A00027FA1CBD1CB50722032138B101280DD038
:1011B000032802D19C48AFF300801CBDCDE900128A
:1011C000012300224FF4C061A04805E0CDE90012E0
:1011D00001230022C0219E4800F00AFA1CBD924A59
:1011E0000146904200D19B48904A914201D19948D2
:1011F00010308F4A914201D1964820308D4A914259
:1012000001D1944830308C4A914201D1914840300C
:101210008A4A914201D18F48503070472DE9F047FA
:1012200086B013468A460446FFF7D9FF80467E48BB
:10123000DFF8249200250C260093844215D1D9F8BA
:10124000001041F01001C9F800105046FFF7AAFF46
:101250002520ADF80A60ADF806508DF81000ADF805
:101260000C50ADF80850ADF804507B4F6F483F1F4D
:10127000844213D1386840F4003038605046FFF79C
:1012800075FF2620ADF80A60ADF806508DF8100005
:10129000ADF80C50ADF80850ADF8045064488442E5
:1012A00013D1386840F4802038605046FFF739FF8A
:1012B0002720ADF80A60ADF806508DF81000ADF8A3
:1012C0000C50ADF80850ADF804505A48844213D180
:1012D000386840F4002038605046FFF705FF34209E
:1012E000ADF80A60ADF806508DF81000ADF80C505E
:1012F000ADF80850ADF804504F48844213D1386817
:1013000040F4801038605046FFF7D3FE3520ADF82A
:101310000A60ADF806508DF81000ADF80C50ADF82D
:101320000850ADF804504548844215D1D9F8001052
:1013300041F02001C9F800105046FFF79DFE4720FC
:10134000ADF80A60ADF806508DF81000ADF80C50FD
:10135000ADF80850ADF80450012588F80C50002174
:101360002046FFF7F9FB2046FFF740FB6946204681
:10137000FFF781FB01212046FFF7EEFB012240F23F
:1013800025512046FFF787FC8DF8135006208DF875
:1013900011002046FFF756FE8DF8120004A8FEF754
:1013A0008CFF06B0BDE8F08700B50023FFF717FFFC
:1013B000C28862B141898388994201D1002141816B
:1013C000036889B25B56491C4181521EC280D8B263
:1013D00000BD00B5FFF703FFC1888088814201D1BD
:1013E000012000BD002000BD10B50C46FFF7F7FE40
:1013F000C38842890DE08188914200D100220168B2
:10140000895CA14201D1012010BD521C5B1E92B229
:101410009BB2002BEFD1002010BD00B5FFF7DFFE1F
:10142000C088D8B1002000BD001001400044004039
:1014300000480040004C00400050004000140140B3
:101440000008024000180240000C02400000024068
:1014500000040240C0000020443802400120E2E7BE
:10146000F0B515460E4607460024FFF7D6FFC0B973
:101470000A213846FFF7B8FF18B93846FFF7A9FF29
:1014800078B16D1EAC4208DA3846FFF78DFF305553
:1014900004F101040A28A4B2F4D1002030552046FA
:1014A000F0BD0020F0BD00B5FFF799FE0021C1801E
:1014B00001814181B7E703B50346FFF790FE007B4A
:1014C000002805D019880906FCD59DF804009880ED
:1014D0000CBD30B50C460546FFF781FE007B0028A9
:1014E00007D003E02846641CFFF7E5FF21780029B8
:1014F000F8D130BDC388828893420DD203899342CC
:1015000001D10022028103890268D1540189491C5A
:101510000181C188491CC180704721480188890622
:1015200003D58088C1B21F48E4E770471E48008891
:10153000800606D51C48001D0088C1B2194810302D
:10154000D8E7704719480088800606D51748001D5F
:101550000088C1B213482030CCE770471448008897
:10156000800606D51248001D0088C1B20D483030F3
:10157000C0E770470F480188890604D58088C1B24A
:1015800008484030B6E770470B480088800606D50B
:101590000948001D0088C1B202485030AAE77047D0
:1015A00000100140C00000200044004000480040FE
:1015B000004C004000500040001401402DE9F0476D
:1015C0001E46DDE9088715460C0081460ED000F066
:1015D000ECF89D48014605718671046080F807802B
:1015E00047714846BDE8F047FFF766B9BDE8F087A8
:1015F0002DE9FC418046DDE908070D001AD0CDE950
:101600000030134602224046FFF7D8FF002401268F
:1016100006FA04F028420AD0002101E04008491CE3
:101620000128FBD889B23A464046FFF7B9F9641C55
:10163000102CEDD3BDE8FC81834A032313710023F2
:1016400093711160D37153711146FFF735B970B5BD
:1016500000220124032504FA02F3DBB2194205D06B
:1016600006685B0005FA03F39E430660521CD2B283
:10167000102AF0D370BDF0B500220127032607FA27
:1016800002F33C460B4208D00568530006FA03FCFF
:1016900025EA0C059C4025430560521CD2B2102A55
:1016A000EDD3F0BD0146694A0020914200D10120EE
:1016B000674A914200D10220664A914200D103203C
:1016C000654A914200D10420644A914200D105202C
:1016D000634A914200D10620624A914200D107201C
:1016E000614A914200D10820604A914200D109200C
:1016F0005F4A914200D10A207047002102E0491C54
:1017000089B240080128FAD808467047594A5A4910
:10171000904203D10A6822F001020A604B4A9042CB
:1017200003D10A6822F002020A60494A904203D1BA
:101730000A6822F004020A60464A904203D10A680D
:1017400022F008020A60444A904203D10A6822F05B
:1017500010020A60414A904203D10A6822F0200236
:101760000A603F4A904203D10A6822F040020A60B0
:101770003C4A904203D10A6822F080020A603A4A49
:10178000904203D10A6822F480720A60374A90427C
:1017900003D10A6822F400720A60354A904203D1EC
:1017A000086820F4806008607047324A32499042ED
:1017B00003D10A6842F001020A60244A904203D130
:1017C0000A6842F002020A60214A904203D10A6884
:1017D00042F004020A601F4A904203D10A6842F0B4
:1017E00008020A601C4A904203D10A6842F01002C3
:1017F0000A601A4A904203D10A6842F020020A6045
:10180000174A904203D10A6842F040020A60154A22
:10181000904203D10A6842F080020A60124A904264
:1018200003D10A6842F480720A60104A904203D1E0
:101830000A6842F400720A600D4A904203D10868B7
:1018400040F48060086070472001002000040240DE
:1018500000080240000C0240001002400014024048
:1018600000180240001C02400020024000240240F8
:1018700000280240000002403038024086B000F0EC
:10188000B8F8FFF7AFFA4FF4E13201212348FFF730
:10189000C5FC0020FFF705FBDFF884B04FF480564D
:1018A0000BF10404B7004FF400584FF40049A51C95
:1018B0004FF4704AFFF788FB0246FF28FAD00C2A43
:1018C0001FD2DFE802F0060D0F11131517191C1EA9
:1018D0002729DBF8001081F47041CBF8001010E0EC
:1018E00026800EE02E800CE027800AE02F8008E0A2
:1018F000404602E0404603E04846208001E048467A
:10190000288008A1684600F0E1F869460348FFF71F
:10191000E0FDCFE75046F0E75046F1E70010014008
:10192000140C0240507265737365643A202575206B
:1019300075730A007047FEE7FEE7FEE7FEE77047B3
:1019400070477047704710B5FFF7FCF910BD0000F5
:101950000CB50022544900920192086840F480308E
:1019600008604FF4A043086800F40030019000982C
:10197000401C0090019810B900989842F3D1086873
:10198000800334D50120019047484030026842F07E
:10199000805202604548026842F440420260424878
:1019A000083002680260026842F400420260026885
:1019B00042F4A0520260031F3D4A1A600A6842F0D6
:1019C00080720A600A689201FCD53A4940F20572B9
:1019D0000A60016821F003010160016841F0020121
:1019E00001600168C1F381010229FAD10CBD0192A5
:1019F0000CBD314810B5016841F4700101602A48FE
:101A0000016841F001010160274A0021083211609C
:101A100002682A4B1A400260031D294A1A600268B4
:101A200022F48022026020480C300160FFF790FF12
:101A300021494FF000608039086010BD70B51A4D23
:101A4000083528681F4B204910F00C0004D05E10A8
:101A5000042803D0082803D00B601BE00E6019E0B7
:101A6000114A121D1068C0F38054106800F03F0046
:101A700014B1B6FBF0F001E0B3FBF0F013681268AC
:101A8000C3F388135843C2F30142521C5200B0FB07
:101A9000F2F0086028680C4AC0F30310121D105CB5
:101AA0000A68C2400A6070BD003802400070004001
:101AB00008544007003C024088ED00E0FFFFF6FEBE
:101AC000103000240024F400280100200FB41CB5BD
:101AD000074B06AA7B4469460090059800F0DBF8A6
:101AE0000020694600F0EAF81CBC5DF814FB000019
:101AF000E50100002DE9F0410E4604460020206279
:101B00002046E168884730B3252805D0D4E9012173
:101B10009047206A401CF2E7E1682046002788478A
:101B2000050018D0A5F14100192802D820354FF43E
:101B300000673246294620462760FEF77FFB40B10A
:101B4000012804D0F61D26F007060836D8E7361D12
:101B5000D6E72846DAE7206ABDE8F0812DE9F041B2
:101B60000646002410687529314616A510D0AFF33B
:101B70000080002802DA404213A507E031688A0796
:101B800001D512A502E0490704D511A5012401E001
:101B9000AFF3008000210A2206F1240709E0B0FB20
:101BA000F2FCB0FBF2F302FB1C0030307854184614
:101BB000491C0028F3D123462A463046BDE8F041AF
:101BC00000F00BB8000000002D0000002B0000000A
:101BD000200000007047704770472DE9F0470D4620
:101BE00099469246044600F124080168880604D507
:101BF000E06921F01001216000E00120A84201DD30
:101C0000471B00E00027A1697A1902EB0900081AB6
:101C1000A0612078C00602D42046AFF300800026E1
:101C200008E0D4E901211AF806009047206A401C18
:101C3000761C20624E45F4DB2078C0060AD520468B
:101C4000AFF3008006E0D4E9012130209047206AFC
:101C5000401C2062381EA7F10107F4DC07E0D4E93C
:101C6000012118F805009047206A401C2062281EB8
:101C7000A5F10105F3DC2046AFF3008020780006D3
:101C800002D50220BDE8F0870120FBE701694A1C6C
:101C900002610878704700B58FB0CDE901310021AD
:101CA000059105497944CDE9031011466846FFF7CF
:101CB00021FF0FB000BD0000E5FFFFFF0A6802F83A
:101CC000010B0A607047754600F028F8AE46050023
:101CD0006946534620F00700854618B020B5FEF748
:101CE000D5FABDE820404FF000064FF000074FF056
:101CF00000084FF0000B21F00701AC46ACE8C0092A
:101D0000ACE8C009ACE8C009ACE8C0098D46704732
:101D10000446AFF300802046FEF7A4FA004870475F
:101D2000FC01002001491820ABBEFEE7260002009E
:101D300070474FF04070E1EE100A70475C1D0008DC
:101D4000000000203C010000C4010008141E00082F
:101D50003C0100202407000020020008412D010260
:101D600003040405150607080993FF0119281E0C32
:101D70000405060D2B130E0A250B0F8D7F14D12F92
:101D80000123409C23386914D4080123AD9023ED2E
:101D90006323ACEE23C28823F05F2395D4231B5B1F
:101DA00023204E231E4B230349235046144EFD028D
:101DB00014E61E071480A9031450770214F83406A1
:101DC000140E6403148E570214089805148C3403FF
:101DD00014A03F02147EFB0414A2220214C0D401FA
:101DE00014B4C2011412B60114E0A501133C01B3EE
:101DF0002020DA5C10DA7C10DA9C10DABC10DADC15
:101E00001091847A030A00090001020304060708FE
:041E100009000000C5
:040000050800018965
:00000001FF
