:020000040800F2
:10000000D807002031130008391300083B130008FB
:100010003D1300083F1300084113000800000000D2
:100020000000000000000000000000004313000872
:100030004513000800000000471300088302000871
:100040004B1300084B1300084B1300084B13000818
:100050004B1300084B1300084B1300084B13000808
:100060004B1300084B1300084B1300084B130008F8
:100070004B1300084B1300084B1300084B130008E8
:100080004B1300084B1300084B130008000000003E
:100090000000000000000000000000004B130008FA
:1000A0004B1300084B1300084B1300084B130008B8
:1000B0004B1300084B1300084B1300084B130008A8
:1000C0004B1300084B1300084B1300084B13000898
:1000D0004B130008B50E0008D10E00080000000008
:1000E0004B1300084B1300084B13000800000000DE
:1000F0000000000000000000000000004B1300089A
:10010000000000004B1300084B1300084B130008BD
:1001100000000000000000000000000000000000DF
:100120004B1300084B1300084B1300084B13000837
:100130004B13000800000000000000000000000059
:100140000000000000000000000000004B13000849
:100150004B1300084B1300084B130008470F00080F
:100160004B1300084B1300080000000000000000C3
:10017000000000000000000000000000000000007F
:10018000000000004B130008000000000000000009
:100190004B13000800F002F800F04CF80AA090E8B9
:1001A000000C82448344AAF10107DA4501D100F032
:1001B00041F8AFF2090EBAE80F0013F0010F18BFB3
:1001C000FB1A43F0010318474C3900006C3900005A
:1001D000103A24BF78C878C1FAD8520724BF30C873
:1001E00030C144BF04680C60704700000023002445
:1001F00000250026103A28BF78C1FBD8520728BF37
:1002000030C148BF0B607047662903F0D38364296F
:1002100002F0AA82002070471FB503F0C6FB02F06F
:10022000EDFD04000020002103F032FBE0601FBD63
:1002300010B510BD02F0DEFE1146FFF7EDFF00F035
:100240005BFF02F0FCFE03B4FFF7F2FF03BC02F019
:100250003DFF000001B545490098086000BF4348D4
:1002600000680028FBD108BD01B54FF47A710098F1
:1002700048433E49086000BF3C4800680028FBD165
:1002800008BD3B480068401C39490860394800688F
:1002900020B138480068401E36490860334800687D
:1002A00020B132480068401E30490860704770B580
:1002B0003148007800B170BD012001F0D2FA00BFD2
:1002C00001F0F4FA0028FBD02C4800682C4AB0FB5F
:1002D000F2F1481EB0F1807F01D301201BE0481EDF
:1002E0004FF0E022506150170F22002807DA130761
:1002F0001D0E244B00F00F04241F1D5503E01307AF
:100300001C0E214B1C5400BF00204FF0E0229061D6
:1003100007201061002008B100BFFEE70120164948
:10032000087000BFC7E712480068704711480068AE
:1003300070470F49086070470E49086070470E48C3
:10034000007800B970474FF0E020006940F00200EB
:100350004FF0E021086100BFF4E74FF0E0200069B2
:1003600020F002004FF0E0210861704704000020F7
:1003700008000020000000200C00002020000020C9
:1003800040420F0018ED00E000E400E01CB5044618
:1003900002208DF8040001208DF806008DF807007A
:1003A00003208DF8050004BB0121084601F00AFC7A
:1003B0000121042001F006FC04220821FE4801F07E
:1003C000EEF904220921FD4801F0E9F94FF48070AB
:1003D00000906946F84801F057F94FF4007000901A
:1003E0006946F64801F050F912E0012C10D10121C4
:1003F000802001F0E7FB4FF4C07000900422072139
:10040000EF4801F0CCF904220821ED4801F0C7F9CA
:100410006946EB4801F038F91CBD1CB504460220C2
:100420008DF8040001208DF806008DF807000320E8
:100430008DF80500ACB90121022001F0C3FB4FF497
:100440004060009004220A21DE4801F0A8F904224D
:100450000B21DC4801F0A3F96946DA4801F014F9F0
:100460002CE0012C14D10121202001F0ABFB032052
:10047000009004220021D44801F091F904220121C6
:10048000D14801F08CF96946CF4801F0FDF815E03C
:10049000022C13D10121802001F094FB3020009028
:1004A00004221146C64801F07AF904220521C44805
:1004B00001F075F96946C24801F0E6F81CBD1CB5AB
:1004C00004460121022001F07DFB02208DF804008A
:1004D00001208DF806008DF8070003208DF8050037
:1004E00064B9C020009004220621B64801F057F9F3
:1004F00004220721B34801F052F91EE0012C0DD16E
:100500004FF44070009004220821AE4801F047F9F2
:1005100004220921AB4801F042F90EE0022C0CD173
:100520004FF41070009004220621A64801F037F91C
:1005300004220921A34801F032F96946A14801F0DB
:10054000A3F81CBD7FB505460E4614469F4885425C
:100550001FD10121480501F07EFB3046FFF7AFFFB8
:100560009B480068A04201D99948046098480068F7
:1005700000904FF48040ADF80C000020ADF804006E
:10058000ADF80800ADF80A004BF6FF70ADF80600B4
:1005900044E0904885421FD10121880501F05BFBB2
:1005A0003046FFF73AFF8A484068A04201D98848A0
:1005B00044608748406800904FF48040ADF80C00DC
:1005C0000020ADF80400ADF80800ADF80A004BF6C5
:1005D000FF70ADF8060021E07F4885421ED1012161
:1005E000C80501F038FB3046FFF7D0FE7848806838
:1005F000A04201D9764884607548806800904FF425
:100600008040ADF80C000020ADF80400ADF8080003
:10061000ADF80A004BF6FF70ADF8060069462846B3
:1006200001F039FC0121284601F0B1FC7FBD70B515
:1006300004460021204601F0EDFC0121204601F096
:10064000D5FC44F620606549086004E06348006812
:10065000401E624908606249204601F0B3FD18B9A6
:100660005E4800680028F1D1204601F051FD0546A2
:10067000284670BD2DE9F04105460F4614461E463A
:100680000121284601F0A6FC44F620605349086089
:1006900008E052480068401E5049086010B9012027
:1006A000BDE8F0814F49284601F0AEFD18B94B482E
:1006B00000680028EDD11EB10121444801F0AAFCD8
:1006C00022463946284601F09DFCBCB944F620601C
:1006D0004249086007E041480068401E3F49086001
:1006E00008B90120DCE73F49491C284601F08CFD90
:1006F000E8B93A4800680028EDD118E0012C16D17D
:1007000044F620603549086007E034480068401E20
:100710003249086008B90120C2E731493E3928460C
:1007200001F050FD18B92D4800680028EDD1288B44
:100730000020B5E710B5044644F62060274908605C
:1007400007E026480068401E2449086008B90120D7
:1007500010BD24497F31204601F056FD28B12149C2
:10076000C91C204601F050FD18B91C48006800283B
:10077000E7D10121204601F039FC0020E8E770B5FF
:1007800004460D4644F620601449086004E013480E
:100790000068401E1149086012497F31204601F06F
:1007A00033FD18B90D4800680028F0D129462046CD
:1007B00001F0ACFC70BD00000000024000080240E7
:1007C000001C02400004024000140240005400409B
:1007D0001400002000580040005C00401000002081
:1007E00040000300010000102DE9F04105460E46CF
:1007F000144600231A4631462846FFF73BFF2146A0
:100800002846FFF7BCFF2846FFF794FF002301228C
:1008100031462846FFF72EFF2846FFF708FF074618
:100820003846BDE8F0812DE9F04106460F461446F2
:100830001D4600231A4639463046FFF71BFF214666
:100840003046FFF79CFF29463046FFF798FF3046B9
:10085000FFF770FFBDE8F08170B504460121204626
:1008600001F0D8FB44F620603B49086004E03A48B8
:100870000068401E384908603849204601F0A2FC53
:1008800018B9354800680028F1D1204601F040FC35
:100890000546284670BD2DE9F04780468946164634
:1008A0001D46089F0123002249464046FFF7E2FE0D
:1008B00031464046FFF763FF4046FFF73BFF012309
:1008C0001A4649464046FFF7D5FE00240DE0781E43
:1008D000A04204D14046FFF7AAFE285503E0404657
:1008E000FFF7BAFF2855601CC4B2BC42EFDBBDE87D
:1008F000F0872DE9F0470746884615461E46DDF885
:10090000209000231A4641463846FFF7B3FE294699
:100910003846FFF734FF002405E0315D3846FFF725
:100920002EFF601CC4B24C45F7DB3846FFF702FFD0
:10093000BDE8F08770B504460D460026012300226D
:1009400029462046FFF796FE00B901262046FFF70C
:10095000F1FE304670BD0000100000204000030092
:100960002DE9F04104460E461746984646F0D00061
:100970002070834A00218348FFF7E4FD21788148F5
:10098000FFF7D8FF10B90120BDE8F081217875226A
:100990007C48FFF729FF682801D00220F4E721787E
:1009A00000236B227748FFF73EFF21781C22754811
:1009B000FFF71AFF054605F0E70040EAC700C5B299
:1009C00021782B461C226F48FFF72DFF21781B2230
:1009D0006C48FFF709FF054605F0E70040EAC8004C
:1009E000C5B221782B461B226648FFF71CFF00206A
:1009F000CAE73EB5044606200090217801AB3B22B1
:100A00006048FFF748FF9DF805009DF8041040EA94
:100A1000012000B260809DF807009DF8061040EAB2
:100A2000012000B2A0809DF809009DF8081040EA5E
:100A3000012000B2E08000203EBD3EB50446062005
:100A40000090217801AB43224E48FFF724FF9DF828
:100A500005009DF8041040EA012000B220819DF8B5
:100A600007009DF8061040EA012000B260819DF861
:100A700009009DF8081040EA012000B2A081002082
:100A80003EBD10B52DED028B82B0044602200090D1
:100A9000217801AB41223B48FFF7FDFE9DF80500A0
:100AA0009DF8041040EA012000B208EE100AB8EEEA
:100AB000C80A9FED351AC0EE010A9FED340A30EEE8
:100AC000800A84ED040A002002B0BDEC028B10BD48
:100AD00010B52DED028B86B004460E2000902178D3
:100AE00002AB3B222748FFF7D6FE9DF809009DF890
:100AF000081040EA012000B260809DF80B009DF8CC
:100B00000A1040EA012000B2A0809DF80D009DF877
:100B10000C1040EA012000B2E0809DF80F009DF823
:100B20000E1040EA012000B208EE100AB8EEC80A22
:100B3000DFED150A80EE201A9FED140A31EE000A4F
:100B400084ED040A9DF811009DF8101040EA012080
:100B500000B220819DF813009DF8121040EA012098
:100B600000B260819DF815009DF8141040EA012044
:100B700000B2A081002006B0BDEC028B10BD0000C9
:100B8000801A0600005C00400000AA43B81E124212
:100B90000146FC48814201D100207047FA48814259
:100BA00001D10120F9E7F948814201D10220F4E79F
:100BB000F748814201D10320EFE7F648814201D195
:100BC0000420EAE7F448814201D10520E5E7F34833
:100BD000814201D10620E0E7F148814201D107209E
:100BE000DBE70020D9E71CB504460121202001F0F5
:100BF00043F802208DF8040000208DF80600012043
:100C00008DF8070003208DF80500A4B90121042008
:100C100000F0D8FF08220621E24800F0C0FD0822BB
:100C20000721E04800F0BBFDC02000906946DD4888
:100C300000F02AFD16E0012C14D10121402000F023
:100C4000C1FF08220E21D84800F0A9FD0822092181
:100C5000D54800F0A4FD4FF4844000906946D24886
:100C600000F012FD1CBD1CB504460121480400F033
:100C7000F2FF02208DF8040000208DF8060001200C
:100C80008DF8070003208DF80500A4B9012108465E
:100C900000F098FF07220221C44800F080FD0722DF
:100CA0000321C24800F07BFD0C2000906946BF483C
:100CB00000F0EAFC15E0012C13D10121082000F01E
:100CC00081FF07220521BA4800F069FD07220621AD
:100CD000B74800F064FD602000906946B44800F019
:100CE000D3FC1CBD1CB504460121102000F0C4FF3C
:100CF00002208DF8040000208DF8060001208DF8F8
:100D0000070003208DF80500ACB90121084600F06A
:100D100059FF07220921A54800F041FD07220A21B9
:100D2000A24800F03CFD4FF4C060009069469F4827
:100D300000F0AAFC15E0012C13D10121022000F0E3
:100D400041FF072206219B4800F029FD072211469A
:100D5000984800F024FDC02000906946954800F0B6
:100D600093FC1CBD70B586B004460D46164602962F
:100D70008448844212D12846FFF7B4FF25208DF81D
:100D800004000020ADF814000C20ADF81200002083
:100D9000ADF81000ADF80E00ADF80C007A488442B2
:100DA00012D12846FFF75FFF26208DF804000020AF
:100DB000ADF814000C20ADF812000020ADF81000C2
:100DC000ADF80E00ADF80C007348844212D12846ED
:100DD000FFF709FF47208DF804000020ADF814004C
:100DE0000C20ADF812000020ADF81000ADF80E0098
:100DF000ADF80C0002A9204601F0B7FA0121204607
:100E000001F03BFB012240F22551204601F0EBFBB3
:100E100001208DF8070000208DF805002046FFF71F
:100E2000B7FE8DF8060001A800F017FA06B070BDF5
:100E300013B5044600BF8021204601F0F9FB0028CD
:100E4000F9D09DF80410204601F042FB1CBD70B59E
:100E500005460C4604E014F8011B2846FFF7E8FF9E
:100E600020780028F7D170BD10B5534A32F8102011
:100E7000202A1EDA514A32F810201F2A03DD0022F0
:100E80004E4B23F810204AB24D4B03EB40134B4C12
:100E900034F810401A55494A32F81020521C474B7A
:100EA00023F81020444A32F81020521C424B23F8F9
:100EB000102010BD10B540F22551324801F0CEFB94
:100EC00028B130488088C1B20020FFF7CDFF10BDA7
:100ED00010B540F225512C4801F0C0FB30B12A4832
:100EE000001D0088C1B20120FFF7BEFF10BD10B584
:100EF00040F22551254801F0B1FB30B12348001DD7
:100F00000088C1B20220FFF7AFFF10BD10B540F25C
:100F100025511F4801F0A2FB30B11D48001D00887B
:100F2000C1B20320FFF7A0FF10BD10B540F225515C
:100F3000184801F093FB28B116488088C1B20420FC
:100F4000FFF792FF10BD10B540F22551124801F095
:100F500085FB30B11048001D0088C1B20520FFF7A5
:100F600083FF10BD10B540F225510C4801F076FB0F
:100F700030B10A48001D0088C1B20620FFF774FF97
:100F800010BD000000100140004400400048004037
:100F9000004C004000500040001401400078004028
:100FA000007C00400008024000180240000002409F
:100FB000000C0240000402406401002044010020B3
:100FC0004400002010B540F22551464801F046FB90
:100FD00030B14448001D0088C1B20720FFF744FF2C
:100FE00010BD30B503461846FFF7D2FD0246002477
:100FF0003D4830F81200002825DD3C4830F812004A
:101000001F2803DD0020394921F81200384800EB81
:101010004210364931F81210445C0020344901EB8B
:101020004211324D35F812504855304830F8120010
:10103000401C2E4921F812002B4830F81200401EA7
:10104000294921F81200204630BD00B5024610465D
:10105000FFF79EFD0346244830F81300002801DC0A
:10106000012000BD0020FCE72DE9F04107460D46B8
:1010700016460024A0463846FFF7E7FF10B10020CF
:10108000BDE8F081002E1ADD14E000BF3846FFF7FE
:10109000DCFF0028FAD13846FFF7A3FF2855285D6A
:1010A0000A2802D14FF0010804E0701EA04201DDC1
:1010B000601C84B2B8F1000FE7D00020285520460C
:1010C000DEE700B503461846FFF762FD0246002042
:1010D000054921F81200074921F81200034921F8B7
:1010E000120000BD007C004064010020540100207B
:1010F00044000020440100202DED028BAEB00024FE
:10110000002500F0A1F9FFF7D2F84FF4E1320121F8
:101110003948FFF727FE00230222194629A8FFF7C6
:101120001FFC20B935A13448FFF791FE01240023AC
:101130000222114624A8FFF713FC20B938A12E483B
:10114000FFF785FE012555E0FFF7EDF83D498842A0
:1011500050D30020FFF7EDF82CB329A8FFF7B8FC17
:101160009DED2D0A10EE101A084602F0ADFB41EC81
:10117000180B8DED048BBDF9B000BDF9AE10BDF9B3
:10118000AC20BDF9AA30CDE90032CDE90210BDF99D
:10119000A830BDF9A6202C4906A801F0A9FA06A995
:1011A0001548FFF754FE2DB324A8FFF791FC9DEDE1
:1011B000280A10EE101A084602F086FB41EC180BC4
:1011C0008DED048BBDF99C10BDF99A00BDF99820F6
:1011D000BDF99630CDE90032CDE90201BDF9943078
:1011E000BDF99220194906A801F082FA06A9024821
:1011F000FFF72DFEA8E70000001001404D505536C6
:101200003035302073656E736F7220302069732023
:10121000726561647920746F20757365210A00001E
:101220004D5055363035302073656E736F722031F6
:1012300020697320726561647920746F207573650D
:101240000A00000020A107004C3A0008B03A00084C
:1012500032490143324A1160704770B500210023C2
:101260000F22C4781CB32E4C246804F4E064C4F547
:10127000E064C4F30721C1F10404E3B20A414478F5
:101280009C40E1B28478144021430C07210E254C88
:1012900005786155047804F01F050124AC400578F9
:1012A0006D11AD0005F1E025C5F8004109E00478B5
:1012B00004F01F050124AC401B4D0678761145F85B
:1012C000264070BD194A0A400243154B1B1F1A6085
:1012D000704739B1124A121D12680243104B1B1D90
:1012E0001A6006E00E4A121D126882430C4B1B1D49
:1012F0001A607047042808D14FF0E021096941F0D5
:1013000004014FF0E022116107E04FF0E02109698C
:1013100021F004014FF0E022116170470000FA054E
:101320000CED00E000E400E080E100E080FFFF1F42
:101330000948804709480047FEE7FEE7FEE7FEE769
:10134000FEE7FEE7FEE7FEE7FEE7FEE704480549A5
:10135000054A064B70470000491400089501000833
:10136000D8010020D8070020D8030020D80300208F
:101370000CB50020019000907548006840F4803062
:101380007349086000BF7248006800F400300090A4
:101390000198401C0190009818B90198B0F5A04F31
:1013A000F1D16B48006800F4003010B101200090CA
:1013B00001E0002000900098012844D164484030AA
:1013C000006840F080506249403108606148006820
:1013D00040F440405F4908605D48083000685C495F
:1013E000083108600846006808600846006840F454
:1013F000805008605848091F0860081F006840F0C6
:101400008070091F086000BF5148006800F000703C
:101410000028F9D040F20270504908604C4808306A
:10142000006820F003004A49083108600846006857
:1014300040F00200086000BF45480830006800F036
:101440000C000828F8D10CBD10B54548006840F4E0
:101450007000434908603E48006840F001003C4984
:10146000086000203A4908310860394800683D4961
:101470000840374908603C48091D0860081F00689B
:1014800020F48020091F0860002031490C310860D9
:10149000FFF76EFF4FF0006031498039086010BDE2
:1014A00070B500200022022300240221284D0835B7
:1014B0002D6805F00C0020B1042806D0082834D18E
:1014C00007E02A4D2A4E356033E02A4D284E35601C
:1014D0002FE01F4D2D1D2D68C5F380541C4D2D1D73
:1014E0002D6805F03F0154B1224DB5FBF1F5184EC2
:1014F000361D3668C6F3881605FB06F209E01B4D5B
:10150000B5FBF1F5124E361D3668C6F3881605FB9D
:1015100006F20F4D2D1D2D68C5F301456D1C6B00A6
:10152000B2FBF3F5124E356003E0104D104E3560FE
:1015300000BF00BF064D08352D68C5F303150E4EDC
:10154000705D0B4D2D68C540094E356070BD0000C3
:10155000003802400070004008544107003C02403F
:1015600088ED00E0FFFFF6FE103000240024F400B8
:101570002000002000127A002400002010B504464C
:101580009848844208D10121084600F086FB0021DA
:10159000012000F082FB76E09348844208D10121CB
:1015A000022000F07AFB0021022000F076FB6AE0C6
:1015B0008E48844208D10121042000F06EFB0021F6
:1015C000042000F06AFB5EE08948844208D10121D2
:1015D000082000F062FB0021082000F05EFB52E0D2
:1015E0008448844208D10121102000F056FB0021DC
:1015F000102000F052FB46E07F48844208D10121D0
:10160000202000F04AFB0021202000F046FB3AE0B9
:101610007A48844208D10121402000F03EFB00219D
:10162000402000F03AFB2EE07548844208D10121A9
:10163000802000F032FB0021802000F02EFB22E011
:101640007048844208D10121801500F026FB00215A
:10165000A01500F022FB16E06B48844208D101215E
:10166000401500F01AFB0021601500F016FB0AE09F
:101670006648844207D10121001500F00EFB0021CD
:10168000201500F00AFB10BDF0B50A46002100232A
:10169000002400BF3DE0012505FA01F3156805EAC5
:1016A00003049C4234D105684F000326BE40B54375
:1016B000056015794E00B54006683543056015791B
:1016C000012D02D01579022D16D185684F00032611
:1016D000BE40B543856055794E00B54086683543B8
:1016E0008560456801268E40B5434560456896791A
:1016F0008E40B6B235434560C5684F000326BE40F4
:10170000B543C560D5794E00B540C6683543C56060
:10171000491C1029BFD3F0BD4FF6FF7101600021B5
:10172000017141718171C171704708B54FF4803208
:101730000092009A0A430092009AC261C161009A25
:10174000C261C2690092C269009208BD02460020CF
:1017500013690B400BB1012000E0002070470146E7
:10176000086980B270470246002053690B400BB1F4
:10177000012000E0002070470146486980B27047B0
:1017800001837047418370470AB1018300E04183C0
:1017900070474161704742694A4042617047F0B505
:1017A000002300244D07ED0E02FA05F3CE1000F1E0
:1017B000200555F826504E07F70E0F26BE40B543BC
:1017C000CF1000F1200646F82750CE1000F120057A
:1017D00055F8265045EA0304CE1000F1200545F8DF
:1017E0002640F0BD00000240000402400008024014
:1017F000000C024000100240001402400018024099
:10180000001C024000200240002402400028024048
:10181000F948006840F00100F74908600020F649E7
:1018200008310860F4480068F4490840F24908604B
:10183000F348091D0860F348EF4984310860F04817
:101840001038091D0860EC48006820F48020EA493F
:1018500008600020E8490C310860E7498C310860D5
:1018600070470021E44A921C1170114608707047BD
:1018700010B501460022002300204A11012A02D19E
:10188000DD4C236808E0022A03D1DB4C7034236866
:1018900002E0D94C7434236801F01F020124944003
:1018A0001C400CB1012000E0002010BD38B5002024
:1018B00000900024002500BF3120FFF7D9FF054626
:1018C0000098401C00900098B0F5A04F01D0002D6A
:1018D000F2D03120FFF7CCFF08B1012400E0002452
:1018E000204638BD01460020C34A106820F0F800A9
:1018F00040EAC10010607047C3490860704700218A
:10190000BD4A703211701170012802D004280AD12A
:1019100004E00121B84A7032117005E00521B64A91
:101920007032117000E000BF00BF7047B749086017
:10193000704770B5049C41EA82150126C6EB530638
:1019400045EA0645054345EA0465AB4E361D35605C
:1019500070BDAD4908667047820142EA0172A64B2C
:1019600084331A607047A8498866704710B58301B0
:1019700043EA016343EA02739F4C8834236010BD3D
:10198000A14908677047A049C86470470246002013
:10199000994B0833186820F0EC6042EA01031843C1
:1019A000954B08331860704702460020924B08336D
:1019B000186820F0784042EA010318438E4B083340
:1019C00018607047014600208B4A0832106820F0EA
:1019D000030008431060704787480830006800F033
:1019E0000C00704701460020834A0832106820F03E
:1019F000F000084310607047014600207E4A08321C
:101A0000106820F4E0500843106070470146002041
:101A1000794A0832106820F4604040EAC100106042
:101A20007047F0B500210022002402250026022381
:101A3000714F08373F6807F00C0121B1042905D028
:101A4000082937D105E0724F076036E0714F076013
:101A500033E0694F3F1D3F68C7F38056664F3F1D17
:101A60003F6807F03F036EB16A4FB7FBF3F7DFF84B
:101A700088C10CF1040CDCF800C0CCF3881C07FB17
:101A80000CF40CE0624FB7FBF3F7DFF86CC10CF11C
:101A9000040CDCF800C0CCF3881C07FB0CF4564F98
:101AA0003F1D3F68C7F301477F1C7D00B4FBF5F77E
:101AB000076002E0564F076000BF00BF4E4F083777
:101AC0003F6807F0F0010909534F7A5C0768D74077
:101AD0004760494F08373F6807F4E051890A4E4F85
:101AE0007A5C4768D7408760434F08373F6807F400
:101AF0006041490B484F7A5C4768D740C760F0BDEA
:101B0000002100F44072B2F5407F0AD13A4A08320F
:101B1000116821F4F811414A02401143364A083253
:101B20001160354A70321268C0F30B031A43324B0E
:101B300070331A607047354944390860704733493B
:101B400040390860704736490860704701460020F8
:101B5000294A8C32106820F01F004A1E1043264A82
:101B60008C321060704701460020234A8C32106886
:101B700020F4F8504A1E40EA02201F4A8C321060BE
:101B80007047014600201C4A8C32106820F4401037
:101B900008431060704701460020174A8C321068D5
:101BA00020F4400008431060704701460020124AAC
:101BB0008C32106820F44030084310607047194997
:101BC0000860704739B10C4A3032126802430A4B40
:101BD00030331A6006E0084A303212688243064BFE
:101BE00030331A607047F9B1034A34321268024345
:101BF000014B34331A601CE000380240FFFFF6EA64
:101C0000103000240030002000004742800E474280
:101C10000024F40000127A0034000020FFFCFF0FC3
:101C20005C014742E0114742854A12688243844B77
:101C30001A60704739B1824A121D12680243804B04
:101C40001B1D1A6006E07E4A121D126882437C4BFF
:101C50001B1D1A60704739B1794A0C321268024371
:101C6000774B0C331A6006E0754A0C3212688243D7
:101C7000734B0C331A60704739B1714A10321268D5
:101C800002436F4B10331A6006E06D4A103212683F
:101C900082436B4B10331A60704739B1684A243A5B
:101CA00012680243664B243B1A6006E0644A243AF9
:101CB00012688243624B243B1A60704739B1604A14
:101CC000203A126802435E4B203B1A6006E05C4AF1
:101CD000203A126882435A4B203B1A60704739B150
:101CE000574A1C3A12680243554B1C3B1A6006E0E7
:101CF000534A1C3A12688243514B1C3B1A6070478E
:101D000039B14F4A143A126802434D4B143B1A60E2
:101D100006E04B4A143A12688243494B143B1A605E
:101D2000704739B1464A103A12680243444B103B9F
:101D30001A6006E0424A103A12688243404B103B58
:101D40001A60704739B13E4A1C32126802433C4B5C
:101D50001C331A6006E03A4A1C3212688243384B40
:101D60001C331A60704739B1354A20321268024379
:101D7000334B20331A6006E0314A20321268824326
:101D80002F4B20331A60704739B12D4A2432126824
:101D900002432B4B24331A6006E0294A243212688E
:101DA0008243274B24331A60704739B1244A2C32BE
:101DB00012680243224B2C331A6006E0204A2C3270
:101DC000126882431E4B2C331A60704739B11C4A8B
:101DD0003032126802431A4B30331A6006E0184A58
:101DE000303212688243164B30331A60704739B173
:101DF000134A273A12780243114B273B1A7006E028
:101E00000F4A273A127882430D4B273B1A707047CE
:101E10000B484030006840F080700949403108604C
:101E2000704701460020064A283A12680A400AB163
:101E3000012000E0002070470149263908707047F2
:101E40003438024010B50446F848844209D10121D3
:101E50004805FFF755FF00214FF40010FFF750FF32
:101E600018E0F348844209D101218805FFF748FFB3
:101E700000214FF48000FFF743FF0BE0ED48844260
:101E800008D10121C805FFF73BFF00214FF40000F6
:101E9000FFF736FF10BD2DE9FF4704460D4600262B
:101EA000B1460427DFF89083A6884FF6C07006403D
:101EB0006846FFF7B6FDDDF80880E048B8FBF0F0B3
:101EC0001FFA80F946EA0906A68020884FF6FE71BF
:101ED000084020800026DA49286888420CD8286803
:101EE0004000B8FBF0F087B2042F00DA04273E432D
:101EF00009F10100208427E0E8884BF6FF71884251
:101F000006D1286800EB4000B8FBF0F087B209E08A
:101F1000286800EBC00101EB0010B8FBF0F087B2BD
:101F200047F48047C7F30B0008B947F0010747F4AF
:101F3000004006434FF4967009FB00F04FF47A71AD
:101F400090FBF1F0401C2084A683208840F0010023
:101F5000208026884FF6F5300640A8886989084316
:101F600006432680A889298908432081BDE8FF8788
:101F700041F288310160002181804BF6FF71C18000
:101F80000021018141814FF480418181704721B15D
:101F9000028842F00102028004E002884FF6FE73DC
:101FA0001A400280704729B1828C4FF6EF731A40B5
:101FB000828403E0828C42F01002828470470A46D9
:101FC0000021818C4FF6F073194002F00F03194382
:101FD0008184704721B1028842F48072028004E05B
:101FE00002884FF6FF631A400280704721B10288D1
:101FF00042F40072028004E002884FF6FF531A4058
:102000000280704712B141F0010101E001F0FE01D0
:102010000182704721B1028842F48062028004E0AC
:1020200002884FF6FF331A40028070470A460021AB
:1020300081894FF60173194002F0FE031943818133
:10204000704721B1828942F00102828104E08289D5
:102050004FF6FE731A408281704721B1028842F028
:102060004002028004E002884FF6BF731A400280EB
:10207000704721B1028842F40042028003E00288E6
:10208000C2F30E020280704721B9028842F080023A
:10209000028004E002884FF67F731A400280704786
:1020A000B1F5804F05D0828B4BF6FF731A408283C7
:1020B00003E0828B42F4804282837047B1F5006F67
:1020C00004D1028842F40062028004E002884FF2E8
:1020D000FF731A4002807047B1F5005F04D1028897
:1020E00042F40052028004E002884DF6FF731A4069
:1020F0000280704721B1028842F01002028004E0A1
:1021000002884FF6EF731A400280704701827047D1
:102110000146088AC0B2704721B1028842F4805259
:10212000028004E002884EF6FF731A400280704776
:10213000B1F5006F04D1028842F40062028004E02D
:1021400002884FF2FF731A400280704721B1028863
:1021500042F02002028004E002884FF6DF731A404A
:10216000028070470146088B0012704721B18288B7
:1021700042F40062828004E082884FF2FF731A40CA
:102180008280704721B1828842F48052828004E0CC
:1021900082884EF6FF731A408280704708B5024667
:1021A0000020009000920098084400900098008859
:1021B00008BD1AB183880B43838002E083888B4378
:1021C0008380704770B5024600240025002300205C
:1021D000958A138B1B0445EA030626F07F4404EA24
:1021E00001068E4201D1012000E0002070BD10B533
:1021F00001460020002300228B8A0A8B120443EA46
:10220000020424F07F4010BD0CB5024600200023DC
:102210000193009300920B0F019321F07F41019BEA
:1022200083B1009B1433009310E000000054004081
:1022300000580040005C004000127A0040420F004D
:10224000A0860100090C009B18330093009B1B68BB
:102250000B400BB1012000E000200CBD002221F05A
:102260007F42D3438382704730B50246002000236B
:10227000948801F0E06504EA154321F07F41948AD7
:102280000C4014B10BB1012000E0002030BD002251
:1022900021F07F42D34383827047000010B504468B
:1022A000FA48844208D101211020FFF73AFD0021AD
:1022B0001020FFF736FD57E0F548844209D101218F
:1022C0004804FFF71DFD00214FF40030FFF718FD13
:1022D0004AE0F048844209D101218804FFF710FD4B
:1022E00000214FF48020FFF70BFD3DE0EA488442D7
:1022F00009D10121C804FFF703FD00214FF400209C
:10230000FFF7FEFC30E0E548844209D101210805D1
:10231000FFF7F6FC00214FF48010FFF7F1FC23E0FB
:10232000DF48844208D101212020FFF7FAFC002178
:102330002020FFF7F6FC17E0DA48844209D101219A
:102340008807FFF7DDFC00214FF08040FFF7D8FC45
:102350000AE0D548844207D101214005FFF7D0FCAF
:1023600000216005FFF7CCFC10BD2DE9FF470546B5
:102370000E460024A14600BFA046B08900B100BFB0
:102380002C8A24F44054F08804432C82AC8941F216
:102390000C608443B0883189084371890843044341
:1023A000AC81AC8A24F44074B0890443AC826846A2
:1023B000FFF737FBB548854202D0B948854202D1C4
:1023C000DDF80C9001E0DDF80890A88900F40040E9
:1023D00040B109EBC90000EB091031684900B0FBBE
:1023E000F1F707E009EBC90000EB0910316889003B
:1023F000B0FBF1F76420B7FBF0F004012009642181
:1024000001FB1078A88900F4004040B1322000EBB5
:10241000C800B0FBF1F000F00700044308E03220F0
:1024200000EB08106421B0FBF1F000F00F00044352
:102430002C81BDE8FF874FF4165101600021818097
:10244000C18001810C21418100218181704710B53B
:1024500002460020108A20F470600B884C882343C9
:102460008C882343CC8823431843108210BD00215D
:10247000018041808180C180704721B1828942F40E
:102480000052828104E082894DF6FF731A408281F6
:102490007047028B02F47F420283028B0A4302835D
:1024A000704721B1828942F40042828103E082892F
:1024B000C2F30E028281704721B1828A42F4006227
:1024C000828204E0828A4FF2FF731A408282704750
:1024D000C1F308028280704701468888C0F3080073
:1024E0007047028A4FF6F0731A400282028A0A434A
:1024F0000282704721B1828942F00202828104E0A7
:1025000082894FF6FD731A408281704782894FF2AB
:10251000FF731A40828182890A4382817047028A4E
:102520004FF6DF731A400282028A0A430282704722
:1025300021B1028A42F48042028204E0028A4BF610
:10254000FF731A4002827047818941F00101818145
:10255000704721B1828A42F00802828204E0828AB6
:102560004FF6F7731A4082827047028BD2B2028311
:10257000028B42EA01220283704721B1828A42F033
:102580002002828204E0828A4FF6DF731A40828240
:10259000704721B1828A42F01002828204E0828A6E
:1025A0004FF6EF731A4082827047828A4FF6FB73B0
:1025B0001A408282828A0A438282704721B1828ACB
:1025C00042F00202828204E0828A4FF6FD731A40D2
:1025D000828270471AB1838A0B43838202E0838A26
:1025E0008B4383827047F0B5034600240026002504
:1025F000002040F66A17B94200D100BF1846C1F367
:10260000421401F01F06012707FA06F5012C01D13B
:102610000C3004E0022C01D1103000E014301AB16B
:1026200007682F43076002E00768AF430760F0BD0B
:1026300002460020B1F5007F00D100BF13880B4097
:102640000BB1012000E00020704701F40072B2F5E8
:10265000007F00D100BFCA430280704770B50246B8
:10266000002400230025002040F66A16B14200D164
:1026700000BFC1F3421501F01F03012606FA03F360
:10268000012D13D19689334017E00000001001405E
:102690000044004000480040004C00400050004012
:1026A0000014014000780040007C0040022D02D15F
:1026B000168A334001E0968A33400C12012606FA4E
:1026C00004F41688344013B10CB1012000E000205E
:1026D00070BD10B50022002340F66A14A14200D15B
:1026E00000BF0A1201249440A3B2DC43048010BD51
:1026F0000FB41CB5074B06AA7B44694600900598A9
:1027000000F063FB0020694600F072FB1CBC5DF822
:1027100014FB0000F506000070B5044685690068EA
:10272000C10601D5302600E02026C00707D070BDC5
:10273000D4E9012130469047206A401C20626D1E7A
:10274000F6D570BD70B5044685690078C00707D11D
:1027500070BDD4E9012120209047206A401C2062EE
:102760006D1EF6D570BD00002DE9F041064600242F
:1027700010687529314616A510D0AFF300800028E7
:1027800002DA404213A507E031688A0701D512A595
:1027900002E0490704D511A5012401E0AFF3008050
:1027A00000210A2206F1240709E0B0FBF2FCB0FB8D
:1027B000F2F302FB1C00303078541846491C002804
:1027C000F3D123462A463046BDE8F04100F092B8E6
:1027D000000000002D0000002B0000002000000081
:1027E0002DE9F0474FF0000A89460446C0F820A0C2
:1027F0002046E1688847002876D0252806D0D4E90D
:1028000001219047206A401C2062F1E7E1682046E0
:1028100000258847C4F81CA006460027C4F818A065
:102820002A2E09D0304601F02BF838B304EB870884
:10283000303EC8F8186019E059F8041B204604EB34
:1028400087029161E1688847012F064618D1E06947
:10285000002820DA25F020051DE0D8F8180000EB4C
:10286000800006EB40003038C8F818002046E168C8
:102870008847064601F004F80028EED1012F0AD05F
:102880002E2E08D12046E16888477F1C0646022F7D
:1028900045F02005C4DBA069002803DA404245F07A
:1028A0000105A061E80701D025F01005B6B1A6F139
:1028B0004100192802D8203645F400654A463146C1
:1028C000204625604D46FDF79FFC58B1012806D0F3
:1028D000ED1D25F0070000F1080989E704E005F186
:1028E000040985E730468AE7206ABDE8F08770472B
:1028F000704770472DE9F0470D46994692460446C9
:1029000000F124080168880604D5E06921F010016F
:10291000216000E00120A84201DD471B00E0002704
:10292000A1697A1902EB0900081AA0612078C00693
:1029300002D42046FFF7F0FE002608E0D4E901218A
:102940001AF806009047206A401C761C20624E450B
:10295000F4DB2078C0060AD52046FFF7DDFE06E04E
:10296000D4E9012130209047206A401C2062381EA3
:10297000A7F10107F4DC07E0D4E9012118F805000C
:102980009047206A401C2062281EA5F10105F3DC57
:102990002046FFF7D7FE2078000602D50220BDE8CA
:1029A000F0870120FBE770472DE9FF4F0C461E46DC
:1029B0004FF0FF378BB0D2E90001DDF860800A905C
:1029C0008A46C1F30A5505B93D46002108464FF035
:1029D0000000BAF1000F00F4400005DA00EB8000BF
:1029E0004FF4400101EA50004FEA9059B9F1010F4C
:1029F00000DDB9460A9850EA4A000ED044F610505D
:102A0000A5F2FF3545432F14B8F1000F1ED07542D3
:102A1000291E1EDDC9F100021CE0B8F1010F4FF0C4
:102A2000000001D0302103E0F24305E02154401CB6
:102A3000B042FBDB30460022002121540B99C1F843
:102A40000880C1E900200FB0BDE8F08FBD1B6D1CF0
:102A5000DEE74A4600DA694206A800F059FA06ABFA
:102A600093E8070003AB83E8070050460A9900F09B
:102A700034FB8DE80700A0F500501F380090039844
:102A8000002D09DD42F21F014A46084403A90390C4
:102A9000684600F093FD08E0A0F500504A461F3854
:102AA00003A90390684600F09DFD8DE8070000042F
:102AB000000C03D04FF0FF30410800E01046B8F1A1
:102AC000000F03D00022009215461EE0751E05D4AB
:102AD00000F098F9303262556D1EF9D5B3460122E7
:102AE000084302D000227F1C04E02078302801D166
:102AF00000227F1E002A099786D01DE0112D07DADB
:102B000000F080F9303262556D1C50EA0102F5D1B7
:102B1000084302D00098C8B10EE00021681E05E00D
:102B2000235C625C63542254401E491C8142F7DBE3
:102B3000AB46A81B401E0990002004F80B000B9820
:102B4000099AC0F80880C0E9002B7CE711264FF0F5
:102B5000000859E72DE9F04F88460446D21D22F0BF
:102B6000070191B0D1E90001CDE90A0100F070FE42
:102B700002460B98C00F01D02D2007E02068810786
:102B800001D52B2002E0202101EAC000032A099090
:102B900001D0072A05DB03464146204600F078F9BC
:102BA0000BE12078800601D5E06900E00620B8F14D
:102BB000650F814606D0B8F1660F18D0B8F1670FDF
:102BC00070D131E00020B9F1110F009001DB112329
:102BD00001E009F101030AAA01A90CA8FFF7E4FE2C
:102BE000DDE90C70002609F10105834647E001206C
:102BF0004B4600904FF000470AAA01A90CA8FFF726
:102C0000D3FEDDE90DB00C995D46002610B909F13F
:102C100001000D18B9EB050003D4C0F1FF3609F12E
:102C20000105A5EB09002BE0B9F1010F01DA4FF026
:102C300001090020B9F1110F0090484601DD112370
:102C400000E003460AAA01A90CA8FFF7ADFEDDE9E2
:102C50000C704D4600268346207800070AD4AB4509
:102C600000DA5D4601A8012D04DD411911F8011CAF
:102C7000302907D04F4502DA17F1040F04DA01209A
:102C800082460FE06D1EEEE7002F02DCED1B3E4496
:102C900003E0781CA84200DD7D1CB81B00F1010A8E
:102CA0004FF000472078000703D4AA4501DB4FF01E
:102CB000FF3A0021B7F1004F0DF143088DF84310A2
:102CC00024D002202B23002F01DA7F422D230A215A
:102CD000021EA0F1010000DC5FB197FBF1FC97FB45
:102CE000F1F201FB1C7C17460CF1300C08F801CD09
:102CF000EEE7A8F1010003702188090501D54521FF
:102D000000E06521A0F1010800F8011C09980FA955
:102D1000A1EB0807FF1D00B10120411901EBEA708A
:102D2000A1693844081A401EA0612078C00602D468
:102D30002046FFF7F1FC099828B1D4E9012190471A
:102D4000206A401C20622078C00622D52046FFF76A
:102D5000E3FC1EE0002E04DBB34502DD01A8805D2C
:102D600000E03020D4E901219047206A401C206215
:102D7000761CAAF101005FEA000A0AD100F03EF8D1
:102D8000C0680168405CD4E901219047206A401C7A
:102D90002062281EA5F10105DCDC07E0D4E9012151
:102DA00018F8010B9047206A401C2062381EA7F1DA
:102DB0000107F3DC2046FFF7C5FC032011B043E612
:102DC00001694A1C02610878704700B58FB0CDE9EF
:102DD00001310021059105497944CDE903101146DF
:102DE0006846FFF7FDFC0FB000BD0000E5FFFFFFE8
:102DF0000A6802F8010B0A6070470000004870473B
:102E00009401002030B5B0F10A024FEA900E71F142
:102E100000034EEA817EB0EB0E0061EB91014FEAB8
:102E2000101E4EEA017E10EB0E0041EB11114FEA2D
:102E3000102E4EEA016E10EB0E0041EB11214FEA0D
:102E4000104E4EEA014E10EB0E0041EB11414018BE
:102E500041F100014FEAD00040EA41704FEAD10150
:102E600010EB80054FEA810444EA907444EB0104BE
:102E70006D1944EB0404521BA3414FF0000348BFFB
:102E80000A3200D530BD401C41F1000130BD0000C8
:102E90002DE9F0411F46044603260168072A01F484
:102EA000006004DB08B116A505E016A503E008B133
:102EB00015A500E015A521F010002060A069C01E36
:102EC000A0610FB1401EA0612046FFF725FC4FB165
:102ED000D4E9012138469047206A401C2062C01C7A
:102EE000206206E0206AFAE7D4E9012115F8010B17
:102EF0009047761EF8D22046FFF724FCBDE8F0810B
:102F00004E414E006E616E00494E4600696E66008D
:102F10002DE9F047814616468AB0334878440DC8FB
:102F20008DE80D0030487844801C03AC0DC884E85F
:102F30000D0041F69B300844372190FBF1F290FBE5
:102F4000F1F5A5F1800501FB12041B3C02D564429A
:102F5000012000E00020DFF890A080460027FA441E
:102F6000AAF1BE0A0DE0E00709D03246684607EB39
:102F700047010AEB810100F035FB8DE80700641082
:102F80007F1C002CEFD1184F7F44AC3F18E0E807BE
:102F900014D007EB04100DF1180A90E80E008AE82F
:102FA0000E00C068F04201D198190890324606A977
:102FB00003A800F017FB03AB83E807006D10641C47
:102FC000002DE4D132466946B8F1000F03A802D0C3
:102FD00000F0F4FA01E000F005FBC9E90001C9F8CE
:102FE00008200AB0BDE8F087140B000000487047C5
:102FF000740100207546FFF7F9FFAE4605006946EB
:10300000534620F00700854618B020B5FEF79EF91C
:10301000BDE820404FF000064FF000074FF00008D9
:103020004FF0000B21F00701AC46ACE8C009ACE85A
:10303000C009ACE8C009ACE8C0098D467047044639
:10304000AFF300802046FDF7FEF800004FF0013C92
:1030500050F8042B51F8043B9A4221D1A2EB0C0307
:10306000934313EACC1317D150F8042B51F8043BC7
:103070009A4215D1A2EB0C03934313EACC130BD164
:1030800050F8042B51F8043B9A4209D1A2EB0C03EF
:10309000934313EACC13DBD04FF00000704700BF1E
:1030A000D01A01BAB1FA81F101F0180122FA01F047
:1030B000CB40C1F12001DBB2C0B2C01A2CFA01F33F
:1030C000D11A914311EAC311E6D170470149182082
:1030D000ABBEFEE72600020070475FEA400C08BF67
:1030E00091F0000F4FEA8C234FEAC12243EA51517D
:1030F0004FEA1C5018BF00F5F0404FEA300018BFEF
:1031000041F000415FEA6C5C00F02980BCF1FF3FB8
:1031100008BF40F080407047130C06BF12044FF008
:10312000100C4FF0000C130E04BF12020CF1080C2F
:10313000130F04BF12010CF1040C930F04BF920093
:103140000CF1020CD30F04BF52000CF1010C11461C
:103150004FF00002A0F11F00A0EB0C00704711F02F
:10316000004F08BF704731F000413FF4D5AF0B0C62
:1031700006BF09044FF0100C4FF0000C0B0E04BFFB
:1031800009020CF1080C0B0F04BF09010CF1040C2F
:103190008B0F04BF89000CF1020CCB0F04BF490058
:1031A0000CF1010CCCF12003A0EB0C0022FA03F38C
:1031B00002FA0CF241EA030100F10100704720F02D
:1031C0007F4C80EA030023F07F47ACEB070303F555
:1031D0007C5300F0004003F1FF032DE980494FEAE2
:1031E000154B09B44FEA144325EA0B4E24EA034871
:1031F0000FF2042606EB132749083E785FEA3202F5
:1032000003FB0667C7F5000707FB06F64FEA5437CE
:103210004FEAD64606F1020607FB066CCCF1005CCD
:103220004FEA1C472CEA074C07FB06F40CFB06F59B
:1032300004EB15464FEA961634BF00204FF00040CD
:103240004FEAD13706FB07FC4FEA1C4C0CFB0BF78F
:10325000D21B03FB0CF761EB07010CFB0EF7B0EB85
:10326000074072EB17420CFB08F734BFA2EB074292
:10327000B2EB074261EB17414FEA0C444FEA91076A
:1032800006FB07FC4FEA1C4C0CFB0BF7B0EBC740EE
:1032900072EB573203FB0CF734BFA2EBC742B2EB21
:1032A000C74261EB57310CFB0EF7B0EBC70072EB76
:1032B00057720CFB08F734BFA2EBC702B2EBC70290
:1032C00061EB5771039F4FEA816141EA921104EB70
:1032D000CC044FEAD1374FEA826206FB07FC42EA90
:1032E00090124FEA80604FEA1C4C0CFB0BF7D21B8C
:1032F00003FB0CF761EB07010CFB0EF7B0EB07408B
:1033000072EB17420CFB08F734BFA2EB0742B2EB9B
:10331000074261EB17414FEA8C554FEA910704EBE6
:103320009C2406FB07FC4FEA1C4C0CFB0BF7B0EB94
:10333000C74072EB573203FB0CF734BFA2EBC74216
:10334000B2EBC74261EB57310CFB0EF7B0EBC70095
:1033500072EB57720CFB08F734BFA2EBC702B2EB5B
:10336000C70261EB577115EB4C254FEA816141EAC9
:1033700092114FEA82624FEAD13742EA901206FB7D
:1033800007FC44F100044FEA80604FEA1C4C0CFB40
:103390000BF7D21B03FB0CF761EB07010CFB0EF7DD
:1033A000B0EB074072EB17420CFB08F734BFA2EBFF
:1033B0000742B2EB074261EB174115EB1C154FEAD0
:1033C000813141EA92414FEA823242EA90424FEA29
:1033D00080304FEA0C7644F1000448EA03434EEA99
:1033E0000B484FF0000EB2EB080C71EB030724BF43
:1033F000624639464EEB0E0E4FF0000B001852415C
:1034000049414BEB0B0BB2EB080C71EB03077BF163
:10341000000B24BF624639464EEB0E0E4FF0000BF8
:103420000018524149414BEB0B0BB2EB080C71EB0E
:1034300003077BF1000B24BF624639464EEB0E0EAC
:1034400051EA020718BF46F0010616EB0E7655F159
:10345000000254F1000103D5BDE88901BDE80088F0
:10346000BDE88901BDE80048B619524141EB0101B0
:10347000A3F10103704780807F7E7D7C7B7A797821
:10348000777676757473727171706F6E6E6D6C6C29
:103490006B6A6A69686867666665646463636261CB
:1034A0006160605F5F5E5E5D5D5C5C5B5B5A5A594C
:1034B00059585857575656555555545453535252B8
:1034C0005251515050504F4F4F4E4E4D4D4D4C4C10
:1034D0004C4B4B4B4A4A4A49494948484847474759
:1034E0004746464645454544444444434343434296
:1034F000424242414141002B26D4770021D01CB5E5
:103500004FEA370703B44FF010004FF010014FF0AF
:1035100000000FBCBDE810400BF1010BBBF1010F27
:1035200008BF5FEA170722BF12F1010211F1010182
:103530004FF0004143F1000300F0004043EA000077
:103540007047F9D35708DAE746EA064613F1400F09
:103550004FEA16461FDD13F1200FDFBF16430A4660
:10356000002120335B42C8D0C3F1200746EA06465B
:1035700002FA07F74FEA164646EA0706C3F12007A4
:1035800022FA03F201FA07F721FA03F14FF00003E0
:1035900042EA0702B1E746EA020646EA06464FEA71
:1035A000164646EA0106BCBF46EA0646360C4FF010
:1035B00000034FF000024FF000019EE72DE9C048E4
:1035C000934630B491E8380007C831EA400C48BF50
:1035D00034EA430C03D5FFF7F2FDFFF78CFFF0BC94
:1035E000BDE800882DE9C048934630B491E8380022
:1035F00007C810F0804F08BF13F0804F03D100F0D0
:1036000005F8FFF778FFF0BCBDE8008820F07F47A1
:1036100080EA030023F07F4C07EB0C03A3F57C53F7
:1036200000F00040A3F1FE0392F0000F00F0B38021
:1036300095F0000F00F077802DE901494FEA114025
:103640004FEA144621EA004800FB06FC24EA06473C
:1036500008FB06F607FB08F800FB07F718EB06481F
:103660004CEB164C4FEA124B18EB07484FEA154645
:103670004CEB174022EA0B4E0BFB06FC25EA0647F3
:103680000EFB06F607FB0EFE0BFB07F71EEB064EC6
:103690004CEB164C4FF000061EEB074E4CEB174B55
:1036A00018EB0B0840F1000018EB0E0B58EB00086C
:1036B00040F100008F1A4FF000013CBFC943661B68
:1036C00014BFB5EB040C00213CBFC943F61B4FEA05
:1036D00017444EEA8E0E27EA04454FEA1C4704FBC6
:1036E00007622CEA074C05FB07F70CFB05F604FB09
:1036F0000CFC16EB074642EB174216EB0C4642EB6E
:103700001C421BEB060658EB0202414146EA9E06AC
:1037100001D5BDE80189B619524141EB0101A3F180
:103720000103BDE801894FEA14454FEA114724EA35
:10373000054621EA074C05FB07F406FB07F70CFBDF
:1037400006F105FB0CFC11EB074144EB17444FEA73
:10375000124711EB0C4144EB1C4422EA074C05FBD9
:1037600007F206FB07F70CFB06F605FB0CFC16EB55
:10377000074642EB174216EB0C4642EB1C456A1813
:1037800054F1000148BF7047B619524141EB0101A5
:10379000A3F10103704795F0000F37D04FEA1142B3
:1037A0004FEA144721EA024624EA074C02FB07F1DC
:1037B00006FB07F70CFB06F402FB0CFC14EB0744BA
:1037C00041EB17414FEA154714EB0C4441EB1C4108
:1037D00025EA074C02FB07F506FB07F70CFB06F68C
:1037E00002FB0CFC16EB074645EB174516EB0C46A7
:1037F00045EB1C42121951F1000148BF7047B61940
:10380000524141EB0101A3F1010370474FEA144516
:103810004FEA114724EA054621EA074C05FB07F168
:1038200006FB07F70CFB06F24FF0000605FB0CFC4D
:1038300012EB074241EB174112EB0C4251EB1C41DA
:1038400048BF7047921841EB0101A3F10103704793
:1038500003B401984100009850EAC12018BF042029
:103860004A0D18BF40F0010040F2FF72B2EB515F09
:1038700008BF40F00200012808BF052002B07047D1
:1038800030380A2801D2012070470020704700001C
:1038900010B500290AD00878002807D005487844D8
:1038A000FFF7D4FB002801D0002010BD0248784467
:1038B00010BD0000960200008E0200000808A0F56E
:1038C00000114FEA3101704743004FEAD30C4FEA31
:1038D0003C0C43401FBF40070CF1605113F0FE4FFA
:1038E00070471CF0006F03D100200CF000417047BE
:1038F0000CF0004343EA507010B540EACC0000F0F1
:103900000EF800BF000000924FEA0001FFF7D6BF9B
:103910004FF000414FF00000A1F5002170470EF17B
:10392000020E2EF0030E5EF8044B244204D44FEA3C
:103930004102B2F17F4F11D84FEA4003B3F17F4FFC
:103940000CD80ED14FEAD07CB2F17F4F0CEB4C0C6F
:103950000CF1020C08BF4CEBD17C04E04FF0080CDA
:1039600001E04FEAD17C0CEB4C0324FA03F404F0A1
:103970000704B4F1040C06D20EEB840CBDE8104031
:103980004CF0010C6047DFE80CF0070802024FF032
:103990000040A0F5800010BD0846420018BFD2F1DB
:1039A000807288BF00F0004010BD4FF04070E1EE23
:1039B000100A7047FFF7CEB802400000000000A0D8
:1039C0000000000005400000000000C800000000EA
:1039D0000C4000000000409C000000001940000066
:1039E0000020BCBE0000000034400000BFC91B8E98
:1039F00000000004B5400000504BCFD06607E2CF76
:103A0000010000006C4100003E8251AADFEEA734A5
:103A100001000000D9420000DCB5A0E23A301F9757
:103A2000FFFFFFFFB4450000FD25A0C8E9A3C14F7B
:103A3000FFFFFFFFFF3F00000000008000000000CC
:103A4000FF3F00000000008000000000312E2041F8
:103A50006363656C65726F6D657465720A2D2058BD
:103A60003A2536640A2D20593A2536640A2D205A03
:103A70003A2536640A4779726F73636F70650A2D51
:103A800020583A2536640A2D20593A2536640A2DE5
:103A9000205A3A2536640A54656D706572617475F2
:103AA00072650A2D2025332E34660A0A0A000000AA
:103AB000322E20416363656C65726F6D657465724B
:103AC0000A2D20583A2536640A2D20593A253664A5
:103AD0000A2D205A3A2536640A4779726F73636F4C
:103AE00070650A2D20583A2536640A2D20593A254A
:103AF00036640A2D205A3A2536640A54656D70657D
:103B00007261747572650A2D2025332E34660A0A97
:103B10000A000000503B00080000002044000000A4
:103B2000D0010008943B00084400002094070000E6
:103B3000EC0100081C00000043000000F8FFFFFF3C
:103B40000C0000000E0000000F0000002E0000001E
:103B50000000000000000000000000000000000065
:103B600000000000FFFFFFFFFFFFFFFFFFFFFFFF61
:103B700000BD010500000000000000000102030478
:103B80000607080900000000010203040102030403
:043B90000607080913
:040000050800019559
:00000001FF
