:020000040800F2
:10000000A006002031020008DD0A0008DF0A00080F
:10001000E10A0008E30A0008E50A00080000000001
:10002000000000000000000000000000E70A0008D7
:10003000E90A000800000000EB0A0008EF0A0008C7
:100040004B0200084B0200084B0200084B0200085C
:100050004B0200084B0200084B0200084B0200084C
:100060004B0200084B0200084B0200084B0200083C
:100070004B0200084B0200084B0200084B0200082C
:100080004B0200084B0200084B0200084B0200081C
:100090004B0200084B0200084B0200084B0200080C
:1000A0004B0200084B0200084B0200084B020008FC
:1000B0004B0200084B0200084B0200084B020008EC
:1000C0004B0200084B0200084B0200084B020008DC
:1000D0004B0200084B0200084B0200084B020008CC
:1000E0004B0200084B0200084B0200084B020008BC
:1000F0004B0200084B0200084B0200084B020008AC
:100100004B0200084B0200084B0200084B0200089B
:100110004B0200084B0200084B0200084B0200088B
:100120004B0200084B0200084B0200084B0200087B
:100130004B0200084B0200084B0200084B0200086B
:100140004B0200084B0200084B0200084B0200085B
:100150004B0200084B0200084B0200084B0200084B
:100160004B0200084B0200084B0200084B0200083B
:100170004B0200084B0200084B0200084B0200082B
:100180004B0200084B02000800F002F800F041F8B2
:100190000AA090E8000C82448344AAF10107DA45E2
:1001A00001D100F036F8AFF2090EBAE80F0013F0F3
:1001B000010F18BFFB1A43F001031847380D000068
:1001C000580D0000103A24BF78C878C1FAD85207F9
:1001D00024BF30C830C144BF04680C6070470000C1
:1001E0000023002400250026103A28BF78C1FBD840
:1001F000520728BF30C148BF0B607047642900F028
:100200007785002070471FB500F06FFE1FBD10B549
:1002100010BD00F033FE1146FFF7F5FF00F026FC9D
:1002200000F051FE03B4FFF7F2FF03BC00F056FEEE
:100230000948804709480047FEE7FEE7FEE7FEE77A
:10024000FEE7FEE7FEE7FEE7FEE7FEE704480549B6
:10025000054A064B704700009B0B00088901000807
:10026000A0000020A0060020A0020020A002002084
:10027000F848016841F001010160F64A00210832A6
:1002800011600268F44B1A400260031DF34A1A60C1
:10029000F04BF34A84331A60F04A103A1B1D1A607F
:1002A000026822F480220260EA480C300160181DC6
:1002B00001607047E7490022891C0A700870704786
:1002C00002460020510901290CD002290CD0E14935
:1002D0007431096802F01F02012393400B4200D0E1
:1002E00001207047DB49F4E7DA497031F1E718B5CE
:1002F00000204FF4A04400903120FFF7E1FF009967
:10030000491C0091A14201D00028F5D03120FFF70F
:10031000D7FF002800D0012018BDCE4A116821F077
:10032000F80141EAC00010607047CE49086070478C
:10033000C849002270310A700A70012802D00428CE
:1003400001D1052008707047C7490860704741EA2D
:1003500082115A0810B5C54B029C03EB02421143AF
:10036000014341EA0460BB49091D086010BDBD4955
:1003700008667047800140EA0170B6498431086020
:100380007047B84988667047800140EA0160B1490A
:1003900040EA0270883108607047B24908677047C8
:1003A000B049C8647047AB4B08331A68084322F061
:1003B000EC62104318607047A64B08331A68084374
:1003C00022F07842104318607047A24A0832116840
:1003D00021F003010143116070479E480830006816
:1003E00000F00C0070479B4A0832116821F0F001C0
:1003F000014311607047974A0832116821F4E051B7
:10040000014311607047934A0832116821F460413A
:1004100041EAC0001060704770B58E4B0833196810
:10042000934C11F00C0104D06610042903D0082964
:1004300003D004601BE0066019E0864A121D1168B3
:10044000C1F38055116801F03F0115B1B6FBF1F120
:1004500001E0B4FBF1F114681268C4F3881461433D
:10046000C2F30142521C5200B1FBF2F10160196863
:100470000F2202EA11117F4A545C0168E140416099
:100480001C68072505EA9424145D21FA04F48460AD
:100490001B6805EA5333D25CD140C16070BDC0F324
:1004A0000121032908D16B4B08331968724A21F4E2
:1004B000F81102400A431A60664970310A68C0F3B5
:1004C0000B0002430A60704767494439086070476F
:1004D00065494039086070476249C1F85C0170475E
:1004E0005C4A8C321168401E21F01F0101431160EB
:1004F0007047584A8C3211686FF0FF0321F4F851AD
:1005000003EB0020084310607047524A8C32116898
:1005100021F440110143116070474E4A8C3211683A
:1005200021F440010143116070474A4A8C3211683E
:1005300021F440310143116070475049C1F8E00196
:100540007047444A30320029116801D0014300E06D
:100550008143116070473F4A34320029116801D04D
:10056000014300E08143116070473A4A3832002964
:10057000116801D0014300E0814311607047354AA2
:1005800040320029116801D0014300E0814311602D
:100590007047304A44320029116801D0014300E01D
:1005A0008143116070472B4A10320029116801D035
:1005B000014300E0814311607047264A143200294C
:1005C000116801D0014300E0814311607047214A66
:1005D00018320029116801D0014300E08143116005
:1005E00070471C4A20320029116801D0014300E005
:1005F000814311607047174A24320029116801D0E5
:10060000014300E0814311607047124A50320029D3
:10061000116801D0014300E08143116070470D4A29
:1006200054320029116801D0014300E08143116078
:100630007047084A58320029116801D0014300E090
:10064000814311607047034A60320029116817D056
:10065000014316E000380240FFFFF6EA10300024A4
:100660000030002000004742800E47420000FFFF9C
:100670000024F40000000020FFFCFF0F00104742A0
:10068000814311607047194A0029116801D0014364
:1006900000E081431160704714490C31012808685B
:1006A00003D020F008000860704740F00800FAE727
:1006B0000E4A573A0029117801D0014300E08143E6
:1006C0001170704709481030016841F08071016075
:1006D00070470146054A0020583A12680A4200D085
:1006E000012070470149563908707047643802404C
:1006F000774910B5884206D101210846FFF753FF1C
:10070000002101205BE07349884206D101210220CB
:10071000FFF749FF0021022051E06F49884206D1CE
:1007200001210420FFF73FFF0021042047E06B492F
:10073000884206D101210820FFF735FF002108205B
:100740003DE06749884206D101211020FFF72BFFC9
:100750000021102033E06349884206D10121202086
:10076000FFF721FF0021202029E05F49884206D1C0
:1007700001214020FFF717FF002140201FE05B49C7
:10078000884206D101218020FFF70DFF0021802043
:1007900015E05749884202D1012184150AE05549E4
:1007A000884202D10121441504E0534988420AD10C
:1007B000012104152046FFF7F6FE00212046BDE882
:1007C0001040FFF7F0BE10BDF0B5002201274FF03A
:1007D000030C0B6807FA02F52B40AB422CD10668DC
:1007E00053000CFA03F4A64306600E79D0F800E03B
:1007F0009E4046EA0E0606600E79012E01D0022EBA
:1008000012D18668A64386604E79D0F808E09E40F3
:1008100046EA0E0686604668AE43466045688E79B5
:100820009640B6B235434560C568A543C560CC79EE
:100830009C40C3681C43C460521C102AC9D3F0BD3D
:100840004FF6FF7101600021017141718171C17129
:10085000704708B541F480320092C261C1610099CD
:10086000C161C169C069009008BD024600201269DB
:100870000A4200D001207047006980B270470246EA
:10088000002052690A4200D001207047406980B2BE
:10089000704701837047418370470AB101837047F5
:1008A000418370474161704742694A4042617047E5
:1008B0004B07DB0E9A40C90810B500EB8100016AB6
:1008C0000F249C40A1430162016A1143016210BDE3
:1008D000000002400004024000080240000C0240F8
:1008E000001002400014024000180240001C0240A8
:1008F00000200240002402400028024022484168B3
:10090000491C41608168002902D08168491E8160CC
:10091000704710B51C4C2078002821D10120FFF72A
:10092000C9FCFFF7E4FC0028FBD0184801684FF42D
:100930007A70B1FBF0F0401EB0F1807F11D24FF021
:10094000E0225061124BF02083F8140D00209061DA
:10095000072010610F48B1FBF0F0E060012020702B
:1009600010BDFEE708480078002805D04FF0E020D1
:10097000016941F00201016170474FF0E020016917
:1009800021F00201016170471000002028000020C2
:100990000FE000E0C0C62D001CB501210820FFF7C4
:1009A000D0FD4FF47040009000208DF8060001212A
:1009B0008DF804108DF8070003208DF805006946B6
:1009C0000C48FFF701FF1CBD1CB501210846FFF7CD
:1009D000B8FD0120009000208DF806008DF804007D
:1009E0008DF8070003208DF8050069460248FFF7DF
:1009F000EBFE1CBD000C0240000002400D490968DE
:100A0000C9070BD00B4980390968C90706D04FF0D8
:100A100060410A68002AFCD0087070474FF0FF3030
:100A20007047054920204860AFF22F01034800F0CD
:100A300019B80000800E00E0002004E02000002033
:100A400010B50A6812B1BDE810401047AFF300803E
:100A500010BD10B5416811B1BDE810400847AFF3B3
:100A6000008010BD016070474160704708B500F01C
:100A700094F8FFF7D6FFFFF78FFFFFF74AFF0DA1AE
:100A8000124800F0F7F8124E124C4FF4FA77306823
:100A900080F47040306022680FA10C4800F0EAF842
:100AA00020683D46009020680099401AA842FAD379
:100AB000EDE7000048656C6C6F2066726F6D204D2D
:100AC0004355207669612053574F0A0020000020CB
:100AD000140C02401400002025640A007047FEE751
:100AE000FEE7FEE7FEE7704770477047704710B5B6
:100AF000FFF704FF10BD00000CB50022544900921E
:100B00000192086840F4803008604FF4A043086800
:100B100000F4003001900098401C0090019810B93A
:100B200000989842F3D10868800334D501200190E1
:100B300047484030026842F08052026045480268EF
:100B400042F4404202604248083002680260026893
:100B500042F400420260026842F4A0520260031FA5
:100B60003D4A1A600A6842F080720A600A6892017F
:100B7000FCD53A4940F205720A60016821F0030190
:100B80000160016841F0020101600168C1F3810167
:100B90000229FAD10CBD01920CBD314810B5016893
:100BA00041F4700101602A48016841F001010160CF
:100BB000274A00210832116002682A4B1A4002605D
:100BC000031D294A1A60026822F48022026020482C
:100BD0000C300160FFF790FF21494FF00060803931
:100BE000086010BD70B51A4D083528681F4B2049A4
:100BF00010F00C0004D05E10042803D0082803D0A5
:100C00000B601BE00E6019E0114A121D1068C0F362
:100C10008054106800F03F0014B1B6FBF0F001E022
:100C2000B3FBF0F013681268C3F388135843C2F3A0
:100C30000142521C5200B0FBF2F0086028680C4AD6
:100C4000C0F30310121D105C0A68C2400A6070BD38
:100C5000003802400070004008544007003C024049
:100C600088ED00E0FFFFF6FE103000240024F400C1
:100C7000280000200FB4014610B504AA039800F024
:100C8000CFF810BC5DF814FB2DE9F0410E46044688
:100C9000002020622046E168884730B3252805D02F
:100CA000D4E901219047206A401CF2E7E168204620
:100CB00000278847050018D0A5F14100192802D85F
:100CC00020354FF400673246294620462760FFF75B
:100CD00095FA40B1012804D0F61D26F00706083623
:100CE000D8E7361DD6E72846DAE7206ABDE8F08166
:100CF0002DE9F0410646002410687529314616A5F5
:100D000010D0AFF30080002802DA404213A507E0BC
:100D100031688A0701D512A502E0490704D511A55B
:100D2000012401E0AFF3008000210A2206F124072C
:100D300009E0B0FBF2FCB0FBF2F302FB1C00303028
:100D400078541846491C0028F3D123462A463046D9
:100D5000BDE8F04100F00BB8000000002D000000DD
:100D60002B000000200000007047704770472DE9FD
:100D7000F0470D4699469246044600F12408016862
:100D8000880604D5E06921F01001216000E001200F
:100D9000A84201DD471B00E00027A1697A1902EB98
:100DA0000900081AA0612078C00602D42046AFF3DB
:100DB0000080002608E0D4E901211AF806009047D7
:100DC000206A401C761C20624E45F4DB2078C00669
:100DD0000AD52046AFF3008006E0D4E90121302097
:100DE0009047206A401C2062381EA7F10107F4DCFE
:100DF00007E0D4E9012118F805009047206A401C5B
:100E00002062281EA5F10105F3DC2046AFF3008027
:100E10002078000602D50220BDE8F0870120FBE71C
:100E2000074B70B50D467B4400F011F80446284688
:100E300000F020F810B14FF0FF3070BD204670BDBB
:100E400017FCFFFF01694A1C02610878704700B572
:100E50008FB0CDE901310021059105497944CDE9F3
:100E6000031011466846FFF70FFF0FB000BD0000EA
:100E7000E5FFFFFF007B00F080007047754600F043
:100E800029F8AE4605006946534620F0070085461E
:100E900018B020B5FFF7DAF9BDE820404FF00006A2
:100EA0004FF000074FF000084FF0000B21F0070152
:100EB000AC46ACE8C009ACE8C009ACE8C009ACE895
:100EC000C0098D4670470446AFF300802046FFF707
:100ED000A9F90000004870473C0000200149182093
:100EE000ABBEFEE72600020070474FF04070E1EE17
:100EF000100A7047140F0008000000203C0000009A
:100F0000C4010008500F00083C00002064060000E7
:100F1000E0010008000000000102030401020304D4
:100F200006070809000000000000000000000000A3
:100F3000000000000000000000000000007A030A2A
:100F40000000000000000000010203040607080979
:0400000508000231BC
:00000001FF
