:020000040800F2
:10000000500D00203102000865280008672800080C
:10001000692800086B2800086D280008000000000F
:100020000000000000000000000000006F28000831
:1000300071280008000000007328000877280008D5
:100040004B0200084B0200084B0200084B0200085C
:100050004B0200084B0200084B0200084B0200084C
:100060004B0200084B0200084B0200084B0200083C
:100070004B0200084B0200084B0200084B0200082C
:100080004B0200084B0200084B0200084B0200081C
:100090004B0200084B0200084B0200084B0200080C
:1000A0004B0200084B0200084B0200084B020008FC
:1000B0004B0200084B0200084B0200084B020008EC
:1000C0004B0200084B0200084B0200084B020008DC
:1000D0004B020008211200084112000865120008B6
:1000E0004B0200084B0200084B0200084B020008BC
:1000F0004B0200084B0200084B0200084B020008AC
:100100004B0200084B0200084B0200084B0200089B
:1001100089120008AD1200084B0200084B020008CB
:100120004B0200084B0200084B0200084B0200087B
:100130004B0200084B0200084B0200084B0200086B
:100140004B0200084B0200084B0200084B0200085B
:100150004B0200084B0200084B020008CF120008B7
:100160004B0200084B0200084B0200084B0200083B
:100170004B0200084B0200084B0200084B0200082B
:100180004B0200084B02000800F002F800F041F8B2
:100190000AA090E8000C82448344AAF10107DA45E2
:1001A00001D100F036F8AFF2090EBAE80F0013F0F3
:1001B000010F18BFFB1A43F00103184790490000D4
:1001C000B0490000103A24BF78C878C1FAD8520765
:1001D00024BF30C830C144BF04680C6070470000C1
:1001E0000023002400250026103A28BF78C1FBD840
:1001F000520728BF30C148BF0B607047642902F026
:100200003984002070471FB504F053FB1FBD10B5A3
:1002100010BD02F095FD1146FFF7F5FF02F024F83E
:1002200002F0B3FD03B4FFF7F2FF03BC02F0B4FD2C
:100230000948804709480047FEE7FEE7FEE7FEE77A
:10024000FEE7FEE7FEE7FEE7FEE7FEE704480549B6
:10025000054A064B70470000232900088901000861
:1002600050070020500D00205009002050090020A8
:100270002849084328490860704730B50F23C278E1
:1002800001780125FAB1244A126801F1E02102F453
:10029000E062C2F5E062C2F30722C2F10404D34077
:1002A0004278A24084781C401443220181F8002443
:1002B000007800F01F018D404009800000F1E0202F
:1002C000C0F8005130BD01F01F0085404809800092
:1002D00000F1E020C0F8805130BD104A11400143C8
:1002E0000D48001F016070470B4A121D002911685C
:1002F00001D0014300E08143116070474FF0E021DD
:100300000428086903D020F004000861704740F019
:100310000400FAE70000FA050CED00E080FFFF1F83
:10032000F848016841F001010160F64A00210832F5
:1003300011600268F44B1A400260031DF34A1A6010
:10034000F04BF34A84331A60F04A103A1B1D1A60CE
:10035000026822F480220260EA480C300160181D15
:1003600001607047E7490022891C0A7008707047D5
:1003700002460020510901290CD002290CD0E14984
:100380007431096802F01F02012393400B4200D030
:1003900001207047DB49F4E7DA497031F1E718B51D
:1003A00000204FF4A04400903120FFF7E1FF0099B6
:1003B000491C0091A14201D00028F5D03120FFF75F
:1003C000D7FF002800D0012018BDCE4A116821F0C7
:1003D000F80141EAC00010607047CE4908607047DC
:1003E000C849002270310A700A70012802D004281E
:1003F00001D1052008707047C7490860704741EA7D
:1004000082115A0810B5C54B029C03EB02421143FE
:10041000014341EA0460BB49091D086010BDBD49A4
:1004200008667047800140EA0170B649843108606F
:100430007047B84988667047800140EA0160B14959
:1004400040EA0270883108607047B2490867704717
:10045000B049C8647047AB4B08331A68084322F0B0
:10046000EC62104318607047A64B08331A680843C3
:1004700022F07842104318607047A24A083211688F
:1004800021F003010143116070479E480830006865
:1004900000F00C0070479B4A0832116821F0F0010F
:1004A000014311607047974A0832116821F4E05106
:1004B000014311607047934A0832116821F460418A
:1004C00041EAC0001060704770B58E4B0833196860
:1004D000934C11F00C0104D06610042903D00829B4
:1004E00003D004601BE0066019E0864A121D116803
:1004F000C1F38055116801F03F0115B1B6FBF1F170
:1005000001E0B4FBF1F114681268C4F3881461438C
:10051000C2F30142521C5200B1FBF2F101601968B2
:100520000F2202EA11117F4A545C0168E1404160E8
:100530001C68072505EA9424145D21FA04F48460FC
:100540001B6805EA5333D25CD140C16070BDC0F373
:100550000121032908D16B4B08331968724A21F431
:10056000F81102400A431A60664970310A68C0F304
:100570000B0002430A6070476749443908607047BE
:1005800065494039086070476249C1F85C017047AD
:100590005C4A8C321168401E21F01F01014311603A
:1005A0007047584A8C3211686FF0FF0321F4F851FC
:1005B00003EB0020084310607047524A8C321168E8
:1005C00021F440110143116070474E4A8C3211688A
:1005D00021F440010143116070474A4A8C3211688E
:1005E00021F440310143116070475049C1F8E001E6
:1005F0007047444A30320029116801D0014300E0BD
:100600008143116070473F4A34320029116801D09C
:10061000014300E08143116070473A4A38320029B3
:10062000116801D0014300E0814311607047354AF1
:1006300040320029116801D0014300E0814311607C
:100640007047304A44320029116801D0014300E06C
:100650008143116070472B4A10320029116801D084
:10066000014300E0814311607047264A143200299B
:10067000116801D0014300E0814311607047214AB5
:1006800018320029116801D0014300E08143116054
:1006900070471C4A20320029116801D0014300E054
:1006A000814311607047174A24320029116801D034
:1006B000014300E0814311607047124A5032002923
:1006C000116801D0014300E08143116070470D4A79
:1006D00054320029116801D0014300E081431160C8
:1006E0007047084A58320029116801D0014300E0E0
:1006F000814311607047034A60320029116817D0A6
:10070000014316E000380240FFFFF6EA10300024F3
:100710000030002000004742800E47420000FFFFEB
:100720000024F40000000020FFFCFF0F00104742EF
:10073000814311607047194A0029116801D00143B3
:1007400000E081431160704714490C3101280868AA
:1007500003D020F008000860704740F00800FAE776
:100760000E4A573A0029117801D0014300E0814335
:100770001170704709481030016841F080710160C4
:1007800070470146054A0020583A12680A4200D0D4
:10079000012070470149563908707047643802409B
:1007A000774910B5884206D101210846FFF753FF6B
:1007B000002101205BE07349884206D1012102201B
:1007C000FFF749FF0021022051E06F49884206D11E
:1007D00001210420FFF73FFF0021042047E06B497F
:1007E000884206D101210820FFF735FF00210820AB
:1007F0003DE06749884206D101211020FFF72BFF19
:100800000021102033E06349884206D101212020D5
:10081000FFF721FF0021202029E05F49884206D10F
:1008200001214020FFF717FF002140201FE05B4916
:10083000884206D101218020FFF70DFF0021802092
:1008400015E05749884202D1012184150AE0554933
:10085000884202D10121441504E0534988420AD15B
:10086000012104152046FFF7F6FE00212046BDE8D1
:100870001040FFF7F0BE10BDF0B5002201274FF089
:10088000030C0B6807FA02F52B40AB422CD106682B
:1008900053000CFA03F4A64306600E79D0F800E08A
:1008A0009E4046EA0E0606600E79012E01D0022E09
:1008B00012D18668A64386604E79D0F808E09E4043
:1008C00046EA0E0686604668AE43466045688E7905
:1008D0009640B6B235434560C568A543C560CC793E
:1008E0009C40C3681C43C460521C102AC9D3F0BD8D
:1008F0004FF6FF7101600021017141718171C17179
:10090000704708B541F480320092C261C16100991C
:10091000C161C169C069009008BD0246002012692A
:100920000A4200D001207047006980B27047024639
:10093000002052690A4200D001207047406980B20D
:10094000704701837047418370470AB10183704744
:10095000418370474161704742694A404261704734
:100960004B07DB0E9A40C90810B500EB8100016A05
:100970000F249C40A1430162016A1143016210BD32
:10098000000002400004024000080240000C024047
:10099000001002400014024000180240001C0240F7
:1009A000002002400024024000280240CD4910B53A
:1009B000884206D101211020FFF775FE002110208A
:1009C00020E0C949884202D101214C0429E0C749ED
:1009D000884202D101218C0423E0C549884202D11A
:1009E0000121CC041DE0C349884202D101210C053C
:1009F00017E0C149884209D101212020FFF753FEA9
:100A000000212020BDE81040FFF74DBEBB498842C1
:100A100002D101218C0704E0B94988420AD10121A1
:100A200044052046FFF735FE2046BDE81040002172
:100A3000FFF72FBE10BD7FB50446008A0D46C9885A
:100A400020F4405001432182A08941F20C61884387
:100A5000A9882A8911436A8902431143A181A08A86
:100A600020F44071A8890843A0826846FFF72CFD56
:100A70009C48844202D0A048844201D1039800E0FF
:100A80000298A189090400EBC00101EB001029685C
:100A900001D5490000E08900B0FBF1F06422B0FB11
:100AA000F2F109010B096FF018056B4300EB8300AD
:100AB000A3891D044FF0320306D503EBC000B0FB41
:100AC000F2F000F0070005E003EB0010B0FBF2F0DD
:100AD00000F00F00084320817FBD4FF416510160E4
:100AE00000218180C18001810C2242818181704777
:100AF00010B5028A4C8822F470630A8822438C88DD
:100B0000C9880C4322431A43028210BD0021018090
:100B100041808180C18070470029818902D041F4E1
:100B2000005101E021F4005181817047028B02F4F1
:100B30007F420283028B0A43028370470029818926
:100B400002D041F4004101E0C1F30E018181704700
:100B50000029818A02D041F4006101E021F40061A2
:100B600081827047C1F30801818070478088C0F39B
:100B700008007047028A22F00F020282028A0A43AA
:100B8000028270470029818902D041F0020101E010
:100B900021F0020181817047828922F40062828102
:100BA00082890A4382817047028A22F020020282EF
:100BB000028A0A43028270470029018A02D041F466
:100BC000804101E021F4804101827047818941F038
:100BD0000101818170470029818A02D041F008011A
:100BE00001E021F0080181827047028BD2B20283BA
:100BF000028B42EA0121018370470029818A02D0D9
:100C000041F0200101E021F020018182704700299C
:100C1000818A02D041F0100101E021F010018182AF
:100C20007047828A22F004028282828A0A43828288
:100C300070470029818A02D041F0020101E021F0D1
:100C4000020181827047002A828A01D00A4300E0B3
:100C50008A438282704710B5C1F3421301F01F042A
:100C60000121A140012B07D0022B07D01430002A0C
:100C7000026805D00A4304E00C30F8E71030F6E7CC
:100C80008A43026010BD0246002012880A4200D04A
:100C900001207047C9430180704770B501F01F05FE
:100CA00001260024C1F3421306FA05F2012B0FD0EE
:100CB000022B0FD0838A4FEA11210088134206FAD3
:100CC00001F600EA060001D000B10124204670BD03
:100CD0008389F0E7038AEEE70A0A01219140C943BC
:100CE000018070470010014000440040004800406F
:100CF000004C0040005000400014014000780040CB
:100D0000007C0040234810B54168491C416081685F
:100D100011B18168491E8160AFF3008010BD10B52C
:100D20001C4C2078002821D10120FFF71BFBFFF786
:100D300036FB0028FBD0184801684FF47A70B1FBED
:100D4000F0F0401EB0F1807F11D24FF0E0225061F0
:100D5000124BF02083F8140D0020906107201061E1
:100D60000F48B1FBF0F0E0600120207010BDFEE7FD
:100D700008480078002805D04FF0E020016941F0D4
:100D80000201016170474FF0E020016921F002018A
:100D90000161704710000020880000200FE000E093
:100DA000C0C62D00F74A0146904200D10020F64A05
:100DB000914200D10120F54A914200D10220F44A2B
:100DC000914200D10420F34A914200D10520F24A19
:100DD000914200D1062070471CB504460121202015
:100DE000FFF72FFC082003215CB1012C08D1CDE9CD
:100DF0000010012300224FF48441E84801F0A7F9D4
:100E00001CBDCDE9001001230022C021E448F5E714
:100E10007CB5044601210805FFF709FC002C11D11F
:100E200008250324012300221903DD48CDE90045EC
:100E300001F08DF9012300220421DA48CDE90045B3
:100E400001F085F97CBD1CB504460121C804FFF7FB
:100E5000EEFB0820032154B1012C07D1CDE900108D
:100E6000012300228902CE4801F071F91CBDCDE9B1
:100E70000010012300220321CB48F5E71CB50446EE
:100E800001218804FFF7D3FB07200322910254B10C
:100E9000012C0ED0022C13D1CDE900200123002219
:100EA0008910C0480AE0CDE9002001230022BF4894
:100EB00004E0CDE9002001230022B94801F047F900
:100EC0001CBD1CB5044601214804FFF7B0FB0720F8
:100ED000032154B1012C07D1CDE9001001230022D8
:100EE0006021B04801F033F91CBDCDE900100123A9
:100EF00000220C21AC48F5E71CB504460121102066
:100F0000FFF79FFB0720032154B1012C07D1CDE946
:100F1000001001230022C021A44801F018F91CBDD3
:100F2000CDE90010012300224FF4C0619E48F4E790
:100F30002DE9F04104469E4886B0884602210171A1
:100F4000002585710127C771032141718D480C2649
:100F5000009284420FD14046FFF7CEFF2520ADF826
:100F60000A60ADF806508DF81000ADF80C50ADF8E1
:100F70000850ADF80450844884420FD14046FFF732
:100F8000A0FF2620ADF80A60ADF806508DF81000DD
:100F9000ADF80C50ADF80850ADF804507B488442D1
:100FA0000FD14046FFF76AFF2720ADF80A60ADF881
:100FB00006508DF81000ADF80C50ADF80850ADF8A3
:100FC0000450734884420FD14046FFF73CFF342061
:100FD000ADF80A60ADF806508DF81000ADF80C5071
:100FE000ADF80850ADF804506A4884420FD140462D
:100FF000FFF70EFF3520ADF80A60ADF806508DF80A
:101000001000ADF80C50ADF80850ADF8045062482F
:1010100084420FD14046FFF7DFFE4720ADF80A605B
:10102000ADF806508DF81000ADF80C50ADF8085032
:10103000ADF8045000212046FFF76EFD2046FFF773
:10104000B5FC69462046FFF7F6FC01212046FFF774
:1010500063FD012240F225512046FFF7FCFD8DF88B
:10106000137006208DF811002046FFF79BFE8DF8C7
:10107000120004A8FFF701F906B0BDE8F081414A6B
:101080000146904201D14A4808303F4A914201D17D
:10109000474814303D4A914201D1454820303C4AEE
:1010A000914201D142482C303A4A914201D1404804
:1010B0003830394A914201D13D484430704700B53B
:1010C0000023FFF7DCFFC28862B14189838899421F
:1010D00001D100214181036889B25B56491C4181DD
:1010E000521EC280D8B200BD00B5FFF7C8FFC1884C
:1010F0008088814201D1012000BD002000BD10B5D3
:101100000C46FFF7BCFFC38842890DE081889142FD
:1011100000D100220168895CA14201D1012010BDEB
:10112000521C5B1E92B29BB2002BEFD1002010BD6F
:1011300000B5FFF7A4FFC08808B1002000BD012062
:1011400000BDF0B515460E4607460024FFF7F0FF38
:1011500080BB0A213846FFF7D2FF18B93846FFF79F
:10116000C3FF38B36D1EAC4208DA3846FFF7A7FF5D
:10117000305504F101040A28A4B2F4D100203055FE
:101180002046F0BD001001400044004000480040EF
:10119000004C004000500040001401400018024084
:1011A00000080240000C024000000240000402401F
:1011B00020000020FFE70020E3E700B5FFF75FFF16
:1011C0000021C1800181418100BD13B50446802109
:1011D0002046FFF758FD0028F9D09DF80400A080B4
:1011E0001CBD70B50C46054603E02846641CFFF79D
:1011F000ECFF21780029F8D170BDC3888288934222
:101200000DD20389934201D1002202810389026831
:10121000D1540189491C0181C188491CC180704792
:1012200010B5344C40F225512046FFF736FD00281A
:1012300005D0A088BDE81040C1B22F48DDE710BD41
:1012400010B540F225512D48FFF727FD002808D0A2
:101250002A48001D0088BDE81040C1B226480C3065
:10126000CBE710BD10B540F225512548FFF715FD1D
:10127000002808D02248001D0088BDE81040C1B2F7
:101280001D481830B9E710BD10B540F225511D4872
:10129000FFF703FD002808D01A48001D0088BDE8AC
:1012A0001040C1B214482430A7E710BD10B5164C49
:1012B00040F225512046FFF7F0FC002806D0A08818
:1012C000BDE81040C1B20C48303096E710BD10B5F3
:1012D00040F225510D48FFF7E0FC002808D00B48EC
:1012E000001D0088BDE81040C1B203483C3084E7CF
:1012F00010BD000000100140280000200044004004
:1013000000480040004C00400050004000140140E4
:10131000F74900208860704710B50A460121F5485A
:10132000FFF706FEF2480121C17100218160C1680A
:1013300041F0FF0141F47F4141F44031C16010BDF3
:1013400080F83E1008467047E948D0E90210814213
:1013500001D1012070470020704730B50246FFF7E9
:10136000F3FF0100E24847D0E3490023C37191ED48
:10137000000A82ED000A91ED010A82ED010A087A65
:101380001072487A507291ED030AA1F1100082EDBB
:10139000030A046A146191ED060A82ED060A848C40
:1013A000948290F826009075087F107791ED080AD6
:1013B00082ED080A91ED090A82ED090A91ED0B0A06
:1013C00082ED0B0A91ED0A0A82ED0A0A91F83000CB
:1013D00082F8300000200C181518401C94F8314099
:1013E000C0B285F831400C28F5D391F83D0002F8E1
:1013F0003D0F1846537030BDC07908B1022000E09F
:10140000012082F83E0030BDB9490A7942400A7194
:101410007047B7498A6802438A60704730B5024610
:1014200000206FF02F05086009E00C68401C04EBF9
:10143000840405EB44042344C0B2521C0B601378AF
:10144000A3F13004092CF0D930BD0346012000E09F
:101450005843491EC9B2FBD2704706E003789A424E
:1014600001D000207047401C491C0A78002AF5D1A1
:10147000012070472DE9F0439D4C00272DED028B94
:1014800081B0A1784FF0010CF1B12078042822D06E
:10149000A146994C41EA4010A4F11005442876D0A9
:1014A0007DDC29464FF06406097842F2107809285D
:1014B0006FD031DC9FED918B08280CD2DFE800F073
:1014C0000BF1C7F0EFEEEDEC8B488EA11038FFF773
:1014D000C4FF28B1277001B0BDEC028BBDE8F083DA
:1014E00085488AA11038FFF7B8FF10B184F800C012
:1014F000F1E7814887A11038FFF7AFFF08B102205C
:1015000008E07D4885A11038FFF7A7FF08B1032048
:1015100000E004202070DEE729287DD03ADC222874
:101520007BD027287AD02828D5D17348694610382F
:10153000FFF774FF9DED000A401CC0B2B8EE400AF0
:101540002844694684ED080AFFF768FF01460A202F
:10155000FFF77BFF02F068FE9DED000A41EC180BDF
:10156000B8EE400A10EE100A03F032F953EC182BD3
:1015700002F0BCFC02F0E0FB00EE100AD4ED080A19
:101580004FF4004030EE200A84ED080A5CE076E279
:1015900005E031E142287DD043289CD16FE24C2800
:1015A000FCD004DCA0F14500062894D867E250285E
:1015B00071D03BDC4D28F1D04E28EFD04F288AD196
:1015C0004D4869461038FFF729FF9DED000A401C81
:1015D000C0B2B8EE400A2844694684ED0A0AFFF713
:1015E0001DFF01460A20FFF730FF02F01DFE9DEDB2
:1015F000000A41EC180BB8EE400A10EE100A03F096
:10160000E7F853EC182B02F071FC02F095FB00EEAA
:10161000100AD4ED0A0A02E0A1E1BBE16EE130EE6E
:10162000200A4FF4005084ED0A0A0DE051285ED0E4
:101630006328B2D1304869461038FFF7EFFE0098B2
:1016400084F83D004FF48030FFF7E3FE43E72A487B
:1016500069461038FFF7E2FE009F8046B7FBF6F0C0
:1016600006FB107002F0E0FD53EC182B02F03EFC7C
:1016700002F062FB00EE100AB7FBF6F000EE900AF3
:1016800008F10100C0B2F8EE600A30EE800A84ED85
:10169000000A07E0E9E186E19EE0A5E092E04BE088
:1016A00040E008E128446946FFF7B8FE01460A20F9
:1016B000FFF7CBFE02F0B8FD53EC182B02F0C8FD8B
:1016C00041EC180B009802F0AFFD53EC182B02F020
:1016D0000DFC41EC180B206803F07AF853EC182B42
:1016E00002F05CFB02F028FB20600120ACE78BE1FC
:1016F0007000002000100140AC0600200000000037
:1017000000004E40244750474741000024475052B4
:101710004D430000244750475341000024475047A1
:1017200053560000532905D194ED000AB1EE400A4A
:1017300084ED000A402087E76946FB48FFF76EFE0C
:10174000009F8046B7FBF6F006FB107002F06CFDC0
:1017500053EC182B02F0CAFB02F0EEFA00EE100A6E
:10176000B7FBF6F000EE900A08F10100C0B2F8EE07
:10177000600A2844694630EE800A84ED010AFFF7CA
:101780004DFE01460A20FFF760FE02F04DFD53ECCE
:10179000182B02F05DFD41EC180B009802F044FD9F
:1017A00053EC182B02F0A2FB41EC180B606803F01D
:1017B0000FF853EC182B02F0F1FA02F0BDFA60605A
:1017C000022041E7572905D194ED010AB1EE400A04
:1017D00084ED010A202037E76946D348FFF71EFE53
:1017E0000098207204202FE76946CF48FFF716FEC5
:1017F00000986072082027E72D2969462BD0CA4837
:10180000FFF70CFE9DED000A401CC0B2B8EE400A86
:101810002844694684ED030AFFF700FE01460A20CA
:10182000FFF713FE02F000FD41EC180B009802F0E8
:10183000FBFC53EC182B02F059FB41EC180BE06851
:1018400002F0C6FF53EC182B02F0A8FA02F074FA6B
:10185000E0601020F8E6681CFFF7E0FD9DED000A4F
:10186000801CC0B2B8EE400A2844694684ED030AE1
:10187000FFF7D4FD01460A20FFF7E7FD02F0D4FC94
:1018800041EC180B009802F0CFFC53EC182B02F03F
:101890002DFB41EC180BE06802F09AFF53EC182B7B
:1018A00002F07CFA02F048FA00EE100AB1EE400AAB
:1018B00084ED030ACDE769469B48FFF7AFFD01467B
:1018C0000098491CB0FBF6F206FB1202A274B0FBB2
:1018D000F6F2B2FBF6F3B0FBF8F006FB13226274EB
:1018E000B0FBF6F206FB12002074C8B22844694629
:1018F000FFF794FD0098E0748020A5E669468A48C9
:10190000FFF78CFD9DED000A401CC0B2B8EE400A06
:101910002844694684ED060AFFF780FD01460A2047
:10192000FFF793FD02F080FC9DED000A41EC180BDF
:10193000B8EE400A10EE100A02F04AFF53EC182BE2
:1019400002F0D4FA02F0F8F900EE100AD4ED060A1B
:101950004FF4807030EE200A84ED060A74E6694682
:101960007148FFF75BFD0098B0FBF6F106FB110133
:10197000A175B0FBF6F1B1FBF6F2B0FBF8F006FB97
:1019800012116175B0FBF6F106FB110020754FF4E2
:10199000007059E6412903D027774FF4806053E661
:1019A00084F81CC0F9E769465F48FFF737FD9DEDF5
:1019B000000A401CC0B2B8EE400A2844694684EDD3
:1019C000090AFFF72BFD01460A20FFF73EFD02F052
:1019D0002BFC9DED000A41EC180BB8EE400A10EE0E
:1019E000100A02F0F5FE53EC182B02F07FFA02F019
:1019F000A3F900EE100AD4ED090A4FF4006030EEAE
:101A0000200A84ED090A1FE669464748FFF706FDEC
:101A10009DED000A401CC0B2B8EE400A2844694659
:101A200084ED0B0AFFF7FAFC01460A20FFF70DFDD3
:101A300002F0FAFB9DED000A41EC180BB8EE400AEB
:101A400010EE100A02F0C4FE53EC182B02F04EFA0E
:101A500002F072F900EE100AD4ED0B0A4FF4805038
:101A600030EE200A84ED0B0AEEE569462E48FFF7BA
:101A7000D5FC009884F830004FF48040E4E56946D6
:101A80002948FFF7CBFC99F802200098224482F8FD
:101A90002E0099F80100401CC0B289F80100227A9A
:101AA00082427FF425AD89F801704FF40030CBE518
:101AB0001E48C178012967D18178007841EA401039
:101AC00044285ED01BDC092845D007DC08285BD2FF
:101AD000DFE800F05A433537393B3F3D292841D0F4
:101AE00008DC222841D0272839D028284CD14FF4AF
:101AF000004023E0422841D0432845D141E04C2812
:101B00003FD004DCA0F1450006283DD839E050283C
:101B10002ED00DDC4D2834D04E2832D04F2833D172
:101B20004FF400500AE000009C06002070000020E6
:101B3000512820D0632827D14FF4803069E4012058
:101B4000FCE74020FAE70220F8E72020F6E704202F
:101B5000F4E70820F2E71020F0E78020EEE74FF4EA
:101B60008070EBE74FF40070E8E74FF48060E5E742
:101B70004FF40060E2E74FF48050DFE74FF480401D
:101B8000DCE74FF40030D9E77047A0F130010929B4
:101B900001D8C8B27047A0F14101052901D83738F2
:101BA00004E0A0F16101052902D85738C0B270479E
:101BB000002070472DE9F0410B460646FFF7C4FBB5
:101BC00001004FF001004FF00005FE4C02D0A5606F
:101BD00086F83E00FC4F242B0AD02C2B0DD00A2B6C
:101BE0003AD00D2B0DD02A2B1FD0A07968B32FE04F
:101BF000A5712571A5703B702DE01846FFF704FC18
:101C000014E0E0783D54401CE0707878FFF7BDFFA9
:101C100002463878FFF7B9FF02EB0010C0B26071DE
:101C20002179884218D0A56016E0A071E0783D5473
:101C3000401CE0703046FFF73BFF3046FFF71AFCD0
:101C4000A078401CA070E57006E01846FFF7DCFBAA
:101C5000E0783B54401CE0703046BDE8F041FFF7AF
:101C60007CBB70B5D94D04462846FFF761FA50B1E8
:101C70000EE02846FFF723FA01462046FFF79AFFB9
:101C800094F83E0048B12846FFF752FA0028F0D0F9
:101C9000CC48C07918B1022002E0C0B270BD01206A
:101CA00084F83E0070BD0F2835D2DFE800F0080B45
:101CB0000E1114171A1D202326292C2F3300DFEDB7
:101CC000C40A25E0DFEDC30A22E0DFEDC30A1FE00E
:101CD000DFEDC20A1CE0DFEDC20A19E0DFEDC10A48
:101CE00016E0DFEDC10A13E0DFEDC00A10E0DFED22
:101CF000C00A0DE0DFEDBF0A0AE0DFEDBF0A07E032
:101D0000DFEDBE0A04E0DFEDBE0A01E0DFEDBD0A53
:101D100020EE200A70479FEDBC0A704710B50446BC
:101D2000092900D90921FDEEC00AB5EEC00A4FF01D
:101D30000A00F1EE10FAC4ED000A0CD2FFF785FBA1
:101D400000EE900AB8EE601AD4ED000AF8EEE00A50
:101D500030EEC00A0BE0FFF778FB00EE900AB8EE19
:101D6000601AD4ED000AF8EEE00A30EE600A21EEC7
:101D7000000ABDEEC00A84ED010A10BD70B504462C
:101D80002DED0C8B90ED002A9FEDA00AD0ED021AEC
:101D9000D0ED030A90ED011A21EE808A20EE80CA70
:101DA00071EEC21A70EEC10A62EE008A61EE00CADC
:101DB00021EE80DA20EE800AF6EE00DA20EE2D9A8F
:101DC00019EE100A02F004FD41EC100B01F0CCFA00
:101DD000B0EE40BAF0EE60BA19EE100A02F0F8FC6C
:101DE00041EC100B01F0C0FAB0EE40AAF0EE60AA90
:101DF00018EE100A02F0ECFC41EC100B01F050FA66
:101E0000B0EE409AF0EE609A18EE900A02F0E0FC14
:101E100041EC100B01F044FA53EC192B51EC100B70
:101E200002F016FA53EC1A2B02F012FA53EC1B2BA9
:101E300002F00EFA2DEE2DBA41EC1A0B1BEE100A31
:101E400002F0C6FC41EC100B01F08EFAB0EE409AA5
:101E5000F0EE609A1BEE100A02F0BAFC41EC100B97
:101E600001F082FAB0EE401AF0EE601A53EC192B32
:101E700051EC110B02F0ECF953EC1A2B01F08EFF30
:101E800001F05AFF0AEE100AB7EE000A30EE4A0AD5
:101E900010EE100A02F09CFC41EC100B01F0C8FAA5
:101EA000B0EE409AF0EE609A1AEE100A02F090FC42
:101EB00041EC100B01F0BCFAB0EE491AF0EE691AD1
:101EC00001F0F6F89FED521B51EC100B53EC112B67
:101ED00002F0BEF99FED501B53EC112B02F0B8F944
:101EE00001F02AFF206118EE100A02F071FC41ECAB
:101EF000100B01F0D5F93CEE6CAAB0EE409AF0EE72
:101F0000609A1AEE100A02F063FC41EC100B01F02B
:101F10002BFA53EC192B51EC100B02F099F901F04C
:101F20000BFF05461AEE100A02F052FC41EC100BB2
:101F300001F0B6F9B0EE40AAF0EE60AA18EE100A71
:101F400002F046FC41EC100B01F0AAF9B0EE409A09
:101F5000F0EE609A18EE900A02F03AFC41EC100B99
:101F600001F002FA53EC192B51EC100B02F070F94E
:101F700053EC1A2B02F06CF941EC190B18EE100A15
:101F800002F026FC41EC100B01F0EEF9B0EE40AA95
:101F9000F0EE60AA18EE900A02F01AFC41EC100B69
:101FA00001F07EF953EC1A2B51EC100B02F050F9B2
:101FB00053EC192B02F022FB01F0BEFE02F008FCEC
:101FC0002EE00000700000209C0600200010014060
:101FD000F5BD063AB8AF033F560EED3FC3F5F641E7
:101FE000689DA739F853933F6210D83F9A99CA4227
:101FF0009A9901420000F344666642435C8F504266
:102000000080434533B331430000000035FA8E3C75
:102010000000000000E3C8400000000000408F40C6
:1020200041EC180B284602F0D3FB41EC100BB0EE4C
:10203000481AF0EE681A01F03BF89FED0E1B51ECC8
:10204000100B53EC112B02F003F901F075FE00EEBA
:10205000100A84ED050AB5EEC00AF1EE10FA05D2B9
:10206000DFED060A30EE200A84ED050ABDEC0C8B8C
:1020700070BD000000000020DCA54C400000B4430F
:102080006C4A6D49904203D1086840F0010005E0B8
:102090006A4A904204D1086840F002000860704724
:1020A000674A904203D1086840F00400F6E7654AA9
:1020B000904203D1086840F00800EFE7624A90427E
:1020C00003D1086840F01000E8E7604A904203D16D
:1020D000086840F02000E1E75D4A904203D10868BB
:1020E00040F04000DAE75B4A904203D1086840F0D4
:1020F0008000D3E7584A904203D1086840F48070CA
:10210000CCE7564A904203D1086840F40070C5E716
:10211000534A9042C3D1086840F48060BEE72DE97D
:10212000F0411546DDE906760C0084460DD0FFF738
:10213000A7FF4C480146057183710460C771467161
:10214000BDE8F0416046FEF797BBBDE8F0812DE9A0
:10215000FC418046DDE908070D001AD0CDE90030CA
:10216000134602224046FFF7DAFF0024012606FA52
:1021700004F028420AD0002101E04008491C01284F
:10218000FBD889B23A464046FEF7EAFB641C102CA5
:10219000EDD3BDE8FC81274A2749904203D1086866
:1021A00020F0010005E0254A904204D1086820F0A3
:1021B000020008607047224A904203D1086820F06C
:1021C0000400F6E71F4A904203D1086820F0080097
:1021D000EFE71D4A904203D1086820F01000E8E7BD
:1021E0001A4A904203D1086820F02000E1E7184A1B
:1021F000904203D1086820F04000DAE7154A904287
:1022000003D1086820F08000D3E7134A904203D13D
:10221000086820F48070CCE7104A904203D1086827
:1022200020F40070C5E70E4A9042C3D1086820F43C
:102230008060BEE7000002403038024000040240E7
:1022400000080240000C024000100240001402404E
:1022500000180240001C02400020024000240240FE
:102260000028024080000020A4B000F05AFBFEF7D6
:1022700056FD4FF4E13421460CA8FFF74DF8C24F4C
:10228000224600213846FEF753FE9FEDC00A8DED31
:102290001E0A9FEDBF0A8DED1F0A9FEDBE0A8DED50
:1022A000200A9FEDBD0A1EA88DED210AFFF766FDED
:1022B0009DED220A06211CA8FFF730FDDDE91C2355
:1022C000B6A102A800F09AFB02A93846FEF789FFE2
:1022D0009DED230A06211CA8FFF720FDDDE91C2344
:1022E000B6A102A800F08AFB02A93846FEF779FFE2
:1022F000DFF8E8824FF00009C8F800900CAE0CA897
:10230000FFF7AFFC022807D0F8B116D00128F6D1AC
:10231000012DF4D00125F2E7D8F80010404640F630
:10232000B832914209D9C0F80090AD493846FEF75D
:1023300058FFAC493846FEF754FF022DDFD0022586
:10234000A9A13846FEF74DFFD9E79DF84C000025BE
:1023500000287DD0ACA13846FEF743FFB5A1384632
:10236000FEF73FFFBEA13846FEF73BFF9DED0C0A8E
:1023700006211CA8FFF7D2FCDDE91C23BDA102A8A1
:1023800000F03CFB02A93846FEF72BFF9DED0D0A3D
:1023900006211CA8FFF7C2FCDDE91C23BAA102A894
:1023A00000F02CFB02A93846FEF71BFF9DF83820F1
:1023B000BBA102A800F022FB02A93846FEF711FFDC
:1023C0009DF843109DF84200CDE900019DF8413091
:1023D0009DF84020B8A102A800F010FB02A93846E1
:1023E000FEF7FFFE9DF83920BCA102A800F006FB15
:1023F00002A93846FEF7F5FE9DED0F0A06211CA83E
:10240000FFF78CFCDDE91C23B7A102A800F0F6FA67
:1024100002A93846FEF7E5FEB9A13846FEF7E1FE0F
:102420009DF846009DF8453000F5FA6000909DF853
:102430004420B8A102A800F0E1FA02A93846FEF74C
:10244000D0FE9DED120A06211CA8FFF767FC00E0F4
:1024500097E0DDE91C23B6A102A800F0CFFA02A99B
:102460003846FEF7BEFE9DED120A0220FFF71BFC68
:1024700006211CA8FFF752FCDDE91C23B3A102A82A
:1024800000F0BCFA02A93846FEF7ABFE9DED140A37
:1024900003211CA8FFF742FCDDE91C23B2A102A81E
:1024A00000F0ACFA02A93846FEF79BFEB4A138460C
:1024B000FEF797FE9DED150A02211CA8FFF72EFCE2
:1024C000DDE91C23B3A102A800F098FA02A938465E
:1024D000FEF787FE9DED170A02211CA8FFF71EFCE0
:1024E000DDE91C23B0A102A800F088FA02A9384651
:1024F000FEF777FE9DED160A02211CA8FFF70EFCE1
:10250000DDE91C23ADA102A800F078FA02A9384643
:10251000FEF767FE9DF86020ADA102A800F06EFAFC
:1025200002A93846FEF75DFEAEA13846FEF759FE19
:10253000002412E0401EA04206EB040090F8312077
:1025400001DDAFA100E04FA102A800F057FA02A9F7
:102550003846FEF746FE641CE4B29DF83800A042FF
:10256000E8D8A8A13846FEF73CFE9DF86D20AAA148
:1025700002A800F043FA02A93846FEF732FE2DA168
:10258000DFE6ACA1DDE60000004800406C334142CC
:102590006292F4C29AA137423CA3624244697374C6
:1025A000616E63652069733A2025642E2530366498
:1025B000206D65746572730A0000000042656172E7
:1025C000696E672069733A2025642E2530366420B1
:1025D000646567726565730A0A00000014000020D4
:1025E000F84A0008984A000857616974696E6720C4
:1025F000666972737420646174612066726F6D2005
:10260000475053210A0000004E65772072656365CC
:1026100069766564206461746120686176652076FE
:10262000616C696420475053207369676E616C0A5E
:10263000000000002D2D2D2D2D2D2D2D2D2D2D2D7E
:102640002D2D2D2D2D2D2D2D2D2D2D2D2D2D2D2DBA
:102650002D2D2D2D2D2D2D2D2D2D2D0A0000000081
:1026600047504747412073746174656D656E743AD5
:102670000A000000202D204C617469747564653A6D
:102680002025642E25640A00202D204C6F6E67697A
:10269000747564653A2025642E25640A00000000E4
:1026A000202D205361747320696E207573653A2064
:1026B000253032640A000000202D20555443205458
:1026C000696D653A20253032642E253032642E251E
:1026D0003032643A253032640A000000202D204652
:1026E00069783A2025640A00202D20416C746974B1
:1026F0007564653A202533642E253036640A00005F
:102700004750524D432073746174656D656E743A21
:102710000A000000202D20446174653A20253032E3
:10272000642E253032642E253034640A0000000007
:10273000202D20537065656420696E206B6E6F7468
:10274000733A2025642E253036640A00202D20534C
:102750007065656420696E206B6D2F683A20256472
:102760002E253036640A0000202D204469726563EE
:1027700074696F6E3A202533642E253033640A0065
:1027800047504753412073746174656D656E743AA8
:102790000A000000202D2048444F503A2025326482
:1027A0002E253032640A0000202D2056444F503A26
:1027B000202532642E253032640A0000202D20505E
:1027C000444F503A202532642E253032640A0000EE
:1027D000202D20466978206D6F64653A2025640AB3
:1027E000000000002D2049442773206F6620757378
:1027F000656420736174656C6C697465733A20005C
:1028000025642C0047504753562073746174656DDE
:10281000656E743A0A000000202D20536174656CC7
:102820006C6974657320696E20766965773A202536
:10283000640A00004E657720726563656976656499
:10284000206461746120686176656E27742076610A
:102850006C696420475053207369676E616C210A6C
:10286000000000007047FEE7FEE7FEE7FEE7704766
:1028700070477047704710B5FEF744FA10BD00006E
:102880000CB50022544900920192086840F480304F
:1028900008604FF4A043086800F4003001900098ED
:1028A000401C0090019810B900989842F3D1086834
:1028B000800334D50120019047484030026842F03F
:1028C000805202604548026842F440420260424839
:1028D000083002680260026842F400420260026846
:1028E00042F4A0520260031F3D4A1A600A6842F097
:1028F00080720A600A689201FCD53A4940F205727A
:102900000A60016821F003010160016841F00201E1
:1029100001600168C1F381010229FAD10CBD019265
:102920000CBD314810B5016841F4700101602A48BE
:10293000016841F001010160274A0021083211605D
:1029400002682A4B1A400260031D294A1A60026875
:1029500022F48022026020480C300160FFF790FFD3
:1029600021494FF000608039086010BD70B51A4DE4
:10297000083528681F4B204910F00C0004D05E1069
:10298000042803D0082803D00B601BE00E6019E078
:10299000114A121D1068C0F38054106800F03F0007
:1029A00014B1B6FBF0F001E0B3FBF0F0136812686D
:1029B000C3F388135843C2F30142521C5200B0FBC8
:1029C000F2F0086028680C4AC0F30310121D105C76
:1029D0000A68C2400A6070BD0038024000700040C2
:1029E00008544007003C024088ED00E0FFFFF6FE7F
:1029F000103000240024F400880000200FB41CB51F
:102A0000074B06AA7B4469460090059800F077F9C9
:102A10000020694600F086F91CBC5DF814FB00003C
:102A20001D03000070B5044685690068C10601D524
:102A3000302600E02026C00707D070BDD4E9012170
:102A400030469047206A401C20626D1EF6D570BD4E
:102A500070B5044685690078C00707D170BDD4E918
:102A6000012120209047206A401C20626D1EF6D56F
:102A700070BD00002DE9F04106460024106875295C
:102A8000314616A510D0AFF30080002802DA40428C
:102A900013A507E031688A0701D512A502E04907AE
:102AA00004D511A5012401E0AFF3008000210A2222
:102AB00006F1240709E0B0FBF2FCB0FBF2F302FBE5
:102AC0001C00303078541846491C0028F3D12346A6
:102AD0002A463046BDE8F04100F0B2B800000000E0
:102AE0002D0000002B000000200000002DE9F05F09
:102AF000894604464FF0000ADFF824B1FB44C0F8D1
:102B000020A02046E168884700287DD0252806D0EF
:102B1000D4E901219047206A401C2062F1E700259A
:102B20005F462046E16888472028064607DB312EAD
:102B300005D2B81910F8200C08B10543F1E7A80731
:102B400001D525F00405C4F81CA00027C4F818A07E
:102B50002A2E09D0304601F0C7F838B304EB8708B5
:102B6000303EC8F8186019E059F8041B204604EB01
:102B700087029161E1688847012F064618D1E06914
:102B8000002820DA25F020051DE0D8F8180000EB19
:102B9000800006EB40003038C8F818002046E16895
:102BA0008847064601F0A0F80028EED1012F0AD090
:102BB0002E2E08D12046E16888477F1C0646022F4A
:102BC00045F02005C4DBA069002803DA404245F047
:102BD0000105A061E80701D025F01005A6B1A6F116
:102BE0004100192802D8203645F400654A4631468E
:102BF000204625604D46FDF701FB60B1012807D056
:102C0000ED1D25F0070000E007E000F1080978E776
:102C100005F1040975E730467AE7206ABDE8F09FC0
:102C2000C61D000070477047704710B500F080F86F
:102C3000006810BD10B5044600F07AF8046010BDBD
:102C40002DE9F0470D4699469246044600F12408C6
:102C50000168880604D5E06921F01001216000E0D8
:102C60000120A84201DD471B00E00027A1697A1975
:102C700002EB0900081AA0612078C00602D42046A1
:102C8000FFF7D0FE002608E0D4E901211AF806007B
:102C90009047206A401C761C20624E45F4DB207869
:102CA000C0060AD52046FFF7BDFE06E0D4E90121A3
:102CB00030209047206A401C2062381EA7F101078F
:102CC000F4DC07E0D4E9012118F805009047206AF8
:102CD000401C2062281EA5F10105F3DC2046FFF709
:102CE000B7FE2078000602D50220BDE8F08701205B
:102CF000FBE7000001694A1C02610878704700B5D3
:102D00008FB0CDE901310021059105497944CDE924
:102D1000031011466846FFF7E9FE0FB000BD000042
:102D2000E5FFFFFF0A6802F8010B0A607047000028
:102D300000487047EC06002000487047EC06002071
:102D40007546FFF7F9FFAE4605006946534620F089
:102D50000700854618B020B5FDF778FABDE8204099
:102D60004FF000064FF000074FF000084FF0000B47
:102D700021F00701AC46ACE8C009ACE8C009ACE8FA
:102D8000C009ACE8C0098D4670470446AFF3008027
:102D90002046FDF747FA000001491820ABBEFEE7C8
:102DA00026000200704703B401984100009850EAE1
:102DB000C12018BF04204A0D18BF40F0010040F2A6
:102DC000FF72B2EB515F08BF40F00200012808BF5C
:102DD000052002B07047000070B59B482DED020B36
:102DE0002DED068B079D25F00044A04218DC974886
:102DF000844202DC0AD1069840B19DED060BBDEC81
:102E0000068B02B0BDE8704000F03ABF002DCCBF89
:102E10009FED8F0B9FED900BBDEC068B02B070BD4C
:102E20008F48A04215DD8F48A042D8BF4FF0FF3435
:102E300058DD9DED060B51EC100BFFF7B4FF042895
:102E400008BF00F041FF9DED060BBDEC068B02B004
:102E500070BD9DED060B51EC100B00F054FFCDE959
:102E6000060181489FED828BA0423CDD8248A04252
:102E70001FDD00249FED82AB9DED060B53EC1A2B5A
:102E800051EC100B00F08AFF9DED060B41EC190B85
:102E900053EC1A2B51EC100B01F0DAF953EC182B10
:102EA00001F0ACFB53EC192B01F020F8CDE9060141
:102EB00049E09DED060B012453EC182B51EC100B4F
:102EC00000F06CFF9DED060B41EC190B53EC182B39
:102ED00051EC100B01F092FB53EC192B01F006F8AA
:102EE000CDE906012FE06848A0421FDD02249FEDD6
:102EF000689B9DED060B53EC192B51EC100B01F068
:102F0000A7F953EC182B00F049FF9DED060B41EC9F
:102F1000180B53EC192B51EC100B01F06FFB53EC19
:102F2000182B00F0E3FFCDE906010CE09DED060B48
:102F3000032453EC102B9FED580B51EC100B00F0B9
:102F4000D5FFCDE906019DED060B53EC102B51EC9E
:102F5000100B01F07DF941EC180B53EC182B01F02C
:102F600077F941EC190B4E480621B0EE490AF0EE14
:102F7000690A784400F070FD53EC182B51EC100BEB
:102F800001F066F941EC180B4648B0EE490AF0EE44
:102F9000690A0521784400F05FFD53EC192B51ECD0
:102FA000100B01F055F941EC100B51EC180B53ECE0
:102FB000102B002C0EDA00F0F1FE9DED061B53ECF9
:102FC000112B01F045F99DED061B53EC112B01F07F
:102FD0003DFA35E000F0E2FE9DED061B53EC112BAF
:102FE00001F036F941EC100B2F48784400EBC40097
:102FF00090ED001B51EC100B53EC112B01F0FEFA7D
:103000009DED061B53EC112B01F0F8FA41EC100B6F
:103010002648784400EBC40090ED001B51EC100BE7
:1030200053EC112B01F012FA41EC100B002DA2BF52
:10303000BDEC068B02B070BD51EC100B00F06FFEC2
:1030400041EC100B01E70000000010440000F07F8D
:10305000182D4454FB21F93F182D4454FB21F9BF8E
:103060000000DC3F0000203E0000F33F00000000B5
:10307000000000000000F03F0000E63F00000000FC
:10308000000000000000004000800340000000003D
:10309000000000000000F83F000000000000F0BF4A
:1030A000CA190000801900000A190000C2180000A7
:1030B00070B56B4E2DED040B2DED028B82B0DDF85B
:1030C0001CC0DDE905235C422CF000411C4341EAB1
:1030D000D474049D22F00040B44205D86C422C43C5
:1030E00040EAD474B4420BD99DED061B9DED040B50
:1030F00002B0BDEC028B04B0BDE8704000F0CABD68
:10310000ACF14054A4F17F641C430BD0022404EAC8
:10311000AC7444EAD27405439FED538B9FED542B5E
:1031200007D015E09DED040B51EC100B00F0E3FD12
:1031300042E0002C11BF012C9DED040B02B0BDEC50
:10314000028B04BF04B070BD022C38D0032C3BD0DE
:103150000B439FED491B9FED4A0B0AD0B14218D19A
:10316000B04209D121F0804120F0804007910590C4
:103170000FE0002A15DA10E0434B7B44002C08BF17
:1031800093ED000B0DD0012C10D0022C17D0032C86
:103190001AD0B0421DD1002A03DAB0EE410AF0EE97
:1031A000610A02B0BDEC028B04B070BD93ED000B60
:1031B00051EC100B00F0B3FD41EC100BF1E7B0EE59
:1031C000480AF0EE680AECE7B0EE420AF0EE620A56
:1031D000E7E7401A00153C28C8BF8DED000B19DC4D
:1031E000BCF1000FBEBF10F13C0F9FED290B8DED20
:1031F000000B0FDB9DED060B53EC102B9DED040B2C
:1032000051EC100B00F072FE00F07DFD00F073FD3C
:10321000CDE90001002C08BF9DED000BC1D0012CB1
:1032200010D0022C9FED1C0B53EC102B9DED000BCE
:1032300051EC100B0DD001F0E1F953EC182B01F01B
:10324000DDF9B9E7019880F0004001909DED000B99
:10325000A7E701F0D3F953EC182B01F0F7F8ABE72F
:103260000000F07F00000000182D4454FB210940AD
:10327000182D4454FB2109C0182D4454FB21F9BFDB
:10328000182D4454FB21F93F2218000000000000D3
:103290000000000000000000075C143326A6A13CDB
:1032A00010B52F499FED2C1B2DED020B84B0059816
:1032B00020F000408842D8BF9DED040B2DDD294948
:1032C000884209D1049840B94FF00100FFF7B2FCE1
:1032D00000F0EAFC06B010BD05DB9DED040B00F02C
:1032E000CFFC06B010BD68469DED040B00F0E0F881
:1032F00010F0030004BF9DED021B9DED000B0CD0F0
:1033000001280ED09DED021B9DED000B022817D069
:10331000012000F01DFC06B010BD00F0E5FA06B07B
:1033200010BD9DED021B9DED000B012000F010FC77
:1033300051EC100B00F0F3FC06B041EC100B10BD8B
:1033400000F0D2FA51EC100B00F0E9FC06B041ECB1
:10335000100B10BD00000000000000000000000085
:10336000FB21E93F0000F07F10B52F499FED2C1B9A
:103370002DED020B84B0059820F000408842DCBFA0
:1033800000209DED040B32DD2849884209D10498C4
:1033900040B94FF00100FFF74DFC00F085FC06B08E
:1033A00010BD05DB9DED040B00F06AFC06B010BDFE
:1033B00068469DED040B00F07BF810F0030011D07F
:1033C000012818D09DED021B9DED000B02281AD09C
:1033D00000F08AFA51EC100B00F0A1FC06B041ECB1
:1033E000100B10BD9DED021B9DED000B012000F0A8
:1033F000AFFB06B010BD9DED021B9DED000B00F074
:1034000073FA06B010BD012000F0A2FB51EC100BC6
:1034100000F085FC06B041EC100B10BD0000000070
:103420000000000000000000FB21E93F0000F07FE9
:1034300000B52DED048BB0EE409AF0EE609A83B0AB
:1034400051EC190B01F00EF841EC180B18EE100AB4
:1034500018EE901A8DED008B002818BF012008434C
:1034600020F00040C0F17F6000F1E040C00F14D0B8
:1034700019EE101A19EE900A8DED009B002918BF65
:103480000121084320F00040C0F17F6000F1E040DE
:10349000C00F04BF0120FFF7CDFBB0EE480A03B018
:1034A000F0EE680ABDEC048B00BD000000000000D7
:1034B0002DE9F14F04462DED020B2DED088B8AB05E
:1034C0009FEDE70B80ED020B139EE74826F00045C9
:1034D00085420ADC9DED120B002084ED000B0AB042
:1034E000BDEC088B03B0BDE8F08FE0489FEDE0AB8A
:1034F0009FEDE1BBA84247DDE14F9FEDE39B9FEDD0
:10350000E48B9DED120B53EC1A2B51EC100B002E9B
:103510001CDD01F073F841EC100BBD4208D053ECF8
:103520001B2B51EC100B01F069F8C4E900010BE012
:1035300053EC192B51EC100B01F060F853EC182BE5
:1035400001F05CF8C4E900010120C8E700F026FCA6
:1035500041EC100BBD4208D053EC1B2B51EC100B6F
:1035600000F01CFCC4E900010BE053EC192B51ECFA
:10357000100B00F013FC53EC182B00F00FFCC4E907
:1035800000014FF0FF30AAE7C348A84279DB9DED68
:10359000120B51EC100B00F0B6FB41EC180B9FED39
:1035A000C00B53EC102B00F053FE9FEDBF1B53ECF0
:1035B000112B00F0F3FB00F0F1FD074600F01DFEBB
:1035C00041EC190B53EC1A2B00F042FE53EC182B74
:1035D00000F03CFF41EC180B53EC1B2B51EC190B8A
:1035E00000F036FEDFF8C8A241EC100B4FEA155888
:1035F0000125FA4453EC102B51EC180B00F0FEFFA0
:10360000032DC4E900013DD0C1F30A5005EB45117B
:10361000A8EB00001139814234DA0AEB051BB0EE49
:1036200048AA9BED000BF0EE68AA53EC102B51EC6E
:10363000190B00F00DFE41EC1B0B51EC1A0B53EC77
:103640001B2B00F0DBFF41EC180B51EC1A0B53EC79
:10365000182B00F0D3FF53EC1B2B00F0CFFF9BED9A
:10366000020B41EC1A0B53EC102B51EC190B00F030
:10367000EFFD53EC1A2B00F0C1FF41EC100B6D1C59
:10368000B8E70EE0002EA8BF3846BFF628AF94ED8D
:10369000000B51EC100B00F042FBC4E90001784232
:1036A0001DE7C6F3130040F4801EC6F30A50A0F2D3
:1036B000F530471100F01F05C5F12000DDF848B0D6
:1036C00008900020069007900520EC467949002DCF
:1036D00007EB0002794408BF51F8221009D051F8D5
:1036E000223001EB8201AB404A68089922FA01F1CD
:1036F0001943A1FB0E26A1FB0B131A449A4234BFB7
:103700000123002303EB06080CEB8003D3E901A699
:103710000E448E4234BF0121002192448A4411B1EB
:10372000924502D903E0924501D2012100E0002137
:10373000C3E901A641444CF82010011EA0F101008C
:10374000C4DC029800F10050850F0298DDE90367A0
:103750008000DDF8148000F050FD41EC1A0B30467B
:1037600000F062FD9FED541B53EC112B00F070FD37
:1037700041EC1B0B384600F057FD9FED511B53ECFD
:10378000112B00F065FD41EC180B404600F04CFD9C
:103790009FED4D1B53EC112B00F05AFD41EC190B22
:1037A00051EC180B53EC192B00F0F8FA53EC1B2BCF
:1037B00000F0F4FA53EC1A2B00F0F0FACDE908010E
:1037C000002008909DED080B53EC1A2B51EC100BC8
:1037D00000F014FF53EC1B2B00F010FF53EC182BE0
:1037E00000F00CFF53EC192B00F030FE9FED381B5E
:1037F00053EC112B00F02CFD9FED370B41EC180B17
:1038000053EC102B9DED080B51EC100B00F020FD3C
:1038100053EC182B00F0C2FA9FED310B41EC180B62
:1038200053EC102B9DED080B51EC100B00F010FD2C
:1038300053EC182B00F0B2FA41EC100B139810F077
:10384000004F06D06D4251EC100B00F068FA41ECCD
:10385000100B284684ED000B41E60000000000003C
:103860000000000000000000FB21E93F7CD902407D
:1038700000004054FB21F93F3163621A61B4D03D2E
:10388000FB21F93F000000000000601A61B4D03D48
:103890007370032E8A19A33BFB21394100000000FD
:1038A00083C8C96D305FE43F000000000000E03FC6
:1038B000B213000000130000000000000000103EE2
:1038C000000000000000103C000000000000103A62
:1038D000182D4454FB21F93D3326A611460B113C0B
:1038E00000000054FB21F93D10B52DED040B2DED2A
:1038F000088B82B0B0EE419AF0EE619A0B9820F0FE
:1039000000449FED4BABB4F1795F11DA9DED0A0BEA
:1039100051EC100B00F042FC002801BFB0EE4A0A47
:10392000F0EE6A0A02B0BDEC088B04BF04B010BD13
:103930009DED0A0B53EC102B51EC100B00F088FCA2
:1039400041EC180B3C480621B0EE480AF0EE680A3C
:10395000784400F081F853EC182B51EC100B00F078
:1039600077FC9DED0A0B41EC1B0B53EC192B51EC32
:10397000100B00F06DFC41EC190B53EC1B2B51ECC0
:10398000180B00F065FC53EC192B00F037FE9FED8F
:103990002C0B41EC190B53EC102B51EC180B00F0D5
:1039A00057FC41EC100B2848844210DA53EC192BD9
:1039B00051EC100B00F022FE53EC1A2B00F046FDE8
:1039C00041EC100B02B0BDEC088B04B010BD1F48D9
:1039D000A042BCBF9FED1E1B8DED001B06DBA4F5B6
:1039E00000100190002000909DED001B51EC100B89
:1039F00053EC112B00F002FE9DED000B41EC180B77
:103A000053EC102B51EC1A0B00F0F8FD41EC1A0BA3
:103A100053EC192B51EC180B00F0F0FD53EC1A2B62
:103A200000F014FD41EC100BCCE70000000000009A
:103A3000000000000000F03F1C100000000000002B
:103A4000000000000000E03F3333D33F0000E93FB7
:103A5000000000000000D23F70B504462DED028B3F
:103A60004D1E00EBC500B0EE408AF0EE608A90ED8E
:103A7000000B35F0060017D053EC182B51EC100B4F
:103A800000F0E6FB41EC100B6D1E04EBC50090ED61
:103A9000001B51EC100B53EC112B00F07FF941ECA3
:103AA000100B35F00600E7D1022D36D0042D1CD0C6
:103AB000062D1CBFBDEC028B70BD53EC182B51ECD6
:103AC000100B00F0C5FB94ED0A1B53EC112B00F01A
:103AD00065F953EC182B00F0BBFB94ED081B53EC7D
:103AE000112B00F05BF941EC100B53EC182B51EC4F
:103AF000100B00F0ADFB94ED061B53EC112B00F006
:103B00004DF953EC182B00F0A3FB94ED040B53EC90
:103B1000102B00F043F941EC100B53EC182B51EC37
:103B2000100B00F095FB94ED021B53EC112B00F0F1
:103B300035F953EC182B00F08BFB94ED001B53EC84
:103B4000112B00F02BF9BDEC028B41EC100B70BD7A
:103B500031B504462DED040B2DED0A8BB0EE41BAC4
:103B6000F0EE61BA0B989DED0A0B20F00040B0F129
:103B7000795F0DDA51EC100BFFF715F9042808BF37
:103B800000F0A2F89DED0A0BBDEC0A8B05B030BD2C
:103B900053EC102B51EC100B00F05AFB41EC180BBE
:103BA0009DED0A0B53EC182B51EC100B00F050FB61
:103BB00041EC190B2C48B0EE480AF0EE680A0521DA
:103BC0007844FFF749FF9FED2ACBB0EE40AAF0EE14
:103BD00060AA9CB353EC1C2B51EC190B00F038FB82
:103BE00041EC1C0B53EC1A2B51EC190B00F030FB81
:103BF0009FED210B41EC190B53EC102B51EC1B0BDF
:103C000000F026FB53EC192B00F0F8FC53EC182BBA
:103C100000F01EFB53EC1B2B00F0F0FC53EC1C2BB4
:103C200000F0ECFC9DED0A1B53EC112B00F00EFC98
:103C3000BDEC0A8B05B041EC100B30BDFFE753EC37
:103C40001A2B51EC180B00F003FB53EC1C2B00F06B
:103C5000A5F853EC192B00F0FBFA9DED0A1B53EC71
:103C6000112B00F09BF8E3E7AC0E00000000000011
:103C7000495555555555C5BF000000000000E03FAF
:103C800010B553EC102B51EC100B00F087F841EC01
:103C9000100B10BD10B553EC112B51EC100B00F0B4
:103CA0007DF841EC100B10BD9FED050B10B553ECEA
:103CB000102B51EC100B00F019F941EC100B10BD5A
:103CC00000000000000000009FED050B10B553EC54
:103CD000102B51EC100B00F0BBFA41EC100B10BD97
:103CE000000000000000001030380A2801D2012036
:103CF00070470020704710B541EC100BFFF76CF8CF
:103D000051EC100B10BD82B0CDE9000121F0004054
:103D100001909DED000B02B051EC100B704781F04B
:103D20000041704780F00040704721F0004170472B
:103D300020F000407047000021F00042A2F16052E4
:103D4000B2F5801F01F0004328BFD2F17F6C0BD980
:103D50005FEA001C43EAC20242EB507018BF704792
:103D600028BF20F001007047B2F5801FBCBF184685
:103D700070474FEA410C1CF5001F02D2084600F0C4
:103D80009DBD70B500F00EFB00000089FFF7F6BF87
:103D90004FF00040A0F580007047000010B591EA98
:103DA000030F48BF83F0004300F13084841A71EBA5
:103DB000030C05D2121943EB0C03001B61EB0C0141
:103DC000DFF824E14FEA1154A4EB135C1EEA430F21
:103DD00018BF9EEA445F73D023EA0E03DCF1200E85
:103DE00021EA045143F4801332D322FA0CFE10EB83
:103DF0000E0023FA0CFE41EB0E01CCF1200E03FA6B
:103E00000EFE10EB0E0051F10001B1F5801FCCF158
:103E1000200E32D201EB045112FA0EF2BDE810402E
:103E200058BF7047401C38BF5FEA420218BF704756
:103E3000002814BF20F0010041F100014FEA4103C6
:103E400013F5001F38BF7047A1F1C04100F0F8BA68
:103E5000012A43EB0302ACF1200CDCF11F0E32BF50
:103E60004FF0000E23FA0CF310EB030041EB04516A
:103E7000B4EB115FD0D0A1EB045101F580114908DA
:103E80005FEA300001EB04510ED350F1000038BF5F
:103E900012FA0EFE08D1BDE81040C9E7401C38BF39
:103EA0005FEA4202CAD1C3E7BDE810404FEA4103CE
:103EB00013F5001F38BF7047A1F1C04100F0C0BA30
:103EC0009EEA445F08D011EA5E0FBDE8104004BFCF
:103ED00001F0004100207047BDE8104070B500F0CF
:103EE00061FA00BF64FBBE3E0000E0FF2DE9C04167
:103EF00030B4DFF8A0C23CEA111418BF3CEA131436
:103F000000F0EC8081EA03051CEA111444EAD57440
:103F100018BF1CEA131500F0C780A4EB05044FF08E
:103F2000004545EAC12145EAC32341EA505143EA2D
:103F3000525304F17F74994204F500344FEAC020D3
:103F40004FEAC22208BF904200F09C804FEA1365FE
:103F50000FF24016765D4FEA134506FB05F7C7F1F1
:103F6000807706FB07F74FEAD737A7FB036876424F
:103F7000C8F58038A7FB06CE38BFA8F1010807FBBB
:103F800008E64FF0000EA6FB028CE6FB03CEDCF148
:103F9000000CCEF1004E38BFAEF1010EA6FB0C585E
:103FA0004FF000074FF00005E6FB0E87A1FB08C6A7
:103FB000A0FB07CE16EB0E0645F10005E1FB0765F9
:103FC00015F1E04E7EBFA4F580345FEA46066D41F0
:103FD00016F1800745F100054FEA17274FEA0666FC
:103FE00047EA0567A6F1DE46B6F1805F4FEA152580
:103FF0001FD9384624F0010C05EBC471BCF1FE6FEB
:1040000001EB0C1102D8F0BCBDE8008124425CBF7A
:1040100001F5801E9EEAC47F02D4F0BCBDE8008199
:10402000244238D4F0BCA1F1C041BDE8004100F009
:1040300007BA4FEAD22242EA43524FEAD323A7FB00
:1040400002864FEAD02040EA415007FB03661EEA91
:104050000E0F4FEAD12105FB026658BFA6EB0056B2
:10406000B6EB00564FEA520E4EEAC37E18EB0E0E28
:1040700056EB530EBDD518EB02085E417F1C55F17F
:104080000005B6E74FF480154FF000074FF000062B
:104090004FF00008ADE7F0BC4FF0000001F1C04167
:1040A00001F00041BDE8008111EA0C1F0CEA131574
:1040B00000D00CE013EA0C1F00F025804FF0000048
:1040C000F0BC81EA030101F00041BDE80081F0BCD1
:1040D000BDE8004181EA030100F0B2B9F0BCBDE8DF
:1040E000004170B500F05EF9097EFC3E00F007B8B3
:1040F00081EA03014FF0000001F00041704781EABE
:10410000030100F09DB9F0BCBDE800414FF0000094
:1041100021497047FFFDFBF9F7F5F4F2F0EEEDEB06
:10412000E9E8E6E4E3E1E0DEDDDBDAD8D7D5D4D3B5
:10413000D1D0CFCDCCCBCAC8C7C6C5C4C2C1C0BF01
:10414000BEBDBCBBBAB9B8B7B6B5B4B3B2B1B0AF07
:10415000AEADACABAAA9A8A8A7A6A5A4A3A3A2A1EB
:10416000A09F9F9E9D9C9C9B9A99999897979695A6
:1041700095949393929191908F8F8E8E8D8C8C8B42
:104180008B8A8989888887878685858484838382CA
:10419000828181800000FF070000F87F4FEA410321
:1041A0004FEA5353A3F58063D3F11E03C8BFD3F185
:1041B000210C0CDD4FF0004242EAC12242EA50528B
:1041C00032FA03FC8CEAE17CACEBE1707047102B17
:1041D000C4BF0020704703F5787CBCF1FF3F04D0DA
:1041E0006FF0004282EA2100704770B500F0DAF803
:1041F0004992248000207047F2E710F0004248BF47
:104200004042B0FA80F310FA03F10AD0C3F11D0363
:1042100003F580634FEA415002EB035202EBD121D8
:1042200070474FF000007047B0FA80F310FA03F1C6
:104230000AD0C3F11D0303F580634FEA41504FEAF2
:10424000035202EBD12170474FF00000704700008D
:10425000DFF848C170B51CEA111E1EBF1CEA131519
:104260009EEA0C0F95EA0C0F00F06F8081EA0304C0
:1042700023EA4C134EEAD47E21EA4C1141F480111A
:1042800043F48013AE44A1FB024CA0FB0365AEF1E6
:104290007F7E361955EB0C05A1FB034C4CF1000356
:1042A000A0FB021C16EB0C06654153F1000309420A
:1042B00018BF46F0010613F4007F0BD14FEA03311B
:1042C0004FEA0530340341EA155140EA16506FF0C9
:1042D00003020AE04FEAC3214FEAC520F40241EA93
:1042E000555140EA56506FF0020202EB2E4201EBAC
:1042F000025585EACE710AD05FEA440C18BF24F05B
:10430000004450F1000041F1000120EAD47040F275
:10431000FE7C624500D270BDA84214BF4FF08044BD
:104320004FF04044002E08BF0024BEF1806FA8BFAC
:10433000A1F1C041BDE8704080F282804FF00000E2
:1043400001F1C04101F0004170479EEA0C0F0CEAF8
:10435000131518BF95EA0C0F06D04FF0000081EA44
:10436000030E0EF0004170BD00F01CF88900013E04
:1043700000F007B800F009B84FEA430C5FEA5C5C54
:1043800008D081EA030100F05BB84FEA410C5FEA14
:104390005C5CF6D14FF00000014970470000FF0758
:1043A0000000F87F0EF1020E2EF0030E5EF8046B93
:1043B000364205D4012A43EB030515F5001F12D838
:1043C000012841EB010C1CF5001F0CD80ED14FEA5F
:1043D000D17C15F5001F0CEB4C0C0CF1020C08BF46
:1043E0004CEBD37C04E04FF0080C01E04FEAD37CA7
:1043F0000CEB4C0526FA05F606F00706B6F1040CA0
:1044000006D20EEB860CBDE870404CF0010C604704
:10441000DFE80CF0090B02024FF000414FF0000002
:10442000A1F5002170BD19461046012851EB010489
:1044300018BFD4F5001484BF002001F0004170BD06
:104440000808A0F500114FEA3101704791EA030F07
:1044500010B581F000413FF5A9AC83F0004300F0B6
:10446000D5B800002DE9F04101F5801CBCF5001F16
:10447000C0F2A9804FEA115C21EA0C510CF1FD0C4D
:1044800041F480115FEA5C0C0CF5C07C01D3400064
:10449000494130A4890241EA905187028E0E0A0CEC
:1044A000A45D04FB04F602FB06F6C6F14046A4FB3D
:1044B0000662F60D46EA422606FB06F4A4FB01233B
:1044C0005242C3F1404338BF5B1EA6FB02420024A8
:1044D000E6FB0324D20B42EA4446A6FB0623A1FBDB
:1044E00002E2A3FB07E4E3FB61426442C2F1404EF7
:1044F00038BFAEF1010EA6FB04234FF00002E6FB2D
:104500000E32A2FB03463400E2FB6264A1FB06E626
:10451000A4FB07E8E4FB61687642C8F1405838BF65
:10452000A8F10108A2FB06E4A3FB08E5E2FB68543E
:10453000A1FB05E6A7FB04E8E1FB648618F1200572
:1045400056F10006A809A8F11B08B10908F03F08B8
:10455000B8F10A0F40EA86601CD901EB0C51BDE8A6
:10456000F08100BFFCF5EEE8E2DDD8D3CFCBC7C3C6
:10457000C0BDB9B6B4B1AEACA9A7A5A3A19F9D9B80
:104580009A9896959392908F8D8C8B898887868543
:1045900084838281A0FB006800FB01F208EB4208E3
:1045A000B8EB872807D5341858EB0104D5D5401C43
:1045B00051F10001D1E7341A78EB0104CDD4401E4B
:1045C00071F10001C9E75FEA4C0C5FEA9C5C0DD118
:1045D00005D34FF0000001F00041BDE8F081BDE8D7
:1045E000F04170B5FFF7DEFE6DDBFFBEBDE8F041C8
:1045F0004FF00000004970470000F87F10B591EAC5
:10460000030F48BF83F000433FF5D0AB841A71EB32
:10461000030C07D212198CF0004C43EB0C03001B67
:1046200061EB0C01DFF8A4E14FEA1154A4EB135C39
:104630001EEA430F18BF9EEA445F00F0B08023EAF1
:104640006E03524221EA0451C3EB6E0338BF5B1E76
:10465000DCF1200E25D322FA0CFE10EB0E0043FAFB
:104660000CFE41EB0E01CCF1200E03FA0EFE10EB16
:104670000E0051F10001CCF1200E29D412FA0EF2F5
:1046800001EB0451BDE8104058BF7047401C1CBFEF
:10469000B2F1004F704700280CBF491C20F0010008
:1046A000704712EB020E43EB030218BF4FF0010EEE
:1046B0004EEA4202ACF1200CDCF11E0E54D943FA52
:1046C0000CFE10EB0E0051F1FF31CCF11E0ED5D5D2
:1046D0000EF1010E12FA0EFE404141EB010101EB19
:1046E000445C5FEA5C5C10D910EBDE7001EB0451B6
:1046F00038BFBEF1004FBDE8104018BF704700281A
:104700000CBF491C20F00100704730D24FEAD42C76
:1047100011F5001124F400641BD0B1FA81F20B3AB8
:10472000A41AA41ED2F12003914030FA03F31943D6
:10473000904001EBCC71002C01EB0451BDE810401E
:10474000A8BF704701F1C0414FF0000001F00041E7
:104750007047B0FA80F310FA03F100D110BDE41AEB
:10476000173C4805C90AE4E701EB045110BD4910A4
:1047700001EB0451BDE810404FEA300002E04FF079
:10478000000170474A0008BF0042F8D0B2F5001F90
:1047900028BF704701F000414FF0000070479EEACB
:1047A000445F07D011EA5E0FBDE8104004BF00214E
:1047B00000207047BDE8104070B5FFF7F3FD00BF63
:1047C00040DFF63E83F00041104670470000E0FFF6
:1047D00043004FEAD30C4FEA3C0C43401FBF400755
:1047E0000CF1605113F0FE4F70471CF0006F03D1C5
:1047F00000200CF0004170470CF0004343EA507079
:1048000010B540EACC0000F00EF800BF00000092A6
:104810004FEA0001FFF714BE4FF000414FF00000D7
:10482000A1F5002170470EF1020E2EF0030E5EF886
:10483000044B244204D44FEA4102B2F17F4F11D815
:104840004FEA4003B3F17F4F0CD80ED14FEAD07C32
:10485000B2F17F4F0CEB4C0C0CF1020C08BF4CEB8F
:10486000D17C04E04FF0080C01E04FEAD17C0CEB66
:104870004C0324FA03F404F00704B4F1040C06D248
:104880000EEB840CBDE810404CF0010C6047DFE8F3
:104890000CF0070802024FF00040A0F5800010BDA8
:1048A0000846420018BFD2F1807288BF00F0004075
:1048B00010BD4FF04070E1EE100A7047FF2141EA51
:1048C000D050C00570470400000800000000000040
:1048D00000020001000010004FBB610567ACDD3F26
:1048E000182D4454FB21E93F9BF681D20B73EF3F17
:1048F000182D4454FB21F93FE2652F227F2B7A3C8F
:10490000075C143326A6813CBDCBF07A8807703C47
:10491000075C143326A6913CC4EB98999999C9BFBA
:10492000711623FEC671BCBF6D9A74AFF2B0B3BFEF
:104930009AFDDE522DDEADBF2F6C6A2C44B4A2BFAF
:104940000D5555555555D53FFF8300922449C23F1B
:104950006E204CC5CD45B73F513DD0A0660DB13F4F
:10496000EB0D76244B7BA93F11DA22E33AAD903F61
:104970004C5555555555A53F7751C1166CC156BF7D
:104980009015CB19A001FA3EAD529C804F7E92BE8D
:10499000C4B1B4BD9EEE213ED43888BEE9FAA8BDAC
:1049A000000000000000000000004054FB21F93F1F
:1049B0003163621A61B4D03D0000601A61B4D03D29
:1049C0007370032E8A19A33B0000002E8A19A33BA3
:1049D000C14920259A837B390000000000000000B7
:1049E0006E83F9A22915444ED15727FCC0DD34F55A
:1049F000999562DB4190433CAB6351FE61C5BBDEE0
:104A00003A6E24B7E0D24D42EA2E49061C92D109F3
:104A10001CEB1DFE3EA729B1F53582E88444BB2E70
:104A200026709CE9417E5FB439D69139F4395383BD
:104A30008B5F849C3B28F9BDFF97F81F0F9805DE1C
:104A40008B112FEF1F6D0A5ACF7E366DB709CB271A
:104A5000663F464F2DEA5F9EC7BA27757BF1E5EBAF
:104A6000F739073DEA92528AB15FFB6B085D8D1FF3
:104A7000A6F810111111813FD561C119A0012ABFFB
:104A80007DFEB157E31DC73EEB9C2B8AE6E55ABE7F
:104A90007CD5CF5A3AD9E53D4D6F737420475053BA
:104AA0002072656365697665727320686173206240
:104AB000792064656661756C742039363030206207
:104AC0006175647261746520616E642031487A207A
:104AD0007265667265736820726174652E20436822
:104AE00065636B20796F75722073657474696E6786
:104AF00073210A0A000000000A4E6F7468696E672D
:104B000020726563656976656420616674657220EC
:104B100033207365636F6E64732E20497320796F41
:104B200075722047505320636F6E6E6563746564C1
:104B300020616E64206261756472617465207365C2
:104B40007420636F72726563743F0A006C4B0008D7
:104B5000000000209C000000C4010008084C000870
:104B60009C000020B40C0000E001000800000000E0
:104B70000102030401020304060708090000000003
:104B80000000000000000000000000000000000025
:104B9000000000009C000020000100000000000058
:104BA0009C01002000010000000000009C02002089
:104BB00000010000000000009C0300200001000034
:104BC000000000009C040020000100000000000024
:104BD0009C0500200001000000000000040000000F
:104BE00000000000000000000000000000000000C5
:104BF00000000000007A030A00000000000000002E
:084C0000010203040607080984
:040000050800018965
:00000001FF
